{
  "contractName": "PolkaBridgeStaking",
  "abi": [
    {
      "inputs": [
        {
          "internalType": "uint256",
          "name": "_startBlock",
          "type": "uint256"
        }
      ],
      "stateMutability": "nonpayable",
      "type": "constructor"
    },
    {
      "anonymous": false,
      "inputs": [
        {
          "indexed": true,
          "internalType": "address",
          "name": "user",
          "type": "address"
        },
        {
          "indexed": true,
          "internalType": "uint256",
          "name": "pid",
          "type": "uint256"
        },
        {
          "indexed": false,
          "internalType": "uint256",
          "name": "amount",
          "type": "uint256"
        }
      ],
      "name": "Deposit",
      "type": "event"
    },
    {
      "anonymous": false,
      "inputs": [
        {
          "indexed": true,
          "internalType": "address",
          "name": "user",
          "type": "address"
        },
        {
          "indexed": true,
          "internalType": "uint256",
          "name": "pid",
          "type": "uint256"
        },
        {
          "indexed": false,
          "internalType": "uint256",
          "name": "amount",
          "type": "uint256"
        }
      ],
      "name": "EmergencyWithdraw",
      "type": "event"
    },
    {
      "anonymous": false,
      "inputs": [
        {
          "indexed": true,
          "internalType": "address",
          "name": "previousOwner",
          "type": "address"
        },
        {
          "indexed": true,
          "internalType": "address",
          "name": "newOwner",
          "type": "address"
        }
      ],
      "name": "OwnershipTransferred",
      "type": "event"
    },
    {
      "anonymous": false,
      "inputs": [
        {
          "indexed": true,
          "internalType": "address",
          "name": "user",
          "type": "address"
        },
        {
          "indexed": true,
          "internalType": "uint256",
          "name": "pid",
          "type": "uint256"
        },
        {
          "indexed": false,
          "internalType": "uint256",
          "name": "amount",
          "type": "uint256"
        }
      ],
      "name": "Withdraw",
      "type": "event"
    },
    {
      "inputs": [],
      "name": "isOwner",
      "outputs": [
        {
          "internalType": "bool",
          "name": "",
          "type": "bool"
        }
      ],
      "stateMutability": "view",
      "type": "function",
      "constant": true
    },
    {
      "inputs": [],
      "name": "name",
      "outputs": [
        {
          "internalType": "string",
          "name": "",
          "type": "string"
        }
      ],
      "stateMutability": "view",
      "type": "function",
      "constant": true
    },
    {
      "inputs": [],
      "name": "owner",
      "outputs": [
        {
          "internalType": "address",
          "name": "",
          "type": "address"
        }
      ],
      "stateMutability": "view",
      "type": "function",
      "constant": true
    },
    {
      "inputs": [],
      "name": "renounceOwnership",
      "outputs": [],
      "stateMutability": "nonpayable",
      "type": "function"
    },
    {
      "inputs": [],
      "name": "startBlock",
      "outputs": [
        {
          "internalType": "uint256",
          "name": "",
          "type": "uint256"
        }
      ],
      "stateMutability": "view",
      "type": "function",
      "constant": true
    },
    {
      "inputs": [],
      "name": "totalUser",
      "outputs": [
        {
          "internalType": "uint256",
          "name": "",
          "type": "uint256"
        }
      ],
      "stateMutability": "view",
      "type": "function",
      "constant": true
    },
    {
      "inputs": [
        {
          "internalType": "address",
          "name": "newOwner",
          "type": "address"
        }
      ],
      "name": "transferOwnership",
      "outputs": [],
      "stateMutability": "nonpayable",
      "type": "function"
    },
    {
      "inputs": [
        {
          "internalType": "uint256",
          "name": "",
          "type": "uint256"
        },
        {
          "internalType": "address",
          "name": "",
          "type": "address"
        }
      ],
      "name": "userInfo",
      "outputs": [
        {
          "internalType": "uint256",
          "name": "amount",
          "type": "uint256"
        },
        {
          "internalType": "uint256",
          "name": "rewardDebt",
          "type": "uint256"
        },
        {
          "internalType": "uint256",
          "name": "rewardClaimed",
          "type": "uint256"
        },
        {
          "internalType": "uint256",
          "name": "lastBlock",
          "type": "uint256"
        },
        {
          "internalType": "uint256",
          "name": "beginTime",
          "type": "uint256"
        },
        {
          "internalType": "uint256",
          "name": "endTime",
          "type": "uint256"
        }
      ],
      "stateMutability": "view",
      "type": "function",
      "constant": true
    },
    {
      "inputs": [],
      "name": "poolLength",
      "outputs": [
        {
          "internalType": "uint256",
          "name": "",
          "type": "uint256"
        }
      ],
      "stateMutability": "view",
      "type": "function",
      "constant": true
    },
    {
      "inputs": [
        {
          "internalType": "uint256",
          "name": "_allocPoint",
          "type": "uint256"
        },
        {
          "internalType": "contract IERC20",
          "name": "_stakeToken",
          "type": "address"
        },
        {
          "internalType": "contract IERC20",
          "name": "_rewardToken",
          "type": "address"
        },
        {
          "internalType": "uint256",
          "name": "_rewardPerBlock",
          "type": "uint256"
        },
        {
          "internalType": "uint256",
          "name": "_endDate",
          "type": "uint256"
        },
        {
          "internalType": "bool",
          "name": "_withUpdate",
          "type": "bool"
        }
      ],
      "name": "addPool",
      "outputs": [],
      "stateMutability": "nonpayable",
      "type": "function"
    },
    {
      "inputs": [
        {
          "internalType": "uint256",
          "name": "_pid",
          "type": "uint256"
        },
        {
          "internalType": "uint256",
          "name": "_allocPoint",
          "type": "uint256"
        },
        {
          "internalType": "uint256",
          "name": "_rewardPerBlock",
          "type": "uint256"
        },
        {
          "internalType": "uint256",
          "name": "_endDate",
          "type": "uint256"
        },
        {
          "internalType": "bool",
          "name": "_withUpdate",
          "type": "bool"
        }
      ],
      "name": "setPool",
      "outputs": [],
      "stateMutability": "nonpayable",
      "type": "function"
    },
    {
      "inputs": [
        {
          "internalType": "uint256",
          "name": "_fromBlock",
          "type": "uint256"
        },
        {
          "internalType": "uint256",
          "name": "_toBlock",
          "type": "uint256"
        }
      ],
      "name": "getMultiplier",
      "outputs": [
        {
          "internalType": "uint256",
          "name": "",
          "type": "uint256"
        }
      ],
      "stateMutability": "view",
      "type": "function",
      "constant": true
    },
    {
      "inputs": [
        {
          "internalType": "uint256",
          "name": "_pid",
          "type": "uint256"
        }
      ],
      "name": "getTotalTokenStaked",
      "outputs": [
        {
          "internalType": "uint256",
          "name": "",
          "type": "uint256"
        }
      ],
      "stateMutability": "view",
      "type": "function",
      "constant": true
    },
    {
      "inputs": [
        {
          "internalType": "uint256",
          "name": "_pid",
          "type": "uint256"
        },
        {
          "internalType": "address",
          "name": "_user",
          "type": "address"
        }
      ],
      "name": "pendingReward",
      "outputs": [
        {
          "internalType": "uint256",
          "name": "",
          "type": "uint256"
        }
      ],
      "stateMutability": "view",
      "type": "function",
      "constant": true
    },
    {
      "inputs": [],
      "name": "massUpdatePools",
      "outputs": [],
      "stateMutability": "nonpayable",
      "type": "function"
    },
    {
      "inputs": [
        {
          "internalType": "uint256",
          "name": "_pid",
          "type": "uint256"
        }
      ],
      "name": "updatePool",
      "outputs": [],
      "stateMutability": "nonpayable",
      "type": "function"
    },
    {
      "inputs": [
        {
          "internalType": "uint256",
          "name": "_pid",
          "type": "uint256"
        },
        {
          "internalType": "uint256",
          "name": "_amount",
          "type": "uint256"
        }
      ],
      "name": "deposit",
      "outputs": [],
      "stateMutability": "nonpayable",
      "type": "function"
    },
    {
      "inputs": [
        {
          "internalType": "uint256",
          "name": "_pid",
          "type": "uint256"
        },
        {
          "internalType": "uint256",
          "name": "_amount",
          "type": "uint256"
        }
      ],
      "name": "withdraw",
      "outputs": [],
      "stateMutability": "nonpayable",
      "type": "function"
    },
    {
      "inputs": [
        {
          "internalType": "uint256",
          "name": "_pid",
          "type": "uint256"
        }
      ],
      "name": "emergencyWithdraw",
      "outputs": [],
      "stateMutability": "nonpayable",
      "type": "function"
    },
    {
      "inputs": [
        {
          "internalType": "uint256",
          "name": "_pid",
          "type": "uint256"
        }
      ],
      "name": "getPoolInfo",
      "outputs": [
        {
          "internalType": "uint256",
          "name": "",
          "type": "uint256"
        },
        {
          "internalType": "uint256",
          "name": "",
          "type": "uint256"
        },
        {
          "internalType": "uint256",
          "name": "",
          "type": "uint256"
        },
        {
          "internalType": "uint256",
          "name": "",
          "type": "uint256"
        },
        {
          "internalType": "uint256",
          "name": "",
          "type": "uint256"
        }
      ],
      "stateMutability": "view",
      "type": "function",
      "constant": true
    },
    {
      "inputs": [
        {
          "internalType": "address",
          "name": "user",
          "type": "address"
        },
        {
          "internalType": "uint256",
          "name": "pid",
          "type": "uint256"
        }
      ],
      "name": "getDiffBlock",
      "outputs": [
        {
          "internalType": "uint256",
          "name": "",
          "type": "uint256"
        }
      ],
      "stateMutability": "view",
      "type": "function",
      "constant": true
    }
  ],
  "bytecode": "0x60806040526040518060400160405280601481526020017f506f6c6b614272696467653a205374616b696e6700000000000000000000000081525060019080519060200190620000519291906200015c565b503480156200005f57600080fd5b506040516200265838038062002658833981810160405260208110156200008557600080fd5b81019080805190602001909291905050506000620000a86200015460201b60201c565b9050806000806101000a81548173ffffffffffffffffffffffffffffffffffffffff021916908373ffffffffffffffffffffffffffffffffffffffff1602179055508073ffffffffffffffffffffffffffffffffffffffff16600073ffffffffffffffffffffffffffffffffffffffff167f8be0079c531659141344cd1fd0a4f28419497f9722a3daafe3b4186f6b6457e060405160405180910390a35080600581905550506200020b565b600033905090565b828054600181600116156101000203166002900490600052602060002090601f016020900481019282601f106200019f57805160ff1916838001178555620001d0565b82800160010185558215620001d0579182015b82811115620001cf578251825591602001919060010190620001b2565b5b509050620001df9190620001e3565b5090565b6200020891905b8082111562000204576000816000905550600101620001ea565b5090565b90565b61243d806200021b6000396000f3fe608060405234801561001057600080fd5b50600436106101375760003560e01c8063715018a6116100b857806398969e821161007c57806398969e82146104e2578063e1604b7014610544578063e2bbb15814610562578063ec11478b1461059a578063f2fde38b146105f2578063fa66bb871461063657610137565b8063715018a61461039b5780638da5cb5b146103a55780638dbb1e3a146103ef5780638f32d59b1461043b57806393f1a40b1461045d57610137565b806348cd4cb1116100ff57806348cd4cb1146102d557806351eb05a6146102f35780635312ea8e14610321578063630b5ba11461034f57806370a341be1461035957610137565b806306fdde031461013c578063081e3eda146101bf5780632f380b35146101dd5780633d59fa441461023b578063441a3e701461029d575b600080fd5b6101446106c4565b6040518080602001828103825283818151815260200191508051906020019080838360005b83811015610184578082015181840152602081019050610169565b50505050905090810190601f1680156101b15780820380516001836020036101000a031916815260200191505b509250505060405180910390f35b6101c7610762565b6040518082815260200191505060405180910390f35b610209600480360360208110156101f357600080fd5b810190808035906020019092919050505061076f565b604051808681526020018581526020018481526020018381526020018281526020019550505050505060405180910390f35b6102876004803603604081101561025157600080fd5b81019080803573ffffffffffffffffffffffffffffffffffffffff16906020019092919080359060200190929190505050610825565b6040518082815260200191505060405180910390f35b6102d3600480360360408110156102b357600080fd5b8101908080359060200190929190803590602001909291905050506108e8565b005b6102dd610bca565b6040518082815260200191505060405180910390f35b61031f6004803603602081101561030957600080fd5b8101908080359060200190929190505050610bd0565b005b61034d6004803603602081101561033757600080fd5b8101908080359060200190929190505050610cbe565b005b610357610df2565b005b6103856004803603602081101561036f57600080fd5b8101908080359060200190929190505050610e22565b6040518082815260200191505060405180910390f35b6103a3610e4f565b005b6103ad610f88565b604051808273ffffffffffffffffffffffffffffffffffffffff1673ffffffffffffffffffffffffffffffffffffffff16815260200191505060405180910390f35b6104256004803603604081101561040557600080fd5b810190808035906020019092919080359060200190929190505050610fb1565b6040518082815260200191505060405180910390f35b610443610fce565b604051808215151515815260200191505060405180910390f35b6104a96004803603604081101561047357600080fd5b8101908080359060200190929190803573ffffffffffffffffffffffffffffffffffffffff16906020019092919050505061102c565b60405180878152602001868152602001858152602001848152602001838152602001828152602001965050505050505060405180910390f35b61052e600480360360408110156104f857600080fd5b8101908080359060200190929190803573ffffffffffffffffffffffffffffffffffffffff169060200190929190505050611075565b6040518082815260200191505060405180910390f35b61054c6111db565b6040518082815260200191505060405180910390f35b6105986004803603604081101561057857600080fd5b8101908080359060200190929190803590602001909291905050506111e1565b005b6105f0600480360360a08110156105b057600080fd5b81019080803590602001909291908035906020019092919080359060200190929190803590602001909291908035151590602001909291905050506114ef565b005b6106346004803603602081101561060857600080fd5b81019080803573ffffffffffffffffffffffffffffffffffffffff169060200190929190505050611606565b005b6106c2600480360360c081101561064c57600080fd5b8101908080359060200190929190803573ffffffffffffffffffffffffffffffffffffffff169060200190929190803573ffffffffffffffffffffffffffffffffffffffff169060200190929190803590602001909291908035906020019092919080351515906020019092919050505061168c565b005b60018054600181600116156101000203166002900480601f01602080910402602001604051908101604052809291908181526020018280546001816001161561010002031660029004801561075a5780601f1061072f5761010080835404028352916020019161075a565b820191906000526020600020905b81548152906001019060200180831161073d57829003601f168201915b505050505081565b6000600280549050905090565b60008060008060006002868154811061078457fe5b906000526020600020906009020160040154600287815481106107a357fe5b906000526020600020906009020160030154600288815481106107c257fe5b906000526020600020906009020160050154600289815481106107e157fe5b90600052602060002090600902016006015460028a8154811061080057fe5b9060005260206000209060090201600701549450945094509450945091939590929450565b600061082f612360565b6003600084815260200190815260200160002060008573ffffffffffffffffffffffffffffffffffffffff1673ffffffffffffffffffffffffffffffffffffffff1681526020019081526020016000206040518060c0016040529081600082015481526020016001820154815260200160028201548152602001600382015481526020016004820154815260200160058201548152505090506108df8160600151436118a690919063ffffffff16565b91505092915050565b6000600283815481106108f757fe5b9060005260206000209060090201905060006003600085815260200190815260200160002060003373ffffffffffffffffffffffffffffffffffffffff1673ffffffffffffffffffffffffffffffffffffffff168152602001908152602001600020905082816000015410156109d5576040517f08c379a00000000000000000000000000000000000000000000000000000000081526004018080602001828103825260158152602001807f77697468647261773a206261642072657175657374000000000000000000000081525060200191505060405180910390fd5b6109de84610bd0565b6000610a2b8260010154610a1d670de0b6b3a7640000610a0f876004015487600001546118f090919063ffffffff16565b61197690919063ffffffff16565b6118a690919063ffffffff16565b90506000811115610a8057610a413382876119c0565b610a58818460070154611bcb90919063ffffffff16565b8360070181905550610a77818360020154611bcb90919063ffffffff16565b82600201819055505b6000841115610b2e57610aa08483600001546118a690919063ffffffff16565b8260000181905550600082600001541415610abf574282600501819055505b610ad68484600601546118a690919063ffffffff16565b8360060181905550610b2d33858560000160009054906101000a900473ffffffffffffffffffffffffffffffffffffffff1673ffffffffffffffffffffffffffffffffffffffff16611c539092919063ffffffff16565b5b610b63670de0b6b3a7640000610b55856004015485600001546118f090919063ffffffff16565b61197690919063ffffffff16565b8260010181905550438260030181905550843373ffffffffffffffffffffffffffffffffffffffff167ff279e6a1f5e320cca91135676d9cb6e44ca8a08c0b88342bcdb1144f6511b568866040518082815260200191505060405180910390a35050505050565b60055481565b600060028281548110610bdf57fe5b9060005260206000209060090201905080600301544311610c005750610cbb565b6000610c0b83610e22565b90506000811480610c20575060008260020154145b15610c35574382600301819055505050610cbb565b6000610c45836003015443610fb1565b90506000610c608460050154836118f090919063ffffffff16565b9050610ca5610c9284610c84670de0b6b3a7640000856118f090919063ffffffff16565b61197690919063ffffffff16565b8560040154611bcb90919063ffffffff16565b8460040181905550438460030181905550505050505b50565b600060028281548110610ccd57fe5b9060005260206000209060090201905060006003600084815260200190815260200160002060003373ffffffffffffffffffffffffffffffffffffffff1673ffffffffffffffffffffffffffffffffffffffff16815260200190815260200160002090506000816000015490506000826000018190555060008260010181905550610d9d33828560000160009054906101000a900473ffffffffffffffffffffffffffffffffffffffff1673ffffffffffffffffffffffffffffffffffffffff16611c539092919063ffffffff16565b833373ffffffffffffffffffffffffffffffffffffffff167fbb757047c2b5f3974fe26b7c10f732e7bce710b0952a71082702781e62ae0595836040518082815260200191505060405180910390a350505050565b6000600280549050905060008090505b81811015610e1e57610e1381610bd0565b806001019050610e02565b5050565b60008060028381548110610e3257fe5b906000526020600020906009020190508060060154915050919050565b610e57610fce565b610ec9576040517f08c379a00000000000000000000000000000000000000000000000000000000081526004018080602001828103825260208152602001807f4f776e61626c653a2063616c6c6572206973206e6f7420746865206f776e657281525060200191505060405180910390fd5b600073ffffffffffffffffffffffffffffffffffffffff166000809054906101000a900473ffffffffffffffffffffffffffffffffffffffff1673ffffffffffffffffffffffffffffffffffffffff167f8be0079c531659141344cd1fd0a4f28419497f9722a3daafe3b4186f6b6457e060405160405180910390a360008060006101000a81548173ffffffffffffffffffffffffffffffffffffffff021916908373ffffffffffffffffffffffffffffffffffffffff160217905550565b60008060009054906101000a900473ffffffffffffffffffffffffffffffffffffffff16905090565b6000610fc683836118a690919063ffffffff16565b905092915050565b60008060009054906101000a900473ffffffffffffffffffffffffffffffffffffffff1673ffffffffffffffffffffffffffffffffffffffff16611010611d0b565b73ffffffffffffffffffffffffffffffffffffffff1614905090565b6003602052816000526040600020602052806000526040600020600091509150508060000154908060010154908060020154908060030154908060040154908060050154905086565b6000806002848154811061108557fe5b9060005260206000209060090201905060006003600086815260200190815260200160002060008573ffffffffffffffffffffffffffffffffffffffff1673ffffffffffffffffffffffffffffffffffffffff168152602001908152602001600020905060008260040154905060006110fd87610e22565b90508360030154431180156111125750600081115b15611188576000611127856003015443610fb1565b905060006111428660050154836118f090919063ffffffff16565b905061118361117484611166670de0b6b3a7640000856118f090919063ffffffff16565b61197690919063ffffffff16565b85611bcb90919063ffffffff16565b935050505b6111cf83600101546111c1670de0b6b3a76400006111b38688600001546118f090919063ffffffff16565b61197690919063ffffffff16565b6118a690919063ffffffff16565b94505050505092915050565b60045481565b6000600283815481106111f057fe5b9060005260206000209060090201905060006003600085815260200190815260200160002060003373ffffffffffffffffffffffffffffffffffffffff1673ffffffffffffffffffffffffffffffffffffffff1681526020019081526020016000209050816008015442106112cd576040517f08c379a000000000000000000000000000000000000000000000000000000000815260040180806020018281038252601b8152602001807f7374616b696e6720706f6f6c20616c726561647920636c6f736564000000000081525060200191505060405180910390fd5b6112d684610bd0565b60008160000154111561138b5760006113308260010154611322670de0b6b3a7640000611314876004015487600001546118f090919063ffffffff16565b61197690919063ffffffff16565b6118a690919063ffffffff16565b90506000811115611385576113463382876119c0565b61135d818460070154611bcb90919063ffffffff16565b836007018190555061137c818360020154611bcb90919063ffffffff16565b82600201819055505b506113bb565b6113a16001600454611bcb90919063ffffffff16565b600481905550428160040181905550600081600501819055505b6000831115611454576114153330858560000160009054906101000a900473ffffffffffffffffffffffffffffffffffffffff1673ffffffffffffffffffffffffffffffffffffffff16611d13909392919063ffffffff16565b61142c838260000154611bcb90919063ffffffff16565b816000018190555061144b838360060154611bcb90919063ffffffff16565b82600601819055505b611489670de0b6b3a764000061147b846004015484600001546118f090919063ffffffff16565b61197690919063ffffffff16565b8160010181905550438160030181905550833373ffffffffffffffffffffffffffffffffffffffff167f90890809c654f11d6e72a28fa60149770a0d11ec6c92319d6ceb2bb0a4ea1a15856040518082815260200191505060405180910390a350505050565b6114f7610fce565b611569576040517f08c379a00000000000000000000000000000000000000000000000000000000081526004018080602001828103825260208152602001807f4f776e61626c653a2063616c6c6572206973206e6f7420746865206f776e657281525060200191505060405180910390fd5b801561157857611577610df2565b5b60008411156115a557836002868154811061158f57fe5b9060005260206000209060090201600201819055505b60008311156115d25782600286815481106115bc57fe5b9060005260206000209060090201600501819055505b60008211156115ff5781600286815481106115e957fe5b9060005260206000209060090201600801819055505b5050505050565b61160e610fce565b611680576040517f08c379a00000000000000000000000000000000000000000000000000000000081526004018080602001828103825260208152602001807f4f776e61626c653a2063616c6c6572206973206e6f7420746865206f776e657281525060200191505060405180910390fd5b61168981611e00565b50565b611694610fce565b611706576040517f08c379a00000000000000000000000000000000000000000000000000000000081526004018080602001828103825260208152602001807f4f776e61626c653a2063616c6c6572206973206e6f7420746865206f776e657281525060200191505060405180910390fd5b801561171557611714610df2565b5b600060055443116117285760055461172a565b435b905060026040518061012001604052808873ffffffffffffffffffffffffffffffffffffffff1681526020018773ffffffffffffffffffffffffffffffffffffffff16815260200189815260200183815260200160008152602001868152602001600081526020016000815260200185815250908060018154018082558091505060019003906000526020600020906009020160009091909190915060008201518160000160006101000a81548173ffffffffffffffffffffffffffffffffffffffff021916908373ffffffffffffffffffffffffffffffffffffffff16021790555060208201518160010160006101000a81548173ffffffffffffffffffffffffffffffffffffffff021916908373ffffffffffffffffffffffffffffffffffffffff16021790555060408201518160020155606082015181600301556080820151816004015560a0820151816005015560c0820151816006015560e082015181600701556101008201518160080155505050505050505050565b60006118e883836040518060400160405280601e81526020017f536166654d6174683a207375627472616374696f6e206f766572666c6f770000815250611f44565b905092915050565b6000808314156119035760009050611970565b600082840290508284828161191457fe5b041461196b576040517f08c379a00000000000000000000000000000000000000000000000000000000081526004018080602001828103825260218152602001806123bd6021913960400191505060405180910390fd5b809150505b92915050565b60006119b883836040518060400160405280601a81526020017f536166654d6174683a206469766973696f6e206279207a65726f000000000000815250612004565b905092915050565b6000600282815481106119cf57fe5b9060005260206000209060090201905060008160020154905080841115611adc578160010160009054906101000a900473ffffffffffffffffffffffffffffffffffffffff1673ffffffffffffffffffffffffffffffffffffffff1663a9059cbb86836040518363ffffffff1660e01b8152600401808373ffffffffffffffffffffffffffffffffffffffff1673ffffffffffffffffffffffffffffffffffffffff16815260200182815260200192505050602060405180830381600087803b158015611a9b57600080fd5b505af1158015611aaf573d6000803e3d6000fd5b505050506040513d6020811015611ac557600080fd5b810190808051906020019092919050505050611bc4565b8160010160009054906101000a900473ffffffffffffffffffffffffffffffffffffffff1673ffffffffffffffffffffffffffffffffffffffff1663a9059cbb86866040518363ffffffff1660e01b8152600401808373ffffffffffffffffffffffffffffffffffffffff1673ffffffffffffffffffffffffffffffffffffffff16815260200182815260200192505050602060405180830381600087803b158015611b8757600080fd5b505af1158015611b9b573d6000803e3d6000fd5b505050506040513d6020811015611bb157600080fd5b8101908080519060200190929190505050505b5050505050565b600080828401905083811015611c49576040517f08c379a000000000000000000000000000000000000000000000000000000000815260040180806020018281038252601b8152602001807f536166654d6174683a206164646974696f6e206f766572666c6f77000000000081525060200191505060405180910390fd5b8091505092915050565b611d068363a9059cbb60e01b8484604051602401808373ffffffffffffffffffffffffffffffffffffffff1673ffffffffffffffffffffffffffffffffffffffff16815260200182815260200192505050604051602081830303815290604052907bffffffffffffffffffffffffffffffffffffffffffffffffffffffff19166020820180517bffffffffffffffffffffffffffffffffffffffffffffffffffffffff83818316178352505050506120ca565b505050565b600033905090565b611dfa846323b872dd60e01b858585604051602401808473ffffffffffffffffffffffffffffffffffffffff1673ffffffffffffffffffffffffffffffffffffffff1681526020018373ffffffffffffffffffffffffffffffffffffffff1673ffffffffffffffffffffffffffffffffffffffff1681526020018281526020019350505050604051602081830303815290604052907bffffffffffffffffffffffffffffffffffffffffffffffffffffffff19166020820180517bffffffffffffffffffffffffffffffffffffffffffffffffffffffff83818316178352505050506120ca565b50505050565b600073ffffffffffffffffffffffffffffffffffffffff168173ffffffffffffffffffffffffffffffffffffffff161415611e86576040517f08c379a00000000000000000000000000000000000000000000000000000000081526004018080602001828103825260268152602001806123976026913960400191505060405180910390fd5b8073ffffffffffffffffffffffffffffffffffffffff166000809054906101000a900473ffffffffffffffffffffffffffffffffffffffff1673ffffffffffffffffffffffffffffffffffffffff167f8be0079c531659141344cd1fd0a4f28419497f9722a3daafe3b4186f6b6457e060405160405180910390a3806000806101000a81548173ffffffffffffffffffffffffffffffffffffffff021916908373ffffffffffffffffffffffffffffffffffffffff16021790555050565b6000838311158290611ff1576040517f08c379a00000000000000000000000000000000000000000000000000000000081526004018080602001828103825283818151815260200191508051906020019080838360005b83811015611fb6578082015181840152602081019050611f9b565b50505050905090810190601f168015611fe35780820380516001836020036101000a031916815260200191505b509250505060405180910390fd5b5060008385039050809150509392505050565b600080831182906120b0576040517f08c379a00000000000000000000000000000000000000000000000000000000081526004018080602001828103825283818151815260200191508051906020019080838360005b8381101561207557808201518184015260208101905061205a565b50505050905090810190601f1680156120a25780820380516001836020036101000a031916815260200191505b509250505060405180910390fd5b5060008385816120bc57fe5b049050809150509392505050565b6120e98273ffffffffffffffffffffffffffffffffffffffff16612315565b61215b576040517f08c379a000000000000000000000000000000000000000000000000000000000815260040180806020018281038252601f8152602001807f5361666545524332303a2063616c6c20746f206e6f6e2d636f6e74726163740081525060200191505060405180910390fd5b600060608373ffffffffffffffffffffffffffffffffffffffff16836040518082805190602001908083835b602083106121aa5780518252602082019150602081019050602083039250612187565b6001836020036101000a0380198251168184511680821785525050505050509050019150506000604051808303816000865af19150503d806000811461220c576040519150601f19603f3d011682016040523d82523d6000602084013e612211565b606091505b509150915081612289576040517f08c379a00000000000000000000000000000000000000000000000000000000081526004018080602001828103825260208152602001807f5361666545524332303a206c6f772d6c6576656c2063616c6c206661696c656481525060200191505060405180910390fd5b60008151111561230f578080602001905160208110156122a857600080fd5b810190808051906020019092919050505061230e576040517f08c379a000000000000000000000000000000000000000000000000000000000815260040180806020018281038252602a8152602001806123de602a913960400191505060405180910390fd5b5b50505050565b60008060007fc5d2460186f7233c927e7db2dcc703c0e500b653ca82273b7bfad8045d85a47060001b9050833f915080821415801561235757506000801b8214155b92505050919050565b6040518060c00160405280600081526020016000815260200160008152602001600081526020016000815260200160008152509056fe4f776e61626c653a206e6577206f776e657220697320746865207a65726f2061646472657373536166654d6174683a206d756c7469706c69636174696f6e206f766572666c6f775361666545524332303a204552433230206f7065726174696f6e20646964206e6f742073756363656564a2646970667358221220d84b08ce357fa9fcc4c48d594c11bf0775d6f5a7fd63b7b02fef7c9a2c7f075b64736f6c63430006020033",
  "source": "pragma solidity >=0.6.0;\r\n\r\nimport \"@openzeppelin/contracts/token/ERC20/SafeERC20.sol\";\r\nimport \"@openzeppelin/contracts/math/SafeMath.sol\";\r\nimport \"@openzeppelin/contracts/ownership/Ownable.sol\";\r\n\r\ncontract PolkaBridgeStaking is Ownable {\r\n    string public name = \"PolkaBridge: Staking\";\r\n    using SafeMath for uint256;\r\n    using SafeERC20 for IERC20;\r\n\r\n    struct UserInfo {\r\n        uint256 amount;\r\n        uint256 rewardDebt;\r\n        uint256 rewardClaimed;\r\n        uint256 lastBlock;\r\n        uint256 beginTime;\r\n        uint256 endTime;\r\n    }\r\n\r\n    // Info of each pool.\r\n    struct PoolInfo {\r\n        IERC20 stakeToken;\r\n        IERC20 rewardToken;\r\n        uint256 allocPoint;\r\n        uint256 lastRewardBlock;\r\n        uint256 accTokenPerShare;\r\n        uint256 rewardPerBlock;\r\n        uint256 totalTokenStaked;\r\n        uint256 totalTokenClaimed;\r\n        uint256 endDate;\r\n    }\r\n\r\n    // Info of each pool.\r\n    PoolInfo[] private poolInfo;\r\n\r\n    mapping(uint256 => mapping(address => UserInfo)) public userInfo;\r\n    uint256 public totalUser;\r\n\r\n    // The block number when staking  starts.\r\n    uint256 public startBlock;\r\n\r\n    event Deposit(address indexed user, uint256 indexed pid, uint256 amount);\r\n    event Withdraw(address indexed user, uint256 indexed pid, uint256 amount);\r\n    event EmergencyWithdraw(\r\n        address indexed user,\r\n        uint256 indexed pid,\r\n        uint256 amount\r\n    );\r\n\r\n    constructor(uint256 _startBlock) public {\r\n        startBlock = _startBlock;\r\n    }\r\n\r\n    function poolLength() external view returns (uint256) {\r\n        return poolInfo.length;\r\n    }\r\n\r\n    function addPool(\r\n        uint256 _allocPoint,\r\n        IERC20 _stakeToken,\r\n        IERC20 _rewardToken,\r\n        uint256 _rewardPerBlock,\r\n        uint256 _endDate,\r\n        bool _withUpdate\r\n    ) public onlyOwner {\r\n        if (_withUpdate) {\r\n            massUpdatePools();\r\n        }\r\n        uint256 _lastRewardBlock =\r\n            block.number > startBlock ? block.number : startBlock;\r\n\r\n        poolInfo.push(\r\n            PoolInfo({\r\n                stakeToken: _stakeToken,\r\n                rewardToken: _rewardToken,\r\n                allocPoint: _allocPoint,\r\n                lastRewardBlock: _lastRewardBlock,\r\n                accTokenPerShare: 0,\r\n                rewardPerBlock: _rewardPerBlock,\r\n                totalTokenStaked: 0,\r\n                totalTokenClaimed: 0,\r\n                endDate: _endDate\r\n            })\r\n        );\r\n    }\r\n\r\n    function setPool(\r\n        uint256 _pid,\r\n        uint256 _allocPoint,\r\n        uint256 _rewardPerBlock,\r\n        uint256 _endDate,\r\n        bool _withUpdate\r\n    ) public onlyOwner {\r\n        if (_withUpdate) {\r\n            massUpdatePools();\r\n        }\r\n        if (_allocPoint > 0) {\r\n            poolInfo[_pid].allocPoint = _allocPoint;\r\n        }\r\n        if (_rewardPerBlock > 0) {\r\n            poolInfo[_pid].rewardPerBlock = _rewardPerBlock;\r\n        }\r\n        if (_endDate > 0) {\r\n            poolInfo[_pid].endDate = _endDate;\r\n        }\r\n    }\r\n\r\n    // Return reward multiplier over the given _from to _to block.\r\n    function getMultiplier(uint256 _fromBlock, uint256 _toBlock)\r\n        public\r\n        view\r\n        returns (uint256)\r\n    {\r\n        return _toBlock.sub(_fromBlock);\r\n    }\r\n\r\n    function getTotalTokenStaked(uint256 _pid) public view returns (uint256) {\r\n        PoolInfo storage pool = poolInfo[_pid];\r\n        return pool.totalTokenStaked;\r\n    }\r\n\r\n    function pendingReward(uint256 _pid, address _user)\r\n        external\r\n        view\r\n        returns (uint256)\r\n    {\r\n        PoolInfo storage pool = poolInfo[_pid];\r\n        UserInfo storage user = userInfo[_pid][_user];\r\n        uint256 accTokenPerShare = pool.accTokenPerShare;\r\n        uint256 totalTokenStaked = getTotalTokenStaked(_pid);\r\n\r\n        if (block.number > pool.lastRewardBlock && totalTokenStaked > 0) {\r\n            uint256 multiplier =\r\n                getMultiplier(pool.lastRewardBlock, block.number); //number diff block\r\n            uint256 tokenReward = multiplier.mul(pool.rewardPerBlock);\r\n\r\n            accTokenPerShare = accTokenPerShare.add(\r\n                tokenReward.mul(1e18).div(totalTokenStaked)\r\n            );\r\n        }\r\n        return user.amount.mul(accTokenPerShare).div(1e18).sub(user.rewardDebt);\r\n    }\r\n\r\n    // Update reward variables for all pools. Be careful of gas spending!\r\n    function massUpdatePools() public {\r\n        uint256 length = poolInfo.length;\r\n        for (uint256 pid = 0; pid < length; ++pid) {\r\n            updatePool(pid);\r\n        }\r\n    }\r\n\r\n    // Update reward variables of the given pool to be up-to-date.\r\n    function updatePool(uint256 _pid) public {\r\n        PoolInfo storage pool = poolInfo[_pid];\r\n        if (block.number <= pool.lastRewardBlock) {\r\n            return;\r\n        }\r\n        uint256 totalTokenStaked = getTotalTokenStaked(_pid);\r\n\r\n        if (totalTokenStaked == 0 || pool.allocPoint == 0) {\r\n            pool.lastRewardBlock = block.number;\r\n            return;\r\n        }\r\n\r\n        uint256 multiplier = getMultiplier(pool.lastRewardBlock, block.number);\r\n        uint256 tokenReward = multiplier.mul(pool.rewardPerBlock);\r\n\r\n        pool.accTokenPerShare = pool.accTokenPerShare.add(\r\n            tokenReward.mul(1e18).div(totalTokenStaked)\r\n        );\r\n        pool.lastRewardBlock = block.number;\r\n    }\r\n\r\n    function deposit(uint256 _pid, uint256 _amount) public {\r\n        PoolInfo storage pool = poolInfo[_pid];\r\n        UserInfo storage user = userInfo[_pid][msg.sender];\r\n        require(block.timestamp < pool.endDate, \"staking pool already closed\");\r\n\r\n        updatePool(_pid);\r\n\r\n        if (user.amount > 0) {\r\n            uint256 pending =\r\n                user.amount.mul(pool.accTokenPerShare).div(1e18).sub(\r\n                    user.rewardDebt\r\n                );\r\n            if (pending > 0) {\r\n                safeTokenTransfer(msg.sender, pending, _pid);\r\n                pool.totalTokenClaimed = pool.totalTokenClaimed.add(pending);\r\n                user.rewardClaimed = user.rewardClaimed.add(pending);\r\n            }\r\n        } else {\r\n            //new user, or old user unstake all before\r\n            totalUser = totalUser.add(1);\r\n            user.beginTime = block.timestamp;\r\n            user.endTime = 0; //reset endtime\r\n        }\r\n        if (_amount > 0) {\r\n            pool.stakeToken.safeTransferFrom(\r\n                address(msg.sender),\r\n                address(this),\r\n                _amount\r\n            );\r\n            user.amount = user.amount.add(_amount);\r\n            pool.totalTokenStaked = pool.totalTokenStaked.add(_amount);\r\n        }\r\n        user.rewardDebt = user.amount.mul(pool.accTokenPerShare).div(1e18);\r\n        user.lastBlock = block.number;\r\n        emit Deposit(msg.sender, _pid, _amount);\r\n    }\r\n\r\n    function withdraw(uint256 _pid, uint256 _amount) public {\r\n        PoolInfo storage pool = poolInfo[_pid];\r\n        UserInfo storage user = userInfo[_pid][msg.sender];\r\n        require(user.amount >= _amount, \"withdraw: bad request\");\r\n        updatePool(_pid);\r\n        uint256 pending =\r\n            user.amount.mul(pool.accTokenPerShare).div(1e18).sub(\r\n                user.rewardDebt\r\n            );\r\n        if (pending > 0) {\r\n            safeTokenTransfer(msg.sender, pending, _pid);\r\n            pool.totalTokenClaimed = pool.totalTokenClaimed.add(pending);\r\n            user.rewardClaimed = user.rewardClaimed.add(pending);\r\n        }\r\n        if (_amount > 0) {\r\n            user.amount = user.amount.sub(_amount);\r\n            if (user.amount == 0) {\r\n                user.endTime = block.timestamp;\r\n            }\r\n            pool.totalTokenStaked = pool.totalTokenStaked.sub(_amount);\r\n\r\n            pool.stakeToken.safeTransfer(address(msg.sender), _amount);\r\n        }\r\n        user.rewardDebt = user.amount.mul(pool.accTokenPerShare).div(1e18);\r\n        user.lastBlock = block.number;\r\n        emit Withdraw(msg.sender, _pid, _amount);\r\n    }\r\n\r\n    function emergencyWithdraw(uint256 _pid) public {\r\n        PoolInfo storage pool = poolInfo[_pid];\r\n        UserInfo storage user = userInfo[_pid][msg.sender];\r\n        uint256 amount = user.amount;\r\n        user.amount = 0;\r\n        user.rewardDebt = 0;\r\n        pool.stakeToken.safeTransfer(address(msg.sender), amount);\r\n        emit EmergencyWithdraw(msg.sender, _pid, amount);\r\n    }\r\n\r\n    function safeTokenTransfer(\r\n        address _to,\r\n        uint256 _amount,\r\n        uint256 _pid\r\n    ) internal {\r\n        PoolInfo storage pool = poolInfo[_pid];\r\n        uint256 totalPoolReward = pool.allocPoint;\r\n\r\n        if (_amount > totalPoolReward) {\r\n            pool.rewardToken.transfer(_to, totalPoolReward);\r\n        } else {\r\n            pool.rewardToken.transfer(_to, _amount);\r\n        }\r\n    }\r\n\r\n    function getPoolInfo(uint256 _pid)\r\n        public\r\n        view\r\n        returns (\r\n            uint256,\r\n            uint256,\r\n            uint256,\r\n            uint256,\r\n            uint256\r\n        )\r\n    {\r\n        return (\r\n            poolInfo[_pid].accTokenPerShare,\r\n            poolInfo[_pid].lastRewardBlock,\r\n            poolInfo[_pid].rewardPerBlock,\r\n            poolInfo[_pid].totalTokenStaked,\r\n            poolInfo[_pid].totalTokenClaimed\r\n        );\r\n    }\r\n\r\n    function getDiffBlock(address user, uint256 pid)\r\n        public\r\n        view\r\n        returns (uint256)\r\n    {\r\n        UserInfo memory user = userInfo[pid][user];\r\n        return block.number.sub(user.lastBlock);\r\n    }\r\n}\r\n",
  "sourcePath": "C:/Users/Thanh Phi/Desktop/PolkaBridgeSolution/PolkaBridge-LaunchPad/contracts/PolkaBridgeStaking.sol",
  "compiler": {
    "name": "solc",
    "version": "0.6.2+commit.bacdbe57.Emscripten.clang"
  },
  "schemaVersion": "3.4.1",
  "updatedAt": "2021-06-10T03:05:35.197Z",
  "networkType": "ethereum",
  "devdoc": {
    "methods": {
      "isOwner()": {
        "details": "Returns true if the caller is the current owner."
      },
      "owner()": {
        "details": "Returns the address of the current owner."
      },
      "renounceOwnership()": {
        "details": "Leaves the contract without owner. It will not be possible to call `onlyOwner` functions anymore. Can only be called by the current owner.     * NOTE: Renouncing ownership will leave the contract without an owner, thereby removing any functionality that is only available to the owner."
      },
      "transferOwnership(address)": {
        "details": "Transfers ownership of the contract to a new account (`newOwner`). Can only be called by the current owner."
      }
    }
  },
  "userdoc": {
    "methods": {}
  }
}