{
  "contractName": "PolkabridgeLaunchPadV2",
  "abi": [
    {
      "inputs": [
        {
          "internalType": "address payable",
          "name": "receiveTokenAdd",
          "type": "address"
        }
      ],
      "stateMutability": "nonpayable",
      "type": "constructor"
    },
    {
      "anonymous": false,
      "inputs": [
        {
          "indexed": true,
          "internalType": "address",
          "name": "previousOwner",
          "type": "address"
        },
        {
          "indexed": true,
          "internalType": "address",
          "name": "newOwner",
          "type": "address"
        }
      ],
      "name": "OwnershipTransferred",
      "type": "event"
    },
    {
      "inputs": [
        {
          "internalType": "uint256",
          "name": "",
          "type": "uint256"
        }
      ],
      "name": "claimInfos",
      "outputs": [
        {
          "internalType": "uint256",
          "name": "ClaimTime1",
          "type": "uint256"
        },
        {
          "internalType": "uint256",
          "name": "PercentClaim1",
          "type": "uint256"
        },
        {
          "internalType": "uint256",
          "name": "ClaimTime2",
          "type": "uint256"
        },
        {
          "internalType": "uint256",
          "name": "PercentClaim2",
          "type": "uint256"
        },
        {
          "internalType": "uint256",
          "name": "ClaimTime3",
          "type": "uint256"
        },
        {
          "internalType": "uint256",
          "name": "PercentClaim3",
          "type": "uint256"
        },
        {
          "internalType": "uint256",
          "name": "ClaimTime4",
          "type": "uint256"
        },
        {
          "internalType": "uint256",
          "name": "PercentClaim4",
          "type": "uint256"
        },
        {
          "internalType": "uint256",
          "name": "ClaimTime5",
          "type": "uint256"
        },
        {
          "internalType": "uint256",
          "name": "PercentClaim5",
          "type": "uint256"
        }
      ],
      "stateMutability": "view",
      "type": "function"
    },
    {
      "inputs": [],
      "name": "isOwner",
      "outputs": [
        {
          "internalType": "bool",
          "name": "",
          "type": "bool"
        }
      ],
      "stateMutability": "view",
      "type": "function"
    },
    {
      "inputs": [],
      "name": "name",
      "outputs": [
        {
          "internalType": "string",
          "name": "",
          "type": "string"
        }
      ],
      "stateMutability": "view",
      "type": "function"
    },
    {
      "inputs": [],
      "name": "owner",
      "outputs": [
        {
          "internalType": "address",
          "name": "",
          "type": "address"
        }
      ],
      "stateMutability": "view",
      "type": "function"
    },
    {
      "inputs": [],
      "name": "renounceOwnership",
      "outputs": [],
      "stateMutability": "nonpayable",
      "type": "function"
    },
    {
      "inputs": [
        {
          "internalType": "address",
          "name": "newOwner",
          "type": "address"
        }
      ],
      "name": "transferOwnership",
      "outputs": [],
      "stateMutability": "nonpayable",
      "type": "function"
    },
    {
      "inputs": [
        {
          "internalType": "uint256",
          "name": "",
          "type": "uint256"
        },
        {
          "internalType": "address",
          "name": "",
          "type": "address"
        }
      ],
      "name": "users",
      "outputs": [
        {
          "internalType": "uint256",
          "name": "Id",
          "type": "uint256"
        },
        {
          "internalType": "address",
          "name": "UserAddress",
          "type": "address"
        },
        {
          "internalType": "bool",
          "name": "IsWhitelist",
          "type": "bool"
        },
        {
          "internalType": "uint256",
          "name": "TotalTokenPurchase",
          "type": "uint256"
        },
        {
          "internalType": "uint256",
          "name": "TotalETHPurchase",
          "type": "uint256"
        },
        {
          "internalType": "uint256",
          "name": "PurchaseTime",
          "type": "uint256"
        },
        {
          "internalType": "uint256",
          "name": "LastClaimed",
          "type": "uint256"
        },
        {
          "internalType": "uint256",
          "name": "TotalPercentClaimed",
          "type": "uint256"
        },
        {
          "internalType": "uint256",
          "name": "NumberClaimed",
          "type": "uint256"
        },
        {
          "internalType": "bool",
          "name": "IsActived",
          "type": "bool"
        }
      ],
      "stateMutability": "view",
      "type": "function"
    },
    {
      "inputs": [
        {
          "internalType": "address[]",
          "name": "user",
          "type": "address[]"
        },
        {
          "internalType": "uint256",
          "name": "pid",
          "type": "uint256"
        }
      ],
      "name": "addMulWhitelist",
      "outputs": [],
      "stateMutability": "nonpayable",
      "type": "function"
    },
    {
      "inputs": [
        {
          "internalType": "address",
          "name": "user",
          "type": "address"
        },
        {
          "internalType": "uint256",
          "name": "pid",
          "type": "uint256"
        },
        {
          "internalType": "bool",
          "name": "isWhitelist",
          "type": "bool"
        },
        {
          "internalType": "bool",
          "name": "isActived",
          "type": "bool"
        }
      ],
      "name": "updateWhitelist",
      "outputs": [],
      "stateMutability": "nonpayable",
      "type": "function"
    },
    {
      "inputs": [
        {
          "internalType": "address",
          "name": "user",
          "type": "address"
        },
        {
          "internalType": "uint256",
          "name": "pid",
          "type": "uint256"
        },
        {
          "internalType": "uint256",
          "name": "stackAmount",
          "type": "uint256"
        }
      ],
      "name": "IsWhitelist",
      "outputs": [
        {
          "internalType": "bool",
          "name": "",
          "type": "bool"
        }
      ],
      "stateMutability": "view",
      "type": "function"
    },
    {
      "inputs": [
        {
          "internalType": "uint256",
          "name": "begin",
          "type": "uint256"
        },
        {
          "internalType": "uint256",
          "name": "end",
          "type": "uint256"
        },
        {
          "internalType": "uint256",
          "name": "_type",
          "type": "uint256"
        },
        {
          "internalType": "contract IERC20",
          "name": "idoToken",
          "type": "address"
        },
        {
          "internalType": "uint256",
          "name": "maxPurchaseTier1",
          "type": "uint256"
        },
        {
          "internalType": "uint256",
          "name": "maxPurchaseTier2",
          "type": "uint256"
        },
        {
          "internalType": "uint256",
          "name": "maxPurchaseTier3",
          "type": "uint256"
        },
        {
          "internalType": "uint256",
          "name": "totalCap",
          "type": "uint256"
        },
        {
          "internalType": "uint256",
          "name": "totalToken",
          "type": "uint256"
        },
        {
          "internalType": "uint256",
          "name": "ratePerETH",
          "type": "uint256"
        },
        {
          "internalType": "uint256",
          "name": "minimumTokenSoldout",
          "type": "uint256"
        },
        {
          "internalType": "uint256",
          "name": "minimumStakeAmount",
          "type": "uint256"
        }
      ],
      "name": "addPool",
      "outputs": [],
      "stateMutability": "nonpayable",
      "type": "function"
    },
    {
      "inputs": [
        {
          "internalType": "uint256",
          "name": "percentClaim1",
          "type": "uint256"
        },
        {
          "internalType": "uint256",
          "name": "claimTime1",
          "type": "uint256"
        },
        {
          "internalType": "uint256",
          "name": "percentClaim2",
          "type": "uint256"
        },
        {
          "internalType": "uint256",
          "name": "claimTime2",
          "type": "uint256"
        },
        {
          "internalType": "uint256",
          "name": "percentClaim3",
          "type": "uint256"
        },
        {
          "internalType": "uint256",
          "name": "claimTime3",
          "type": "uint256"
        },
        {
          "internalType": "uint256",
          "name": "percentClaim4",
          "type": "uint256"
        },
        {
          "internalType": "uint256",
          "name": "claimTime4",
          "type": "uint256"
        },
        {
          "internalType": "uint256",
          "name": "percentClaim5",
          "type": "uint256"
        },
        {
          "internalType": "uint256",
          "name": "claimTime5",
          "type": "uint256"
        },
        {
          "internalType": "uint256",
          "name": "pid",
          "type": "uint256"
        }
      ],
      "name": "addClaimInfo",
      "outputs": [],
      "stateMutability": "nonpayable",
      "type": "function"
    },
    {
      "inputs": [
        {
          "internalType": "uint256",
          "name": "percentClaim1",
          "type": "uint256"
        },
        {
          "internalType": "uint256",
          "name": "claimTime1",
          "type": "uint256"
        },
        {
          "internalType": "uint256",
          "name": "percentClaim2",
          "type": "uint256"
        },
        {
          "internalType": "uint256",
          "name": "claimTime2",
          "type": "uint256"
        },
        {
          "internalType": "uint256",
          "name": "percentClaim3",
          "type": "uint256"
        },
        {
          "internalType": "uint256",
          "name": "claimTime3",
          "type": "uint256"
        },
        {
          "internalType": "uint256",
          "name": "pid",
          "type": "uint256"
        }
      ],
      "name": "updateClaimInfo",
      "outputs": [],
      "stateMutability": "nonpayable",
      "type": "function"
    },
    {
      "inputs": [
        {
          "internalType": "uint256",
          "name": "pid",
          "type": "uint256"
        },
        {
          "internalType": "uint256",
          "name": "begin",
          "type": "uint256"
        },
        {
          "internalType": "uint256",
          "name": "end",
          "type": "uint256"
        },
        {
          "internalType": "uint256",
          "name": "maxPurchaseTier1",
          "type": "uint256"
        },
        {
          "internalType": "uint256",
          "name": "maxPurchaseTier2",
          "type": "uint256"
        },
        {
          "internalType": "uint256",
          "name": "maxPurchaseTier3",
          "type": "uint256"
        },
        {
          "internalType": "uint256",
          "name": "totalCap",
          "type": "uint256"
        },
        {
          "internalType": "uint256",
          "name": "totalToken",
          "type": "uint256"
        },
        {
          "internalType": "uint256",
          "name": "ratePerETH",
          "type": "uint256"
        },
        {
          "internalType": "contract IERC20",
          "name": "idoToken",
          "type": "address"
        },
        {
          "internalType": "uint256",
          "name": "minimumTokenSoldout",
          "type": "uint256"
        },
        {
          "internalType": "uint256",
          "name": "pooltype",
          "type": "uint256"
        },
        {
          "internalType": "uint256",
          "name": "minimumStakeAmount",
          "type": "uint256"
        }
      ],
      "name": "updatePool",
      "outputs": [],
      "stateMutability": "nonpayable",
      "type": "function"
    },
    {
      "inputs": [
        {
          "internalType": "contract IERC20",
          "name": "token",
          "type": "address"
        }
      ],
      "name": "withdrawErc20",
      "outputs": [],
      "stateMutability": "nonpayable",
      "type": "function"
    },
    {
      "inputs": [],
      "name": "withdrawPoolFund",
      "outputs": [],
      "stateMutability": "nonpayable",
      "type": "function"
    },
    {
      "inputs": [
        {
          "internalType": "uint256",
          "name": "stakeAmount",
          "type": "uint256"
        },
        {
          "internalType": "uint256",
          "name": "pid",
          "type": "uint256"
        },
        {
          "internalType": "uint8",
          "name": "v",
          "type": "uint8"
        },
        {
          "internalType": "bytes32",
          "name": "r",
          "type": "bytes32"
        },
        {
          "internalType": "bytes32",
          "name": "s",
          "type": "bytes32"
        }
      ],
      "name": "purchaseIDO",
      "outputs": [],
      "stateMutability": "payable",
      "type": "function"
    },
    {
      "inputs": [
        {
          "internalType": "uint256",
          "name": "pid",
          "type": "uint256"
        }
      ],
      "name": "claimToken",
      "outputs": [],
      "stateMutability": "nonpayable",
      "type": "function"
    },
    {
      "inputs": [
        {
          "internalType": "uint256",
          "name": "pid",
          "type": "uint256"
        }
      ],
      "name": "getUserTotalPurchase",
      "outputs": [
        {
          "internalType": "uint256",
          "name": "",
          "type": "uint256"
        }
      ],
      "stateMutability": "view",
      "type": "function"
    },
    {
      "inputs": [
        {
          "internalType": "uint256",
          "name": "pid",
          "type": "uint256"
        }
      ],
      "name": "getRemainIDOToken",
      "outputs": [
        {
          "internalType": "uint256",
          "name": "",
          "type": "uint256"
        }
      ],
      "stateMutability": "view",
      "type": "function"
    },
    {
      "inputs": [
        {
          "internalType": "uint256",
          "name": "pid",
          "type": "uint256"
        }
      ],
      "name": "getBalanceTokenByPoolId",
      "outputs": [
        {
          "internalType": "uint256",
          "name": "",
          "type": "uint256"
        }
      ],
      "stateMutability": "view",
      "type": "function"
    },
    {
      "inputs": [
        {
          "internalType": "uint256",
          "name": "pid",
          "type": "uint256"
        }
      ],
      "name": "getPoolInfo",
      "outputs": [
        {
          "internalType": "uint256",
          "name": "",
          "type": "uint256"
        },
        {
          "internalType": "uint256",
          "name": "",
          "type": "uint256"
        },
        {
          "internalType": "uint256",
          "name": "",
          "type": "uint256"
        },
        {
          "internalType": "uint256",
          "name": "",
          "type": "uint256"
        },
        {
          "internalType": "uint256",
          "name": "",
          "type": "uint256"
        },
        {
          "internalType": "contract IERC20",
          "name": "",
          "type": "address"
        }
      ],
      "stateMutability": "view",
      "type": "function"
    },
    {
      "inputs": [
        {
          "internalType": "uint256",
          "name": "pid",
          "type": "uint256"
        }
      ],
      "name": "getClaimInfo",
      "outputs": [
        {
          "internalType": "uint256",
          "name": "",
          "type": "uint256"
        },
        {
          "internalType": "uint256",
          "name": "",
          "type": "uint256"
        },
        {
          "internalType": "uint256",
          "name": "",
          "type": "uint256"
        },
        {
          "internalType": "uint256",
          "name": "",
          "type": "uint256"
        },
        {
          "internalType": "uint256",
          "name": "",
          "type": "uint256"
        },
        {
          "internalType": "uint256",
          "name": "",
          "type": "uint256"
        }
      ],
      "stateMutability": "view",
      "type": "function"
    },
    {
      "inputs": [
        {
          "internalType": "uint256",
          "name": "pid",
          "type": "uint256"
        }
      ],
      "name": "getPoolSoldInfo",
      "outputs": [
        {
          "internalType": "uint256",
          "name": "",
          "type": "uint256"
        }
      ],
      "stateMutability": "view",
      "type": "function"
    },
    {
      "inputs": [
        {
          "internalType": "uint256",
          "name": "pid",
          "type": "uint256"
        }
      ],
      "name": "getWhitelistfo",
      "outputs": [
        {
          "internalType": "address",
          "name": "",
          "type": "address"
        },
        {
          "internalType": "bool",
          "name": "",
          "type": "bool"
        },
        {
          "internalType": "uint256",
          "name": "",
          "type": "uint256"
        },
        {
          "internalType": "uint256",
          "name": "",
          "type": "uint256"
        }
      ],
      "stateMutability": "view",
      "type": "function"
    },
    {
      "inputs": [
        {
          "internalType": "uint256",
          "name": "pid",
          "type": "uint256"
        },
        {
          "internalType": "address",
          "name": "user",
          "type": "address"
        }
      ],
      "name": "getUserInfo",
      "outputs": [
        {
          "internalType": "bool",
          "name": "",
          "type": "bool"
        },
        {
          "internalType": "uint256",
          "name": "",
          "type": "uint256"
        },
        {
          "internalType": "uint256",
          "name": "",
          "type": "uint256"
        },
        {
          "internalType": "uint256",
          "name": "",
          "type": "uint256"
        }
      ],
      "stateMutability": "view",
      "type": "function"
    }
  ],
  "bytecode": "0x60806040526040518060400160405280601981526020017f506f6c6b614272696467653a204c61756e63685061642056320000000000000081525060029080519060200190620000519291906200019d565b503480156200005f57600080fd5b5060405162004e2038038062004e20833981810160405260208110156200008557600080fd5b81019080805190602001909291905050506000620000a86200019560201b60201c565b9050806000806101000a81548173ffffffffffffffffffffffffffffffffffffffff021916908373ffffffffffffffffffffffffffffffffffffffff1602179055508073ffffffffffffffffffffffffffffffffffffffff16600073ffffffffffffffffffffffffffffffffffffffff167f8be0079c531659141344cd1fd0a4f28419497f9722a3daafe3b4186f6b6457e060405160405180910390a3506001808190555080600360006101000a81548173ffffffffffffffffffffffffffffffffffffffff021916908373ffffffffffffffffffffffffffffffffffffffff160217905550506200024c565b600033905090565b828054600181600116156101000203166002900490600052602060002090601f016020900481019282601f10620001e057805160ff191683800117855562000211565b8280016001018555821562000211579182015b8281111562000210578251825591602001919060010190620001f3565b5b50905062000220919062000224565b5090565b6200024991905b80821115620002455760008160009055506001016200022b565b5090565b90565b614bc4806200025c6000396000f3fe6080604052600436106101815760003560e01c8063a48ebe82116100d1578063c734e2531161008a578063d207019311610064578063d207019314610b8b578063d70c33c814610bfd578063dac9540b14610c70578063f2fde38b14610ce757610181565b8063c734e25314610a92578063c7e42b1b14610ae1578063d0d5527514610b3257610181565b8063a48ebe82146107a3578063a9e7c2e5146107f2578063afad4db21461082d578063b7de0303146108cd578063b9d02df41461091c578063c30ef487146109fe57610181565b806336c287f91161013e578063715018a611610118578063715018a6146106785780638da5cb5b1461068f5780638f32d59b146106e657806396f5fef51461071557610181565b806336c287f9146104715780634365295e146104ee57806350933d4d146105b857610181565b806306fdde03146101865780631069f3b5146102165780631a1d69ec1461029e5780631f4552cb1461036d5780632561ae02146103845780632f380b35146103d3575b600080fd5b34801561019257600080fd5b5061019b610d38565b6040518080602001828103825283818151815260200191508051906020019080838360005b838110156101db5780820151818401526020810190506101c0565b50505050905090810190601f1680156102085780820380516001836020036101000a031916815260200191505b509250505060405180910390f35b34801561022257600080fd5b5061026f6004803603604081101561023957600080fd5b8101908080359060200190929190803573ffffffffffffffffffffffffffffffffffffffff169060200190929190505050610dd6565b604051808515151515815260200184815260200183815260200182815260200194505050505060405180910390f35b3480156102aa57600080fd5b5061036b600480360360408110156102c157600080fd5b81019080803590602001906401000000008111156102de57600080fd5b8201836020820111156102f057600080fd5b8035906020019184602083028401116401000000008311171561031257600080fd5b919080806020026020016040519081016040528093929190818152602001838360200280828437600081840152601f19601f82011690508083019250505050505050919291929080359060200190929190505050610f4a565b005b34801561037957600080fd5b50610382611206565b005b34801561039057600080fd5b506103bd600480360360208110156103a757600080fd5b8101908080359060200190929190505050611367565b6040518082815260200191505060405180910390f35b3480156103df57600080fd5b5061040c600480360360208110156103f657600080fd5b81019080803590602001909291905050506113f9565b604051808781526020018681526020018581526020018481526020018381526020018273ffffffffffffffffffffffffffffffffffffffff1673ffffffffffffffffffffffffffffffffffffffff168152602001965050505050505060405180910390f35b34801561047d57600080fd5b506104d46004803603606081101561049457600080fd5b81019080803573ffffffffffffffffffffffffffffffffffffffff169060200190929190803590602001909291908035906020019092919050505061150a565b604051808215151515815260200191505060405180910390f35b3480156104fa57600080fd5b506105b660048036036101a081101561051257600080fd5b81019080803590602001909291908035906020019092919080359060200190929190803590602001909291908035906020019092919080359060200190929190803590602001909291908035906020019092919080359060200190929190803573ffffffffffffffffffffffffffffffffffffffff169060200190929190803590602001909291908035906020019092919080359060200190929190505050611662565b005b3480156105c457600080fd5b5061067660048036036101808110156105dc57600080fd5b81019080803590602001909291908035906020019092919080359060200190929190803573ffffffffffffffffffffffffffffffffffffffff1690602001909291908035906020019092919080359060200190929190803590602001909291908035906020019092919080359060200190929190803590602001909291908035906020019092919080359060200190929190505050611950565b005b34801561068457600080fd5b5061068d611b67565b005b34801561069b57600080fd5b506106a4611ca0565b604051808273ffffffffffffffffffffffffffffffffffffffff1673ffffffffffffffffffffffffffffffffffffffff16815260200191505060405180910390f35b3480156106f257600080fd5b506106fb611cc9565b604051808215151515815260200191505060405180910390f35b34801561072157600080fd5b5061074e6004803603602081101561073857600080fd5b8101908080359060200190929190505050611d27565b604051808b81526020018a81526020018981526020018881526020018781526020018681526020018581526020018481526020018381526020018281526020019a505050505050505050505060405180910390f35b3480156107af57600080fd5b506107dc600480360360208110156107c657600080fd5b8101908080359060200190929190505050611d7b565b6040518082815260200191505060405180910390f35b3480156107fe57600080fd5b5061082b6004803603602081101561081557600080fd5b8101908080359060200190929190505050611dd8565b005b34801561083957600080fd5b506108cb600480360361016081101561085157600080fd5b810190808035906020019092919080359060200190929190803590602001909291908035906020019092919080359060200190929190803590602001909291908035906020019092919080359060200190929190803590602001909291908035906020019092919080359060200190929190505050612cd2565b005b3480156108d957600080fd5b50610906600480360360208110156108f057600080fd5b8101908080359060200190929190505050612e67565b6040518082815260200191505060405180910390f35b34801561092857600080fd5b506109756004803603604081101561093f57600080fd5b8101908080359060200190929190803573ffffffffffffffffffffffffffffffffffffffff169060200190929190505050612ea7565b604051808b81526020018a73ffffffffffffffffffffffffffffffffffffffff1673ffffffffffffffffffffffffffffffffffffffff16815260200189151515158152602001888152602001878152602001868152602001858152602001848152602001838152602001821515151581526020019a505050505050505050505060405180910390f35b348015610a0a57600080fd5b50610a3760048036036020811015610a2157600080fd5b8101908080359060200190929190505050612f42565b604051808573ffffffffffffffffffffffffffffffffffffffff1673ffffffffffffffffffffffffffffffffffffffff1681526020018415151515815260200183815260200182815260200194505050505060405180910390f35b348015610a9e57600080fd5b50610acb60048036036020811015610ab557600080fd5b81019080803590602001909291905050506130d4565b6040518082815260200191505060405180910390f35b348015610aed57600080fd5b50610b3060048036036020811015610b0457600080fd5b81019080803573ffffffffffffffffffffffffffffffffffffffff169060200190929190505050613114565b005b610b89600480360360a0811015610b4857600080fd5b810190808035906020019092919080359060200190929190803560ff1690602001909291908035906020019092919080359060200190929190505050613312565b005b348015610b9757600080fd5b50610bc460048036036020811015610bae57600080fd5b8101908080359060200190929190505050613e9f565b60405180878152602001868152602001858152602001848152602001838152602001828152602001965050505050505060405180910390f35b348015610c0957600080fd5b50610c6e60048036036080811015610c2057600080fd5b81019080803573ffffffffffffffffffffffffffffffffffffffff16906020019092919080359060200190929190803515159060200190929190803515159060200190929190505050613f60565b005b348015610c7c57600080fd5b50610ce5600480360360e0811015610c9357600080fd5b81019080803590602001909291908035906020019092919080359060200190929190803590602001909291908035906020019092919080359060200190929190803590602001909291905050506140b6565b005b348015610cf357600080fd5b50610d3660048036036020811015610d0a57600080fd5b81019080803573ffffffffffffffffffffffffffffffffffffffff169060200190929190505050614217565b005b60028054600181600116156101000203166002900480601f016020809104026020016040519081016040528092919081815260200182805460018160011615610100020316600290048015610dce5780601f10610da357610100808354040283529160200191610dce565b820191906000526020600020905b815481529060010190602001808311610db157829003601f168201915b505050505081565b6000806000806004600087815260200190815260200160002060008673ffffffffffffffffffffffffffffffffffffffff1673ffffffffffffffffffffffffffffffffffffffff16815260200190815260200160002060010160149054906101000a900460ff166004600088815260200190815260200160002060008773ffffffffffffffffffffffffffffffffffffffff1673ffffffffffffffffffffffffffffffffffffffff168152602001908152602001600020600201546004600089815260200190815260200160002060008873ffffffffffffffffffffffffffffffffffffffff1673ffffffffffffffffffffffffffffffffffffffff16815260200190815260200160002060030154600460008a815260200190815260200160002060008973ffffffffffffffffffffffffffffffffffffffff1673ffffffffffffffffffffffffffffffffffffffff16815260200190815260200160002060060154935093509350935092959194509250565b610f52611cc9565b610fc4576040517f08c379a00000000000000000000000000000000000000000000000000000000081526004018080602001828103825260208152602001807f4f776e61626c653a2063616c6c6572206973206e6f7420746865206f776e657281525060200191505060405180910390fd5b60008090505b82518110156112015781600460008481526020019081526020016000206000858481518110610ff557fe5b602002602001015173ffffffffffffffffffffffffffffffffffffffff1673ffffffffffffffffffffffffffffffffffffffff1681526020019081526020016000206000018190555082818151811061104a57fe5b602002602001015160046000848152602001908152602001600020600085848151811061107357fe5b602002602001015173ffffffffffffffffffffffffffffffffffffffff1673ffffffffffffffffffffffffffffffffffffffff16815260200190815260200160002060010160006101000a81548173ffffffffffffffffffffffffffffffffffffffff021916908373ffffffffffffffffffffffffffffffffffffffff160217905550600160046000848152602001908152602001600020600085848151811061111957fe5b602002602001015173ffffffffffffffffffffffffffffffffffffffff1673ffffffffffffffffffffffffffffffffffffffff16815260200190815260200160002060010160146101000a81548160ff021916908315150217905550600160046000848152602001908152602001600020600085848151811061119857fe5b602002602001015173ffffffffffffffffffffffffffffffffffffffff1673ffffffffffffffffffffffffffffffffffffffff16815260200190815260200160002060080160006101000a81548160ff0219169083151502179055508080600101915050610fca565b505050565b61120e611cc9565b611280576040517f08c379a00000000000000000000000000000000000000000000000000000000081526004018080602001828103825260208152602001807f4f776e61626c653a2063616c6c6572206973206e6f7420746865206f776e657281525060200191505060405180910390fd5b6000479050600081116112fb576040517f08c379a000000000000000000000000000000000000000000000000000000000815260040180806020018281038252600f8152602001807f6e6f7420656e6f7567682066756e64000000000000000000000000000000000081525060200191505060405180910390fd5b600360009054906101000a900473ffffffffffffffffffffffffffffffffffffffff1673ffffffffffffffffffffffffffffffffffffffff166108fc829081150290604051600060405180830381858888f19350505050158015611363573d6000803e3d6000fd5b5050565b60008061137e60018461429d90919063ffffffff16565b9050600061138b84612e67565b9050806005838154811061139b57fe5b90600052602060002090600e0201600c015411156113be576000925050506113f4565b6113ef600583815481106113ce57fe5b90600052602060002090600e0201600c01548261429d90919063ffffffff16565b925050505b919050565b600080600080600080600061141860018961429d90919063ffffffff16565b90506005818154811061142757fe5b90600052602060002090600e0201600101546005828154811061144657fe5b90600052602060002090600e0201600201546005838154811061146557fe5b90600052602060002090600e0201600301546005848154811061148457fe5b90600052602060002090600e0201600b0154600585815481106114a357fe5b90600052602060002090600e0201600c0154600586815481106114c257fe5b90600052602060002090600e020160040160009054906101000a900473ffffffffffffffffffffffffffffffffffffffff169650965096509650965096505091939550919395565b60008061152160018561429d90919063ffffffff16565b905060016005828154811061153257fe5b90600052602060002090600e020160030154141561155457600191505061165b565b60026005828154811061156357fe5b90600052602060002090600e02016003015414156115b4576005818154811061158857fe5b90600052602060002090600e0201600d015483106115aa57600191505061165b565b600091505061165b565b6003600582815481106115c357fe5b90600052602060002090600e0201600301541415611655576004600082815260200190815260200160002060008673ffffffffffffffffffffffffffffffffffffffff1673ffffffffffffffffffffffffffffffffffffffff16815260200190815260200160002060010160149054906101000a900460ff161561164b57600191505061165b565b600091505061165b565b60009150505b9392505050565b61166a611cc9565b6116dc576040517f08c379a00000000000000000000000000000000000000000000000000000000081526004018080602001828103825260208152602001807f4f776e61626c653a2063616c6c6572206973206e6f7420746865206f776e657281525060200191505060405180910390fd5b60006116f260018f61429d90919063ffffffff16565b905060008d1115611721578c6005828154811061170b57fe5b90600052602060002090600e0201600101819055505b60008c111561174e578b6005828154811061173857fe5b90600052602060002090600e0201600201819055505b60008b111561177b578a6005828154811061176557fe5b90600052602060002090600e0201600501819055505b60008a11156117a857896005828154811061179257fe5b90600052602060002090600e0201600601819055505b60008911156117d55788600582815481106117bf57fe5b90600052602060002090600e0201600701819055505b60008811156118025787600582815481106117ec57fe5b90600052602060002090600e0201600801819055505b600087111561182f57866005828154811061181957fe5b90600052602060002090600e0201600a01819055505b600086111561185c57856005828154811061184657fe5b90600052602060002090600e0201600b01819055505b600082111561188957816005828154811061187357fe5b90600052602060002090600e0201600d01819055505b60008411156118b65783600582815481106118a057fe5b90600052602060002090600e0201600901819055505b60008311156118e35782600582815481106118cd57fe5b90600052602060002090600e0201600301819055505b84600582815481106118f157fe5b90600052602060002090600e020160040160006101000a81548173ffffffffffffffffffffffffffffffffffffffff021916908373ffffffffffffffffffffffffffffffffffffffff1602179055505050505050505050505050505050565b611958611cc9565b6119ca576040517f08c379a00000000000000000000000000000000000000000000000000000000081526004018080602001828103825260208152602001807f4f776e61626c653a2063616c6c6572206973206e6f7420746865206f776e657281525060200191505060405180910390fd5b60006119e560016005805490506142e790919063ffffffff16565b90506005604051806101c001604052808381526020018f81526020018e81526020018d81526020018c73ffffffffffffffffffffffffffffffffffffffff1681526020018b81526020018a8152602001898152602001888152602001858152602001878152602001868152602001600081526020018481525090806001815401808255809150506001900390600052602060002090600e02016000909190919091506000820151816000015560208201518160010155604082015181600201556060820151816003015560808201518160040160006101000a81548173ffffffffffffffffffffffffffffffffffffffff021916908373ffffffffffffffffffffffffffffffffffffffff16021790555060a0820151816005015560c0820151816006015560e082015181600701556101008201518160080155610120820151816009015561014082015181600a015561016082015181600b015561018082015181600c01556101a082015181600d0155505050505050505050505050505050565b611b6f611cc9565b611be1576040517f08c379a00000000000000000000000000000000000000000000000000000000081526004018080602001828103825260208152602001807f4f776e61626c653a2063616c6c6572206973206e6f7420746865206f776e657281525060200191505060405180910390fd5b600073ffffffffffffffffffffffffffffffffffffffff166000809054906101000a900473ffffffffffffffffffffffffffffffffffffffff1673ffffffffffffffffffffffffffffffffffffffff167f8be0079c531659141344cd1fd0a4f28419497f9722a3daafe3b4186f6b6457e060405160405180910390a360008060006101000a81548173ffffffffffffffffffffffffffffffffffffffff021916908373ffffffffffffffffffffffffffffffffffffffff160217905550565b60008060009054906101000a900473ffffffffffffffffffffffffffffffffffffffff16905090565b60008060009054906101000a900473ffffffffffffffffffffffffffffffffffffffff1673ffffffffffffffffffffffffffffffffffffffff16611d0b61436f565b73ffffffffffffffffffffffffffffffffffffffff1614905090565b6006602052806000526040600020600091509050806000015490806001015490806002015490806003015490806004015490806005015490806006015490806007015490806008015490806009015490508a565b60006004600083815260200190815260200160002060003373ffffffffffffffffffffffffffffffffffffffff1673ffffffffffffffffffffffffffffffffffffffff168152602001908152602001600020600201549050919050565b60026001541415611e51576040517f08c379a000000000000000000000000000000000000000000000000000000000815260040180806020018281038252601f8152602001807f5265656e7472616e637947756172643a207265656e7472616e742063616c6c0081525060200191505060405180910390fd5b600260018190555060646004600083815260200190815260200160002060003373ffffffffffffffffffffffffffffffffffffffff1673ffffffffffffffffffffffffffffffffffffffff1681526020019081526020016000206006015410611f22576040517f08c379a00000000000000000000000000000000000000000000000000000000081526004018080602001828103825260178152602001807f796f75206861766520636c61696d656420656e6f75676800000000000000000081525060200191505060405180910390fd5b6000611f2d82611d7b565b905060008111611fa5576040517f08c379a000000000000000000000000000000000000000000000000000000000815260040180806020018281038252600d8152602001807f696e76616c696420636c61696d0000000000000000000000000000000000000081525060200191505060405180910390fd5b6000611fbb60018461429d90919063ffffffff16565b905060006004600085815260200190815260200160002060003373ffffffffffffffffffffffffffffffffffffffff1673ffffffffffffffffffffffffffffffffffffffff1681526020019081526020016000206007015414156122215760066000828152602001908152602001600020600001544210156120a5576040517f08c379a000000000000000000000000000000000000000000000000000000000815260040180806020018281038252600c8152602001807f696e76616c69642074696d65000000000000000000000000000000000000000081525060200191505060405180910390fd5b612149336120e560646120d760066000878152602001908152602001600020600101548761437790919063ffffffff16565b6143fd90919063ffffffff16565b600584815481106120f257fe5b90600052602060002090600e020160040160009054906101000a900473ffffffffffffffffffffffffffffffffffffffff1673ffffffffffffffffffffffffffffffffffffffff166144479092919063ffffffff16565b6121c560066000838152602001908152602001600020600101546004600086815260200190815260200160002060003373ffffffffffffffffffffffffffffffffffffffff1673ffffffffffffffffffffffffffffffffffffffff168152602001908152602001600020600601546142e790919063ffffffff16565b6004600085815260200190815260200160002060003373ffffffffffffffffffffffffffffffffffffffff1673ffffffffffffffffffffffffffffffffffffffff16815260200190815260200160002060060181905550612bb0565b60016004600085815260200190815260200160002060003373ffffffffffffffffffffffffffffffffffffffff1673ffffffffffffffffffffffffffffffffffffffff168152602001908152602001600020600701541415612485576006600082815260200190815260200160002060020154421015612309576040517f08c379a000000000000000000000000000000000000000000000000000000000815260040180806020018281038252600c8152602001807f696e76616c69642074696d65000000000000000000000000000000000000000081525060200191505060405180910390fd5b6123ad33612349606461233b60066000878152602001908152602001600020600301548761437790919063ffffffff16565b6143fd90919063ffffffff16565b6005848154811061235657fe5b90600052602060002090600e020160040160009054906101000a900473ffffffffffffffffffffffffffffffffffffffff1673ffffffffffffffffffffffffffffffffffffffff166144479092919063ffffffff16565b61242960066000838152602001908152602001600020600301546004600086815260200190815260200160002060003373ffffffffffffffffffffffffffffffffffffffff1673ffffffffffffffffffffffffffffffffffffffff168152602001908152602001600020600601546142e790919063ffffffff16565b6004600085815260200190815260200160002060003373ffffffffffffffffffffffffffffffffffffffff1673ffffffffffffffffffffffffffffffffffffffff16815260200190815260200160002060060181905550612baf565b60026004600085815260200190815260200160002060003373ffffffffffffffffffffffffffffffffffffffff1673ffffffffffffffffffffffffffffffffffffffff1681526020019081526020016000206007015414156126e957600660008281526020019081526020016000206004015442101561256d576040517f08c379a000000000000000000000000000000000000000000000000000000000815260040180806020018281038252600c8152602001807f696e76616c69642074696d65000000000000000000000000000000000000000081525060200191505060405180910390fd5b612611336125ad606461259f60066000878152602001908152602001600020600501548761437790919063ffffffff16565b6143fd90919063ffffffff16565b600584815481106125ba57fe5b90600052602060002090600e020160040160009054906101000a900473ffffffffffffffffffffffffffffffffffffffff1673ffffffffffffffffffffffffffffffffffffffff166144479092919063ffffffff16565b61268d60066000838152602001908152602001600020600501546004600086815260200190815260200160002060003373ffffffffffffffffffffffffffffffffffffffff1673ffffffffffffffffffffffffffffffffffffffff168152602001908152602001600020600601546142e790919063ffffffff16565b6004600085815260200190815260200160002060003373ffffffffffffffffffffffffffffffffffffffff1673ffffffffffffffffffffffffffffffffffffffff16815260200190815260200160002060060181905550612bae565b60036004600085815260200190815260200160002060003373ffffffffffffffffffffffffffffffffffffffff1673ffffffffffffffffffffffffffffffffffffffff16815260200190815260200160002060070154141561294d5760066000828152602001908152602001600020600601544210156127d1576040517f08c379a000000000000000000000000000000000000000000000000000000000815260040180806020018281038252600c8152602001807f696e76616c69642074696d65000000000000000000000000000000000000000081525060200191505060405180910390fd5b61287533612811606461280360066000878152602001908152602001600020600701548761437790919063ffffffff16565b6143fd90919063ffffffff16565b6005848154811061281e57fe5b90600052602060002090600e020160040160009054906101000a900473ffffffffffffffffffffffffffffffffffffffff1673ffffffffffffffffffffffffffffffffffffffff166144479092919063ffffffff16565b6128f160066000838152602001908152602001600020600701546004600086815260200190815260200160002060003373ffffffffffffffffffffffffffffffffffffffff1673ffffffffffffffffffffffffffffffffffffffff168152602001908152602001600020600601546142e790919063ffffffff16565b6004600085815260200190815260200160002060003373ffffffffffffffffffffffffffffffffffffffff1673ffffffffffffffffffffffffffffffffffffffff16815260200190815260200160002060060181905550612bad565b600480600085815260200190815260200160002060003373ffffffffffffffffffffffffffffffffffffffff1673ffffffffffffffffffffffffffffffffffffffff168152602001908152602001600020600701541415612bac576006600082815260200190815260200160002060080154421015612a34576040517f08c379a000000000000000000000000000000000000000000000000000000000815260040180806020018281038252600c8152602001807f696e76616c69642074696d65000000000000000000000000000000000000000081525060200191505060405180910390fd5b612ad833612a746064612a6660066000878152602001908152602001600020600901548761437790919063ffffffff16565b6143fd90919063ffffffff16565b60058481548110612a8157fe5b90600052602060002090600e020160040160009054906101000a900473ffffffffffffffffffffffffffffffffffffffff1673ffffffffffffffffffffffffffffffffffffffff166144479092919063ffffffff16565b612b5460066000838152602001908152602001600020600901546004600086815260200190815260200160002060003373ffffffffffffffffffffffffffffffffffffffff1673ffffffffffffffffffffffffffffffffffffffff168152602001908152602001600020600601546142e790919063ffffffff16565b6004600085815260200190815260200160002060003373ffffffffffffffffffffffffffffffffffffffff1673ffffffffffffffffffffffffffffffffffffffff168152602001908152602001600020600601819055505b5b5b5b5b426004600085815260200190815260200160002060003373ffffffffffffffffffffffffffffffffffffffff1673ffffffffffffffffffffffffffffffffffffffff16815260200190815260200160002060050181905550612c6f60016004600086815260200190815260200160002060003373ffffffffffffffffffffffffffffffffffffffff1673ffffffffffffffffffffffffffffffffffffffff168152602001908152602001600020600701546142e790919063ffffffff16565b6004600085815260200190815260200160002060003373ffffffffffffffffffffffffffffffffffffffff1673ffffffffffffffffffffffffffffffffffffffff1681526020019081526020016000206007018190555050506001808190555050565b612cda611cc9565b612d4c576040517f08c379a00000000000000000000000000000000000000000000000000000000081526004018080602001828103825260208152602001807f4f776e61626c653a2063616c6c6572206973206e6f7420746865206f776e657281525060200191505060405180910390fd5b8960066000838152602001908152602001600020600001819055508a60066000838152602001908152602001600020600101819055508760066000838152602001908152602001600020600201819055508860066000838152602001908152602001600020600301819055508560066000838152602001908152602001600020600401819055508660066000838152602001908152602001600020600501819055508360066000838152602001908152602001600020600601819055508460066000838152602001908152602001600020600701819055508160066000838152602001908152602001600020600801819055508260066000838152602001908152602001600020600901819055505050505050505050505050565b600080612e7e60018461429d90919063ffffffff16565b905060058181548110612e8d57fe5b90600052602060002090600e0201600a0154915050919050565b6004602052816000526040600020602052806000526040600020600091509150508060000154908060010160009054906101000a900473ffffffffffffffffffffffffffffffffffffffff16908060010160149054906101000a900460ff16908060020154908060030154908060040154908060050154908060060154908060070154908060080160009054906101000a900460ff1690508a565b6000806000806004600086815260200190815260200160002060003373ffffffffffffffffffffffffffffffffffffffff1673ffffffffffffffffffffffffffffffffffffffff16815260200190815260200160002060010160009054906101000a900473ffffffffffffffffffffffffffffffffffffffff166004600087815260200190815260200160002060003373ffffffffffffffffffffffffffffffffffffffff1673ffffffffffffffffffffffffffffffffffffffff16815260200190815260200160002060010160149054906101000a900460ff166004600088815260200190815260200160002060003373ffffffffffffffffffffffffffffffffffffffff1673ffffffffffffffffffffffffffffffffffffffff168152602001908152602001600020600201546004600089815260200190815260200160002060003373ffffffffffffffffffffffffffffffffffffffff1673ffffffffffffffffffffffffffffffffffffffff1681526020019081526020016000206003015493509350935093509193509193565b6000806130eb60018461429d90919063ffffffff16565b9050600581815481106130fa57fe5b90600052602060002090600e0201600c0154915050919050565b61311c611cc9565b61318e576040517f08c379a00000000000000000000000000000000000000000000000000000000081526004018080602001828103825260208152602001807f4f776e61626c653a2063616c6c6572206973206e6f7420746865206f776e657281525060200191505060405180910390fd5b8073ffffffffffffffffffffffffffffffffffffffff1663a9059cbb6131b2611ca0565b8373ffffffffffffffffffffffffffffffffffffffff166370a08231306040518263ffffffff1660e01b8152600401808273ffffffffffffffffffffffffffffffffffffffff1673ffffffffffffffffffffffffffffffffffffffff16815260200191505060206040518083038186803b15801561322f57600080fd5b505afa158015613243573d6000803e3d6000fd5b505050506040513d602081101561325957600080fd5b81019080805190602001909291905050506040518363ffffffff1660e01b8152600401808373ffffffffffffffffffffffffffffffffffffffff1673ffffffffffffffffffffffffffffffffffffffff16815260200182815260200192505050602060405180830381600087803b1580156132d357600080fd5b505af11580156132e7573d6000803e3d6000fd5b505050506040513d60208110156132fd57600080fd5b81019080805190602001909291905050505050565b6002600154141561338b576040517f08c379a000000000000000000000000000000000000000000000000000000000815260040180806020018281038252601f8152602001807f5265656e7472616e637947756172643a207265656e7472616e742063616c6c0081525060200191505060405180910390fd5b600260018190555060006133a960018661429d90919063ffffffff16565b90506002600582815481106133ba57fe5b90600052602060002090600e02016003015414156135525760003387604051602001808373ffffffffffffffffffffffffffffffffffffffff1673ffffffffffffffffffffffffffffffffffffffff1660601b815260140182815260200192505050604051602081830303815290604052805190602001209050600061343f826144ff565b905060018187878760405160008152602001604052604051808581526020018460ff1660ff1681526020018381526020018281526020019450505050506020604051602081039080840390855afa15801561349e573d6000803e3d6000fd5b5050506020604051035173ffffffffffffffffffffffffffffffffffffffff166134c6611ca0565b73ffffffffffffffffffffffffffffffffffffffff161461354f576040517f08c379a000000000000000000000000000000000000000000000000000000000815260040180806020018281038252601f8152602001807f6f776e65722073686f756c64207369676e20707572636861736520696e666f0081525060200191505060405180910390fd5b50505b6005818154811061355f57fe5b90600052602060002090600e020160010154421015801561359e57506005818154811061358857fe5b90600052602060002090600e0201600201544211155b613610576040517f08c379a000000000000000000000000000000000000000000000000000000000815260040180806020018281038252600c8152602001807f696e76616c69642074696d65000000000000000000000000000000000000000081525060200191505060405180910390fd5b61361b33868861150a565b61368d576040517f08c379a000000000000000000000000000000000000000000000000000000000815260040180806020018281038252600c8152602001807f696e76616c69642075736572000000000000000000000000000000000000000081525060200191505060405180910390fd5b60003490506136f8816004600089815260200190815260200160002060003373ffffffffffffffffffffffffffffffffffffffff1673ffffffffffffffffffffffffffffffffffffffff168152602001908152602001600020600301546142e790919063ffffffff16565b6004600088815260200190815260200160002060003373ffffffffffffffffffffffffffffffffffffffff1673ffffffffffffffffffffffffffffffffffffffff1681526020019081526020016000206003018190555060026005838154811061375e57fe5b90600052602060002090600e0201600301541415613a1c57685150ae84a8cdf00000871015613856576005828154811061379457fe5b90600052602060002090600e0201600501546004600088815260200190815260200160002060003373ffffffffffffffffffffffffffffffffffffffff1673ffffffffffffffffffffffffffffffffffffffff168152602001908152602001600020600301541115613851576040517f08c379a0000000000000000000000000000000000000000000000000000000008152600401808060200182810382526022815260200180614b216022913960400191505060405180910390fd5b613a17565b685150ae84a8cdf000008710158015613877575068a2a15d09519be0000087105b1561394b576005828154811061388957fe5b90600052602060002090600e0201600601546004600088815260200190815260200160002060003373ffffffffffffffffffffffffffffffffffffffff1673ffffffffffffffffffffffffffffffffffffffff168152602001908152602001600020600301541115613946576040517f08c379a0000000000000000000000000000000000000000000000000000000008152600401808060200182810382526022815260200180614ade6022913960400191505060405180910390fd5b613a16565b6005828154811061395857fe5b90600052602060002090600e0201600701546004600088815260200190815260200160002060003373ffffffffffffffffffffffffffffffffffffffff1673ffffffffffffffffffffffffffffffffffffffff168152602001908152602001600020600301541115613a15576040517f08c379a0000000000000000000000000000000000000000000000000000000008152600401808060200182810382526022815260200180614b436022913960400191505060405180910390fd5b5b5b613c18565b600160058381548110613a2b57fe5b90600052602060002090600e0201600301541415613b2f5760058281548110613a5057fe5b90600052602060002090600e0201600601546004600088815260200190815260200160002060003373ffffffffffffffffffffffffffffffffffffffff1673ffffffffffffffffffffffffffffffffffffffff168152602001908152602001600020600301541115613b2a576040517f08c379a000000000000000000000000000000000000000000000000000000000815260040180806020018281038252601a8152602001807f696e76616c6964206d6178696d756d20636f6e7472696275746500000000000081525060200191505060405180910390fd5b613c17565b60058281548110613b3c57fe5b90600052602060002090600e0201600701546004600088815260200190815260200160002060003373ffffffffffffffffffffffffffffffffffffffff1673ffffffffffffffffffffffffffffffffffffffff168152602001908152602001600020600301541115613c16576040517f08c379a000000000000000000000000000000000000000000000000000000000815260040180806020018281038252601a8152602001807f696e76616c6964206d6178696d756d20636f6e7472696275746500000000000081525060200191505060405180910390fd5b5b5b6000613c65670de0b6b3a7640000613c5760058681548110613c3657fe5b90600052602060002090600e0201600b01548561437790919063ffffffff16565b6143fd90919063ffffffff16565b90506000613c7288611367565b905060058481548110613c8157fe5b90600052602060002090600e0201600901548111613d07576040517f08c379a000000000000000000000000000000000000000000000000000000000815260040180806020018281038252600c8152602001807f49444f20736f6c64206f7574000000000000000000000000000000000000000081525060200191505060405180910390fd5b81811015613d7d576040517f08c379a000000000000000000000000000000000000000000000000000000000815260040180806020018281038252600c8152602001807f49444f20736f6c64206f7574000000000000000000000000000000000000000081525060200191505060405180910390fd5b613de382600460008b815260200190815260200160002060003373ffffffffffffffffffffffffffffffffffffffff1673ffffffffffffffffffffffffffffffffffffffff168152602001908152602001600020600201546142e790919063ffffffff16565b600460008a815260200190815260200160002060003373ffffffffffffffffffffffffffffffffffffffff1673ffffffffffffffffffffffffffffffffffffffff16815260200190815260200160002060020181905550613e6b8260058681548110613e4b57fe5b90600052602060002090600e0201600c01546142e790919063ffffffff16565b60058581548110613e7857fe5b90600052602060002090600e0201600c018190555050505050600180819055505050505050565b6000806000806000806000613ebe60018961429d90919063ffffffff16565b90506006600082815260200190815260200160002060000154600660008381526020019081526020016000206001015460066000848152602001908152602001600020600201546006600085815260200190815260200160002060030154600660008681526020019081526020016000206004015460066000878152602001908152602001600020600501549650965096509650965096505091939550919395565b613f68611cc9565b613fda576040517f08c379a00000000000000000000000000000000000000000000000000000000081526004018080602001828103825260208152602001807f4f776e61626c653a2063616c6c6572206973206e6f7420746865206f776e657281525060200191505060405180910390fd5b816004600085815260200190815260200160002060008673ffffffffffffffffffffffffffffffffffffffff1673ffffffffffffffffffffffffffffffffffffffff16815260200190815260200160002060010160146101000a81548160ff021916908315150217905550806004600085815260200190815260200160002060008673ffffffffffffffffffffffffffffffffffffffff1673ffffffffffffffffffffffffffffffffffffffff16815260200190815260200160002060080160006101000a81548160ff02191690831515021790555050505050565b6140be611cc9565b614130576040517f08c379a00000000000000000000000000000000000000000000000000000000081526004018080602001828103825260208152602001807f4f776e61626c653a2063616c6c6572206973206e6f7420746865206f776e657281525060200191505060405180910390fd5b6000861115614155578560066000838152602001908152602001600020600001819055505b600087111561417a578660066000838152602001908152602001600020600101819055505b600084111561419f578360066000838152602001908152602001600020600201819055505b60008511156141c4578460066000838152602001908152602001600020600301819055505b60008211156141e9578160066000838152602001908152602001600020600401819055505b600083111561420e578260066000838152602001908152602001600020600501819055505b50505050505050565b61421f611cc9565b614291576040517f08c379a00000000000000000000000000000000000000000000000000000000081526004018080602001828103825260208152602001807f4f776e61626c653a2063616c6c6572206973206e6f7420746865206f776e657281525060200191505060405180910390fd5b61429a81614557565b50565b60006142df83836040518060400160405280601e81526020017f536166654d6174683a207375627472616374696f6e206f766572666c6f77000081525061469b565b905092915050565b600080828401905083811015614365576040517f08c379a000000000000000000000000000000000000000000000000000000000815260040180806020018281038252601b8152602001807f536166654d6174683a206164646974696f6e206f766572666c6f77000000000081525060200191505060405180910390fd5b8091505092915050565b600033905090565b60008083141561438a57600090506143f7565b600082840290508284828161439b57fe5b04146143f2576040517f08c379a0000000000000000000000000000000000000000000000000000000008152600401808060200182810382526021815260200180614b006021913960400191505060405180910390fd5b809150505b92915050565b600061443f83836040518060400160405280601a81526020017f536166654d6174683a206469766973696f6e206279207a65726f00000000000081525061475b565b905092915050565b6144fa8363a9059cbb60e01b8484604051602401808373ffffffffffffffffffffffffffffffffffffffff1673ffffffffffffffffffffffffffffffffffffffff16815260200182815260200192505050604051602081830303815290604052907bffffffffffffffffffffffffffffffffffffffffffffffffffffffff19166020820180517bffffffffffffffffffffffffffffffffffffffffffffffffffffffff8381831617835250505050614821565b505050565b60008160405160200180807f19457468657265756d205369676e6564204d6573736167653a0a333200000000815250601c01828152602001915050604051602081830303815290604052805190602001209050919050565b600073ffffffffffffffffffffffffffffffffffffffff168173ffffffffffffffffffffffffffffffffffffffff1614156145dd576040517f08c379a0000000000000000000000000000000000000000000000000000000008152600401808060200182810382526026815260200180614ab86026913960400191505060405180910390fd5b8073ffffffffffffffffffffffffffffffffffffffff166000809054906101000a900473ffffffffffffffffffffffffffffffffffffffff1673ffffffffffffffffffffffffffffffffffffffff167f8be0079c531659141344cd1fd0a4f28419497f9722a3daafe3b4186f6b6457e060405160405180910390a3806000806101000a81548173ffffffffffffffffffffffffffffffffffffffff021916908373ffffffffffffffffffffffffffffffffffffffff16021790555050565b6000838311158290614748576040517f08c379a00000000000000000000000000000000000000000000000000000000081526004018080602001828103825283818151815260200191508051906020019080838360005b8381101561470d5780820151818401526020810190506146f2565b50505050905090810190601f16801561473a5780820380516001836020036101000a031916815260200191505b509250505060405180910390fd5b5060008385039050809150509392505050565b60008083118290614807576040517f08c379a00000000000000000000000000000000000000000000000000000000081526004018080602001828103825283818151815260200191508051906020019080838360005b838110156147cc5780820151818401526020810190506147b1565b50505050905090810190601f1680156147f95780820380516001836020036101000a031916815260200191505b509250505060405180910390fd5b50600083858161481357fe5b049050809150509392505050565b6148408273ffffffffffffffffffffffffffffffffffffffff16614a6c565b6148b2576040517f08c379a000000000000000000000000000000000000000000000000000000000815260040180806020018281038252601f8152602001807f5361666545524332303a2063616c6c20746f206e6f6e2d636f6e74726163740081525060200191505060405180910390fd5b600060608373ffffffffffffffffffffffffffffffffffffffff16836040518082805190602001908083835b6020831061490157805182526020820191506020810190506020830392506148de565b6001836020036101000a0380198251168184511680821785525050505050509050019150506000604051808303816000865af19150503d8060008114614963576040519150601f19603f3d011682016040523d82523d6000602084013e614968565b606091505b5091509150816149e0576040517f08c379a00000000000000000000000000000000000000000000000000000000081526004018080602001828103825260208152602001807f5361666545524332303a206c6f772d6c6576656c2063616c6c206661696c656481525060200191505060405180910390fd5b600081511115614a66578080602001905160208110156149ff57600080fd5b8101908080519060200190929190505050614a65576040517f08c379a000000000000000000000000000000000000000000000000000000000815260040180806020018281038252602a815260200180614b65602a913960400191505060405180910390fd5b5b50505050565b60008060007fc5d2460186f7233c927e7db2dcc703c0e500b653ca82273b7bfad8045d85a47060001b9050833f9150808214158015614aae57506000801b8214155b9250505091905056fe4f776e61626c653a206e6577206f776e657220697320746865207a65726f2061646472657373696e76616c6964206d6178696d756d20707572636861736520666f72207469657232536166654d6174683a206d756c7469706c69636174696f6e206f766572666c6f77696e76616c6964206d6178696d756d20707572636861736520666f72207469657231696e76616c6964206d6178696d756d20707572636861736520666f722074696572335361666545524332303a204552433230206f7065726174696f6e20646964206e6f742073756363656564a2646970667358221220be059f1d31737ca38fea1dcf40f1407942843d75b00e20d57aa7318c9719949c64736f6c63430006020033",
  "source": "pragma solidity >=0.6.0;\r\n\r\nimport \"@openzeppelin/contracts/token/ERC20/SafeERC20.sol\";\r\nimport \"@openzeppelin/contracts/math/SafeMath.sol\";\r\nimport \"@openzeppelin/contracts/ownership/Ownable.sol\";\r\nimport \"./ReentrancyGuard.sol\";\r\n\r\nlibrary ECDSA {\r\n    /**\r\n     * @dev Recover signer address from a message by using their signature\r\n     * @param hash bytes32 message, the hash is the signed message. What is recovered is the signer address.\r\n     * @param signature bytes signature, the signature is generated using web3.eth.sign()\r\n     */\r\n    function recover(bytes32 hash, bytes memory signature)\r\n        internal\r\n        pure\r\n        returns (address)\r\n    {\r\n        bytes32 r;\r\n        bytes32 s;\r\n        uint8 v;\r\n\r\n        // Check the signature length\r\n        if (signature.length != 65) {\r\n            return (address(0));\r\n        }\r\n\r\n        // Divide the signature in r, s and v variables with inline assembly.\r\n        assembly {\r\n            r := mload(add(signature, 0x20))\r\n            s := mload(add(signature, 0x40))\r\n            v := byte(0, mload(add(signature, 0x60)))\r\n        }\r\n\r\n        // Version of signature should be 27 or 28, but 0 and 1 are also possible versions\r\n        if (v < 27) {\r\n            v += 27;\r\n        }\r\n\r\n        // If the version is correct return the signer address\r\n        if (v != 27 && v != 28) {\r\n            return (address(0));\r\n        } else {\r\n            // solium-disable-next-line arg-overflow\r\n            return ecrecover(hash, v, r, s);\r\n        }\r\n    }\r\n\r\n    /**\r\n     * toEthSignedMessageHash\r\n     * @dev prefix a bytes32 value with \"\\x19Ethereum Signed Message:\"\r\n     * and hash the result\r\n     */\r\n    function toEthSignedMessageHash(bytes32 hash)\r\n        internal\r\n        pure\r\n        returns (bytes32)\r\n    {\r\n        return\r\n            keccak256(\r\n                abi.encodePacked(\"\\x19Ethereum Signed Message:\\n32\", hash)\r\n            );\r\n    }\r\n}\r\n\r\ncontract PolkabridgeLaunchPadV2 is Ownable, ReentrancyGuard {\r\n    string public name = \"PolkaBridge: LaunchPad V2\";\r\n    using SafeMath for uint256;\r\n    using SafeERC20 for IERC20;\r\n    using ECDSA for bytes32;\r\n\r\n    address payable private ReceiveToken;\r\n\r\n    struct IDOPool {\r\n        uint256 Id;\r\n        uint256 Begin;\r\n        uint256 End;\r\n        uint256 Type; //1: comminity round, 2 stackers round\r\n        IERC20 IDOToken;\r\n        uint256 MaxPurchaseTier1;\r\n        uint256 MaxPurchaseTier2; //==comminity tier\r\n        uint256 MaxPurchaseTier3;\r\n        uint256 TotalCap;\r\n        uint256 MinimumTokenSoldout;\r\n        uint256 TotalToken; //total sale token for this pool\r\n        uint256 RatePerETH;\r\n        uint256 TotalSold; //total number of token sold\r\n        uint256 MinimumStakeAmount;\r\n    }\r\n\r\n    struct ClaimInfo {\r\n        uint256 ClaimTime1;\r\n        uint256 PercentClaim1;\r\n        uint256 ClaimTime2;\r\n        uint256 PercentClaim2;\r\n        uint256 ClaimTime3;\r\n        uint256 PercentClaim3;\r\n        uint256 ClaimTime4;\r\n        uint256 PercentClaim4;\r\n        uint256 ClaimTime5;\r\n        uint256 PercentClaim5;\r\n    }\r\n\r\n    struct User {\r\n        uint256 Id;\r\n        address UserAddress;\r\n        bool IsWhitelist;\r\n        uint256 TotalTokenPurchase;\r\n        uint256 TotalETHPurchase;\r\n        uint256 PurchaseTime;\r\n        uint256 LastClaimed;\r\n        uint256 TotalPercentClaimed;\r\n        uint256 NumberClaimed;\r\n        bool IsActived;\r\n    }\r\n\r\n    mapping(uint256 => mapping(address => User)) public users; //poolid - listuser\r\n\r\n    IDOPool[] pools;\r\n\r\n    mapping(uint256 => ClaimInfo) public claimInfos; //pid\r\n\r\n    constructor(address payable receiveTokenAdd) public {\r\n        ReceiveToken = receiveTokenAdd;\r\n    }\r\n\r\n    function addMulWhitelist(address[] memory user, uint256 pid)\r\n        public\r\n        onlyOwner\r\n    {\r\n        for (uint256 i = 0; i < user.length; i++) {\r\n            users[pid][user[i]].Id = pid;\r\n            users[pid][user[i]].UserAddress = user[i];\r\n            users[pid][user[i]].IsWhitelist = true;\r\n            users[pid][user[i]].IsActived = true;\r\n        }\r\n    }\r\n\r\n    function updateWhitelist(\r\n        address user,\r\n        uint256 pid,\r\n        bool isWhitelist,\r\n        bool isActived\r\n    ) public onlyOwner {\r\n        users[pid][user].IsWhitelist = isWhitelist;\r\n        users[pid][user].IsActived = isActived;\r\n    }\r\n\r\n    function IsWhitelist(\r\n        address user,\r\n        uint256 pid,\r\n        uint256 stackAmount\r\n    ) public view returns (bool) {\r\n        uint256 poolIndex = pid.sub(1);\r\n        if (pools[poolIndex].Type == 1) // community round\r\n        {\r\n            return true;\r\n        } else if (pools[poolIndex].Type == 2) // stakers round\r\n        {\r\n            if (stackAmount >= pools[poolIndex].MinimumStakeAmount) return true;\r\n            return false;\r\n        } else if (pools[poolIndex].Type == 3) //internal\r\n        {\r\n            if (users[poolIndex][user].IsWhitelist) return true;\r\n            return false;\r\n        } else {\r\n            return false;\r\n        }\r\n    }\r\n\r\n    function addPool(\r\n        uint256 begin,\r\n        uint256 end,\r\n        uint256 _type,\r\n        IERC20 idoToken,\r\n        uint256 maxPurchaseTier1,\r\n        uint256 maxPurchaseTier2,\r\n        uint256 maxPurchaseTier3,\r\n        uint256 totalCap,\r\n        uint256 totalToken,\r\n        uint256 ratePerETH,\r\n        uint256 minimumTokenSoldout,\r\n        uint256 minimumStakeAmount\r\n    ) public onlyOwner {\r\n        uint256 id = pools.length.add(1);\r\n        pools.push(\r\n            IDOPool({\r\n                Id: id,\r\n                Begin: begin,\r\n                End: end,\r\n                Type: _type,\r\n                IDOToken: idoToken,\r\n                MaxPurchaseTier1: maxPurchaseTier1,\r\n                MaxPurchaseTier2: maxPurchaseTier2,\r\n                MaxPurchaseTier3: maxPurchaseTier3,\r\n                TotalCap: totalCap,\r\n                TotalToken: totalToken,\r\n                RatePerETH: ratePerETH,\r\n                TotalSold: 0,\r\n                MinimumTokenSoldout: minimumTokenSoldout,\r\n                MinimumStakeAmount: minimumStakeAmount\r\n            })\r\n        );\r\n    }\r\n\r\n    function addClaimInfo(\r\n        uint256 percentClaim1,\r\n        uint256 claimTime1,\r\n        uint256 percentClaim2,\r\n        uint256 claimTime2,\r\n        uint256 percentClaim3,\r\n        uint256 claimTime3,\r\n         uint256 percentClaim4,\r\n        uint256 claimTime4,\r\n         uint256 percentClaim5,\r\n        uint256 claimTime5,\r\n        uint256 pid\r\n    ) public onlyOwner {\r\n        claimInfos[pid].ClaimTime1 = claimTime1;\r\n        claimInfos[pid].PercentClaim1 = percentClaim1;\r\n        claimInfos[pid].ClaimTime2 = claimTime2;\r\n        claimInfos[pid].PercentClaim2 = percentClaim2;\r\n        claimInfos[pid].ClaimTime3 = claimTime3;\r\n        claimInfos[pid].PercentClaim3 = percentClaim3;\r\n        claimInfos[pid].ClaimTime4 = claimTime4;\r\n        claimInfos[pid].PercentClaim4 = percentClaim4;\r\n        claimInfos[pid].ClaimTime5 = claimTime5;\r\n        claimInfos[pid].PercentClaim5 = percentClaim5;\r\n    }\r\n\r\n    function updateClaimInfo(\r\n        uint256 percentClaim1,\r\n        uint256 claimTime1,\r\n        uint256 percentClaim2,\r\n        uint256 claimTime2,\r\n        uint256 percentClaim3,\r\n        uint256 claimTime3,\r\n        uint256 pid\r\n    ) public onlyOwner {\r\n        if (claimTime1 > 0) {\r\n            claimInfos[pid].ClaimTime1 = claimTime1;\r\n        }\r\n\r\n        if (percentClaim1 > 0) {\r\n            claimInfos[pid].PercentClaim1 = percentClaim1;\r\n        }\r\n        if (claimTime2 > 0) {\r\n            claimInfos[pid].ClaimTime2 = claimTime2;\r\n        }\r\n\r\n        if (percentClaim2 > 0) {\r\n            claimInfos[pid].PercentClaim2 = percentClaim2;\r\n        }\r\n\r\n        if (claimTime3 > 0) {\r\n            claimInfos[pid].ClaimTime3 = claimTime3;\r\n        }\r\n\r\n        if (percentClaim3 > 0) {\r\n            claimInfos[pid].PercentClaim3 = percentClaim3;\r\n        }\r\n    }\r\n\r\n    function updatePool(\r\n        uint256 pid,\r\n        uint256 begin,\r\n        uint256 end,\r\n        uint256 maxPurchaseTier1,\r\n        uint256 maxPurchaseTier2,\r\n        uint256 maxPurchaseTier3,\r\n        uint256 totalCap,\r\n        uint256 totalToken,\r\n        uint256 ratePerETH,\r\n        IERC20 idoToken,\r\n        uint256 minimumTokenSoldout,\r\n        uint256 pooltype,\r\n        uint256 minimumStakeAmount\r\n    ) public onlyOwner {\r\n        uint256 poolIndex = pid.sub(1);\r\n        if (begin > 0) {\r\n            pools[poolIndex].Begin = begin;\r\n        }\r\n        if (end > 0) {\r\n            pools[poolIndex].End = end;\r\n        }\r\n\r\n        if (maxPurchaseTier1 > 0) {\r\n            pools[poolIndex].MaxPurchaseTier1 = maxPurchaseTier1;\r\n        }\r\n        if (maxPurchaseTier2 > 0) {\r\n            pools[poolIndex].MaxPurchaseTier2 = maxPurchaseTier2;\r\n        }\r\n        if (maxPurchaseTier3 > 0) {\r\n            pools[poolIndex].MaxPurchaseTier3 = maxPurchaseTier3;\r\n        }\r\n        if (totalCap > 0) {\r\n            pools[poolIndex].TotalCap = totalCap;\r\n        }\r\n        if (totalToken > 0) {\r\n            pools[poolIndex].TotalToken = totalToken;\r\n        }\r\n        if (ratePerETH > 0) {\r\n            pools[poolIndex].RatePerETH = ratePerETH;\r\n        }\r\n\r\n        if (minimumStakeAmount > 0) {\r\n            pools[poolIndex].MinimumStakeAmount = minimumStakeAmount;\r\n        }\r\n\r\n        if (minimumTokenSoldout > 0) {\r\n            pools[poolIndex].MinimumTokenSoldout = minimumTokenSoldout;\r\n        }\r\n        if (pooltype > 0) {\r\n            pools[poolIndex].Type = pooltype;\r\n        }\r\n        pools[poolIndex].IDOToken = idoToken;\r\n    }\r\n\r\n    function withdrawErc20(IERC20 token) public onlyOwner {\r\n        token.transfer(owner(), token.balanceOf(address(this)));\r\n    }\r\n\r\n    //withdraw ETH after IDO\r\n    function withdrawPoolFund() public onlyOwner {\r\n        uint256 balance = address(this).balance;\r\n        require(balance > 0, \"not enough fund\");\r\n        ReceiveToken.transfer(balance);\r\n    }\r\n\r\n    function purchaseIDO(\r\n        uint256 stakeAmount,\r\n        uint256 pid,\r\n        uint8 v,\r\n        bytes32 r,\r\n        bytes32 s\r\n    ) public payable nonReentrant {\r\n        uint256 poolIndex = pid.sub(1);\r\n\r\n        if (pools[poolIndex].Type == 2) {\r\n            bytes32 _hash = keccak256(abi.encodePacked(msg.sender, stakeAmount));\r\n            bytes32 messageHash = _hash.toEthSignedMessageHash();\r\n\r\n            require(\r\n                owner() == ecrecover(messageHash, v, r, s),\r\n                \"owner should sign purchase info\"\r\n            );\r\n        }\r\n\r\n        require(\r\n            block.timestamp >= pools[poolIndex].Begin &&\r\n                block.timestamp <= pools[poolIndex].End,\r\n            \"invalid time\"\r\n        );\r\n        //check user\r\n        require(IsWhitelist(msg.sender, pid, stakeAmount), \"invalid user\");\r\n\r\n        //check amount\r\n        uint256 ethAmount = msg.value;\r\n        users[pid][msg.sender].TotalETHPurchase = users[pid][msg.sender]\r\n            .TotalETHPurchase\r\n            .add(ethAmount);\r\n\r\n        if (pools[poolIndex].Type == 2) {\r\n            //stackers round\r\n            if (stakeAmount < 1500 * 1e18) {\r\n                require(\r\n                    users[pid][msg.sender].TotalETHPurchase <=\r\n                        pools[poolIndex].MaxPurchaseTier1,\r\n                    \"invalid maximum purchase for tier1\"\r\n                );\r\n            } else if (\r\n                stakeAmount >= 1500 * 1e18 && stakeAmount < 3000 * 1e18\r\n            ) {\r\n                require(\r\n                    users[pid][msg.sender].TotalETHPurchase <=\r\n                        pools[poolIndex].MaxPurchaseTier2,\r\n                    \"invalid maximum purchase for tier2\"\r\n                );\r\n            } else {\r\n                require(\r\n                    users[pid][msg.sender].TotalETHPurchase <=\r\n                        pools[poolIndex].MaxPurchaseTier3,\r\n                    \"invalid maximum purchase for tier3\"\r\n                );\r\n            }\r\n        } else if (pools[poolIndex].Type == 1) {\r\n            //community round\r\n\r\n            require(\r\n                users[pid][msg.sender].TotalETHPurchase <=\r\n                    pools[poolIndex].MaxPurchaseTier2,\r\n                \"invalid maximum contribute\"\r\n            );\r\n        } else {\r\n            //=3\r\n            require(\r\n                users[pid][msg.sender].TotalETHPurchase <=\r\n                    pools[poolIndex].MaxPurchaseTier3,\r\n                \"invalid maximum contribute\"\r\n            );\r\n        }\r\n\r\n        uint256 tokenAmount = ethAmount.mul(pools[poolIndex].RatePerETH).div(\r\n            1e18\r\n        );\r\n\r\n        uint256 remainToken = getRemainIDOToken(pid);\r\n        require(\r\n            remainToken > pools[poolIndex].MinimumTokenSoldout,\r\n            \"IDO sold out\"\r\n        );\r\n        require(remainToken >= tokenAmount, \"IDO sold out\");\r\n\r\n        users[pid][msg.sender].TotalTokenPurchase = users[pid][msg.sender]\r\n            .TotalTokenPurchase\r\n            .add(tokenAmount);\r\n\r\n        pools[poolIndex].TotalSold = pools[poolIndex].TotalSold.add(\r\n            tokenAmount\r\n        );\r\n    }\r\n\r\n    function claimToken(uint256 pid) public nonReentrant {\r\n        require(\r\n            users[pid][msg.sender].TotalPercentClaimed < 100,\r\n            \"you have claimed enough\"\r\n        );\r\n        uint256 userBalance = getUserTotalPurchase(pid);\r\n        require(userBalance > 0, \"invalid claim\");\r\n\r\n        uint256 poolIndex = pid.sub(1);\r\n        if (users[pid][msg.sender].NumberClaimed == 0) {\r\n            require(\r\n                block.timestamp >= claimInfos[poolIndex].ClaimTime1,\r\n                \"invalid time\"\r\n            );\r\n            pools[poolIndex].IDOToken.safeTransfer(\r\n                msg.sender,\r\n                userBalance.mul(claimInfos[poolIndex].PercentClaim1).div(100)\r\n            );\r\n          users[pid][msg.sender].TotalPercentClaimed=  users[pid][msg.sender].TotalPercentClaimed.add(\r\n                claimInfos[poolIndex].PercentClaim1\r\n            );\r\n        } else if (users[pid][msg.sender].NumberClaimed == 1) {\r\n            require(\r\n                block.timestamp >= claimInfos[poolIndex].ClaimTime2,\r\n                \"invalid time\"\r\n            );\r\n            pools[poolIndex].IDOToken.safeTransfer(\r\n                msg.sender,\r\n                userBalance.mul(claimInfos[poolIndex].PercentClaim2).div(100)\r\n            );\r\n            users[pid][msg.sender].TotalPercentClaimed=users[pid][msg.sender].TotalPercentClaimed.add(\r\n                claimInfos[poolIndex].PercentClaim2\r\n            );\r\n        } else if (users[pid][msg.sender].NumberClaimed == 2) {\r\n            require(\r\n                block.timestamp >= claimInfos[poolIndex].ClaimTime3,\r\n                \"invalid time\"\r\n            );\r\n            pools[poolIndex].IDOToken.safeTransfer(\r\n                msg.sender,\r\n                userBalance.mul(claimInfos[poolIndex].PercentClaim3).div(100)\r\n            );\r\n           users[pid][msg.sender].TotalPercentClaimed= users[pid][msg.sender].TotalPercentClaimed.add(\r\n                claimInfos[poolIndex].PercentClaim3\r\n            );\r\n        }\r\n\r\n         else if (users[pid][msg.sender].NumberClaimed == 3) {\r\n            require(\r\n                block.timestamp >= claimInfos[poolIndex].ClaimTime4,\r\n                \"invalid time\"\r\n            );\r\n            pools[poolIndex].IDOToken.safeTransfer(\r\n                msg.sender,\r\n                userBalance.mul(claimInfos[poolIndex].PercentClaim4).div(100)\r\n            );\r\n           users[pid][msg.sender].TotalPercentClaimed= users[pid][msg.sender].TotalPercentClaimed.add(\r\n                claimInfos[poolIndex].PercentClaim4\r\n            );\r\n        }\r\n         else if (users[pid][msg.sender].NumberClaimed == 4) {\r\n            require(\r\n                block.timestamp >= claimInfos[poolIndex].ClaimTime5,\r\n                \"invalid time\"\r\n            );\r\n            pools[poolIndex].IDOToken.safeTransfer(\r\n                msg.sender,\r\n                userBalance.mul(claimInfos[poolIndex].PercentClaim5).div(100)\r\n            );\r\n           users[pid][msg.sender].TotalPercentClaimed= users[pid][msg.sender].TotalPercentClaimed.add(\r\n                claimInfos[poolIndex].PercentClaim5\r\n            );\r\n        }\r\n\r\n        users[pid][msg.sender].LastClaimed = block.timestamp;\r\n        users[pid][msg.sender].NumberClaimed=users[pid][msg.sender].NumberClaimed.add(1);\r\n    }\r\n\r\n    function getUserTotalPurchase(uint256 pid) public view returns (uint256) {\r\n        return users[pid][msg.sender].TotalTokenPurchase;\r\n    }\r\n\r\n    function getRemainIDOToken(uint256 pid) public view returns (uint256) {\r\n        uint256 poolIndex = pid.sub(1);\r\n        uint256 tokenBalance = getBalanceTokenByPoolId(pid);\r\n        if (pools[poolIndex].TotalSold > tokenBalance) {\r\n            return 0;\r\n        }\r\n\r\n        return tokenBalance.sub(pools[poolIndex].TotalSold);\r\n    }\r\n\r\n    function getBalanceTokenByPoolId(uint256 pid)\r\n        public\r\n        view\r\n        returns (uint256)\r\n    {\r\n        uint256 poolIndex = pid.sub(1);\r\n\r\n        return pools[poolIndex].TotalToken;\r\n    }\r\n\r\n    function getPoolInfo(uint256 pid)\r\n        public\r\n        view\r\n        returns (\r\n            uint256,\r\n            uint256,\r\n            uint256,\r\n            uint256,\r\n            uint256,\r\n            IERC20\r\n        )\r\n    {\r\n        uint256 poolIndex = pid.sub(1);\r\n        return (\r\n            pools[poolIndex].Begin,\r\n            pools[poolIndex].End,\r\n            pools[poolIndex].Type,\r\n            pools[poolIndex].RatePerETH,\r\n            pools[poolIndex].TotalSold,\r\n            pools[poolIndex].IDOToken\r\n        );\r\n    }\r\n\r\n    function getClaimInfo(uint256 pid)\r\n        public\r\n        view\r\n        returns (\r\n            uint256,\r\n            uint256,\r\n            uint256,\r\n            uint256,\r\n            uint256,\r\n            uint256\r\n        )\r\n    {\r\n        uint256 poolIndex = pid.sub(1);\r\n        return (\r\n            claimInfos[poolIndex].ClaimTime1,\r\n            claimInfos[poolIndex].PercentClaim1,\r\n            claimInfos[poolIndex].ClaimTime2,\r\n            claimInfos[poolIndex].PercentClaim2,\r\n            claimInfos[poolIndex].ClaimTime3,\r\n            claimInfos[poolIndex].PercentClaim3\r\n        );\r\n    }\r\n\r\n    function getPoolSoldInfo(uint256 pid) public view returns (uint256) {\r\n        uint256 poolIndex = pid.sub(1);\r\n        return (pools[poolIndex].TotalSold);\r\n    }\r\n\r\n    function getWhitelistfo(uint256 pid)\r\n        public\r\n        view\r\n        returns (\r\n            address,\r\n            bool,\r\n            uint256,\r\n            uint256\r\n        )\r\n    {\r\n        return (\r\n            users[pid][msg.sender].UserAddress,\r\n            users[pid][msg.sender].IsWhitelist,\r\n            users[pid][msg.sender].TotalTokenPurchase,\r\n            users[pid][msg.sender].TotalETHPurchase\r\n        );\r\n    }\r\n\r\n    function getUserInfo(uint256 pid, address user)\r\n        public\r\n        view\r\n        returns (\r\n            bool,\r\n            uint256,\r\n            uint256,\r\n            uint256\r\n        )\r\n    {\r\n        return (\r\n            users[pid][user].IsWhitelist,\r\n            users[pid][user].TotalTokenPurchase,\r\n            users[pid][user].TotalETHPurchase,\r\n            users[pid][user].TotalPercentClaimed\r\n        );\r\n    }\r\n\r\n    \r\n}\r\n",
  "sourcePath": "C:/Users/Thanh Phi/Desktop/PolkaBridgeSolution/PolkaBridge-LaunchPad/contracts/PolkabridgeLaunchPadV2.sol",
  "compiler": {
    "name": "solc",
    "version": "0.6.2+commit.bacdbe57.Emscripten.clang"
  },
  "schemaVersion": "3.0.20",
  "updatedAt": "2021-10-11T15:02:37.442Z",
  "devdoc": {
    "methods": {
      "isOwner()": {
        "details": "Returns true if the caller is the current owner."
      },
      "owner()": {
        "details": "Returns the address of the current owner."
      },
      "renounceOwnership()": {
        "details": "Leaves the contract without owner. It will not be possible to call `onlyOwner` functions anymore. Can only be called by the current owner.     * NOTE: Renouncing ownership will leave the contract without an owner, thereby removing any functionality that is only available to the owner."
      },
      "transferOwnership(address)": {
        "details": "Transfers ownership of the contract to a new account (`newOwner`). Can only be called by the current owner."
      }
    }
  },
  "userdoc": {
    "methods": {}
  }
}