{
  "contractName": "PolkabridgeLaunchPadV2",
  "abi": [
    {
      "inputs": [
        {
          "internalType": "address payable",
          "name": "receiveTokenAdd",
          "type": "address"
        }
      ],
      "stateMutability": "nonpayable",
      "type": "constructor"
    },
    {
      "anonymous": false,
      "inputs": [
        {
          "indexed": true,
          "internalType": "address",
          "name": "previousOwner",
          "type": "address"
        },
        {
          "indexed": true,
          "internalType": "address",
          "name": "newOwner",
          "type": "address"
        }
      ],
      "name": "OwnershipTransferred",
      "type": "event"
    },
    {
      "inputs": [
        {
          "internalType": "uint256",
          "name": "",
          "type": "uint256"
        }
      ],
      "name": "claimInfos",
      "outputs": [
        {
          "internalType": "uint256",
          "name": "ClaimTime1",
          "type": "uint256"
        },
        {
          "internalType": "uint256",
          "name": "PercentClaim1",
          "type": "uint256"
        },
        {
          "internalType": "uint256",
          "name": "ClaimTime2",
          "type": "uint256"
        },
        {
          "internalType": "uint256",
          "name": "PercentClaim2",
          "type": "uint256"
        },
        {
          "internalType": "uint256",
          "name": "ClaimTime3",
          "type": "uint256"
        },
        {
          "internalType": "uint256",
          "name": "PercentClaim3",
          "type": "uint256"
        }
      ],
      "stateMutability": "view",
      "type": "function"
    },
    {
      "inputs": [],
      "name": "isOwner",
      "outputs": [
        {
          "internalType": "bool",
          "name": "",
          "type": "bool"
        }
      ],
      "stateMutability": "view",
      "type": "function"
    },
    {
      "inputs": [],
      "name": "name",
      "outputs": [
        {
          "internalType": "string",
          "name": "",
          "type": "string"
        }
      ],
      "stateMutability": "view",
      "type": "function"
    },
    {
      "inputs": [],
      "name": "owner",
      "outputs": [
        {
          "internalType": "address",
          "name": "",
          "type": "address"
        }
      ],
      "stateMutability": "view",
      "type": "function"
    },
    {
      "inputs": [],
      "name": "renounceOwnership",
      "outputs": [],
      "stateMutability": "nonpayable",
      "type": "function"
    },
    {
      "inputs": [
        {
          "internalType": "address",
          "name": "newOwner",
          "type": "address"
        }
      ],
      "name": "transferOwnership",
      "outputs": [],
      "stateMutability": "nonpayable",
      "type": "function"
    },
    {
      "inputs": [
        {
          "internalType": "uint256",
          "name": "",
          "type": "uint256"
        },
        {
          "internalType": "address",
          "name": "",
          "type": "address"
        }
      ],
      "name": "users",
      "outputs": [
        {
          "internalType": "uint256",
          "name": "Id",
          "type": "uint256"
        },
        {
          "internalType": "address",
          "name": "UserAddress",
          "type": "address"
        },
        {
          "internalType": "bool",
          "name": "IsWhitelist",
          "type": "bool"
        },
        {
          "internalType": "uint256",
          "name": "TotalTokenPurchase",
          "type": "uint256"
        },
        {
          "internalType": "uint256",
          "name": "TotalETHPurchase",
          "type": "uint256"
        },
        {
          "internalType": "uint256",
          "name": "PurchaseTime",
          "type": "uint256"
        },
        {
          "internalType": "uint256",
          "name": "LastClaimed",
          "type": "uint256"
        },
        {
          "internalType": "uint256",
          "name": "TotalPercentClaimed",
          "type": "uint256"
        },
        {
          "internalType": "uint256",
          "name": "NumberClaimed",
          "type": "uint256"
        },
        {
          "internalType": "bool",
          "name": "IsActived",
          "type": "bool"
        }
      ],
      "stateMutability": "view",
      "type": "function"
    },
    {
      "inputs": [
        {
          "internalType": "address[]",
          "name": "user",
          "type": "address[]"
        },
        {
          "internalType": "uint256",
          "name": "pid",
          "type": "uint256"
        }
      ],
      "name": "addMulWhitelist",
      "outputs": [],
      "stateMutability": "nonpayable",
      "type": "function"
    },
    {
      "inputs": [
        {
          "internalType": "address",
          "name": "user",
          "type": "address"
        },
        {
          "internalType": "uint256",
          "name": "pid",
          "type": "uint256"
        },
        {
          "internalType": "bool",
          "name": "isWhitelist",
          "type": "bool"
        },
        {
          "internalType": "bool",
          "name": "isActived",
          "type": "bool"
        }
      ],
      "name": "updateWhitelist",
      "outputs": [],
      "stateMutability": "nonpayable",
      "type": "function"
    },
    {
      "inputs": [
        {
          "internalType": "address",
          "name": "user",
          "type": "address"
        },
        {
          "internalType": "uint256",
          "name": "pid",
          "type": "uint256"
        },
        {
          "internalType": "uint256",
          "name": "stackAmount",
          "type": "uint256"
        }
      ],
      "name": "IsWhitelist",
      "outputs": [
        {
          "internalType": "bool",
          "name": "",
          "type": "bool"
        }
      ],
      "stateMutability": "view",
      "type": "function"
    },
    {
      "inputs": [
        {
          "internalType": "uint256",
          "name": "begin",
          "type": "uint256"
        },
        {
          "internalType": "uint256",
          "name": "end",
          "type": "uint256"
        },
        {
          "internalType": "uint256",
          "name": "_type",
          "type": "uint256"
        },
        {
          "internalType": "contract IERC20",
          "name": "idoToken",
          "type": "address"
        },
        {
          "internalType": "uint256",
          "name": "maxPurchaseTier1",
          "type": "uint256"
        },
        {
          "internalType": "uint256",
          "name": "maxPurchaseTier2",
          "type": "uint256"
        },
        {
          "internalType": "uint256",
          "name": "maxPurchaseTier3",
          "type": "uint256"
        },
        {
          "internalType": "uint256",
          "name": "totalCap",
          "type": "uint256"
        },
        {
          "internalType": "uint256",
          "name": "totalToken",
          "type": "uint256"
        },
        {
          "internalType": "uint256",
          "name": "ratePerETH",
          "type": "uint256"
        },
        {
          "internalType": "uint256",
          "name": "minimumTokenSoldout",
          "type": "uint256"
        },
        {
          "internalType": "uint256",
          "name": "minimumStakeAmount",
          "type": "uint256"
        }
      ],
      "name": "addPool",
      "outputs": [],
      "stateMutability": "nonpayable",
      "type": "function"
    },
    {
      "inputs": [
        {
          "internalType": "uint256",
          "name": "percentClaim1",
          "type": "uint256"
        },
        {
          "internalType": "uint256",
          "name": "claimTime1",
          "type": "uint256"
        },
        {
          "internalType": "uint256",
          "name": "percentClaim2",
          "type": "uint256"
        },
        {
          "internalType": "uint256",
          "name": "claimTime2",
          "type": "uint256"
        },
        {
          "internalType": "uint256",
          "name": "percentClaim3",
          "type": "uint256"
        },
        {
          "internalType": "uint256",
          "name": "claimTime3",
          "type": "uint256"
        },
        {
          "internalType": "uint256",
          "name": "pid",
          "type": "uint256"
        }
      ],
      "name": "addClaimInfo",
      "outputs": [],
      "stateMutability": "nonpayable",
      "type": "function"
    },
    {
      "inputs": [
        {
          "internalType": "uint256",
          "name": "percentClaim1",
          "type": "uint256"
        },
        {
          "internalType": "uint256",
          "name": "claimTime1",
          "type": "uint256"
        },
        {
          "internalType": "uint256",
          "name": "percentClaim2",
          "type": "uint256"
        },
        {
          "internalType": "uint256",
          "name": "claimTime2",
          "type": "uint256"
        },
        {
          "internalType": "uint256",
          "name": "percentClaim3",
          "type": "uint256"
        },
        {
          "internalType": "uint256",
          "name": "claimTime3",
          "type": "uint256"
        },
        {
          "internalType": "uint256",
          "name": "pid",
          "type": "uint256"
        }
      ],
      "name": "updateClaimInfo",
      "outputs": [],
      "stateMutability": "nonpayable",
      "type": "function"
    },
    {
      "inputs": [
        {
          "internalType": "uint256",
          "name": "pid",
          "type": "uint256"
        },
        {
          "internalType": "uint256",
          "name": "begin",
          "type": "uint256"
        },
        {
          "internalType": "uint256",
          "name": "end",
          "type": "uint256"
        },
        {
          "internalType": "uint256",
          "name": "maxPurchaseTier1",
          "type": "uint256"
        },
        {
          "internalType": "uint256",
          "name": "maxPurchaseTier2",
          "type": "uint256"
        },
        {
          "internalType": "uint256",
          "name": "maxPurchaseTier3",
          "type": "uint256"
        },
        {
          "internalType": "uint256",
          "name": "totalCap",
          "type": "uint256"
        },
        {
          "internalType": "uint256",
          "name": "totalToken",
          "type": "uint256"
        },
        {
          "internalType": "uint256",
          "name": "ratePerETH",
          "type": "uint256"
        },
        {
          "internalType": "contract IERC20",
          "name": "idoToken",
          "type": "address"
        },
        {
          "internalType": "uint256",
          "name": "minimumTokenSoldout",
          "type": "uint256"
        },
        {
          "internalType": "uint256",
          "name": "pooltype",
          "type": "uint256"
        },
        {
          "internalType": "uint256",
          "name": "minimumStakeAmount",
          "type": "uint256"
        }
      ],
      "name": "updatePool",
      "outputs": [],
      "stateMutability": "nonpayable",
      "type": "function"
    },
    {
      "inputs": [
        {
          "internalType": "contract IERC20",
          "name": "token",
          "type": "address"
        }
      ],
      "name": "withdrawErc20",
      "outputs": [],
      "stateMutability": "nonpayable",
      "type": "function"
    },
    {
      "inputs": [],
      "name": "withdrawPoolFund",
      "outputs": [],
      "stateMutability": "nonpayable",
      "type": "function"
    },
    {
      "inputs": [
        {
          "internalType": "uint256",
          "name": "stakeAmount",
          "type": "uint256"
        },
        {
          "internalType": "uint256",
          "name": "pid",
          "type": "uint256"
        },
        {
          "internalType": "uint8",
          "name": "v",
          "type": "uint8"
        },
        {
          "internalType": "bytes32",
          "name": "r",
          "type": "bytes32"
        },
        {
          "internalType": "bytes32",
          "name": "s",
          "type": "bytes32"
        }
      ],
      "name": "purchaseIDO",
      "outputs": [],
      "stateMutability": "payable",
      "type": "function"
    },
    {
      "inputs": [
        {
          "internalType": "uint256",
          "name": "pid",
          "type": "uint256"
        }
      ],
      "name": "claimToken",
      "outputs": [],
      "stateMutability": "nonpayable",
      "type": "function"
    },
    {
      "inputs": [
        {
          "internalType": "uint256",
          "name": "pid",
          "type": "uint256"
        }
      ],
      "name": "getUserTotalPurchase",
      "outputs": [
        {
          "internalType": "uint256",
          "name": "",
          "type": "uint256"
        }
      ],
      "stateMutability": "view",
      "type": "function"
    },
    {
      "inputs": [
        {
          "internalType": "uint256",
          "name": "pid",
          "type": "uint256"
        }
      ],
      "name": "getRemainIDOToken",
      "outputs": [
        {
          "internalType": "uint256",
          "name": "",
          "type": "uint256"
        }
      ],
      "stateMutability": "view",
      "type": "function"
    },
    {
      "inputs": [
        {
          "internalType": "uint256",
          "name": "pid",
          "type": "uint256"
        }
      ],
      "name": "getBalanceTokenByPoolId",
      "outputs": [
        {
          "internalType": "uint256",
          "name": "",
          "type": "uint256"
        }
      ],
      "stateMutability": "view",
      "type": "function"
    },
    {
      "inputs": [
        {
          "internalType": "uint256",
          "name": "pid",
          "type": "uint256"
        }
      ],
      "name": "getPoolInfo",
      "outputs": [
        {
          "internalType": "uint256",
          "name": "",
          "type": "uint256"
        },
        {
          "internalType": "uint256",
          "name": "",
          "type": "uint256"
        },
        {
          "internalType": "uint256",
          "name": "",
          "type": "uint256"
        },
        {
          "internalType": "uint256",
          "name": "",
          "type": "uint256"
        },
        {
          "internalType": "uint256",
          "name": "",
          "type": "uint256"
        },
        {
          "internalType": "contract IERC20",
          "name": "",
          "type": "address"
        }
      ],
      "stateMutability": "view",
      "type": "function"
    },
    {
      "inputs": [
        {
          "internalType": "uint256",
          "name": "pid",
          "type": "uint256"
        }
      ],
      "name": "getClaimInfo",
      "outputs": [
        {
          "internalType": "uint256",
          "name": "",
          "type": "uint256"
        },
        {
          "internalType": "uint256",
          "name": "",
          "type": "uint256"
        },
        {
          "internalType": "uint256",
          "name": "",
          "type": "uint256"
        },
        {
          "internalType": "uint256",
          "name": "",
          "type": "uint256"
        },
        {
          "internalType": "uint256",
          "name": "",
          "type": "uint256"
        },
        {
          "internalType": "uint256",
          "name": "",
          "type": "uint256"
        }
      ],
      "stateMutability": "view",
      "type": "function"
    },
    {
      "inputs": [
        {
          "internalType": "uint256",
          "name": "pid",
          "type": "uint256"
        }
      ],
      "name": "getPoolSoldInfo",
      "outputs": [
        {
          "internalType": "uint256",
          "name": "",
          "type": "uint256"
        }
      ],
      "stateMutability": "view",
      "type": "function"
    },
    {
      "inputs": [
        {
          "internalType": "uint256",
          "name": "pid",
          "type": "uint256"
        }
      ],
      "name": "getWhitelistfo",
      "outputs": [
        {
          "internalType": "address",
          "name": "",
          "type": "address"
        },
        {
          "internalType": "bool",
          "name": "",
          "type": "bool"
        },
        {
          "internalType": "uint256",
          "name": "",
          "type": "uint256"
        },
        {
          "internalType": "uint256",
          "name": "",
          "type": "uint256"
        }
      ],
      "stateMutability": "view",
      "type": "function"
    },
    {
      "inputs": [
        {
          "internalType": "uint256",
          "name": "pid",
          "type": "uint256"
        },
        {
          "internalType": "address",
          "name": "user",
          "type": "address"
        }
      ],
      "name": "getUserInfo",
      "outputs": [
        {
          "internalType": "bool",
          "name": "",
          "type": "bool"
        },
        {
          "internalType": "uint256",
          "name": "",
          "type": "uint256"
        },
        {
          "internalType": "uint256",
          "name": "",
          "type": "uint256"
        },
        {
          "internalType": "uint256",
          "name": "",
          "type": "uint256"
        }
      ],
      "stateMutability": "view",
      "type": "function"
    },
    {
      "inputs": [
        {
          "internalType": "address",
          "name": "_addr",
          "type": "address"
        }
      ],
      "name": "addressToString",
      "outputs": [
        {
          "internalType": "string",
          "name": "",
          "type": "string"
        }
      ],
      "stateMutability": "pure",
      "type": "function"
    }
  ],
  "bytecode": "0x60806040526040518060400160405280601981526020017f506f6c6b614272696467653a204c61756e63685061642056320000000000000081525060029080519060200190620000519291906200019d565b503480156200005f57600080fd5b5060405162004a9838038062004a98833981810160405260208110156200008557600080fd5b81019080805190602001909291905050506000620000a86200019560201b60201c565b9050806000806101000a81548173ffffffffffffffffffffffffffffffffffffffff021916908373ffffffffffffffffffffffffffffffffffffffff1602179055508073ffffffffffffffffffffffffffffffffffffffff16600073ffffffffffffffffffffffffffffffffffffffff167f8be0079c531659141344cd1fd0a4f28419497f9722a3daafe3b4186f6b6457e060405160405180910390a3506001808190555080600360006101000a81548173ffffffffffffffffffffffffffffffffffffffff021916908373ffffffffffffffffffffffffffffffffffffffff160217905550506200024c565b600033905090565b828054600181600116156101000203166002900490600052602060002090601f016020900481019282601f10620001e057805160ff191683800117855562000211565b8280016001018555821562000211579182015b8281111562000210578251825591602001919060010190620001f3565b5b50905062000220919062000224565b5090565b6200024991905b80821115620002455760008160009055506001016200022b565b5090565b90565b61483c806200025c6000396000f3fe60806040526004361061019c5760003560e01c80638f32d59b116100ec578063c734e2531161008a578063d207019311610064578063d207019314610c2b578063d70c33c814610c9d578063dac9540b14610d10578063f2fde38b14610d875761019c565b8063c734e25314610b32578063c7e42b1b14610b81578063d0d5527514610bd25761019c565b8063a9e7c2e5116100c6578063a9e7c2e514610932578063b7de03031461096d578063b9d02df4146109bc578063c30ef48714610a9e5761019c565b80638f32d59b1461084257806396f5fef514610871578063a48ebe82146108e35761019c565b80632f380b351161015957806350933d4d1161013357806350933d4d1461064a5780635e57966d1461070a578063715018a6146107d45780638da5cb5b146107eb5761019c565b80632f380b351461046557806336c287f9146105035780634365295e146105805761019c565b806306fdde03146101a15780631069f3b5146102315780631a1d69ec146102b95780631f4552cb146103885780632561ae021461039f5780632f270438146103ee575b600080fd5b3480156101ad57600080fd5b506101b6610dd8565b6040518080602001828103825283818151815260200191508051906020019080838360005b838110156101f65780820151818401526020810190506101db565b50505050905090810190601f1680156102235780820380516001836020036101000a031916815260200191505b509250505060405180910390f35b34801561023d57600080fd5b5061028a6004803603604081101561025457600080fd5b8101908080359060200190929190803573ffffffffffffffffffffffffffffffffffffffff169060200190929190505050610e76565b604051808515151515815260200184815260200183815260200182815260200194505050505060405180910390f35b3480156102c557600080fd5b50610386600480360360408110156102dc57600080fd5b81019080803590602001906401000000008111156102f957600080fd5b82018360208201111561030b57600080fd5b8035906020019184602083028401116401000000008311171561032d57600080fd5b919080806020026020016040519081016040528093929190818152602001838360200280828437600081840152601f19601f82011690508083019250505050505050919291929080359060200190929190505050610fea565b005b34801561039457600080fd5b5061039d6112a6565b005b3480156103ab57600080fd5b506103d8600480360360208110156103c257600080fd5b8101908080359060200190929190505050611407565b6040518082815260200191505060405180910390f35b3480156103fa57600080fd5b50610463600480360360e081101561041157600080fd5b8101908080359060200190929190803590602001909291908035906020019092919080359060200190929190803590602001909291908035906020019092919080359060200190929190505050611499565b005b34801561047157600080fd5b5061049e6004803603602081101561048857600080fd5b81019080803590602001909291905050506115be565b604051808781526020018681526020018581526020018481526020018381526020018273ffffffffffffffffffffffffffffffffffffffff1673ffffffffffffffffffffffffffffffffffffffff168152602001965050505050505060405180910390f35b34801561050f57600080fd5b506105666004803603606081101561052657600080fd5b81019080803573ffffffffffffffffffffffffffffffffffffffff16906020019092919080359060200190929190803590602001909291905050506116cf565b604051808215151515815260200191505060405180910390f35b34801561058c57600080fd5b5061064860048036036101a08110156105a457600080fd5b81019080803590602001909291908035906020019092919080359060200190929190803590602001909291908035906020019092919080359060200190929190803590602001909291908035906020019092919080359060200190929190803573ffffffffffffffffffffffffffffffffffffffff169060200190929190803590602001909291908035906020019092919080359060200190929190505050611827565b005b34801561065657600080fd5b50610708600480360361018081101561066e57600080fd5b81019080803590602001909291908035906020019092919080359060200190929190803573ffffffffffffffffffffffffffffffffffffffff1690602001909291908035906020019092919080359060200190929190803590602001909291908035906020019092919080359060200190929190803590602001909291908035906020019092919080359060200190929190505050611b15565b005b34801561071657600080fd5b506107596004803603602081101561072d57600080fd5b81019080803573ffffffffffffffffffffffffffffffffffffffff169060200190929190505050611d2c565b6040518080602001828103825283818151815260200191508051906020019080838360005b8381101561079957808201518184015260208101905061077e565b50505050905090810190601f1680156107c65780820380516001836020036101000a031916815260200191505b509250505060405180910390f35b3480156107e057600080fd5b506107e9611fad565b005b3480156107f757600080fd5b506108006120e6565b604051808273ffffffffffffffffffffffffffffffffffffffff1673ffffffffffffffffffffffffffffffffffffffff16815260200191505060405180910390f35b34801561084e57600080fd5b5061085761210f565b604051808215151515815260200191505060405180910390f35b34801561087d57600080fd5b506108aa6004803603602081101561089457600080fd5b810190808035906020019092919050505061216d565b60405180878152602001868152602001858152602001848152602001838152602001828152602001965050505050505060405180910390f35b3480156108ef57600080fd5b5061091c6004803603602081101561090657600080fd5b81019080803590602001909291905050506121a9565b6040518082815260200191505060405180910390f35b34801561093e57600080fd5b5061096b6004803603602081101561095557600080fd5b8101908080359060200190929190505050612206565b005b34801561097957600080fd5b506109a66004803603602081101561099057600080fd5b8101908080359060200190929190505050612adf565b6040518082815260200191505060405180910390f35b3480156109c857600080fd5b50610a15600480360360408110156109df57600080fd5b8101908080359060200190929190803573ffffffffffffffffffffffffffffffffffffffff169060200190929190505050612b1f565b604051808b81526020018a73ffffffffffffffffffffffffffffffffffffffff1673ffffffffffffffffffffffffffffffffffffffff16815260200189151515158152602001888152602001878152602001868152602001858152602001848152602001838152602001821515151581526020019a505050505050505050505060405180910390f35b348015610aaa57600080fd5b50610ad760048036036020811015610ac157600080fd5b8101908080359060200190929190505050612bba565b604051808573ffffffffffffffffffffffffffffffffffffffff1673ffffffffffffffffffffffffffffffffffffffff1681526020018415151515815260200183815260200182815260200194505050505060405180910390f35b348015610b3e57600080fd5b50610b6b60048036036020811015610b5557600080fd5b8101908080359060200190929190505050612d4c565b6040518082815260200191505060405180910390f35b348015610b8d57600080fd5b50610bd060048036036020811015610ba457600080fd5b81019080803573ffffffffffffffffffffffffffffffffffffffff169060200190929190505050612d8c565b005b610c29600480360360a0811015610be857600080fd5b810190808035906020019092919080359060200190929190803560ff1690602001909291908035906020019092919080359060200190929190505050612f8a565b005b348015610c3757600080fd5b50610c6460048036036020811015610c4e57600080fd5b8101908080359060200190929190505050613b17565b60405180878152602001868152602001858152602001848152602001838152602001828152602001965050505050505060405180910390f35b348015610ca957600080fd5b50610d0e60048036036080811015610cc057600080fd5b81019080803573ffffffffffffffffffffffffffffffffffffffff16906020019092919080359060200190929190803515159060200190929190803515159060200190929190505050613bd8565b005b348015610d1c57600080fd5b50610d85600480360360e0811015610d3357600080fd5b8101908080359060200190929190803590602001909291908035906020019092919080359060200190929190803590602001909291908035906020019092919080359060200190929190505050613d2e565b005b348015610d9357600080fd5b50610dd660048036036020811015610daa57600080fd5b81019080803573ffffffffffffffffffffffffffffffffffffffff169060200190929190505050613e8f565b005b60028054600181600116156101000203166002900480601f016020809104026020016040519081016040528092919081815260200182805460018160011615610100020316600290048015610e6e5780601f10610e4357610100808354040283529160200191610e6e565b820191906000526020600020905b815481529060010190602001808311610e5157829003601f168201915b505050505081565b6000806000806004600087815260200190815260200160002060008673ffffffffffffffffffffffffffffffffffffffff1673ffffffffffffffffffffffffffffffffffffffff16815260200190815260200160002060010160149054906101000a900460ff166004600088815260200190815260200160002060008773ffffffffffffffffffffffffffffffffffffffff1673ffffffffffffffffffffffffffffffffffffffff168152602001908152602001600020600201546004600089815260200190815260200160002060008873ffffffffffffffffffffffffffffffffffffffff1673ffffffffffffffffffffffffffffffffffffffff16815260200190815260200160002060030154600460008a815260200190815260200160002060008973ffffffffffffffffffffffffffffffffffffffff1673ffffffffffffffffffffffffffffffffffffffff16815260200190815260200160002060060154935093509350935092959194509250565b610ff261210f565b611064576040517f08c379a00000000000000000000000000000000000000000000000000000000081526004018080602001828103825260208152602001807f4f776e61626c653a2063616c6c6572206973206e6f7420746865206f776e657281525060200191505060405180910390fd5b60008090505b82518110156112a1578160046000848152602001908152602001600020600085848151811061109557fe5b602002602001015173ffffffffffffffffffffffffffffffffffffffff1673ffffffffffffffffffffffffffffffffffffffff168152602001908152602001600020600001819055508281815181106110ea57fe5b602002602001015160046000848152602001908152602001600020600085848151811061111357fe5b602002602001015173ffffffffffffffffffffffffffffffffffffffff1673ffffffffffffffffffffffffffffffffffffffff16815260200190815260200160002060010160006101000a81548173ffffffffffffffffffffffffffffffffffffffff021916908373ffffffffffffffffffffffffffffffffffffffff16021790555060016004600084815260200190815260200160002060008584815181106111b957fe5b602002602001015173ffffffffffffffffffffffffffffffffffffffff1673ffffffffffffffffffffffffffffffffffffffff16815260200190815260200160002060010160146101000a81548160ff021916908315150217905550600160046000848152602001908152602001600020600085848151811061123857fe5b602002602001015173ffffffffffffffffffffffffffffffffffffffff1673ffffffffffffffffffffffffffffffffffffffff16815260200190815260200160002060080160006101000a81548160ff021916908315150217905550808060010191505061106a565b505050565b6112ae61210f565b611320576040517f08c379a00000000000000000000000000000000000000000000000000000000081526004018080602001828103825260208152602001807f4f776e61626c653a2063616c6c6572206973206e6f7420746865206f776e657281525060200191505060405180910390fd5b60004790506000811161139b576040517f08c379a000000000000000000000000000000000000000000000000000000000815260040180806020018281038252600f8152602001807f6e6f7420656e6f7567682066756e64000000000000000000000000000000000081525060200191505060405180910390fd5b600360009054906101000a900473ffffffffffffffffffffffffffffffffffffffff1673ffffffffffffffffffffffffffffffffffffffff166108fc829081150290604051600060405180830381858888f19350505050158015611403573d6000803e3d6000fd5b5050565b60008061141e600184613f1590919063ffffffff16565b9050600061142b84612adf565b9050806005838154811061143b57fe5b90600052602060002090600e0201600c0154111561145e57600092505050611494565b61148f6005838154811061146e57fe5b90600052602060002090600e0201600c015482613f1590919063ffffffff16565b925050505b919050565b6114a161210f565b611513576040517f08c379a00000000000000000000000000000000000000000000000000000000081526004018080602001828103825260208152602001807f4f776e61626c653a2063616c6c6572206973206e6f7420746865206f776e657281525060200191505060405180910390fd5b85600660008381526020019081526020016000206000018190555086600660008381526020019081526020016000206001018190555083600660008381526020019081526020016000206002018190555084600660008381526020019081526020016000206003018190555081600660008381526020019081526020016000206004018190555082600660008381526020019081526020016000206005018190555050505050505050565b60008060008060008060006115dd600189613f1590919063ffffffff16565b9050600581815481106115ec57fe5b90600052602060002090600e0201600101546005828154811061160b57fe5b90600052602060002090600e0201600201546005838154811061162a57fe5b90600052602060002090600e0201600301546005848154811061164957fe5b90600052602060002090600e0201600b01546005858154811061166857fe5b90600052602060002090600e0201600c01546005868154811061168757fe5b90600052602060002090600e020160040160009054906101000a900473ffffffffffffffffffffffffffffffffffffffff169650965096509650965096505091939550919395565b6000806116e6600185613f1590919063ffffffff16565b90506001600582815481106116f757fe5b90600052602060002090600e0201600301541415611719576001915050611820565b60026005828154811061172857fe5b90600052602060002090600e0201600301541415611779576005818154811061174d57fe5b90600052602060002090600e0201600d0154831061176f576001915050611820565b6000915050611820565b60036005828154811061178857fe5b90600052602060002090600e020160030154141561181a576004600082815260200190815260200160002060008673ffffffffffffffffffffffffffffffffffffffff1673ffffffffffffffffffffffffffffffffffffffff16815260200190815260200160002060010160149054906101000a900460ff1615611810576001915050611820565b6000915050611820565b60009150505b9392505050565b61182f61210f565b6118a1576040517f08c379a00000000000000000000000000000000000000000000000000000000081526004018080602001828103825260208152602001807f4f776e61626c653a2063616c6c6572206973206e6f7420746865206f776e657281525060200191505060405180910390fd5b60006118b760018f613f1590919063ffffffff16565b905060008d11156118e6578c600582815481106118d057fe5b90600052602060002090600e0201600101819055505b60008c1115611913578b600582815481106118fd57fe5b90600052602060002090600e0201600201819055505b60008b1115611940578a6005828154811061192a57fe5b90600052602060002090600e0201600501819055505b60008a111561196d57896005828154811061195757fe5b90600052602060002090600e0201600601819055505b600089111561199a57886005828154811061198457fe5b90600052602060002090600e0201600701819055505b60008811156119c75787600582815481106119b157fe5b90600052602060002090600e0201600801819055505b60008711156119f45786600582815481106119de57fe5b90600052602060002090600e0201600a01819055505b6000861115611a21578560058281548110611a0b57fe5b90600052602060002090600e0201600b01819055505b6000821115611a4e578160058281548110611a3857fe5b90600052602060002090600e0201600d01819055505b6000841115611a7b578360058281548110611a6557fe5b90600052602060002090600e0201600901819055505b6000831115611aa8578260058281548110611a9257fe5b90600052602060002090600e0201600301819055505b8460058281548110611ab657fe5b90600052602060002090600e020160040160006101000a81548173ffffffffffffffffffffffffffffffffffffffff021916908373ffffffffffffffffffffffffffffffffffffffff1602179055505050505050505050505050505050565b611b1d61210f565b611b8f576040517f08c379a00000000000000000000000000000000000000000000000000000000081526004018080602001828103825260208152602001807f4f776e61626c653a2063616c6c6572206973206e6f7420746865206f776e657281525060200191505060405180910390fd5b6000611baa6001600580549050613f5f90919063ffffffff16565b90506005604051806101c001604052808381526020018f81526020018e81526020018d81526020018c73ffffffffffffffffffffffffffffffffffffffff1681526020018b81526020018a8152602001898152602001888152602001858152602001878152602001868152602001600081526020018481525090806001815401808255809150506001900390600052602060002090600e02016000909190919091506000820151816000015560208201518160010155604082015181600201556060820151816003015560808201518160040160006101000a81548173ffffffffffffffffffffffffffffffffffffffff021916908373ffffffffffffffffffffffffffffffffffffffff16021790555060a0820151816005015560c0820151816006015560e082015181600701556101008201518160080155610120820151816009015561014082015181600a015561016082015181600b015561018082015181600c01556101a082015181600d0155505050505050505050505050505050565b606060008273ffffffffffffffffffffffffffffffffffffffff1660001b905060606040518060400160405280601081526020017f30313233343536373839616263646566000000000000000000000000000000008152509050606060336040519080825280601f01601f191660200182016040528015611dbc5781602001600182028038833980820191505090505b5090507f300000000000000000000000000000000000000000000000000000000000000081600081518110611ded57fe5b60200101907effffffffffffffffffffffffffffffffffffffffffffffffffffffffffffff1916908160001a9053507f780000000000000000000000000000000000000000000000000000000000000081600181518110611e4a57fe5b60200101907effffffffffffffffffffffffffffffffffffffffffffffffffffffffffffff1916908160001a90535060008090505b6014811015611fa15782600485600c840160208110611e9a57fe5b1a60f81b7effffffffffffffffffffffffffffffffffffffffffffffffffffffffffffff1916901c60f81c60ff1681518110611ed257fe5b602001015160f81c60f81b826002830260020181518110611eef57fe5b60200101907effffffffffffffffffffffffffffffffffffffffffffffffffffffffffffff1916908160001a90535082600f60f81b85600c840160208110611f3357fe5b1a60f81b1660f81c60ff1681518110611f4857fe5b602001015160f81c60f81b826002830260030181518110611f6557fe5b60200101907effffffffffffffffffffffffffffffffffffffffffffffffffffffffffffff1916908160001a9053508080600101915050611e7f565b50809350505050919050565b611fb561210f565b612027576040517f08c379a00000000000000000000000000000000000000000000000000000000081526004018080602001828103825260208152602001807f4f776e61626c653a2063616c6c6572206973206e6f7420746865206f776e657281525060200191505060405180910390fd5b600073ffffffffffffffffffffffffffffffffffffffff166000809054906101000a900473ffffffffffffffffffffffffffffffffffffffff1673ffffffffffffffffffffffffffffffffffffffff167f8be0079c531659141344cd1fd0a4f28419497f9722a3daafe3b4186f6b6457e060405160405180910390a360008060006101000a81548173ffffffffffffffffffffffffffffffffffffffff021916908373ffffffffffffffffffffffffffffffffffffffff160217905550565b60008060009054906101000a900473ffffffffffffffffffffffffffffffffffffffff16905090565b60008060009054906101000a900473ffffffffffffffffffffffffffffffffffffffff1673ffffffffffffffffffffffffffffffffffffffff16612151613fe7565b73ffffffffffffffffffffffffffffffffffffffff1614905090565b60066020528060005260406000206000915090508060000154908060010154908060020154908060030154908060040154908060050154905086565b60006004600083815260200190815260200160002060003373ffffffffffffffffffffffffffffffffffffffff1673ffffffffffffffffffffffffffffffffffffffff168152602001908152602001600020600201549050919050565b6002600154141561227f576040517f08c379a000000000000000000000000000000000000000000000000000000000815260040180806020018281038252601f8152602001807f5265656e7472616e637947756172643a207265656e7472616e742063616c6c0081525060200191505060405180910390fd5b600260018190555060646004600083815260200190815260200160002060003373ffffffffffffffffffffffffffffffffffffffff1673ffffffffffffffffffffffffffffffffffffffff1681526020019081526020016000206006015410612350576040517f08c379a00000000000000000000000000000000000000000000000000000000081526004018080602001828103825260178152602001807f796f75206861766520636c61696d656420656e6f75676800000000000000000081525060200191505060405180910390fd5b600061235b826121a9565b9050600081116123d3576040517f08c379a000000000000000000000000000000000000000000000000000000000815260040180806020018281038252600d8152602001807f696e76616c696420636c61696d0000000000000000000000000000000000000081525060200191505060405180910390fd5b60006123e9600184613f1590919063ffffffff16565b905060006004600085815260200190815260200160002060003373ffffffffffffffffffffffffffffffffffffffff1673ffffffffffffffffffffffffffffffffffffffff1681526020019081526020016000206007015414156125f95760066000828152602001908152602001600020600001544210156124d3576040517f08c379a000000000000000000000000000000000000000000000000000000000815260040180806020018281038252600c8152602001807f696e76616c69642074696d65000000000000000000000000000000000000000081525060200191505060405180910390fd5b612577336125136064612505600660008781526020019081526020016000206001015487613fef90919063ffffffff16565b61407590919063ffffffff16565b6005848154811061252057fe5b90600052602060002090600e020160040160009054906101000a900473ffffffffffffffffffffffffffffffffffffffff1673ffffffffffffffffffffffffffffffffffffffff166140bf9092919063ffffffff16565b6125f360066000838152602001908152602001600020600101546004600086815260200190815260200160002060003373ffffffffffffffffffffffffffffffffffffffff1673ffffffffffffffffffffffffffffffffffffffff16815260200190815260200160002060060154613f5f90919063ffffffff16565b50612a13565b60016004600085815260200190815260200160002060003373ffffffffffffffffffffffffffffffffffffffff1673ffffffffffffffffffffffffffffffffffffffff1681526020019081526020016000206007015414156128075760066000828152602001908152602001600020600201544210156126e1576040517f08c379a000000000000000000000000000000000000000000000000000000000815260040180806020018281038252600c8152602001807f696e76616c69642074696d65000000000000000000000000000000000000000081525060200191505060405180910390fd5b612785336127216064612713600660008781526020019081526020016000206003015487613fef90919063ffffffff16565b61407590919063ffffffff16565b6005848154811061272e57fe5b90600052602060002090600e020160040160009054906101000a900473ffffffffffffffffffffffffffffffffffffffff1673ffffffffffffffffffffffffffffffffffffffff166140bf9092919063ffffffff16565b61280160066000838152602001908152602001600020600301546004600086815260200190815260200160002060003373ffffffffffffffffffffffffffffffffffffffff1673ffffffffffffffffffffffffffffffffffffffff16815260200190815260200160002060060154613f5f90919063ffffffff16565b50612a12565b60026004600085815260200190815260200160002060003373ffffffffffffffffffffffffffffffffffffffff1673ffffffffffffffffffffffffffffffffffffffff168152602001908152602001600020600701541415612a115760066000828152602001908152602001600020600401544210156128ef576040517f08c379a000000000000000000000000000000000000000000000000000000000815260040180806020018281038252600c8152602001807f696e76616c69642074696d65000000000000000000000000000000000000000081525060200191505060405180910390fd5b6129933361292f6064612921600660008781526020019081526020016000206005015487613fef90919063ffffffff16565b61407590919063ffffffff16565b6005848154811061293c57fe5b90600052602060002090600e020160040160009054906101000a900473ffffffffffffffffffffffffffffffffffffffff1673ffffffffffffffffffffffffffffffffffffffff166140bf9092919063ffffffff16565b612a0f60066000838152602001908152602001600020600501546004600086815260200190815260200160002060003373ffffffffffffffffffffffffffffffffffffffff1673ffffffffffffffffffffffffffffffffffffffff16815260200190815260200160002060060154613f5f90919063ffffffff16565b505b5b5b426004600085815260200190815260200160002060003373ffffffffffffffffffffffffffffffffffffffff1673ffffffffffffffffffffffffffffffffffffffff16815260200190815260200160002060050181905550612ad260016004600086815260200190815260200160002060003373ffffffffffffffffffffffffffffffffffffffff1673ffffffffffffffffffffffffffffffffffffffff16815260200190815260200160002060070154613f5f90919063ffffffff16565b5050506001808190555050565b600080612af6600184613f1590919063ffffffff16565b905060058181548110612b0557fe5b90600052602060002090600e0201600a0154915050919050565b6004602052816000526040600020602052806000526040600020600091509150508060000154908060010160009054906101000a900473ffffffffffffffffffffffffffffffffffffffff16908060010160149054906101000a900460ff16908060020154908060030154908060040154908060050154908060060154908060070154908060080160009054906101000a900460ff1690508a565b6000806000806004600086815260200190815260200160002060003373ffffffffffffffffffffffffffffffffffffffff1673ffffffffffffffffffffffffffffffffffffffff16815260200190815260200160002060010160009054906101000a900473ffffffffffffffffffffffffffffffffffffffff166004600087815260200190815260200160002060003373ffffffffffffffffffffffffffffffffffffffff1673ffffffffffffffffffffffffffffffffffffffff16815260200190815260200160002060010160149054906101000a900460ff166004600088815260200190815260200160002060003373ffffffffffffffffffffffffffffffffffffffff1673ffffffffffffffffffffffffffffffffffffffff168152602001908152602001600020600201546004600089815260200190815260200160002060003373ffffffffffffffffffffffffffffffffffffffff1673ffffffffffffffffffffffffffffffffffffffff1681526020019081526020016000206003015493509350935093509193509193565b600080612d63600184613f1590919063ffffffff16565b905060058181548110612d7257fe5b90600052602060002090600e0201600c0154915050919050565b612d9461210f565b612e06576040517f08c379a00000000000000000000000000000000000000000000000000000000081526004018080602001828103825260208152602001807f4f776e61626c653a2063616c6c6572206973206e6f7420746865206f776e657281525060200191505060405180910390fd5b8073ffffffffffffffffffffffffffffffffffffffff1663a9059cbb612e2a6120e6565b8373ffffffffffffffffffffffffffffffffffffffff166370a08231306040518263ffffffff1660e01b8152600401808273ffffffffffffffffffffffffffffffffffffffff1673ffffffffffffffffffffffffffffffffffffffff16815260200191505060206040518083038186803b158015612ea757600080fd5b505afa158015612ebb573d6000803e3d6000fd5b505050506040513d6020811015612ed157600080fd5b81019080805190602001909291905050506040518363ffffffff1660e01b8152600401808373ffffffffffffffffffffffffffffffffffffffff1673ffffffffffffffffffffffffffffffffffffffff16815260200182815260200192505050602060405180830381600087803b158015612f4b57600080fd5b505af1158015612f5f573d6000803e3d6000fd5b505050506040513d6020811015612f7557600080fd5b81019080805190602001909291905050505050565b60026001541415613003576040517f08c379a000000000000000000000000000000000000000000000000000000000815260040180806020018281038252601f8152602001807f5265656e7472616e637947756172643a207265656e7472616e742063616c6c0081525060200191505060405180910390fd5b60026001819055506000613021600186613f1590919063ffffffff16565b905060026005828154811061303257fe5b90600052602060002090600e02016003015414156131ca5760003387604051602001808373ffffffffffffffffffffffffffffffffffffffff1673ffffffffffffffffffffffffffffffffffffffff1660601b81526014018281526020019250505060405160208183030381529060405280519060200120905060006130b782614177565b905060018187878760405160008152602001604052604051808581526020018460ff1660ff1681526020018381526020018281526020019450505050506020604051602081039080840390855afa158015613116573d6000803e3d6000fd5b5050506020604051035173ffffffffffffffffffffffffffffffffffffffff1661313e6120e6565b73ffffffffffffffffffffffffffffffffffffffff16146131c7576040517f08c379a000000000000000000000000000000000000000000000000000000000815260040180806020018281038252601f8152602001807f6f776e65722073686f756c64207369676e20707572636861736520696e666f0081525060200191505060405180910390fd5b50505b600581815481106131d757fe5b90600052602060002090600e020160010154421015801561321657506005818154811061320057fe5b90600052602060002090600e0201600201544211155b613288576040517f08c379a000000000000000000000000000000000000000000000000000000000815260040180806020018281038252600c8152602001807f696e76616c69642074696d65000000000000000000000000000000000000000081525060200191505060405180910390fd5b6132933386886116cf565b613305576040517f08c379a000000000000000000000000000000000000000000000000000000000815260040180806020018281038252600c8152602001807f696e76616c69642075736572000000000000000000000000000000000000000081525060200191505060405180910390fd5b6000349050613370816004600089815260200190815260200160002060003373ffffffffffffffffffffffffffffffffffffffff1673ffffffffffffffffffffffffffffffffffffffff16815260200190815260200160002060030154613f5f90919063ffffffff16565b6004600088815260200190815260200160002060003373ffffffffffffffffffffffffffffffffffffffff1673ffffffffffffffffffffffffffffffffffffffff168152602001908152602001600020600301819055506002600583815481106133d657fe5b90600052602060002090600e020160030154141561369457685150ae84a8cdf000008710156134ce576005828154811061340c57fe5b90600052602060002090600e0201600501546004600088815260200190815260200160002060003373ffffffffffffffffffffffffffffffffffffffff1673ffffffffffffffffffffffffffffffffffffffff1681526020019081526020016000206003015411156134c9576040517f08c379a00000000000000000000000000000000000000000000000000000000081526004018080602001828103825260228152602001806147996022913960400191505060405180910390fd5b61368f565b685150ae84a8cdf0000087101580156134ef575068a2a15d09519be0000087105b156135c3576005828154811061350157fe5b90600052602060002090600e0201600601546004600088815260200190815260200160002060003373ffffffffffffffffffffffffffffffffffffffff1673ffffffffffffffffffffffffffffffffffffffff1681526020019081526020016000206003015411156135be576040517f08c379a00000000000000000000000000000000000000000000000000000000081526004018080602001828103825260228152602001806147566022913960400191505060405180910390fd5b61368e565b600582815481106135d057fe5b90600052602060002090600e0201600701546004600088815260200190815260200160002060003373ffffffffffffffffffffffffffffffffffffffff1673ffffffffffffffffffffffffffffffffffffffff16815260200190815260200160002060030154111561368d576040517f08c379a00000000000000000000000000000000000000000000000000000000081526004018080602001828103825260228152602001806147bb6022913960400191505060405180910390fd5b5b5b613890565b6001600583815481106136a357fe5b90600052602060002090600e02016003015414156137a757600582815481106136c857fe5b90600052602060002090600e0201600601546004600088815260200190815260200160002060003373ffffffffffffffffffffffffffffffffffffffff1673ffffffffffffffffffffffffffffffffffffffff1681526020019081526020016000206003015411156137a2576040517f08c379a000000000000000000000000000000000000000000000000000000000815260040180806020018281038252601a8152602001807f696e76616c6964206d6178696d756d20636f6e7472696275746500000000000081525060200191505060405180910390fd5b61388f565b600582815481106137b457fe5b90600052602060002090600e0201600701546004600088815260200190815260200160002060003373ffffffffffffffffffffffffffffffffffffffff1673ffffffffffffffffffffffffffffffffffffffff16815260200190815260200160002060030154111561388e576040517f08c379a000000000000000000000000000000000000000000000000000000000815260040180806020018281038252601a8152602001807f696e76616c6964206d6178696d756d20636f6e7472696275746500000000000081525060200191505060405180910390fd5b5b5b60006138dd670de0b6b3a76400006138cf600586815481106138ae57fe5b90600052602060002090600e0201600b015485613fef90919063ffffffff16565b61407590919063ffffffff16565b905060006138ea88611407565b9050600584815481106138f957fe5b90600052602060002090600e020160090154811161397f576040517f08c379a000000000000000000000000000000000000000000000000000000000815260040180806020018281038252600c8152602001807f49444f20736f6c64206f7574000000000000000000000000000000000000000081525060200191505060405180910390fd5b818110156139f5576040517f08c379a000000000000000000000000000000000000000000000000000000000815260040180806020018281038252600c8152602001807f49444f20736f6c64206f7574000000000000000000000000000000000000000081525060200191505060405180910390fd5b613a5b82600460008b815260200190815260200160002060003373ffffffffffffffffffffffffffffffffffffffff1673ffffffffffffffffffffffffffffffffffffffff16815260200190815260200160002060020154613f5f90919063ffffffff16565b600460008a815260200190815260200160002060003373ffffffffffffffffffffffffffffffffffffffff1673ffffffffffffffffffffffffffffffffffffffff16815260200190815260200160002060020181905550613ae38260058681548110613ac357fe5b90600052602060002090600e0201600c0154613f5f90919063ffffffff16565b60058581548110613af057fe5b90600052602060002090600e0201600c018190555050505050600180819055505050505050565b6000806000806000806000613b36600189613f1590919063ffffffff16565b90506006600082815260200190815260200160002060000154600660008381526020019081526020016000206001015460066000848152602001908152602001600020600201546006600085815260200190815260200160002060030154600660008681526020019081526020016000206004015460066000878152602001908152602001600020600501549650965096509650965096505091939550919395565b613be061210f565b613c52576040517f08c379a00000000000000000000000000000000000000000000000000000000081526004018080602001828103825260208152602001807f4f776e61626c653a2063616c6c6572206973206e6f7420746865206f776e657281525060200191505060405180910390fd5b816004600085815260200190815260200160002060008673ffffffffffffffffffffffffffffffffffffffff1673ffffffffffffffffffffffffffffffffffffffff16815260200190815260200160002060010160146101000a81548160ff021916908315150217905550806004600085815260200190815260200160002060008673ffffffffffffffffffffffffffffffffffffffff1673ffffffffffffffffffffffffffffffffffffffff16815260200190815260200160002060080160006101000a81548160ff02191690831515021790555050505050565b613d3661210f565b613da8576040517f08c379a00000000000000000000000000000000000000000000000000000000081526004018080602001828103825260208152602001807f4f776e61626c653a2063616c6c6572206973206e6f7420746865206f776e657281525060200191505060405180910390fd5b6000861115613dcd578560066000838152602001908152602001600020600001819055505b6000871115613df2578660066000838152602001908152602001600020600101819055505b6000841115613e17578360066000838152602001908152602001600020600201819055505b6000851115613e3c578460066000838152602001908152602001600020600301819055505b6000821115613e61578160066000838152602001908152602001600020600401819055505b6000831115613e86578260066000838152602001908152602001600020600501819055505b50505050505050565b613e9761210f565b613f09576040517f08c379a00000000000000000000000000000000000000000000000000000000081526004018080602001828103825260208152602001807f4f776e61626c653a2063616c6c6572206973206e6f7420746865206f776e657281525060200191505060405180910390fd5b613f12816141cf565b50565b6000613f5783836040518060400160405280601e81526020017f536166654d6174683a207375627472616374696f6e206f766572666c6f770000815250614313565b905092915050565b600080828401905083811015613fdd576040517f08c379a000000000000000000000000000000000000000000000000000000000815260040180806020018281038252601b8152602001807f536166654d6174683a206164646974696f6e206f766572666c6f77000000000081525060200191505060405180910390fd5b8091505092915050565b600033905090565b600080831415614002576000905061406f565b600082840290508284828161401357fe5b041461406a576040517f08c379a00000000000000000000000000000000000000000000000000000000081526004018080602001828103825260218152602001806147786021913960400191505060405180910390fd5b809150505b92915050565b60006140b783836040518060400160405280601a81526020017f536166654d6174683a206469766973696f6e206279207a65726f0000000000008152506143d3565b905092915050565b6141728363a9059cbb60e01b8484604051602401808373ffffffffffffffffffffffffffffffffffffffff1673ffffffffffffffffffffffffffffffffffffffff16815260200182815260200192505050604051602081830303815290604052907bffffffffffffffffffffffffffffffffffffffffffffffffffffffff19166020820180517bffffffffffffffffffffffffffffffffffffffffffffffffffffffff8381831617835250505050614499565b505050565b60008160405160200180807f19457468657265756d205369676e6564204d6573736167653a0a333200000000815250601c01828152602001915050604051602081830303815290604052805190602001209050919050565b600073ffffffffffffffffffffffffffffffffffffffff168173ffffffffffffffffffffffffffffffffffffffff161415614255576040517f08c379a00000000000000000000000000000000000000000000000000000000081526004018080602001828103825260268152602001806147306026913960400191505060405180910390fd5b8073ffffffffffffffffffffffffffffffffffffffff166000809054906101000a900473ffffffffffffffffffffffffffffffffffffffff1673ffffffffffffffffffffffffffffffffffffffff167f8be0079c531659141344cd1fd0a4f28419497f9722a3daafe3b4186f6b6457e060405160405180910390a3806000806101000a81548173ffffffffffffffffffffffffffffffffffffffff021916908373ffffffffffffffffffffffffffffffffffffffff16021790555050565b60008383111582906143c0576040517f08c379a00000000000000000000000000000000000000000000000000000000081526004018080602001828103825283818151815260200191508051906020019080838360005b8381101561438557808201518184015260208101905061436a565b50505050905090810190601f1680156143b25780820380516001836020036101000a031916815260200191505b509250505060405180910390fd5b5060008385039050809150509392505050565b6000808311829061447f576040517f08c379a00000000000000000000000000000000000000000000000000000000081526004018080602001828103825283818151815260200191508051906020019080838360005b83811015614444578082015181840152602081019050614429565b50505050905090810190601f1680156144715780820380516001836020036101000a031916815260200191505b509250505060405180910390fd5b50600083858161448b57fe5b049050809150509392505050565b6144b88273ffffffffffffffffffffffffffffffffffffffff166146e4565b61452a576040517f08c379a000000000000000000000000000000000000000000000000000000000815260040180806020018281038252601f8152602001807f5361666545524332303a2063616c6c20746f206e6f6e2d636f6e74726163740081525060200191505060405180910390fd5b600060608373ffffffffffffffffffffffffffffffffffffffff16836040518082805190602001908083835b602083106145795780518252602082019150602081019050602083039250614556565b6001836020036101000a0380198251168184511680821785525050505050509050019150506000604051808303816000865af19150503d80600081146145db576040519150601f19603f3d011682016040523d82523d6000602084013e6145e0565b606091505b509150915081614658576040517f08c379a00000000000000000000000000000000000000000000000000000000081526004018080602001828103825260208152602001807f5361666545524332303a206c6f772d6c6576656c2063616c6c206661696c656481525060200191505060405180910390fd5b6000815111156146de5780806020019051602081101561467757600080fd5b81019080805190602001909291905050506146dd576040517f08c379a000000000000000000000000000000000000000000000000000000000815260040180806020018281038252602a8152602001806147dd602a913960400191505060405180910390fd5b5b50505050565b60008060007fc5d2460186f7233c927e7db2dcc703c0e500b653ca82273b7bfad8045d85a47060001b9050833f915080821415801561472657506000801b8214155b9250505091905056fe4f776e61626c653a206e6577206f776e657220697320746865207a65726f2061646472657373696e76616c6964206d6178696d756d20707572636861736520666f72207469657232536166654d6174683a206d756c7469706c69636174696f6e206f766572666c6f77696e76616c6964206d6178696d756d20707572636861736520666f72207469657231696e76616c6964206d6178696d756d20707572636861736520666f722074696572335361666545524332303a204552433230206f7065726174696f6e20646964206e6f742073756363656564a2646970667358221220074c6acced49f221729f723df0ec0cfeb6a96faec86a7fd403aa926052f29c5264736f6c63430006020033",
  "source": "pragma solidity >=0.6.0;\r\n\r\nimport \"@openzeppelin/contracts/token/ERC20/SafeERC20.sol\";\r\nimport \"@openzeppelin/contracts/math/SafeMath.sol\";\r\nimport \"@openzeppelin/contracts/ownership/Ownable.sol\";\r\nimport \"./ReentrancyGuard.sol\";\r\n\r\nlibrary ECDSA {\r\n    /**\r\n     * @dev Recover signer address from a message by using their signature\r\n     * @param hash bytes32 message, the hash is the signed message. What is recovered is the signer address.\r\n     * @param signature bytes signature, the signature is generated using web3.eth.sign()\r\n     */\r\n    function recover(bytes32 hash, bytes memory signature)\r\n        internal\r\n        pure\r\n        returns (address)\r\n    {\r\n        bytes32 r;\r\n        bytes32 s;\r\n        uint8 v;\r\n\r\n        // Check the signature length\r\n        if (signature.length != 65) {\r\n            return (address(0));\r\n        }\r\n\r\n        // Divide the signature in r, s and v variables with inline assembly.\r\n        assembly {\r\n            r := mload(add(signature, 0x20))\r\n            s := mload(add(signature, 0x40))\r\n            v := byte(0, mload(add(signature, 0x60)))\r\n        }\r\n\r\n        // Version of signature should be 27 or 28, but 0 and 1 are also possible versions\r\n        if (v < 27) {\r\n            v += 27;\r\n        }\r\n\r\n        // If the version is correct return the signer address\r\n        if (v != 27 && v != 28) {\r\n            return (address(0));\r\n        } else {\r\n            // solium-disable-next-line arg-overflow\r\n            return ecrecover(hash, v, r, s);\r\n        }\r\n    }\r\n\r\n    /**\r\n     * toEthSignedMessageHash\r\n     * @dev prefix a bytes32 value with \"\\x19Ethereum Signed Message:\"\r\n     * and hash the result\r\n     */\r\n    function toEthSignedMessageHash(bytes32 hash)\r\n        internal\r\n        pure\r\n        returns (bytes32)\r\n    {\r\n        return\r\n            keccak256(\r\n                abi.encodePacked(\"\\x19Ethereum Signed Message:\\n32\", hash)\r\n            );\r\n    }\r\n}\r\n\r\ncontract PolkabridgeLaunchPadV2 is Ownable, ReentrancyGuard {\r\n    string public name = \"PolkaBridge: LaunchPad V2\";\r\n    using SafeMath for uint256;\r\n    using SafeERC20 for IERC20;\r\n    using ECDSA for bytes32;\r\n\r\n    address payable private ReceiveToken;\r\n\r\n    struct IDOPool {\r\n        uint256 Id;\r\n        uint256 Begin;\r\n        uint256 End;\r\n        uint256 Type; //1: comminity round, 2 stackers round\r\n        IERC20 IDOToken;\r\n        uint256 MaxPurchaseTier1;\r\n        uint256 MaxPurchaseTier2; //==comminity tier\r\n        uint256 MaxPurchaseTier3;\r\n        uint256 TotalCap;\r\n        uint256 MinimumTokenSoldout;\r\n        uint256 TotalToken; //total sale token for this pool\r\n        uint256 RatePerETH;\r\n        uint256 TotalSold; //total number of token sold\r\n        uint256 MinimumStakeAmount;\r\n    }\r\n\r\n    struct ClaimInfo {\r\n        uint256 ClaimTime1;\r\n        uint256 PercentClaim1;\r\n        uint256 ClaimTime2;\r\n        uint256 PercentClaim2;\r\n        uint256 ClaimTime3;\r\n        uint256 PercentClaim3;\r\n    }\r\n\r\n    struct User {\r\n        uint256 Id;\r\n        address UserAddress;\r\n        bool IsWhitelist;\r\n        uint256 TotalTokenPurchase;\r\n        uint256 TotalETHPurchase;\r\n        uint256 PurchaseTime;\r\n        uint256 LastClaimed;\r\n        uint256 TotalPercentClaimed;\r\n        uint256 NumberClaimed;\r\n        bool IsActived;\r\n    }\r\n\r\n    mapping(uint256 => mapping(address => User)) public users; //poolid - listuser\r\n\r\n    IDOPool[] pools;\r\n\r\n    mapping(uint256 => ClaimInfo) public claimInfos; //pid\r\n\r\n    constructor(address payable receiveTokenAdd) public {\r\n        ReceiveToken = receiveTokenAdd;\r\n    }\r\n\r\n    function addMulWhitelist(address[] memory user, uint256 pid)\r\n        public\r\n        onlyOwner\r\n    {\r\n        for (uint256 i = 0; i < user.length; i++) {\r\n            users[pid][user[i]].Id = pid;\r\n            users[pid][user[i]].UserAddress = user[i];\r\n            users[pid][user[i]].IsWhitelist = true;\r\n            users[pid][user[i]].IsActived = true;\r\n        }\r\n    }\r\n\r\n    function updateWhitelist(\r\n        address user,\r\n        uint256 pid,\r\n        bool isWhitelist,\r\n        bool isActived\r\n    ) public onlyOwner {\r\n        users[pid][user].IsWhitelist = isWhitelist;\r\n        users[pid][user].IsActived = isActived;\r\n    }\r\n\r\n    function IsWhitelist(\r\n        address user,\r\n        uint256 pid,\r\n        uint256 stackAmount\r\n    ) public view returns (bool) {\r\n        uint256 poolIndex = pid.sub(1);\r\n        if (pools[poolIndex].Type == 1) // community round\r\n        {\r\n            return true;\r\n        } else if (pools[poolIndex].Type == 2) // stakers round\r\n        {\r\n            if (stackAmount >= pools[poolIndex].MinimumStakeAmount) return true;\r\n            return false;\r\n        } else if (pools[poolIndex].Type == 3) //internal\r\n        {\r\n            if (users[poolIndex][user].IsWhitelist) return true;\r\n            return false;\r\n        } else {\r\n            return false;\r\n        }\r\n    }\r\n\r\n    function addPool(\r\n        uint256 begin,\r\n        uint256 end,\r\n        uint256 _type,\r\n        IERC20 idoToken,\r\n        uint256 maxPurchaseTier1,\r\n        uint256 maxPurchaseTier2,\r\n        uint256 maxPurchaseTier3,\r\n        uint256 totalCap,\r\n        uint256 totalToken,\r\n        uint256 ratePerETH,\r\n        uint256 minimumTokenSoldout,\r\n        uint256 minimumStakeAmount\r\n    ) public onlyOwner {\r\n        uint256 id = pools.length.add(1);\r\n        pools.push(\r\n            IDOPool({\r\n                Id: id,\r\n                Begin: begin,\r\n                End: end,\r\n                Type: _type,\r\n                IDOToken: idoToken,\r\n                MaxPurchaseTier1: maxPurchaseTier1,\r\n                MaxPurchaseTier2: maxPurchaseTier2,\r\n                MaxPurchaseTier3: maxPurchaseTier3,\r\n                TotalCap: totalCap,\r\n                TotalToken: totalToken,\r\n                RatePerETH: ratePerETH,\r\n                TotalSold: 0,\r\n                MinimumTokenSoldout: minimumTokenSoldout,\r\n                MinimumStakeAmount: minimumStakeAmount\r\n            })\r\n        );\r\n    }\r\n\r\n    function addClaimInfo(\r\n        uint256 percentClaim1,\r\n        uint256 claimTime1,\r\n        uint256 percentClaim2,\r\n        uint256 claimTime2,\r\n        uint256 percentClaim3,\r\n        uint256 claimTime3,\r\n        uint256 pid\r\n    ) public onlyOwner {\r\n        claimInfos[pid].ClaimTime1 = claimTime1;\r\n        claimInfos[pid].PercentClaim1 = percentClaim1;\r\n        claimInfos[pid].ClaimTime2 = claimTime2;\r\n        claimInfos[pid].PercentClaim2 = percentClaim2;\r\n        claimInfos[pid].ClaimTime3 = claimTime3;\r\n        claimInfos[pid].PercentClaim3 = percentClaim3;\r\n    }\r\n\r\n    function updateClaimInfo(\r\n        uint256 percentClaim1,\r\n        uint256 claimTime1,\r\n        uint256 percentClaim2,\r\n        uint256 claimTime2,\r\n        uint256 percentClaim3,\r\n        uint256 claimTime3,\r\n        uint256 pid\r\n    ) public onlyOwner {\r\n        if (claimTime1 > 0) {\r\n            claimInfos[pid].ClaimTime1 = claimTime1;\r\n        }\r\n\r\n        if (percentClaim1 > 0) {\r\n            claimInfos[pid].PercentClaim1 = percentClaim1;\r\n        }\r\n        if (claimTime2 > 0) {\r\n            claimInfos[pid].ClaimTime2 = claimTime2;\r\n        }\r\n\r\n        if (percentClaim2 > 0) {\r\n            claimInfos[pid].PercentClaim2 = percentClaim2;\r\n        }\r\n\r\n        if (claimTime3 > 0) {\r\n            claimInfos[pid].ClaimTime3 = claimTime3;\r\n        }\r\n\r\n        if (percentClaim3 > 0) {\r\n            claimInfos[pid].PercentClaim3 = percentClaim3;\r\n        }\r\n    }\r\n\r\n    function updatePool(\r\n        uint256 pid,\r\n        uint256 begin,\r\n        uint256 end,\r\n        uint256 maxPurchaseTier1,\r\n        uint256 maxPurchaseTier2,\r\n        uint256 maxPurchaseTier3,\r\n        uint256 totalCap,\r\n        uint256 totalToken,\r\n        uint256 ratePerETH,\r\n        IERC20 idoToken,\r\n        uint256 minimumTokenSoldout,\r\n        uint256 pooltype,\r\n        uint256 minimumStakeAmount\r\n    ) public onlyOwner {\r\n        uint256 poolIndex = pid.sub(1);\r\n        if (begin > 0) {\r\n            pools[poolIndex].Begin = begin;\r\n        }\r\n        if (end > 0) {\r\n            pools[poolIndex].End = end;\r\n        }\r\n\r\n        if (maxPurchaseTier1 > 0) {\r\n            pools[poolIndex].MaxPurchaseTier1 = maxPurchaseTier1;\r\n        }\r\n        if (maxPurchaseTier2 > 0) {\r\n            pools[poolIndex].MaxPurchaseTier2 = maxPurchaseTier2;\r\n        }\r\n        if (maxPurchaseTier3 > 0) {\r\n            pools[poolIndex].MaxPurchaseTier3 = maxPurchaseTier3;\r\n        }\r\n        if (totalCap > 0) {\r\n            pools[poolIndex].TotalCap = totalCap;\r\n        }\r\n        if (totalToken > 0) {\r\n            pools[poolIndex].TotalToken = totalToken;\r\n        }\r\n        if (ratePerETH > 0) {\r\n            pools[poolIndex].RatePerETH = ratePerETH;\r\n        }\r\n\r\n        if (minimumStakeAmount > 0) {\r\n            pools[poolIndex].MinimumStakeAmount = minimumStakeAmount;\r\n        }\r\n\r\n        if (minimumTokenSoldout > 0) {\r\n            pools[poolIndex].MinimumTokenSoldout = minimumTokenSoldout;\r\n        }\r\n        if (pooltype > 0) {\r\n            pools[poolIndex].Type = pooltype;\r\n        }\r\n        pools[poolIndex].IDOToken = idoToken;\r\n    }\r\n\r\n    function withdrawErc20(IERC20 token) public onlyOwner {\r\n        token.transfer(owner(), token.balanceOf(address(this)));\r\n    }\r\n\r\n    //withdraw ETH after IDO\r\n    function withdrawPoolFund() public onlyOwner {\r\n        uint256 balance = address(this).balance;\r\n        require(balance > 0, \"not enough fund\");\r\n        ReceiveToken.transfer(balance);\r\n    }\r\n\r\n    function purchaseIDO(\r\n        uint256 stakeAmount,\r\n        uint256 pid,\r\n        uint8 v,\r\n        bytes32 r,\r\n        bytes32 s\r\n    ) public payable nonReentrant {\r\n        uint256 poolIndex = pid.sub(1);\r\n\r\n        if (pools[poolIndex].Type == 2) {\r\n            bytes32 hash = keccak256(abi.encodePacked(msg.sender, stakeAmount));\r\n            bytes32 messageHash = hash.toEthSignedMessageHash();\r\n\r\n            require(\r\n                owner() == ecrecover(messageHash, v, r, s),\r\n                \"owner should sign purchase info\"\r\n            );\r\n        }\r\n\r\n        require(\r\n            block.timestamp >= pools[poolIndex].Begin &&\r\n                block.timestamp <= pools[poolIndex].End,\r\n            \"invalid time\"\r\n        );\r\n        //check user\r\n        require(IsWhitelist(msg.sender, pid, stakeAmount), \"invalid user\");\r\n\r\n        //check amount\r\n        uint256 ethAmount = msg.value;\r\n        users[pid][msg.sender].TotalETHPurchase = users[pid][msg.sender]\r\n            .TotalETHPurchase\r\n            .add(ethAmount);\r\n\r\n        if (pools[poolIndex].Type == 2) {\r\n            //stackers round\r\n            if (stakeAmount < 1500 * 1e18) {\r\n                require(\r\n                    users[pid][msg.sender].TotalETHPurchase <=\r\n                        pools[poolIndex].MaxPurchaseTier1,\r\n                    \"invalid maximum purchase for tier1\"\r\n                );\r\n            } else if (\r\n                stakeAmount >= 1500 * 1e18 && stakeAmount < 3000 * 1e18\r\n            ) {\r\n                require(\r\n                    users[pid][msg.sender].TotalETHPurchase <=\r\n                        pools[poolIndex].MaxPurchaseTier2,\r\n                    \"invalid maximum purchase for tier2\"\r\n                );\r\n            } else {\r\n                require(\r\n                    users[pid][msg.sender].TotalETHPurchase <=\r\n                        pools[poolIndex].MaxPurchaseTier3,\r\n                    \"invalid maximum purchase for tier3\"\r\n                );\r\n            }\r\n        } else if (pools[poolIndex].Type == 1) {\r\n            //community round\r\n\r\n            require(\r\n                users[pid][msg.sender].TotalETHPurchase <=\r\n                    pools[poolIndex].MaxPurchaseTier2,\r\n                \"invalid maximum contribute\"\r\n            );\r\n        } else {\r\n            //=3\r\n            require(\r\n                users[pid][msg.sender].TotalETHPurchase <=\r\n                    pools[poolIndex].MaxPurchaseTier3,\r\n                \"invalid maximum contribute\"\r\n            );\r\n        }\r\n\r\n        uint256 tokenAmount = ethAmount.mul(pools[poolIndex].RatePerETH).div(\r\n            1e18\r\n        );\r\n\r\n        uint256 remainToken = getRemainIDOToken(pid);\r\n        require(\r\n            remainToken > pools[poolIndex].MinimumTokenSoldout,\r\n            \"IDO sold out\"\r\n        );\r\n        require(remainToken >= tokenAmount, \"IDO sold out\");\r\n\r\n        users[pid][msg.sender].TotalTokenPurchase = users[pid][msg.sender]\r\n            .TotalTokenPurchase\r\n            .add(tokenAmount);\r\n\r\n        pools[poolIndex].TotalSold = pools[poolIndex].TotalSold.add(\r\n            tokenAmount\r\n        );\r\n    }\r\n\r\n    function claimToken(uint256 pid) public nonReentrant {\r\n        require(\r\n            users[pid][msg.sender].TotalPercentClaimed < 100,\r\n            \"you have claimed enough\"\r\n        );\r\n        uint256 userBalance = getUserTotalPurchase(pid);\r\n        require(userBalance > 0, \"invalid claim\");\r\n\r\n        uint256 poolIndex = pid.sub(1);\r\n        if (users[pid][msg.sender].NumberClaimed == 0) {\r\n            require(\r\n                block.timestamp >= claimInfos[poolIndex].ClaimTime1,\r\n                \"invalid time\"\r\n            );\r\n            pools[poolIndex].IDOToken.safeTransfer(\r\n                msg.sender,\r\n                userBalance.mul(claimInfos[poolIndex].PercentClaim1).div(100)\r\n            );\r\n            users[pid][msg.sender].TotalPercentClaimed.add(\r\n                claimInfos[poolIndex].PercentClaim1\r\n            );\r\n        } else if (users[pid][msg.sender].NumberClaimed == 1) {\r\n            require(\r\n                block.timestamp >= claimInfos[poolIndex].ClaimTime2,\r\n                \"invalid time\"\r\n            );\r\n            pools[poolIndex].IDOToken.safeTransfer(\r\n                msg.sender,\r\n                userBalance.mul(claimInfos[poolIndex].PercentClaim2).div(100)\r\n            );\r\n            users[pid][msg.sender].TotalPercentClaimed.add(\r\n                claimInfos[poolIndex].PercentClaim2\r\n            );\r\n        } else if (users[pid][msg.sender].NumberClaimed == 2) {\r\n            require(\r\n                block.timestamp >= claimInfos[poolIndex].ClaimTime3,\r\n                \"invalid time\"\r\n            );\r\n            pools[poolIndex].IDOToken.safeTransfer(\r\n                msg.sender,\r\n                userBalance.mul(claimInfos[poolIndex].PercentClaim3).div(100)\r\n            );\r\n            users[pid][msg.sender].TotalPercentClaimed.add(\r\n                claimInfos[poolIndex].PercentClaim3\r\n            );\r\n        }\r\n\r\n        users[pid][msg.sender].LastClaimed = block.timestamp;\r\n        users[pid][msg.sender].NumberClaimed.add(1);\r\n    }\r\n\r\n    function getUserTotalPurchase(uint256 pid) public view returns (uint256) {\r\n        return users[pid][msg.sender].TotalTokenPurchase;\r\n    }\r\n\r\n    function getRemainIDOToken(uint256 pid) public view returns (uint256) {\r\n        uint256 poolIndex = pid.sub(1);\r\n        uint256 tokenBalance = getBalanceTokenByPoolId(pid);\r\n        if (pools[poolIndex].TotalSold > tokenBalance) {\r\n            return 0;\r\n        }\r\n\r\n        return tokenBalance.sub(pools[poolIndex].TotalSold);\r\n    }\r\n\r\n    function getBalanceTokenByPoolId(uint256 pid)\r\n        public\r\n        view\r\n        returns (uint256)\r\n    {\r\n        uint256 poolIndex = pid.sub(1);\r\n\r\n        return pools[poolIndex].TotalToken;\r\n    }\r\n\r\n    function getPoolInfo(uint256 pid)\r\n        public\r\n        view\r\n        returns (\r\n            uint256,\r\n            uint256,\r\n            uint256,\r\n            uint256,\r\n            uint256,\r\n            IERC20\r\n        )\r\n    {\r\n        uint256 poolIndex = pid.sub(1);\r\n        return (\r\n            pools[poolIndex].Begin,\r\n            pools[poolIndex].End,\r\n            pools[poolIndex].Type,\r\n            pools[poolIndex].RatePerETH,\r\n            pools[poolIndex].TotalSold,\r\n            pools[poolIndex].IDOToken\r\n        );\r\n    }\r\n\r\n    function getClaimInfo(uint256 pid)\r\n        public\r\n        view\r\n        returns (\r\n            uint256,\r\n            uint256,\r\n            uint256,\r\n            uint256,\r\n            uint256,\r\n            uint256\r\n        )\r\n    {\r\n        uint256 poolIndex = pid.sub(1);\r\n        return (\r\n            claimInfos[poolIndex].ClaimTime1,\r\n            claimInfos[poolIndex].PercentClaim1,\r\n            claimInfos[poolIndex].ClaimTime2,\r\n            claimInfos[poolIndex].PercentClaim2,\r\n            claimInfos[poolIndex].ClaimTime3,\r\n            claimInfos[poolIndex].PercentClaim3\r\n        );\r\n    }\r\n\r\n    function getPoolSoldInfo(uint256 pid) public view returns (uint256) {\r\n        uint256 poolIndex = pid.sub(1);\r\n        return (pools[poolIndex].TotalSold);\r\n    }\r\n\r\n    function getWhitelistfo(uint256 pid)\r\n        public\r\n        view\r\n        returns (\r\n            address,\r\n            bool,\r\n            uint256,\r\n            uint256\r\n        )\r\n    {\r\n        return (\r\n            users[pid][msg.sender].UserAddress,\r\n            users[pid][msg.sender].IsWhitelist,\r\n            users[pid][msg.sender].TotalTokenPurchase,\r\n            users[pid][msg.sender].TotalETHPurchase\r\n        );\r\n    }\r\n\r\n    function getUserInfo(uint256 pid, address user)\r\n        public\r\n        view\r\n        returns (\r\n            bool,\r\n            uint256,\r\n            uint256,\r\n            uint256\r\n        )\r\n    {\r\n        return (\r\n            users[pid][user].IsWhitelist,\r\n            users[pid][user].TotalTokenPurchase,\r\n            users[pid][user].TotalETHPurchase,\r\n            users[pid][user].TotalPercentClaimed\r\n        );\r\n    }\r\n\r\n    function addressToString(address _addr)\r\n        public\r\n        pure\r\n        returns (string memory)\r\n    {\r\n        bytes32 value = bytes32(uint256(_addr));\r\n        bytes memory alphabet = \"0123456789abcdef\";\r\n\r\n        bytes memory str = new bytes(51);\r\n        str[0] = \"0\";\r\n        str[1] = \"x\";\r\n        for (uint256 i = 0; i < 20; i++) {\r\n            str[2 + i * 2] = alphabet[uint8(value[i + 12] >> 4)];\r\n            str[3 + i * 2] = alphabet[uint8(value[i + 12] & 0x0f)];\r\n        }\r\n        return string(str);\r\n    }\r\n}\r\n",
  "sourcePath": "C:\\Users\\Thanh Phi\\Desktop\\PolkaBridgeSolution\\PolkaBridge-LaunchPad\\contracts\\PolkabridgeLaunchPadV2.sol",
  "compiler": {
    "name": "solc",
    "version": "0.6.2+commit.bacdbe57.Emscripten.clang"
  },
  "schemaVersion": "3.4.3",
  "updatedAt": "2021-09-27T08:05:40.399Z",
  "devdoc": {
    "methods": {
      "isOwner()": {
        "details": "Returns true if the caller is the current owner."
      },
      "owner()": {
        "details": "Returns the address of the current owner."
      },
      "renounceOwnership()": {
        "details": "Leaves the contract without owner. It will not be possible to call `onlyOwner` functions anymore. Can only be called by the current owner.     * NOTE: Renouncing ownership will leave the contract without an owner, thereby removing any functionality that is only available to the owner."
      },
      "transferOwnership(address)": {
        "details": "Transfers ownership of the contract to a new account (`newOwner`). Can only be called by the current owner."
      }
    }
  },
  "userdoc": {
    "methods": {}
  }
}