{
  "contractName": "PolkaBridgeLaunchPad",
  "abi": [
    {
      "inputs": [
        {
          "internalType": "address payable",
          "name": "receiveTokenAdd",
          "type": "address"
        },
        {
          "internalType": "contract IERC20",
          "name": "polkaBridge",
          "type": "address"
        }
      ],
      "stateMutability": "nonpayable",
      "type": "constructor"
    },
    {
      "anonymous": false,
      "inputs": [
        {
          "indexed": true,
          "internalType": "address",
          "name": "previousOwner",
          "type": "address"
        },
        {
          "indexed": true,
          "internalType": "address",
          "name": "newOwner",
          "type": "address"
        }
      ],
      "name": "OwnershipTransferred",
      "type": "event"
    },
    {
      "inputs": [],
      "name": "isOwner",
      "outputs": [
        {
          "internalType": "bool",
          "name": "",
          "type": "bool"
        }
      ],
      "stateMutability": "view",
      "type": "function"
    },
    {
      "inputs": [],
      "name": "name",
      "outputs": [
        {
          "internalType": "string",
          "name": "",
          "type": "string"
        }
      ],
      "stateMutability": "view",
      "type": "function"
    },
    {
      "inputs": [],
      "name": "owner",
      "outputs": [
        {
          "internalType": "address",
          "name": "",
          "type": "address"
        }
      ],
      "stateMutability": "view",
      "type": "function"
    },
    {
      "inputs": [],
      "name": "renounceOwnership",
      "outputs": [],
      "stateMutability": "nonpayable",
      "type": "function"
    },
    {
      "inputs": [
        {
          "internalType": "address",
          "name": "newOwner",
          "type": "address"
        }
      ],
      "name": "transferOwnership",
      "outputs": [],
      "stateMutability": "nonpayable",
      "type": "function"
    },
    {
      "inputs": [
        {
          "internalType": "uint256",
          "name": "",
          "type": "uint256"
        },
        {
          "internalType": "address",
          "name": "",
          "type": "address"
        }
      ],
      "name": "whitelist",
      "outputs": [
        {
          "internalType": "uint256",
          "name": "Id",
          "type": "uint256"
        },
        {
          "internalType": "address",
          "name": "UserAddress",
          "type": "address"
        },
        {
          "internalType": "bool",
          "name": "IsWhitelist",
          "type": "bool"
        },
        {
          "internalType": "uint256",
          "name": "WhitelistDate",
          "type": "uint256"
        },
        {
          "internalType": "uint256",
          "name": "TotalTokenPurchase",
          "type": "uint256"
        },
        {
          "internalType": "uint256",
          "name": "TotalETHPurchase",
          "type": "uint256"
        },
        {
          "internalType": "uint256",
          "name": "PurchaseTime",
          "type": "uint256"
        },
        {
          "internalType": "bool",
          "name": "IsActived",
          "type": "bool"
        },
        {
          "internalType": "bool",
          "name": "IsClaimed",
          "type": "bool"
        }
      ],
      "stateMutability": "view",
      "type": "function"
    },
    {
      "stateMutability": "payable",
      "type": "receive"
    },
    {
      "inputs": [
        {
          "internalType": "address",
          "name": "user",
          "type": "address"
        },
        {
          "internalType": "uint256",
          "name": "pid",
          "type": "uint256"
        }
      ],
      "name": "addWhitelist",
      "outputs": [],
      "stateMutability": "nonpayable",
      "type": "function"
    },
    {
      "inputs": [
        {
          "internalType": "address[]",
          "name": "user",
          "type": "address[]"
        },
        {
          "internalType": "uint256",
          "name": "pid",
          "type": "uint256"
        }
      ],
      "name": "addMulWhitelist",
      "outputs": [],
      "stateMutability": "nonpayable",
      "type": "function"
    },
    {
      "inputs": [
        {
          "internalType": "address",
          "name": "user",
          "type": "address"
        },
        {
          "internalType": "uint256",
          "name": "pid",
          "type": "uint256"
        },
        {
          "internalType": "bool",
          "name": "isWhitelist",
          "type": "bool"
        },
        {
          "internalType": "bool",
          "name": "isActived",
          "type": "bool"
        }
      ],
      "name": "updateWhitelist",
      "outputs": [],
      "stateMutability": "nonpayable",
      "type": "function"
    },
    {
      "inputs": [
        {
          "internalType": "address",
          "name": "user",
          "type": "address"
        },
        {
          "internalType": "uint256",
          "name": "pid",
          "type": "uint256"
        }
      ],
      "name": "IsWhitelist",
      "outputs": [
        {
          "internalType": "bool",
          "name": "",
          "type": "bool"
        }
      ],
      "stateMutability": "view",
      "type": "function"
    },
    {
      "inputs": [
        {
          "internalType": "string",
          "name": "name",
          "type": "string"
        },
        {
          "internalType": "uint256",
          "name": "begin",
          "type": "uint256"
        },
        {
          "internalType": "uint256",
          "name": "end",
          "type": "uint256"
        },
        {
          "internalType": "uint256",
          "name": "_type",
          "type": "uint256"
        },
        {
          "internalType": "contract IERC20",
          "name": "idoToken",
          "type": "address"
        },
        {
          "internalType": "uint256",
          "name": "minPurchase",
          "type": "uint256"
        },
        {
          "internalType": "uint256",
          "name": "maxPurchase",
          "type": "uint256"
        },
        {
          "internalType": "uint256",
          "name": "totalCap",
          "type": "uint256"
        },
        {
          "internalType": "uint256",
          "name": "totalToken",
          "type": "uint256"
        },
        {
          "internalType": "uint256",
          "name": "amountPBRRequire",
          "type": "uint256"
        },
        {
          "internalType": "uint256",
          "name": "ratePerETH",
          "type": "uint256"
        },
        {
          "internalType": "uint256",
          "name": "lockDuration",
          "type": "uint256"
        }
      ],
      "name": "addPool",
      "outputs": [],
      "stateMutability": "nonpayable",
      "type": "function"
    },
    {
      "inputs": [
        {
          "internalType": "uint256",
          "name": "pid",
          "type": "uint256"
        },
        {
          "internalType": "uint256",
          "name": "begin",
          "type": "uint256"
        },
        {
          "internalType": "uint256",
          "name": "end",
          "type": "uint256"
        },
        {
          "internalType": "uint256",
          "name": "amountPBRRequire",
          "type": "uint256"
        },
        {
          "internalType": "uint256",
          "name": "minPurchase",
          "type": "uint256"
        },
        {
          "internalType": "uint256",
          "name": "maxPurchase",
          "type": "uint256"
        },
        {
          "internalType": "uint256",
          "name": "totalCap",
          "type": "uint256"
        },
        {
          "internalType": "uint256",
          "name": "totalToken",
          "type": "uint256"
        },
        {
          "internalType": "uint256",
          "name": "ratePerETH",
          "type": "uint256"
        },
        {
          "internalType": "bool",
          "name": "isActived",
          "type": "bool"
        },
        {
          "internalType": "bool",
          "name": "isStoped",
          "type": "bool"
        },
        {
          "internalType": "uint256",
          "name": "lockDuration",
          "type": "uint256"
        },
        {
          "internalType": "contract IERC20",
          "name": "idoToken",
          "type": "address"
        }
      ],
      "name": "updatePool",
      "outputs": [],
      "stateMutability": "nonpayable",
      "type": "function"
    },
    {
      "inputs": [
        {
          "internalType": "contract IERC20",
          "name": "token",
          "type": "address"
        }
      ],
      "name": "withdrawErc20",
      "outputs": [],
      "stateMutability": "nonpayable",
      "type": "function"
    },
    {
      "inputs": [],
      "name": "withdrawPoolFund",
      "outputs": [],
      "stateMutability": "nonpayable",
      "type": "function"
    },
    {
      "inputs": [
        {
          "internalType": "uint256",
          "name": "pid",
          "type": "uint256"
        }
      ],
      "name": "purchaseIDO",
      "outputs": [],
      "stateMutability": "payable",
      "type": "function"
    },
    {
      "inputs": [
        {
          "internalType": "uint256",
          "name": "pid",
          "type": "uint256"
        }
      ],
      "name": "claimToken",
      "outputs": [],
      "stateMutability": "nonpayable",
      "type": "function"
    },
    {
      "inputs": [
        {
          "internalType": "uint256",
          "name": "pid",
          "type": "uint256"
        }
      ],
      "name": "getUserTotalPurchase",
      "outputs": [
        {
          "internalType": "uint256",
          "name": "",
          "type": "uint256"
        }
      ],
      "stateMutability": "view",
      "type": "function"
    },
    {
      "inputs": [
        {
          "internalType": "uint256",
          "name": "pid",
          "type": "uint256"
        }
      ],
      "name": "getRemainIDOToken",
      "outputs": [
        {
          "internalType": "uint256",
          "name": "",
          "type": "uint256"
        }
      ],
      "stateMutability": "view",
      "type": "function"
    },
    {
      "inputs": [
        {
          "internalType": "uint256",
          "name": "pid",
          "type": "uint256"
        }
      ],
      "name": "getBalanceTokenByPoolId",
      "outputs": [
        {
          "internalType": "uint256",
          "name": "",
          "type": "uint256"
        }
      ],
      "stateMutability": "view",
      "type": "function"
    },
    {
      "inputs": [
        {
          "internalType": "uint256",
          "name": "pid",
          "type": "uint256"
        }
      ],
      "name": "getPoolInfo",
      "outputs": [
        {
          "internalType": "uint256",
          "name": "",
          "type": "uint256"
        },
        {
          "internalType": "uint256",
          "name": "",
          "type": "uint256"
        },
        {
          "internalType": "uint256",
          "name": "",
          "type": "uint256"
        },
        {
          "internalType": "uint256",
          "name": "",
          "type": "uint256"
        },
        {
          "internalType": "uint256",
          "name": "",
          "type": "uint256"
        },
        {
          "internalType": "uint256",
          "name": "",
          "type": "uint256"
        },
        {
          "internalType": "uint256",
          "name": "",
          "type": "uint256"
        },
        {
          "internalType": "uint256",
          "name": "",
          "type": "uint256"
        },
        {
          "internalType": "bool",
          "name": "",
          "type": "bool"
        },
        {
          "internalType": "contract IERC20",
          "name": "",
          "type": "address"
        }
      ],
      "stateMutability": "view",
      "type": "function"
    },
    {
      "inputs": [
        {
          "internalType": "uint256",
          "name": "pid",
          "type": "uint256"
        }
      ],
      "name": "getPoolSoldInfo",
      "outputs": [
        {
          "internalType": "uint256",
          "name": "",
          "type": "uint256"
        },
        {
          "internalType": "uint256",
          "name": "",
          "type": "uint256"
        },
        {
          "internalType": "bool",
          "name": "",
          "type": "bool"
        },
        {
          "internalType": "uint256",
          "name": "",
          "type": "uint256"
        }
      ],
      "stateMutability": "view",
      "type": "function"
    },
    {
      "inputs": [
        {
          "internalType": "uint256",
          "name": "pid",
          "type": "uint256"
        }
      ],
      "name": "getWhitelistfo",
      "outputs": [
        {
          "internalType": "address",
          "name": "",
          "type": "address"
        },
        {
          "internalType": "bool",
          "name": "",
          "type": "bool"
        },
        {
          "internalType": "uint256",
          "name": "",
          "type": "uint256"
        },
        {
          "internalType": "uint256",
          "name": "",
          "type": "uint256"
        },
        {
          "internalType": "uint256",
          "name": "",
          "type": "uint256"
        },
        {
          "internalType": "bool",
          "name": "",
          "type": "bool"
        }
      ],
      "stateMutability": "view",
      "type": "function"
    },
    {
      "inputs": [
        {
          "internalType": "uint256",
          "name": "pid",
          "type": "uint256"
        },
        {
          "internalType": "address",
          "name": "user",
          "type": "address"
        }
      ],
      "name": "getUserInfo",
      "outputs": [
        {
          "internalType": "bool",
          "name": "",
          "type": "bool"
        },
        {
          "internalType": "uint256",
          "name": "",
          "type": "uint256"
        },
        {
          "internalType": "uint256",
          "name": "",
          "type": "uint256"
        },
        {
          "internalType": "uint256",
          "name": "",
          "type": "uint256"
        },
        {
          "internalType": "bool",
          "name": "",
          "type": "bool"
        }
      ],
      "stateMutability": "view",
      "type": "function"
    }
  ],
  "bytecode": "0x60806040526040518060400160405280601681526020017f506f6c6b614272696467653a204c61756e6368506164000000000000000000008152506001908051906020019062000051929190620001ee565b50670de0b6b3a76400006002553480156200006b57600080fd5b5060405162003dbd38038062003dbd833981810160405260408110156200009157600080fd5b8101908080519060200190929190805190602001909291905050506000620000be620001e660201b60201c565b9050806000806101000a81548173ffffffffffffffffffffffffffffffffffffffff021916908373ffffffffffffffffffffffffffffffffffffffff1602179055508073ffffffffffffffffffffffffffffffffffffffff16600073ffffffffffffffffffffffffffffffffffffffff167f8be0079c531659141344cd1fd0a4f28419497f9722a3daafe3b4186f6b6457e060405160405180910390a35081600460006101000a81548173ffffffffffffffffffffffffffffffffffffffff021916908373ffffffffffffffffffffffffffffffffffffffff16021790555080600360006101000a81548173ffffffffffffffffffffffffffffffffffffffff021916908373ffffffffffffffffffffffffffffffffffffffff16021790555050506200029d565b600033905090565b828054600181600116156101000203166002900490600052602060002090601f016020900481019282601f106200023157805160ff191683800117855562000262565b8280016001018555821562000262579182015b828111156200026157825182559160200191906001019062000244565b5b50905062000271919062000275565b5090565b6200029a91905b80821115620002965760008160009055506001016200027c565b5090565b90565b613b1080620002ad6000396000f3fe6080604052600436106101445760003560e01c80639c131806116100b6578063c734e2531161006f578063c734e2531461085d578063c7854f0a146108c5578063c7e42b1b14610a12578063d69c0c9b14610a63578063d70c33c814610b31578063f2fde38b14610ba45761014b565b80639c13180614610610578063a48ebe8214610683578063a9e7c2e5146106d2578063b39d90091461070d578063b7de030314610768578063c30ef487146107b75761014b565b80632561ae02116101085780632561ae02146103875780632f380b35146103d65780634b25bfce14610494578063715018a6146105735780638da5cb5b1461058a5780638f32d59b146105e15761014b565b806306fdde03146101505780631069f3b5146101e05780631a162318146102735780631a1d69ec146102a15780631f4552cb146103705761014b565b3661014b57005b600080fd5b34801561015c57600080fd5b50610165610bf5565b6040518080602001828103825283818151815260200191508051906020019080838360005b838110156101a557808201518184015260208101905061018a565b50505050905090810190601f1680156101d25780820380516001836020036101000a031916815260200191505b509250505060405180910390f35b3480156101ec57600080fd5b506102396004803603604081101561020357600080fd5b8101908080359060200190929190803573ffffffffffffffffffffffffffffffffffffffff169060200190929190505050610c93565b6040518086151515158152602001858152602001848152602001838152602001821515151581526020019550505050505060405180910390f35b61029f6004803603602081101561028957600080fd5b8101908080359060200190929190505050610e6d565b005b3480156102ad57600080fd5b5061036e600480360360408110156102c457600080fd5b81019080803590602001906401000000008111156102e157600080fd5b8201836020820111156102f357600080fd5b8035906020019184602083028401116401000000008311171561031557600080fd5b919080806020026020016040519081016040528093929190818152602001838360200280828437600081840152601f19601f82011690508083019250505050505050919291929080359060200190929190505050611857565b005b34801561037c57600080fd5b50610385611b7e565b005b34801561039357600080fd5b506103c0600480360360208110156103aa57600080fd5b8101908080359060200190929190505050611cdf565b6040518082815260200191505060405180910390f35b3480156103e257600080fd5b5061040f600480360360208110156103f957600080fd5b8101908080359060200190929190505050611d3f565b604051808b81526020018a8152602001898152602001888152602001878152602001868152602001858152602001848152602001831515151581526020018273ffffffffffffffffffffffffffffffffffffffff1673ffffffffffffffffffffffffffffffffffffffff1681526020019a505050505050505050505060405180910390f35b3480156104a057600080fd5b506104ed600480360360408110156104b757600080fd5b8101908080359060200190929190803573ffffffffffffffffffffffffffffffffffffffff169060200190929190505050611eeb565b604051808a81526020018973ffffffffffffffffffffffffffffffffffffffff1673ffffffffffffffffffffffffffffffffffffffff168152602001881515151581526020018781526020018681526020018581526020018481526020018315151515815260200182151515158152602001995050505050505050505060405180910390f35b34801561057f57600080fd5b50610588611f8d565b005b34801561059657600080fd5b5061059f6120c6565b604051808273ffffffffffffffffffffffffffffffffffffffff1673ffffffffffffffffffffffffffffffffffffffff16815260200191505060405180910390f35b3480156105ed57600080fd5b506105f66120ef565b604051808215151515815260200191505060405180910390f35b34801561061c57600080fd5b506106696004803603604081101561063357600080fd5b81019080803573ffffffffffffffffffffffffffffffffffffffff1690602001909291908035906020019092919050505061214d565b604051808215151515815260200191505060405180910390f35b34801561068f57600080fd5b506106bc600480360360208110156106a657600080fd5b81019080803590602001909291905050506121b8565b6040518082815260200191505060405180910390f35b3480156106de57600080fd5b5061070b600480360360208110156106f557600080fd5b8101908080359060200190929190505050612215565b005b34801561071957600080fd5b506107666004803603604081101561073057600080fd5b81019080803573ffffffffffffffffffffffffffffffffffffffff169060200190929190803590602001909291905050506125ba565b005b34801561077457600080fd5b506107a16004803603602081101561078b57600080fd5b8101908080359060200190929190505050612852565b6040518082815260200191505060405180910390f35b3480156107c357600080fd5b506107f0600480360360208110156107da57600080fd5b8101908080359060200190929190505050612892565b604051808773ffffffffffffffffffffffffffffffffffffffff1673ffffffffffffffffffffffffffffffffffffffff1681526020018615151515815260200185815260200184815260200183815260200182151515158152602001965050505050505060405180910390f35b34801561086957600080fd5b506108966004803603602081101561088057600080fd5b8101908080359060200190929190505050612ae2565b604051808581526020018481526020018315151515815260200182815260200194505050505060405180910390f35b3480156108d157600080fd5b50610a1060048036036101808110156108e957600080fd5b810190808035906020019064010000000081111561090657600080fd5b82018360208201111561091857600080fd5b8035906020019184600183028401116401000000008311171561093a57600080fd5b91908080601f016020809104026020016040519081016040528093929190818152602001838380828437600081840152601f19601f820116905080830192505050505050509192919290803590602001909291908035906020019092919080359060200190929190803573ffffffffffffffffffffffffffffffffffffffff16906020019092919080359060200190929190803590602001909291908035906020019092919080359060200190929190803590602001909291908035906020019092919080359060200190929190505050612b99565b005b348015610a1e57600080fd5b50610a6160048036036020811015610a3557600080fd5b81019080803573ffffffffffffffffffffffffffffffffffffffff169060200190929190505050612e76565b005b348015610a6f57600080fd5b50610b2f60048036036101a0811015610a8757600080fd5b8101908080359060200190929190803590602001909291908035906020019092919080359060200190929190803590602001909291908035906020019092919080359060200190929190803590602001909291908035906020019092919080351515906020019092919080351515906020019092919080359060200190929190803573ffffffffffffffffffffffffffffffffffffffff169060200190929190505050613074565b005b348015610b3d57600080fd5b50610ba260048036036080811015610b5457600080fd5b81019080803573ffffffffffffffffffffffffffffffffffffffff1690602001909291908035906020019092919080351515906020019092919080351515906020019092919050505061339e565b005b348015610bb057600080fd5b50610bf360048036036020811015610bc757600080fd5b81019080803573ffffffffffffffffffffffffffffffffffffffff1690602001909291905050506134f4565b005b60018054600181600116156101000203166002900480601f016020809104026020016040519081016040528092919081815260200182805460018160011615610100020316600290048015610c8b5780601f10610c6057610100808354040283529160200191610c8b565b820191906000526020600020905b815481529060010190602001808311610c6e57829003601f168201915b505050505081565b60008060008060006005600088815260200190815260200160002060008773ffffffffffffffffffffffffffffffffffffffff1673ffffffffffffffffffffffffffffffffffffffff16815260200190815260200160002060010160149054906101000a900460ff166005600089815260200190815260200160002060008873ffffffffffffffffffffffffffffffffffffffff1673ffffffffffffffffffffffffffffffffffffffff16815260200190815260200160002060020154600560008a815260200190815260200160002060008973ffffffffffffffffffffffffffffffffffffffff1673ffffffffffffffffffffffffffffffffffffffff16815260200190815260200160002060030154600560008b815260200190815260200160002060008a73ffffffffffffffffffffffffffffffffffffffff1673ffffffffffffffffffffffffffffffffffffffff16815260200190815260200160002060040154600560008c815260200190815260200160002060008b73ffffffffffffffffffffffffffffffffffffffff1673ffffffffffffffffffffffffffffffffffffffff16815260200190815260200160002060060160019054906101000a900460ff16945094509450945094509295509295909350565b6000610e8360018361357a90919063ffffffff16565b905060068181548110610e9257fe5b9060005260206000209060130201600c0160009054906101000a900460ff168015610ee6575060068181548110610ec557fe5b9060005260206000209060130201600c0160019054906101000a900460ff16155b610f58576040517f08c379a000000000000000000000000000000000000000000000000000000000815260040180806020018281038252600c8152602001807f696e76616c696420706f6f6c000000000000000000000000000000000000000081525060200191505060405180910390fd5b60068181548110610f6557fe5b9060005260206000209060130201600201544210158015610fa4575060068181548110610f8e57fe5b9060005260206000209060130201600301544211155b611016576040517f08c379a000000000000000000000000000000000000000000000000000000000815260040180806020018281038252600c8152602001807f696e76616c69642074696d65000000000000000000000000000000000000000081525060200191505060405180910390fd5b600061102183611cdf565b905060025481116110875760016006838154811061103b57fe5b906000526020600020906013020160110160006101000a81548160ff021916908315150217905550426006838154811061107157fe5b9060005260206000209060130201601201819055505b6006828154811061109457fe5b906000526020600020906013020160110160009054906101000a900460ff1615611126576040517f08c379a000000000000000000000000000000000000000000000000000000000815260040180806020018281038252600c8152602001807f49444f20736f6c64206f7574000000000000000000000000000000000000000081525060200191505060405180910390fd5b60003490506006838154811061113857fe5b9060005260206000209060130201600801548111156111bf576040517f08c379a000000000000000000000000000000000000000000000000000000000815260040180806020018281038252601a8152602001807f696e76616c6964206d6178696d756d20636f6e7472696275746500000000000081525060200191505060405180910390fd5b611225816005600087815260200190815260200160002060003373ffffffffffffffffffffffffffffffffffffffff1673ffffffffffffffffffffffffffffffffffffffff168152602001908152602001600020600401546135c490919063ffffffff16565b6005600086815260200190815260200160002060003373ffffffffffffffffffffffffffffffffffffffff1673ffffffffffffffffffffffffffffffffffffffff168152602001908152602001600020600401819055506006838154811061128957fe5b9060005260206000209060130201600801546005600086815260200190815260200160002060003373ffffffffffffffffffffffffffffffffffffffff1673ffffffffffffffffffffffffffffffffffffffff1681526020019081526020016000206004015411156114205761135b816005600087815260200190815260200160002060003373ffffffffffffffffffffffffffffffffffffffff1673ffffffffffffffffffffffffffffffffffffffff1681526020019081526020016000206004015461357a90919063ffffffff16565b6005600086815260200190815260200160002060003373ffffffffffffffffffffffffffffffffffffffff1673ffffffffffffffffffffffffffffffffffffffff168152602001908152602001600020600401819055506040517f08c379a000000000000000000000000000000000000000000000000000000000815260040180806020018281038252601a8152602001807f696e76616c6964206d6178696d756d20636f6e7472696275746500000000000081525060200191505060405180910390fd5b6005600085815260200190815260200160002060003373ffffffffffffffffffffffffffffffffffffffff1673ffffffffffffffffffffffffffffffffffffffff16815260200190815260200160002060010160149054906101000a900460ff1680156114ea57506005600085815260200190815260200160002060003373ffffffffffffffffffffffffffffffffffffffff1673ffffffffffffffffffffffffffffffffffffffff16815260200190815260200160002060060160009054906101000a900460ff165b61155c576040517f08c379a000000000000000000000000000000000000000000000000000000000815260040180806020018281038252600c8152602001807f696e76616c69642075736572000000000000000000000000000000000000000081525060200191505060405180910390fd5b60026006848154811061156b57fe5b90600052602060002090601302016004015414156116f1576006838154811061159057fe5b906000526020600020906013020160050154600360009054906101000a900473ffffffffffffffffffffffffffffffffffffffff1673ffffffffffffffffffffffffffffffffffffffff166370a08231336040518263ffffffff1660e01b8152600401808273ffffffffffffffffffffffffffffffffffffffff1673ffffffffffffffffffffffffffffffffffffffff16815260200191505060206040518083038186803b15801561164157600080fd5b505afa158015611655573d6000803e3d6000fd5b505050506040513d602081101561166b57600080fd5b810190808051906020019092919050505010156116f0576040517f08c379a000000000000000000000000000000000000000000000000000000000815260040180806020018281038252600d8152602001807f6d75737420686f6c64205042520000000000000000000000000000000000000081525060200191505060405180910390fd5b5b600061173e670de0b6b3a76400006117306006878154811061170f57fe5b9060005260206000209060130201600b01548561364c90919063ffffffff16565b6136d290919063ffffffff16565b90506117a6816005600088815260200190815260200160002060003373ffffffffffffffffffffffffffffffffffffffff1673ffffffffffffffffffffffffffffffffffffffff168152602001908152602001600020600301546135c490919063ffffffff16565b6005600087815260200190815260200160002060003373ffffffffffffffffffffffffffffffffffffffff1673ffffffffffffffffffffffffffffffffffffffff1681526020019081526020016000206003018190555061182e816006868154811061180e57fe5b9060005260206000209060130201601001546135c490919063ffffffff16565b6006858154811061183b57fe5b9060005260206000209060130201601001819055505050505050565b61185f6120ef565b6118d1576040517f08c379a00000000000000000000000000000000000000000000000000000000081526004018080602001828103825260208152602001807f4f776e61626c653a2063616c6c6572206973206e6f7420746865206f776e657281525060200191505060405180910390fd5b60008090505b8251811015611b79578160056000848152602001908152602001600020600085848151811061190257fe5b602002602001015173ffffffffffffffffffffffffffffffffffffffff1673ffffffffffffffffffffffffffffffffffffffff1681526020019081526020016000206000018190555082818151811061195757fe5b602002602001015160056000848152602001908152602001600020600085848151811061198057fe5b602002602001015173ffffffffffffffffffffffffffffffffffffffff1673ffffffffffffffffffffffffffffffffffffffff16815260200190815260200160002060010160006101000a81548173ffffffffffffffffffffffffffffffffffffffff021916908373ffffffffffffffffffffffffffffffffffffffff1602179055506001600560008481526020019081526020016000206000858481518110611a2657fe5b602002602001015173ffffffffffffffffffffffffffffffffffffffff1673ffffffffffffffffffffffffffffffffffffffff16815260200190815260200160002060010160146101000a81548160ff02191690831515021790555042600560008481526020019081526020016000206000858481518110611aa457fe5b602002602001015173ffffffffffffffffffffffffffffffffffffffff1673ffffffffffffffffffffffffffffffffffffffff168152602001908152602001600020600201819055506001600560008481526020019081526020016000206000858481518110611b1057fe5b602002602001015173ffffffffffffffffffffffffffffffffffffffff1673ffffffffffffffffffffffffffffffffffffffff16815260200190815260200160002060060160006101000a81548160ff02191690831515021790555080806001019150506118d7565b505050565b611b866120ef565b611bf8576040517f08c379a00000000000000000000000000000000000000000000000000000000081526004018080602001828103825260208152602001807f4f776e61626c653a2063616c6c6572206973206e6f7420746865206f776e657281525060200191505060405180910390fd5b600047905060008111611c73576040517f08c379a000000000000000000000000000000000000000000000000000000000815260040180806020018281038252600f8152602001807f6e6f7420656e6f7567682066756e64000000000000000000000000000000000081525060200191505060405180910390fd5b600460009054906101000a900473ffffffffffffffffffffffffffffffffffffffff1673ffffffffffffffffffffffffffffffffffffffff166108fc829081150290604051600060405180830381858888f19350505050158015611cdb573d6000803e3d6000fd5b5050565b600080611cf660018461357a90919063ffffffff16565b90506000611d0384612852565b9050611d3660068381548110611d1557fe5b9060005260206000209060130201601001548261357a90919063ffffffff16565b92505050919050565b6000806000806000806000806000806000611d6460018d61357a90919063ffffffff16565b905060068181548110611d7357fe5b90600052602060002090601302016002015460068281548110611d9257fe5b90600052602060002090601302016003015460068381548110611db157fe5b90600052602060002090601302016004015460068481548110611dd057fe5b90600052602060002090601302016005015460068581548110611def57fe5b90600052602060002090601302016008015460068681548110611e0e57fe5b9060005260206000209060130201600b015460068781548110611e2d57fe5b9060005260206000209060130201600f015460068881548110611e4c57fe5b90600052602060002090601302016010015460068981548110611e6b57fe5b9060005260206000209060130201600c0160009054906101000a900460ff1660068a81548110611e9757fe5b906000526020600020906013020160060160009054906101000a900473ffffffffffffffffffffffffffffffffffffffff169a509a509a509a509a509a509a509a509a509a50509193959799509193959799565b6005602052816000526040600020602052806000526040600020600091509150508060000154908060010160009054906101000a900473ffffffffffffffffffffffffffffffffffffffff16908060010160149054906101000a900460ff16908060020154908060030154908060040154908060050154908060060160009054906101000a900460ff16908060060160019054906101000a900460ff16905089565b611f956120ef565b612007576040517f08c379a00000000000000000000000000000000000000000000000000000000081526004018080602001828103825260208152602001807f4f776e61626c653a2063616c6c6572206973206e6f7420746865206f776e657281525060200191505060405180910390fd5b600073ffffffffffffffffffffffffffffffffffffffff166000809054906101000a900473ffffffffffffffffffffffffffffffffffffffff1673ffffffffffffffffffffffffffffffffffffffff167f8be0079c531659141344cd1fd0a4f28419497f9722a3daafe3b4186f6b6457e060405160405180910390a360008060006101000a81548173ffffffffffffffffffffffffffffffffffffffff021916908373ffffffffffffffffffffffffffffffffffffffff160217905550565b60008060009054906101000a900473ffffffffffffffffffffffffffffffffffffffff16905090565b60008060009054906101000a900473ffffffffffffffffffffffffffffffffffffffff1673ffffffffffffffffffffffffffffffffffffffff1661213161371c565b73ffffffffffffffffffffffffffffffffffffffff1614905090565b60006005600083815260200190815260200160002060008473ffffffffffffffffffffffffffffffffffffffff1673ffffffffffffffffffffffffffffffffffffffff16815260200190815260200160002060010160149054906101000a900460ff16905092915050565b60006005600083815260200190815260200160002060003373ffffffffffffffffffffffffffffffffffffffff1673ffffffffffffffffffffffffffffffffffffffff168152602001908152602001600020600301549050919050565b6005600082815260200190815260200160002060003373ffffffffffffffffffffffffffffffffffffffff1673ffffffffffffffffffffffffffffffffffffffff16815260200190815260200160002060060160019054906101000a900460ff16156122e9576040517f08c379a00000000000000000000000000000000000000000000000000000000081526004018080602001828103825260148152602001807f7573657220616c726561647920636c61696d656400000000000000000000000081525060200191505060405180910390fd5b60006122ff60018361357a90919063ffffffff16565b90506123506006828154811061231157fe5b9060005260206000209060130201600f01546006838154811061233057fe5b9060005260206000209060130201600301546135c490919063ffffffff16565b4210156123c5576040517f08c379a000000000000000000000000000000000000000000000000000000000815260040180806020018281038252600b8152602001807f6e6f74206f6e2074696d6500000000000000000000000000000000000000000081525060200191505060405180910390fd5b60006123d0836121b8565b905060008111612448576040517f08c379a000000000000000000000000000000000000000000000000000000000815260040180806020018281038252600d8152602001807f696e76616c696420636c61696d0000000000000000000000000000000000000081525060200191505060405180910390fd5b6006828154811061245557fe5b906000526020600020906013020160060160009054906101000a900473ffffffffffffffffffffffffffffffffffffffff1673ffffffffffffffffffffffffffffffffffffffff1663a9059cbb33836040518363ffffffff1660e01b8152600401808373ffffffffffffffffffffffffffffffffffffffff1673ffffffffffffffffffffffffffffffffffffffff16815260200182815260200192505050602060405180830381600087803b15801561250d57600080fd5b505af1158015612521573d6000803e3d6000fd5b505050506040513d602081101561253757600080fd5b81019080805190602001909291905050505060016005600085815260200190815260200160002060003373ffffffffffffffffffffffffffffffffffffffff1673ffffffffffffffffffffffffffffffffffffffff16815260200190815260200160002060060160016101000a81548160ff021916908315150217905550505050565b6125c26120ef565b612634576040517f08c379a00000000000000000000000000000000000000000000000000000000081526004018080602001828103825260208152602001807f4f776e61626c653a2063616c6c6572206973206e6f7420746865206f776e657281525060200191505060405180910390fd5b806005600083815260200190815260200160002060008473ffffffffffffffffffffffffffffffffffffffff1673ffffffffffffffffffffffffffffffffffffffff16815260200190815260200160002060000181905550816005600083815260200190815260200160002060008473ffffffffffffffffffffffffffffffffffffffff1673ffffffffffffffffffffffffffffffffffffffff16815260200190815260200160002060010160006101000a81548173ffffffffffffffffffffffffffffffffffffffff021916908373ffffffffffffffffffffffffffffffffffffffff16021790555060016005600083815260200190815260200160002060008473ffffffffffffffffffffffffffffffffffffffff1673ffffffffffffffffffffffffffffffffffffffff16815260200190815260200160002060010160146101000a81548160ff021916908315150217905550426005600083815260200190815260200160002060008473ffffffffffffffffffffffffffffffffffffffff1673ffffffffffffffffffffffffffffffffffffffff1681526020019081526020016000206002018190555060016005600083815260200190815260200160002060008473ffffffffffffffffffffffffffffffffffffffff1673ffffffffffffffffffffffffffffffffffffffff16815260200190815260200160002060060160006101000a81548160ff0219169083151502179055505050565b60008061286960018461357a90919063ffffffff16565b90506006818154811061287857fe5b9060005260206000209060130201600a0154915050919050565b6000806000806000806005600088815260200190815260200160002060003373ffffffffffffffffffffffffffffffffffffffff1673ffffffffffffffffffffffffffffffffffffffff16815260200190815260200160002060010160009054906101000a900473ffffffffffffffffffffffffffffffffffffffff166005600089815260200190815260200160002060003373ffffffffffffffffffffffffffffffffffffffff1673ffffffffffffffffffffffffffffffffffffffff16815260200190815260200160002060010160149054906101000a900460ff16600560008a815260200190815260200160002060003373ffffffffffffffffffffffffffffffffffffffff1673ffffffffffffffffffffffffffffffffffffffff16815260200190815260200160002060020154600560008b815260200190815260200160002060003373ffffffffffffffffffffffffffffffffffffffff1673ffffffffffffffffffffffffffffffffffffffff16815260200190815260200160002060030154600560008c815260200190815260200160002060003373ffffffffffffffffffffffffffffffffffffffff1673ffffffffffffffffffffffffffffffffffffffff16815260200190815260200160002060040154600560008d815260200190815260200160002060003373ffffffffffffffffffffffffffffffffffffffff1673ffffffffffffffffffffffffffffffffffffffff16815260200190815260200160002060060160019054906101000a900460ff1695509550955095509550955091939550919395565b6000806000806000612afe60018761357a90919063ffffffff16565b905060068181548110612b0d57fe5b9060005260206000209060130201600f015460068281548110612b2c57fe5b90600052602060002090601302016010015460068381548110612b4b57fe5b906000526020600020906013020160110160009054906101000a900460ff1660068481548110612b7757fe5b9060005260206000209060130201601201549450945094509450509193509193565b612ba16120ef565b612c13576040517f08c379a00000000000000000000000000000000000000000000000000000000081526004018080602001828103825260208152602001807f4f776e61626c653a2063616c6c6572206973206e6f7420746865206f776e657281525060200191505060405180910390fd5b6000612c2e60016006805490506135c490919063ffffffff16565b905060066040518061028001604052808381526020018f81526020018e81526020018d81526020018c81526020018681526020018b73ffffffffffffffffffffffffffffffffffffffff1681526020018a8152602001898152602001888152602001878152602001858152602001600115158152602001600015158152602001428152602001600081526020018481526020016000815260200160001515815260200160008152509080600181540180825580915050600190039060005260206000209060130201600090919091909150600082015181600001556020820151816001019080519060200190612d259291906139ee565b5060408201518160020155606082015181600301556080820151816004015560a0820151816005015560c08201518160060160006101000a81548173ffffffffffffffffffffffffffffffffffffffff021916908373ffffffffffffffffffffffffffffffffffffffff16021790555060e082015181600701556101008201518160080155610120820151816009015561014082015181600a015561016082015181600b015561018082015181600c0160006101000a81548160ff0219169083151502179055506101a082015181600c0160016101000a81548160ff0219169083151502179055506101c082015181600d01556101e082015181600e015561020082015181600f015561022082015181601001556102408201518160110160006101000a81548160ff0219169083151502179055506102608201518160120155505050505050505050505050505050565b612e7e6120ef565b612ef0576040517f08c379a00000000000000000000000000000000000000000000000000000000081526004018080602001828103825260208152602001807f4f776e61626c653a2063616c6c6572206973206e6f7420746865206f776e657281525060200191505060405180910390fd5b8073ffffffffffffffffffffffffffffffffffffffff1663a9059cbb612f146120c6565b8373ffffffffffffffffffffffffffffffffffffffff166370a08231306040518263ffffffff1660e01b8152600401808273ffffffffffffffffffffffffffffffffffffffff1673ffffffffffffffffffffffffffffffffffffffff16815260200191505060206040518083038186803b158015612f9157600080fd5b505afa158015612fa5573d6000803e3d6000fd5b505050506040513d6020811015612fbb57600080fd5b81019080805190602001909291905050506040518363ffffffff1660e01b8152600401808373ffffffffffffffffffffffffffffffffffffffff1673ffffffffffffffffffffffffffffffffffffffff16815260200182815260200192505050602060405180830381600087803b15801561303557600080fd5b505af1158015613049573d6000803e3d6000fd5b505050506040513d602081101561305f57600080fd5b81019080805190602001909291905050505050565b61307c6120ef565b6130ee576040517f08c379a00000000000000000000000000000000000000000000000000000000081526004018080602001828103825260208152602001807f4f776e61626c653a2063616c6c6572206973206e6f7420746865206f776e657281525060200191505060405180910390fd5b600061310460018f61357a90919063ffffffff16565b905060008d1115613133578c6006828154811061311d57fe5b9060005260206000209060130201600201819055505b60008c1115613160578b6006828154811061314a57fe5b9060005260206000209060130201600301819055505b60008b111561318d578a6006828154811061317757fe5b9060005260206000209060130201600501819055505b60008a11156131ba5789600682815481106131a457fe5b9060005260206000209060130201600701819055505b60008911156131e75788600682815481106131d157fe5b9060005260206000209060130201600801819055505b60008811156132145787600682815481106131fe57fe5b9060005260206000209060130201600901819055505b600087111561324157866006828154811061322b57fe5b9060005260206000209060130201600a01819055505b600086111561326e57856006828154811061325857fe5b9060005260206000209060130201600b01819055505b600083111561329b57826006828154811061328557fe5b9060005260206000209060130201600f01819055505b81600682815481106132a957fe5b906000526020600020906013020160060160006101000a81548173ffffffffffffffffffffffffffffffffffffffff021916908373ffffffffffffffffffffffffffffffffffffffff160217905550846006828154811061330657fe5b9060005260206000209060130201600c0160006101000a81548160ff021916908315150217905550836006828154811061333c57fe5b9060005260206000209060130201600c0160016101000a81548160ff021916908315150217905550831561338e57426006828154811061337857fe5b9060005260206000209060130201600e01819055505b5050505050505050505050505050565b6133a66120ef565b613418576040517f08c379a00000000000000000000000000000000000000000000000000000000081526004018080602001828103825260208152602001807f4f776e61626c653a2063616c6c6572206973206e6f7420746865206f776e657281525060200191505060405180910390fd5b816005600085815260200190815260200160002060008673ffffffffffffffffffffffffffffffffffffffff1673ffffffffffffffffffffffffffffffffffffffff16815260200190815260200160002060010160146101000a81548160ff021916908315150217905550806005600085815260200190815260200160002060008673ffffffffffffffffffffffffffffffffffffffff1673ffffffffffffffffffffffffffffffffffffffff16815260200190815260200160002060060160006101000a81548160ff02191690831515021790555050505050565b6134fc6120ef565b61356e576040517f08c379a00000000000000000000000000000000000000000000000000000000081526004018080602001828103825260208152602001807f4f776e61626c653a2063616c6c6572206973206e6f7420746865206f776e657281525060200191505060405180910390fd5b61357781613724565b50565b60006135bc83836040518060400160405280601e81526020017f536166654d6174683a207375627472616374696f6e206f766572666c6f770000815250613868565b905092915050565b600080828401905083811015613642576040517f08c379a000000000000000000000000000000000000000000000000000000000815260040180806020018281038252601b8152602001807f536166654d6174683a206164646974696f6e206f766572666c6f77000000000081525060200191505060405180910390fd5b8091505092915050565b60008083141561365f57600090506136cc565b600082840290508284828161367057fe5b04146136c7576040517f08c379a0000000000000000000000000000000000000000000000000000000008152600401808060200182810382526021815260200180613aba6021913960400191505060405180910390fd5b809150505b92915050565b600061371483836040518060400160405280601a81526020017f536166654d6174683a206469766973696f6e206279207a65726f000000000000815250613928565b905092915050565b600033905090565b600073ffffffffffffffffffffffffffffffffffffffff168173ffffffffffffffffffffffffffffffffffffffff1614156137aa576040517f08c379a0000000000000000000000000000000000000000000000000000000008152600401808060200182810382526026815260200180613a946026913960400191505060405180910390fd5b8073ffffffffffffffffffffffffffffffffffffffff166000809054906101000a900473ffffffffffffffffffffffffffffffffffffffff1673ffffffffffffffffffffffffffffffffffffffff167f8be0079c531659141344cd1fd0a4f28419497f9722a3daafe3b4186f6b6457e060405160405180910390a3806000806101000a81548173ffffffffffffffffffffffffffffffffffffffff021916908373ffffffffffffffffffffffffffffffffffffffff16021790555050565b6000838311158290613915576040517f08c379a00000000000000000000000000000000000000000000000000000000081526004018080602001828103825283818151815260200191508051906020019080838360005b838110156138da5780820151818401526020810190506138bf565b50505050905090810190601f1680156139075780820380516001836020036101000a031916815260200191505b509250505060405180910390fd5b5060008385039050809150509392505050565b600080831182906139d4576040517f08c379a00000000000000000000000000000000000000000000000000000000081526004018080602001828103825283818151815260200191508051906020019080838360005b8381101561399957808201518184015260208101905061397e565b50505050905090810190601f1680156139c65780820380516001836020036101000a031916815260200191505b509250505060405180910390fd5b5060008385816139e057fe5b049050809150509392505050565b828054600181600116156101000203166002900490600052602060002090601f016020900481019282601f10613a2f57805160ff1916838001178555613a5d565b82800160010185558215613a5d579182015b82811115613a5c578251825591602001919060010190613a41565b5b509050613a6a9190613a6e565b5090565b613a9091905b80821115613a8c576000816000905550600101613a74565b5090565b9056fe4f776e61626c653a206e6577206f776e657220697320746865207a65726f2061646472657373536166654d6174683a206d756c7469706c69636174696f6e206f766572666c6f77a2646970667358221220b4dcd9a0fb01b13e3f8392cf7ffe075a6a7eccdf101bc109ee894c63797b6f1864736f6c63430006020033",
  "source": "pragma solidity >=0.6.0;\r\n\r\nimport \"@openzeppelin/contracts/token/ERC20/SafeERC20.sol\";\r\nimport \"@openzeppelin/contracts/math/SafeMath.sol\";\r\nimport \"@openzeppelin/contracts/ownership/Ownable.sol\";\r\n\r\ncontract PolkaBridgeLaunchPad is Ownable {\r\n    string public name = \"PolkaBridge: LaunchPad\";\r\n    using SafeMath for uint256;\r\n    using SafeERC20 for IERC20;\r\n    uint256 private CONST_MINIMUM = 1000000000000000000;\r\n    IERC20 polkaBridgeToken;\r\n\r\n    address payable private ReceiveToken;\r\n\r\n    struct IDOPool {\r\n        uint256 Id;\r\n        string Name;\r\n        uint256 Begin;\r\n        uint256 End;\r\n        uint256 Type; //1:public, 2:private\r\n        uint256 AmountPBRRequire; //must e18,important when init\r\n        IERC20 IDOToken;\r\n        uint256 MinPurchase;\r\n        uint256 MaxPurchase;\r\n        uint256 TotalCap;\r\n        uint256 TotalToken; //total sale token for this pool\r\n        uint256 RatePerETH;\r\n        bool IsActived;\r\n        bool IsStoped;\r\n        uint256 ActivedDate;\r\n        uint256 StopDate;\r\n        uint256 LockDuration; //lock after purchase\r\n        uint256 TotalSold; //total number of token sold\r\n        bool IsSoldOut; //reach hardcap\r\n        uint256 SoldOutAt; //sold out at time\r\n    }\r\n\r\n    struct User {\r\n        uint256 Id;\r\n        address UserAddress;\r\n        bool IsWhitelist;\r\n        uint256 WhitelistDate;\r\n        uint256 TotalTokenPurchase;\r\n        uint256 TotalETHPurchase;\r\n        uint256 PurchaseTime;\r\n        bool IsActived;\r\n        bool IsClaimed;\r\n    }\r\n\r\n    mapping(uint256 => mapping(address => User)) public whitelist; //poolid - listuser\r\n\r\n    IDOPool[] pools;\r\n\r\n    constructor(address payable receiveTokenAdd, IERC20 polkaBridge) public {\r\n        ReceiveToken = receiveTokenAdd;\r\n        polkaBridgeToken = polkaBridge;\r\n    }\r\n\r\n    function addWhitelist(address user, uint256 pid) public onlyOwner {\r\n        whitelist[pid][user].Id = pid;\r\n        whitelist[pid][user].UserAddress = user;\r\n        whitelist[pid][user].IsWhitelist = true;\r\n        whitelist[pid][user].WhitelistDate = block.timestamp;\r\n        whitelist[pid][user].IsActived = true;\r\n    }\r\n\r\n    function addMulWhitelist(address[] memory user, uint256 pid)\r\n        public\r\n        onlyOwner\r\n    {\r\n        for (uint256 i = 0; i < user.length; i++) {\r\n            whitelist[pid][user[i]].Id = pid;\r\n            whitelist[pid][user[i]].UserAddress = user[i];\r\n            whitelist[pid][user[i]].IsWhitelist = true;\r\n            whitelist[pid][user[i]].WhitelistDate = block.timestamp;\r\n            whitelist[pid][user[i]].IsActived = true;\r\n        }\r\n    }\r\n\r\n    function updateWhitelist(\r\n        address user,\r\n        uint256 pid,\r\n        bool isWhitelist,\r\n        bool isActived\r\n    ) public onlyOwner {\r\n        whitelist[pid][user].IsWhitelist = isWhitelist;\r\n        whitelist[pid][user].IsActived = isActived;\r\n    }\r\n\r\n    function IsWhitelist(address user, uint256 pid) public view returns (bool) {\r\n        return whitelist[pid][user].IsWhitelist;\r\n    }\r\n\r\n    function addPool(\r\n        string memory name,\r\n        uint256 begin,\r\n        uint256 end,\r\n        uint256 _type,\r\n        IERC20 idoToken,\r\n        uint256 minPurchase,\r\n        uint256 maxPurchase,\r\n        uint256 totalCap,\r\n        uint256 totalToken,\r\n        uint256 amountPBRRequire,\r\n        uint256 ratePerETH,\r\n        uint256 lockDuration\r\n    ) public onlyOwner {\r\n        uint256 id = pools.length.add(1);\r\n        pools.push(\r\n            IDOPool({\r\n                Id: id,\r\n                Name: name,\r\n                Begin: begin,\r\n                End: end,\r\n                Type: _type,\r\n                AmountPBRRequire: amountPBRRequire,\r\n                IDOToken: idoToken,\r\n                MinPurchase: minPurchase,\r\n                MaxPurchase: maxPurchase,\r\n                TotalCap: totalCap,\r\n                TotalToken: totalToken,\r\n                RatePerETH: ratePerETH,\r\n                IsActived: true,\r\n                IsStoped: false,\r\n                ActivedDate: block.timestamp,\r\n                StopDate: 0,\r\n                LockDuration: lockDuration,\r\n                TotalSold: 0,\r\n                IsSoldOut: false,\r\n                SoldOutAt: 0\r\n            })\r\n        );\r\n    }\r\n\r\n    function updatePool(\r\n        uint256 pid,\r\n        uint256 begin,\r\n        uint256 end,\r\n        uint256 amountPBRRequire,\r\n        uint256 minPurchase,\r\n        uint256 maxPurchase,\r\n        uint256 totalCap,\r\n        uint256 totalToken,\r\n        uint256 ratePerETH,\r\n        bool isActived,\r\n        bool isStoped,\r\n        uint256 lockDuration,\r\n        IERC20 idoToken\r\n    ) public onlyOwner {\r\n        uint256 poolIndex = pid.sub(1);\r\n        if (begin > 0) {\r\n            pools[poolIndex].Begin = begin;\r\n        }\r\n        if (end > 0) {\r\n            pools[poolIndex].End = end;\r\n        }\r\n        if (amountPBRRequire > 0) {\r\n            pools[poolIndex].AmountPBRRequire = amountPBRRequire;\r\n        }\r\n        if (minPurchase > 0) {\r\n            pools[poolIndex].MinPurchase = minPurchase;\r\n        }\r\n        if (maxPurchase > 0) {\r\n            pools[poolIndex].MaxPurchase = maxPurchase;\r\n        }\r\n        if (totalCap > 0) {\r\n            pools[poolIndex].TotalCap = totalCap;\r\n        }\r\n        if (totalToken > 0) {\r\n            pools[poolIndex].TotalToken = totalToken;\r\n        }\r\n        if (ratePerETH > 0) {\r\n            pools[poolIndex].RatePerETH = ratePerETH;\r\n        }\r\n        if (lockDuration > 0) {\r\n            pools[poolIndex].LockDuration = lockDuration;\r\n        }\r\n        pools[poolIndex].IDOToken = idoToken;\r\n        pools[poolIndex].IsActived = isActived;\r\n        pools[poolIndex].IsStoped = isStoped;\r\n        if (isStoped) {\r\n            pools[poolIndex].StopDate = block.timestamp;\r\n        }\r\n    }\r\n\r\n    //withdraw contract token\r\n    //use for someone send token to contract\r\n    //recuse wrong user\r\n\r\n    function withdrawErc20(IERC20 token) public onlyOwner {\r\n        token.transfer(owner(), token.balanceOf(address(this)));\r\n    }\r\n\r\n    //withdraw ETH after IDO\r\n    function withdrawPoolFund() public onlyOwner {\r\n        uint256 balance = address(this).balance;\r\n        require(balance > 0, \"not enough fund\");\r\n        ReceiveToken.transfer(balance);\r\n    }\r\n\r\n    function purchaseIDO(uint256 pid) public payable {\r\n        uint256 poolIndex = pid.sub(1);\r\n\r\n        require(\r\n            pools[poolIndex].IsActived && !pools[poolIndex].IsStoped,\r\n            \"invalid pool\"\r\n        );\r\n        require(\r\n            block.timestamp >= pools[poolIndex].Begin &&\r\n                block.timestamp <= pools[poolIndex].End,\r\n            \"invalid time\"\r\n        );\r\n        uint256 remainToken = getRemainIDOToken(pid);\r\n        if (remainToken <= CONST_MINIMUM) {\r\n            pools[poolIndex].IsSoldOut = true;\r\n            pools[poolIndex].SoldOutAt = block.timestamp;\r\n        }\r\n\r\n        require(!pools[poolIndex].IsSoldOut, \"IDO sold out\");\r\n\r\n        uint256 ethAmount = msg.value;\r\n        // require(\r\n        //     ethAmount >= pools[poolIndex].MinPurchase,\r\n        //     \"invalid minimum contribute\"\r\n        // );\r\n        require(\r\n            ethAmount <= pools[poolIndex].MaxPurchase,\r\n            \"invalid maximum contribute\"\r\n        );\r\n\r\n        whitelist[pid][msg.sender].TotalETHPurchase = whitelist[pid][msg.sender]\r\n            .TotalETHPurchase\r\n            .add(ethAmount);\r\n        if (\r\n            whitelist[pid][msg.sender].TotalETHPurchase >\r\n            pools[poolIndex].MaxPurchase\r\n        ) {\r\n            whitelist[pid][msg.sender].TotalETHPurchase = whitelist[pid][\r\n                msg.sender\r\n            ]\r\n                .TotalETHPurchase\r\n                .sub(ethAmount);\r\n            revert(\"invalid maximum contribute\");\r\n        }\r\n\r\n        //check user\r\n        require(\r\n            whitelist[pid][msg.sender].IsWhitelist &&\r\n                whitelist[pid][msg.sender].IsActived,\r\n            \"invalid user\"\r\n        );\r\n        if (pools[poolIndex].Type == 2) //private, check hold PBR\r\n        {\r\n            require(\r\n                polkaBridgeToken.balanceOf(msg.sender) >=\r\n                    pools[poolIndex].AmountPBRRequire,\r\n                \"must hold PBR\"\r\n            );\r\n        }\r\n\r\n        //storage\r\n        uint256 tokenAmount =\r\n            ethAmount.mul(pools[poolIndex].RatePerETH).div(1e18);\r\n        whitelist[pid][msg.sender].TotalTokenPurchase = whitelist[pid][\r\n            msg.sender\r\n        ]\r\n            .TotalTokenPurchase\r\n            .add(tokenAmount);\r\n\r\n        pools[poolIndex].TotalSold = pools[poolIndex].TotalSold.add(\r\n            tokenAmount\r\n        );\r\n    }\r\n\r\n    function claimToken(uint256 pid) public {\r\n        require(!whitelist[pid][msg.sender].IsClaimed, \"user already claimed\");\r\n        uint256 poolIndex = pid.sub(1);\r\n\r\n        require(\r\n            block.timestamp >=\r\n                pools[poolIndex].End.add(pools[poolIndex].LockDuration),\r\n            \"not on time\"\r\n        );\r\n\r\n        uint256 userBalance = getUserTotalPurchase(pid);\r\n\r\n        require(userBalance > 0, \"invalid claim\");\r\n\r\n        pools[poolIndex].IDOToken.transfer(msg.sender, userBalance);\r\n        whitelist[pid][msg.sender].IsClaimed = true;\r\n    }\r\n\r\n    function getUserTotalPurchase(uint256 pid) public view returns (uint256) {\r\n        return whitelist[pid][msg.sender].TotalTokenPurchase;\r\n    }\r\n\r\n    function getRemainIDOToken(uint256 pid) public view returns (uint256) {\r\n        uint256 poolIndex = pid.sub(1);\r\n        uint256 tokenBalance = getBalanceTokenByPoolId(pid);\r\n        return tokenBalance.sub(pools[poolIndex].TotalSold);\r\n    }\r\n\r\n    function getBalanceTokenByPoolId(uint256 pid)\r\n        public\r\n        view\r\n        returns (uint256)\r\n    {\r\n        uint256 poolIndex = pid.sub(1);\r\n        //return pools[poolIndex].IDOToken.balanceOf(address(this));\r\n        return pools[poolIndex].TotalToken;\r\n    }\r\n\r\n    function getPoolInfo(uint256 pid)\r\n        public\r\n        view\r\n        returns (\r\n            uint256,\r\n            uint256,\r\n            uint256,\r\n            uint256,\r\n            uint256,\r\n            uint256,\r\n            uint256,\r\n            uint256,\r\n            bool,\r\n            IERC20\r\n        )\r\n    {\r\n        uint256 poolIndex = pid.sub(1);\r\n        return (\r\n            pools[poolIndex].Begin,\r\n            pools[poolIndex].End,\r\n            pools[poolIndex].Type,\r\n            pools[poolIndex].AmountPBRRequire,\r\n            pools[poolIndex].MaxPurchase,\r\n            pools[poolIndex].RatePerETH,\r\n            pools[poolIndex].LockDuration,\r\n            pools[poolIndex].TotalSold,\r\n            pools[poolIndex].IsActived,\r\n            pools[poolIndex].IDOToken\r\n        );\r\n    }\r\n\r\n    function getPoolSoldInfo(uint256 pid)\r\n        public\r\n        view\r\n        returns (\r\n            uint256,\r\n            uint256,\r\n            bool,\r\n            uint256\r\n        )\r\n    {\r\n        uint256 poolIndex = pid.sub(1);\r\n        return (\r\n            pools[poolIndex].LockDuration,\r\n            pools[poolIndex].TotalSold,\r\n            pools[poolIndex].IsSoldOut,\r\n            pools[poolIndex].SoldOutAt\r\n        );\r\n    }\r\n\r\n    function getWhitelistfo(uint256 pid)\r\n        public\r\n        view\r\n        returns (\r\n            address,\r\n            bool,\r\n            uint256,\r\n            uint256,\r\n            uint256,\r\n            bool\r\n        )\r\n    {\r\n        return (\r\n            whitelist[pid][msg.sender].UserAddress,\r\n            whitelist[pid][msg.sender].IsWhitelist,\r\n            whitelist[pid][msg.sender].WhitelistDate,\r\n            whitelist[pid][msg.sender].TotalTokenPurchase,\r\n            whitelist[pid][msg.sender].TotalETHPurchase,\r\n            whitelist[pid][msg.sender].IsClaimed\r\n        );\r\n    }\r\n\r\n    function getUserInfo(uint256 pid, address user)\r\n        public\r\n        view\r\n        returns (\r\n            bool,\r\n            uint256,\r\n            uint256,\r\n            uint256,\r\n            bool\r\n        )\r\n    {\r\n        return (\r\n            whitelist[pid][user].IsWhitelist,\r\n            whitelist[pid][user].WhitelistDate,\r\n            whitelist[pid][user].TotalTokenPurchase,\r\n            whitelist[pid][user].TotalETHPurchase,\r\n            whitelist[pid][user].IsClaimed\r\n        );\r\n    }\r\n\r\n    receive() external payable {}\r\n}\r\n",
  "sourcePath": "C:/Users/thanhphi/Desktop/PolkaBridgeSolution/PolkaBridge-LaunchPad/contracts/PolkaBridgeLaunchPad.sol",
  "compiler": {
    "name": "solc",
    "version": "0.6.2+commit.bacdbe57.Emscripten.clang"
  },
  "schemaVersion": "3.3.3",
  "updatedAt": "2021-04-13T02:41:13.768Z",
  "devdoc": {
    "methods": {
      "isOwner()": {
        "details": "Returns true if the caller is the current owner."
      },
      "owner()": {
        "details": "Returns the address of the current owner."
      },
      "renounceOwnership()": {
        "details": "Leaves the contract without owner. It will not be possible to call `onlyOwner` functions anymore. Can only be called by the current owner.     * NOTE: Renouncing ownership will leave the contract without an owner, thereby removing any functionality that is only available to the owner."
      },
      "transferOwnership(address)": {
        "details": "Transfers ownership of the contract to a new account (`newOwner`). Can only be called by the current owner."
      }
    }
  },
  "userdoc": {
    "methods": {}
  }
}