{
  "contractName": "PolkabridgeLaunchPadV2",
  "abi": [
    {
      "inputs": [
        {
          "internalType": "address payable",
          "name": "receiveTokenAdd",
          "type": "address"
        }
      ],
      "stateMutability": "nonpayable",
      "type": "constructor"
    },
    {
      "anonymous": false,
      "inputs": [
        {
          "indexed": true,
          "internalType": "address",
          "name": "previousOwner",
          "type": "address"
        },
        {
          "indexed": true,
          "internalType": "address",
          "name": "newOwner",
          "type": "address"
        }
      ],
      "name": "OwnershipTransferred",
      "type": "event"
    },
    {
      "inputs": [
        {
          "internalType": "uint256",
          "name": "",
          "type": "uint256"
        }
      ],
      "name": "claimInfos",
      "outputs": [
        {
          "internalType": "uint256",
          "name": "ClaimTime1",
          "type": "uint256"
        },
        {
          "internalType": "uint256",
          "name": "PercentClaim1",
          "type": "uint256"
        },
        {
          "internalType": "uint256",
          "name": "ClaimTime2",
          "type": "uint256"
        },
        {
          "internalType": "uint256",
          "name": "PercentClaim2",
          "type": "uint256"
        },
        {
          "internalType": "uint256",
          "name": "ClaimTime3",
          "type": "uint256"
        },
        {
          "internalType": "uint256",
          "name": "PercentClaim3",
          "type": "uint256"
        },
        {
          "internalType": "uint256",
          "name": "ClaimTime4",
          "type": "uint256"
        },
        {
          "internalType": "uint256",
          "name": "PercentClaim4",
          "type": "uint256"
        },
        {
          "internalType": "uint256",
          "name": "ClaimTime5",
          "type": "uint256"
        },
        {
          "internalType": "uint256",
          "name": "PercentClaim5",
          "type": "uint256"
        },
        {
          "internalType": "uint256",
          "name": "ClaimTime6",
          "type": "uint256"
        },
        {
          "internalType": "uint256",
          "name": "PercentClaim6",
          "type": "uint256"
        },
        {
          "internalType": "uint256",
          "name": "ClaimTime7",
          "type": "uint256"
        },
        {
          "internalType": "uint256",
          "name": "PercentClaim7",
          "type": "uint256"
        }
      ],
      "stateMutability": "view",
      "type": "function"
    },
    {
      "inputs": [],
      "name": "isOwner",
      "outputs": [
        {
          "internalType": "bool",
          "name": "",
          "type": "bool"
        }
      ],
      "stateMutability": "view",
      "type": "function"
    },
    {
      "inputs": [],
      "name": "name",
      "outputs": [
        {
          "internalType": "string",
          "name": "",
          "type": "string"
        }
      ],
      "stateMutability": "view",
      "type": "function"
    },
    {
      "inputs": [],
      "name": "owner",
      "outputs": [
        {
          "internalType": "address",
          "name": "",
          "type": "address"
        }
      ],
      "stateMutability": "view",
      "type": "function"
    },
    {
      "inputs": [],
      "name": "renounceOwnership",
      "outputs": [],
      "stateMutability": "nonpayable",
      "type": "function"
    },
    {
      "inputs": [
        {
          "internalType": "address",
          "name": "newOwner",
          "type": "address"
        }
      ],
      "name": "transferOwnership",
      "outputs": [],
      "stateMutability": "nonpayable",
      "type": "function"
    },
    {
      "inputs": [
        {
          "internalType": "uint256",
          "name": "",
          "type": "uint256"
        },
        {
          "internalType": "address",
          "name": "",
          "type": "address"
        }
      ],
      "name": "users",
      "outputs": [
        {
          "internalType": "uint256",
          "name": "Id",
          "type": "uint256"
        },
        {
          "internalType": "bool",
          "name": "IsWhitelist",
          "type": "bool"
        },
        {
          "internalType": "uint256",
          "name": "TotalTokenPurchase",
          "type": "uint256"
        },
        {
          "internalType": "uint256",
          "name": "TotalETHPurchase",
          "type": "uint256"
        },
        {
          "internalType": "uint256",
          "name": "PurchaseTime",
          "type": "uint256"
        },
        {
          "internalType": "uint256",
          "name": "LastClaimed",
          "type": "uint256"
        },
        {
          "internalType": "uint256",
          "name": "TotalPercentClaimed",
          "type": "uint256"
        },
        {
          "internalType": "uint256",
          "name": "NumberClaimed",
          "type": "uint256"
        },
        {
          "internalType": "uint256",
          "name": "PurchaseAllocation",
          "type": "uint256"
        }
      ],
      "stateMutability": "view",
      "type": "function"
    },
    {
      "inputs": [
        {
          "internalType": "address[]",
          "name": "user",
          "type": "address[]"
        },
        {
          "internalType": "uint256[]",
          "name": "allocation",
          "type": "uint256[]"
        },
        {
          "internalType": "uint256",
          "name": "pid",
          "type": "uint256"
        }
      ],
      "name": "addMulWhitelist",
      "outputs": [],
      "stateMutability": "nonpayable",
      "type": "function"
    },
    {
      "inputs": [
        {
          "internalType": "address[]",
          "name": "user",
          "type": "address[]"
        },
        {
          "internalType": "uint256",
          "name": "pid",
          "type": "uint256"
        }
      ],
      "name": "sign",
      "outputs": [],
      "stateMutability": "nonpayable",
      "type": "function"
    },
    {
      "inputs": [
        {
          "internalType": "address",
          "name": "user",
          "type": "address"
        },
        {
          "internalType": "uint256",
          "name": "pid",
          "type": "uint256"
        },
        {
          "internalType": "bool",
          "name": "isWhitelist",
          "type": "bool"
        }
      ],
      "name": "updateWhitelist",
      "outputs": [],
      "stateMutability": "nonpayable",
      "type": "function"
    },
    {
      "inputs": [
        {
          "internalType": "address",
          "name": "user",
          "type": "address"
        },
        {
          "internalType": "uint256",
          "name": "pid",
          "type": "uint256"
        },
        {
          "internalType": "uint256",
          "name": "stackAmount",
          "type": "uint256"
        }
      ],
      "name": "IsWhitelist",
      "outputs": [
        {
          "internalType": "bool",
          "name": "",
          "type": "bool"
        }
      ],
      "stateMutability": "view",
      "type": "function"
    },
    {
      "inputs": [
        {
          "internalType": "uint256",
          "name": "begin",
          "type": "uint256"
        },
        {
          "internalType": "uint256",
          "name": "end",
          "type": "uint256"
        },
        {
          "internalType": "uint256",
          "name": "_type",
          "type": "uint256"
        },
        {
          "internalType": "contract IERC20",
          "name": "idoToken",
          "type": "address"
        },
        {
          "internalType": "uint256",
          "name": "maxPurchaseTier1",
          "type": "uint256"
        },
        {
          "internalType": "uint256",
          "name": "maxPurchaseTier2",
          "type": "uint256"
        },
        {
          "internalType": "uint256",
          "name": "maxPurchaseTier3",
          "type": "uint256"
        },
        {
          "internalType": "uint256",
          "name": "maxSpecialPurchase",
          "type": "uint256"
        },
        {
          "internalType": "uint256",
          "name": "totalCap",
          "type": "uint256"
        },
        {
          "internalType": "uint256",
          "name": "totalToken",
          "type": "uint256"
        },
        {
          "internalType": "uint256",
          "name": "ratePerETH",
          "type": "uint256"
        },
        {
          "internalType": "uint256",
          "name": "minimumTokenSoldout",
          "type": "uint256"
        }
      ],
      "name": "addPool",
      "outputs": [],
      "stateMutability": "nonpayable",
      "type": "function"
    },
    {
      "inputs": [
        {
          "internalType": "uint256",
          "name": "percentClaim1",
          "type": "uint256"
        },
        {
          "internalType": "uint256",
          "name": "claimTime1",
          "type": "uint256"
        },
        {
          "internalType": "uint256",
          "name": "percentClaim2",
          "type": "uint256"
        },
        {
          "internalType": "uint256",
          "name": "claimTime2",
          "type": "uint256"
        },
        {
          "internalType": "uint256",
          "name": "percentClaim3",
          "type": "uint256"
        },
        {
          "internalType": "uint256",
          "name": "claimTime3",
          "type": "uint256"
        },
        {
          "internalType": "uint256",
          "name": "percentClaim4",
          "type": "uint256"
        },
        {
          "internalType": "uint256",
          "name": "claimTime4",
          "type": "uint256"
        },
        {
          "internalType": "uint256",
          "name": "percentClaim5",
          "type": "uint256"
        },
        {
          "internalType": "uint256",
          "name": "claimTime5",
          "type": "uint256"
        },
        {
          "internalType": "uint256",
          "name": "percentClaim6",
          "type": "uint256"
        },
        {
          "internalType": "uint256",
          "name": "claimTime6",
          "type": "uint256"
        },
        {
          "internalType": "uint256",
          "name": "percentClaim7",
          "type": "uint256"
        },
        {
          "internalType": "uint256",
          "name": "claimTime7",
          "type": "uint256"
        },
        {
          "internalType": "uint256",
          "name": "pid",
          "type": "uint256"
        }
      ],
      "name": "addClaimInfo",
      "outputs": [],
      "stateMutability": "nonpayable",
      "type": "function"
    },
    {
      "inputs": [
        {
          "internalType": "uint256",
          "name": "percentClaim1",
          "type": "uint256"
        },
        {
          "internalType": "uint256",
          "name": "claimTime1",
          "type": "uint256"
        },
        {
          "internalType": "uint256",
          "name": "percentClaim2",
          "type": "uint256"
        },
        {
          "internalType": "uint256",
          "name": "claimTime2",
          "type": "uint256"
        },
        {
          "internalType": "uint256",
          "name": "percentClaim3",
          "type": "uint256"
        },
        {
          "internalType": "uint256",
          "name": "claimTime3",
          "type": "uint256"
        },
        {
          "internalType": "uint256",
          "name": "percentClaim4",
          "type": "uint256"
        },
        {
          "internalType": "uint256",
          "name": "claimTime4",
          "type": "uint256"
        },
        {
          "internalType": "uint256",
          "name": "percentClaim5",
          "type": "uint256"
        },
        {
          "internalType": "uint256",
          "name": "claimTime5",
          "type": "uint256"
        },
        {
          "internalType": "uint256",
          "name": "percentClaim6",
          "type": "uint256"
        },
        {
          "internalType": "uint256",
          "name": "claimTime6",
          "type": "uint256"
        },
        {
          "internalType": "uint256",
          "name": "percentClaim7",
          "type": "uint256"
        },
        {
          "internalType": "uint256",
          "name": "claimTime7",
          "type": "uint256"
        },
        {
          "internalType": "uint256",
          "name": "pid",
          "type": "uint256"
        }
      ],
      "name": "updateClaimInfo",
      "outputs": [],
      "stateMutability": "nonpayable",
      "type": "function"
    },
    {
      "inputs": [
        {
          "internalType": "uint256",
          "name": "pid",
          "type": "uint256"
        },
        {
          "internalType": "uint256",
          "name": "begin",
          "type": "uint256"
        },
        {
          "internalType": "uint256",
          "name": "end",
          "type": "uint256"
        },
        {
          "internalType": "uint256",
          "name": "maxPurchaseTier1",
          "type": "uint256"
        },
        {
          "internalType": "uint256",
          "name": "maxPurchaseTier2",
          "type": "uint256"
        },
        {
          "internalType": "uint256",
          "name": "maxPurchaseTier3",
          "type": "uint256"
        },
        {
          "internalType": "uint256",
          "name": "maxSpecialPurchase",
          "type": "uint256"
        },
        {
          "internalType": "uint256",
          "name": "totalCap",
          "type": "uint256"
        },
        {
          "internalType": "uint256",
          "name": "totalToken",
          "type": "uint256"
        },
        {
          "internalType": "uint256",
          "name": "ratePerETH",
          "type": "uint256"
        },
        {
          "internalType": "contract IERC20",
          "name": "idoToken",
          "type": "address"
        },
        {
          "internalType": "uint256",
          "name": "pooltype",
          "type": "uint256"
        }
      ],
      "name": "updatePool",
      "outputs": [],
      "stateMutability": "nonpayable",
      "type": "function"
    },
    {
      "inputs": [
        {
          "internalType": "contract IERC20",
          "name": "token",
          "type": "address"
        }
      ],
      "name": "withdrawErc20",
      "outputs": [],
      "stateMutability": "nonpayable",
      "type": "function"
    },
    {
      "inputs": [],
      "name": "withdrawPoolFund",
      "outputs": [],
      "stateMutability": "nonpayable",
      "type": "function"
    },
    {
      "inputs": [
        {
          "internalType": "uint256",
          "name": "stakeAmount",
          "type": "uint256"
        },
        {
          "internalType": "uint256",
          "name": "pid",
          "type": "uint256"
        },
        {
          "internalType": "uint8",
          "name": "v",
          "type": "uint8"
        },
        {
          "internalType": "bytes32",
          "name": "r",
          "type": "bytes32"
        },
        {
          "internalType": "bytes32",
          "name": "s",
          "type": "bytes32"
        }
      ],
      "name": "purchaseIDO",
      "outputs": [],
      "stateMutability": "payable",
      "type": "function"
    },
    {
      "inputs": [
        {
          "internalType": "uint256",
          "name": "pid",
          "type": "uint256"
        }
      ],
      "name": "claimToken",
      "outputs": [],
      "stateMutability": "nonpayable",
      "type": "function"
    },
    {
      "inputs": [
        {
          "internalType": "uint256",
          "name": "pid",
          "type": "uint256"
        }
      ],
      "name": "getUserTotalPurchase",
      "outputs": [
        {
          "internalType": "uint256",
          "name": "",
          "type": "uint256"
        }
      ],
      "stateMutability": "view",
      "type": "function"
    },
    {
      "inputs": [
        {
          "internalType": "uint256",
          "name": "pid",
          "type": "uint256"
        }
      ],
      "name": "getRemainIDOToken",
      "outputs": [
        {
          "internalType": "uint256",
          "name": "",
          "type": "uint256"
        }
      ],
      "stateMutability": "view",
      "type": "function"
    },
    {
      "inputs": [
        {
          "internalType": "uint256",
          "name": "pid",
          "type": "uint256"
        }
      ],
      "name": "getBalanceTokenByPoolId",
      "outputs": [
        {
          "internalType": "uint256",
          "name": "",
          "type": "uint256"
        }
      ],
      "stateMutability": "view",
      "type": "function"
    },
    {
      "inputs": [
        {
          "internalType": "uint256",
          "name": "pid",
          "type": "uint256"
        }
      ],
      "name": "getPoolInfo",
      "outputs": [
        {
          "internalType": "uint256",
          "name": "",
          "type": "uint256"
        },
        {
          "internalType": "uint256",
          "name": "",
          "type": "uint256"
        },
        {
          "internalType": "uint256",
          "name": "",
          "type": "uint256"
        },
        {
          "internalType": "uint256",
          "name": "",
          "type": "uint256"
        },
        {
          "internalType": "uint256",
          "name": "",
          "type": "uint256"
        },
        {
          "internalType": "contract IERC20",
          "name": "",
          "type": "address"
        }
      ],
      "stateMutability": "view",
      "type": "function"
    },
    {
      "inputs": [
        {
          "internalType": "uint256",
          "name": "pid",
          "type": "uint256"
        }
      ],
      "name": "getClaimInfo",
      "outputs": [
        {
          "internalType": "uint256",
          "name": "",
          "type": "uint256"
        },
        {
          "internalType": "uint256",
          "name": "",
          "type": "uint256"
        },
        {
          "internalType": "uint256",
          "name": "",
          "type": "uint256"
        },
        {
          "internalType": "uint256",
          "name": "",
          "type": "uint256"
        },
        {
          "internalType": "uint256",
          "name": "",
          "type": "uint256"
        },
        {
          "internalType": "uint256",
          "name": "",
          "type": "uint256"
        }
      ],
      "stateMutability": "view",
      "type": "function"
    },
    {
      "inputs": [
        {
          "internalType": "uint256",
          "name": "pid",
          "type": "uint256"
        }
      ],
      "name": "getPoolSoldInfo",
      "outputs": [
        {
          "internalType": "uint256",
          "name": "",
          "type": "uint256"
        }
      ],
      "stateMutability": "view",
      "type": "function"
    },
    {
      "inputs": [
        {
          "internalType": "uint256",
          "name": "pid",
          "type": "uint256"
        }
      ],
      "name": "getWhitelistfo",
      "outputs": [
        {
          "internalType": "bool",
          "name": "",
          "type": "bool"
        },
        {
          "internalType": "uint256",
          "name": "",
          "type": "uint256"
        },
        {
          "internalType": "uint256",
          "name": "",
          "type": "uint256"
        }
      ],
      "stateMutability": "view",
      "type": "function"
    },
    {
      "inputs": [
        {
          "internalType": "uint256",
          "name": "pid",
          "type": "uint256"
        },
        {
          "internalType": "address",
          "name": "user",
          "type": "address"
        }
      ],
      "name": "getUserInfo",
      "outputs": [
        {
          "internalType": "bool",
          "name": "",
          "type": "bool"
        },
        {
          "internalType": "uint256",
          "name": "",
          "type": "uint256"
        },
        {
          "internalType": "uint256",
          "name": "",
          "type": "uint256"
        },
        {
          "internalType": "uint256",
          "name": "",
          "type": "uint256"
        }
      ],
      "stateMutability": "view",
      "type": "function"
    },
    {
      "inputs": [
        {
          "internalType": "uint256",
          "name": "pid",
          "type": "uint256"
        },
        {
          "internalType": "address",
          "name": "user",
          "type": "address"
        }
      ],
      "name": "getUserPurchaseAllocation",
      "outputs": [
        {
          "internalType": "uint256",
          "name": "",
          "type": "uint256"
        }
      ],
      "stateMutability": "view",
      "type": "function"
    }
  ],
  "bytecode": "0x60c0604052601960808190527f506f6c6b614272696467653a204c61756e63685061642056320000000000000060a090815262000040916002919062000112565b503480156200004e57600080fd5b50604051620036dd380380620036dd833981810160405260208110156200007457600080fd5b505160006200008b6001600160e01b036200010d16565b600080546001600160a01b0319166001600160a01b0383169081178255604051929350917f8be0079c531659141344cd1fd0a4f28419497f9722a3daafe3b4186f6b6457e0908290a35060018055600380546001600160a01b0319166001600160a01b039290921691909117905569021e19e0c9bab2400000600455620001b4565b335b90565b828054600181600116156101000203166002900490600052602060002090601f016020900481019282601f106200015557805160ff191683800117855562000185565b8280016001018555821562000185579182015b828111156200018557825182559160200191906001019062000168565b506200019392915062000197565b5090565b6200010f91905b808211156200019357600081556001016200019e565b61351980620001c46000396000f3fe6080604052600436106101b75760003560e01c806396f5fef5116100ec578063c734e2531161008a578063d207019311610064578063d2070193146108fd578063db0cd5b71461095a578063ddbb8f0214610a0c578063f2fde38b14610b42576101b7565b8063c734e25314610868578063c7e42b1b14610892578063d0d55275146108c5576101b7565b8063b7de0303116100c6578063b7de0303146106ee578063b9d02df414610718578063bf1145a114610798578063c30ef4871461081e576101b7565b806396f5fef514610602578063a48ebe821461069a578063a9e7c2e5146106c4576101b7565b806336c287f911610159578063715018a611610133578063715018a61461056e5780638b881c75146105835780638da5cb5b146105bc5780638f32d59b146105ed576101b7565b806336c287f91461042757806350933d4d1461047a578063521d7d90146104f4576101b7565b80631440b196116101955780631440b196146102ea5780631f4552cb146103705780632561ae02146103855780632f380b35146103c1576101b7565b806306fdde03146101bc57806308405e74146102465780631069f3b514610289575b600080fd5b3480156101c857600080fd5b506101d1610b75565b6040805160208082528351818301528351919283929083019185019080838360005b8381101561020b5781810151838201526020016101f3565b50505050905090810190601f1680156102385780820380516001836020036101000a031916815260200191505b509250505060405180910390f35b34801561025257600080fd5b506102876004803603606081101561026957600080fd5b506001600160a01b0381351690602081013590604001351515610c00565b005b34801561029557600080fd5b506102c2600480360360408110156102ac57600080fd5b50803590602001356001600160a01b0316610c80565b6040805194151585526020850193909352838301919091526060830152519081900360800190f35b3480156102f657600080fd5b5061028760048036036101e081101561030e57600080fd5b5080359060208101359060408101359060608101359060808101359060a08101359060c08101359060e08101359061010081013590610120810135906101408101359061016081013590610180810135906101a0810135906101c00135610cc5565b34801561037c57600080fd5b50610287610d82565b34801561039157600080fd5b506103af600480360360208110156103a857600080fd5b5035610e4c565b60408051918252519081900360200190f35b3480156103cd57600080fd5b506103eb600480360360208110156103e457600080fd5b5035610edb565b60408051968752602087019590955285850193909352606085019190915260808401526001600160a01b031660a0830152519081900360c00190f35b34801561043357600080fd5b506104666004803603606081101561044a57600080fd5b506001600160a01b038135169060208101359060400135610fd1565b604080519115158252519081900360200190f35b34801561048657600080fd5b50610287600480360361018081101561049e57600080fd5b508035906020810135906040810135906001600160a01b036060820135169060808101359060a08101359060c08101359060e081013590610100810135906101208101359061014081013590610160013561112b565b34801561050057600080fd5b50610287600480360361018081101561051857600080fd5b5080359060208101359060408101359060608101359060808101359060a08101359060c08101359060e08101359061010081013590610120810135906001600160a01b03610140820135169061016001356112e4565b34801561057a57600080fd5b50610287611536565b34801561058f57600080fd5b506103af600480360360408110156105a657600080fd5b50803590602001356001600160a01b03166115c7565b3480156105c857600080fd5b506105d16115f4565b604080516001600160a01b039092168252519081900360200190f35b3480156105f957600080fd5b50610466611603565b34801561060e57600080fd5b5061062c6004803603602081101561062557600080fd5b5035611627565b604080519e8f5260208f019d909d528d8d019b909b5260608d019990995260808c019790975260a08b019590955260c08a019390935260e08901919091526101008801526101208701526101408601526101608501526101808401526101a083015251908190036101c00190f35b3480156106a657600080fd5b506103af600480360360208110156106bd57600080fd5b5035611693565b3480156106d057600080fd5b50610287600480360360208110156106e757600080fd5b50356116b3565b3480156106fa57600080fd5b506103af6004803603602081101561071157600080fd5b5035611f03565b34801561072457600080fd5b506107516004803603604081101561073b57600080fd5b50803590602001356001600160a01b0316611f40565b60408051998a5297151560208a0152888801969096526060880194909452608087019290925260a086015260c085015260e084015261010083015251908190036101200190f35b3480156107a457600080fd5b5061028760048036036101e08110156107bc57600080fd5b5080359060208101359060408101359060608101359060808101359060a08101359060c08101359060e08101359061010081013590610120810135906101408101359061016081013590610180810135906101a0810135906101c00135611f98565b34801561082a57600080fd5b506108486004803603602081101561084157600080fd5b5035612168565b604080519315158452602084019290925282820152519081900360600190f35b34801561087457600080fd5b506103af6004803603602081101561088b57600080fd5b5035612199565b34801561089e57600080fd5b50610287600480360360208110156108b557600080fd5b50356001600160a01b03166121d6565b610287600480360360a08110156108db57600080fd5b5080359060208101359060ff6040820135169060608101359060800135612324565b34801561090957600080fd5b506109276004803603602081101561092057600080fd5b5035612b5f565b604080519687526020870195909552858501939093526060850191909152608084015260a0830152519081900360c00190f35b34801561096657600080fd5b506102876004803603604081101561097d57600080fd5b81019060208101813564010000000081111561099857600080fd5b8201836020820111156109aa57600080fd5b803590602001918460208302840111640100000000831117156109cc57600080fd5b9190808060200260200160405190810160405280939291908181526020018383602002808284376000920191909152509295505091359250612bb7915050565b348015610a1857600080fd5b5061028760048036036060811015610a2f57600080fd5b810190602081018135640100000000811115610a4a57600080fd5b820183602082011115610a5c57600080fd5b80359060200191846020830284011164010000000083111715610a7e57600080fd5b9190808060200260200160405190810160405280939291908181526020018383602002808284376000920191909152509295949360208101935035915050640100000000811115610ace57600080fd5b820183602082011115610ae057600080fd5b80359060200191846020830284011164010000000083111715610b0257600080fd5b9190808060200260200160405190810160405280939291908181526020018383602002808284376000920191909152509295505091359250612cb8915050565b348015610b4e57600080fd5b5061028760048036036020811015610b6557600080fd5b50356001600160a01b0316612e2e565b6002805460408051602060018416156101000260001901909316849004601f81018490048402820184019092528181529291830182828015610bf85780601f10610bcd57610100808354040283529160200191610bf8565b820191906000526020600020905b815481529060010190602001808311610bdb57829003601f168201915b505050505081565b610c08611603565b610c47576040805162461bcd60e51b81526020600482018190526024820152600080516020613478833981519152604482015290519081900360640190fd5b60009182526005602090815260408084206001600160a01b03959095168452939052919020600101805460ff1916911515919091179055565b60009182526005602090815260408084206001600160a01b03939093168452919052902060018101546002820154600383015460069093015460ff9092169390929190565b610ccd611603565b610d0c576040805162461bcd60e51b81526020600482018190526024820152600080516020613478833981519152604482015290519081900360640190fd5b60009081526007602081905260409091209d8e5560018e019e909e5560028d019a909a5560038c019a909a5560048b019690965560058a019690965560068901929092559787019190915560088601556009850195909555600a840194909455600b830193909355600c820192909255600d0155565b610d8a611603565b610dc9576040805162461bcd60e51b81526020600482018190526024820152600080516020613478833981519152604482015290519081900360640190fd5b4780610e0e576040805162461bcd60e51b815260206004820152600f60248201526e1b9bdd08195b9bdd59da08199d5b99608a1b604482015290519081900360640190fd5b6003546040516001600160a01b039091169082156108fc029083906000818181858888f19350505050158015610e48573d6000803e3d6000fd5b5050565b600080610e6083600163ffffffff612e8116565b90506000610e6d84611f03565b90508060068381548110610e7d57fe5b90600052602060002090600e0201600d01541115610ea057600092505050610ed6565b610ed160068381548110610eb057fe5b90600052602060002090600e0201600d015482612e8190919063ffffffff16565b925050505b919050565b6000808080808080610ef488600163ffffffff612e8116565b905060068181548110610f0357fe5b90600052602060002090600e02016001015460068281548110610f2257fe5b90600052602060002090600e02016002015460068381548110610f4157fe5b90600052602060002090600e02016003015460068481548110610f6057fe5b90600052602060002090600e0201600c015460068581548110610f7f57fe5b90600052602060002090600e0201600d015460068681548110610f9e57fe5b60009182526020909120600e9091020160040154949d939c50919a50985096506001600160a01b03909116945092505050565b600080610fe584600163ffffffff612e8116565b905060068181548110610ff457fe5b90600052602060002090600e02016003015460011415611018576001915050611124565b6006818154811061102557fe5b90600052602060002090600e0201600301546002141561105c576004548310611052576001915050611124565b6000915050611124565b6006818154811061106957fe5b90600052602060002090600e020160030154600314156110bb5760008481526005602090815260408083206001600160a01b038916845290915290206001015460ff1615611052576001915050611124565b600681815481106110c857fe5b90600052602060002090600e020160030154600414156110525760008481526005602090815260408083206001600160a01b038916845290915290206001015460ff16801561111957506004548310155b156110525760019150505b9392505050565b611133611603565b611172576040805162461bcd60e51b81526020600482018190526024820152600080516020613478833981519152604482015290519081900360640190fd5b60065460009061118990600163ffffffff612ec316565b90506006604051806101c001604052808381526020018f81526020018e81526020018d81526020018c6001600160a01b031681526020018b81526020018a8152602001898152602001888152602001878152602001848152602001868152602001858152602001600081525090806001815401808255809150506001900390600052602060002090600e02016000909190919091506000820151816000015560208201518160010155604082015181600201556060820151816003015560808201518160040160006101000a8154816001600160a01b0302191690836001600160a01b0316021790555060a0820151816005015560c0820151816006015560e082015181600701556101008201518160080155610120820151816009015561014082015181600a015561016082015181600b015561018082015181600c01556101a082015181600d0155505050505050505050505050505050565b6112ec611603565b61132b576040805162461bcd60e51b81526020600482018190526024820152600080516020613478833981519152604482015290519081900360640190fd5b600061133e8d600163ffffffff612e8116565b90508b1561136a578b6006828154811061135457fe5b90600052602060002090600e0201600101819055505b8a15611394578a6006828154811061137e57fe5b90600052602060002090600e0201600201819055505b89156113be5789600682815481106113a857fe5b90600052602060002090600e0201600501819055505b88156113e85788600682815481106113d257fe5b90600052602060002090600e0201600601819055505b87156114125787600682815481106113fc57fe5b90600052602060002090600e0201600701819055505b861561143c57866006828154811061142657fe5b90600052602060002090600e0201600801819055505b851561146657856006828154811061145057fe5b90600052602060002090600e0201600901819055505b841561149057846006828154811061147a57fe5b90600052602060002090600e0201600b01819055505b83156114ba5783600682815481106114a457fe5b90600052602060002090600e0201600c01819055505b81156114e45781600682815481106114ce57fe5b90600052602060002090600e0201600301819055505b82600682815481106114f257fe5b90600052602060002090600e020160040160006101000a8154816001600160a01b0302191690836001600160a01b0316021790555050505050505050505050505050565b61153e611603565b61157d576040805162461bcd60e51b81526020600482018190526024820152600080516020613478833981519152604482015290519081900360640190fd5b600080546040516001600160a01b03909116907f8be0079c531659141344cd1fd0a4f28419497f9722a3daafe3b4186f6b6457e0908390a3600080546001600160a01b0319169055565b60008281526005602090815260408083206001600160a01b03851684529091529020600801545b92915050565b6000546001600160a01b031690565b600080546001600160a01b0316611618612f1d565b6001600160a01b031614905090565b600760205280600052604060002060009150905080600001549080600101549080600201549080600301549080600401549080600501549080600601549080600701549080600801549080600901549080600a01549080600b01549080600c01549080600d015490508e565b600090815260056020908152604080832033845290915290206002015490565b6002600154141561170b576040805162461bcd60e51b815260206004820152601f60248201527f5265656e7472616e637947756172643a207265656e7472616e742063616c6c00604482015290519081900360640190fd5b60026001556000818152600560209081526040808320338452909152902060060154606411611781576040805162461bcd60e51b815260206004820152601760248201527f796f75206861766520636c61696d656420656e6f756768000000000000000000604482015290519081900360640190fd5b600061178c82611693565b9050600081116117d3576040805162461bcd60e51b815260206004820152600d60248201526c696e76616c696420636c61696d60981b604482015290519081900360640190fd5b60006117e683600163ffffffff612e8116565b600084815260056020908152604080832033845290915290206007015490915061192c5760008181526007602052604090205442101561185c576040805162461bcd60e51b815260206004820152600c60248201526b696e76616c69642074696d6560a01b604482015290519081900360640190fd5b6000818152600760205260409020600101546118cf9033906118989060649061188c90879063ffffffff612f2116565b9063ffffffff612f7a16565b600684815481106118a557fe5b600091825260209091206004600e9092020101546001600160a01b0316919063ffffffff612fbc16565b600081815260076020908152604080832060010154868452600583528184203385529092529091206006015461190a9163ffffffff612ec316565b6000848152600560209081526040808320338452909152902060060155611ea9565b600083815260056020908152604080832033845290915290206007015460011415611a11576000818152600760205260409020600201544210156119a6576040805162461bcd60e51b815260206004820152600c60248201526b696e76616c69642074696d6560a01b604482015290519081900360640190fd5b6000818152600760205260409020600301546119d69033906118989060649061188c90879063ffffffff612f2116565b600081815260076020908152604080832060030154868452600583528184203385529092529091206006015461190a9163ffffffff612ec316565b600083815260056020908152604080832033845290915290206007015460021415611af757600081815260076020526040902060040154421015611a8b576040805162461bcd60e51b815260206004820152600c60248201526b696e76616c69642074696d6560a01b604482015290519081900360640190fd5b600081815260076020526040902060050154611abb9033906118989060649061188c90879063ffffffff612f2116565b60008181526007602090815260408083206005908101548785529083528184203385529092529091206006015461190a9163ffffffff612ec316565b600083815260056020908152604080832033845290915290206007015460031415611bdd57600081815260076020526040902060060154421015611b71576040805162461bcd60e51b815260206004820152600c60248201526b696e76616c69642074696d6560a01b604482015290519081900360640190fd5b611ba333611898606461188c600760008781526020019081526020016000206007015487612f2190919063ffffffff16565b6000818152600760208181526040808420909201548684526005825282842033855290915291206006015461190a9163ffffffff612ec316565b600083815260056020908152604080832033845290915290206007015460041415611cc257600081815260076020526040902060080154421015611c57576040805162461bcd60e51b815260206004820152600c60248201526b696e76616c69642074696d6560a01b604482015290519081900360640190fd5b600081815260076020526040902060090154611c879033906118989060649061188c90879063ffffffff612f2116565b600081815260076020908152604080832060090154868452600583528184203385529092529091206006015461190a9163ffffffff612ec316565b6000838152600560208181526040808420338552909152909120600701541415611da6576000818152600760205260409020600a0154421015611d3b576040805162461bcd60e51b815260206004820152600c60248201526b696e76616c69642074696d6560a01b604482015290519081900360640190fd5b6000818152600760205260409020600b0154611d6b9033906118989060649061188c90879063ffffffff612f2116565b6000818152600760209081526040808320600b0154868452600583528184203385529092529091206006015461190a9163ffffffff612ec316565b600083815260056020908152604080832033845290915290206007015460061415611ea9576000818152600760205260409020600c0154421015611e20576040805162461bcd60e51b815260206004820152600c60248201526b696e76616c69642074696d6560a01b604482015290519081900360640190fd5b6000818152600760205260409020600d0154611e509033906118989060649061188c90879063ffffffff612f2116565b6000818152600760209081526040808320600d01548684526005835281842033855290925290912060060154611e8b9163ffffffff612ec316565b60008481526005602090815260408083203384529091529020600601555b6000838152600560208181526040808420338552909152909120429181019190915560070154611eda906001612ec3565b600093845260056020908152604080862033875290915290932060070192909255505060018055565b600080611f1783600163ffffffff612e8116565b905060068181548110611f2657fe5b90600052602060002090600e0201600b0154915050919050565b60056020818152600093845260408085209091529183529120805460018201546002830154600384015460048501549585015460068601546007870154600890970154959760ff909516969395929493919290919089565b611fa0611603565b611fdf576040805162461bcd60e51b81526020600482018190526024820152600080516020613478833981519152604482015290519081900360640190fd5b8d15611ff75760008181526007602052604090208e90555b8e156120125760008181526007602052604090206001018f90555b8b1561202d5760008181526007602052604090206002018c90555b8c156120485760008181526007602052604090206003018d90555b89156120635760008181526007602052604090206004018a90555b8a1561207e5760008181526007602052604090206005018b90555b87156120995760008181526007602052604090206006018890555b88156120b5576000818152600760208190526040909120018990555b85156120d05760008181526007602052604090206008018690555b86156120eb5760008181526007602052604090206009018790555b8315612106576000818152600760205260409020600a018490555b8415612121576000818152600760205260409020600b018590555b811561213c576000818152600760205260409020600c018290555b8215612157576000818152600760205260409020600d018390555b505050505050505050505050505050565b600090815260056020908152604080832033845290915290206001810154600282015460039092015460ff90911692565b6000806121ad83600163ffffffff612e8116565b9050600681815481106121bc57fe5b90600052602060002090600e0201600d0154915050919050565b6121de611603565b61221d576040805162461bcd60e51b81526020600482018190526024820152600080516020613478833981519152604482015290519081900360640190fd5b806001600160a01b031663a9059cbb6122346115f4565b604080516370a0823160e01b815230600482015290516001600160a01b038616916370a08231916024808301926020929190829003018186803b15801561227a57600080fd5b505afa15801561228e573d6000803e3d6000fd5b505050506040513d60208110156122a457600080fd5b5051604080516001600160e01b031960e086901b1681526001600160a01b03909316600484015260248301919091525160448083019260209291908290030181600087803b1580156122f557600080fd5b505af1158015612309573d6000803e3d6000fd5b505050506040513d602081101561231f57600080fd5b505050565b6002600154141561237c576040805162461bcd60e51b815260206004820152601f60248201527f5265656e7472616e637947756172643a207265656e7472616e742063616c6c00604482015290519081900360640190fd5b6002600190815560009061239790869063ffffffff612e8116565b9050600681815481106123a657fe5b90600052602060002090600e020160030154600214806123e45750600681815481106123ce57fe5b90600052602060002090600e0201600301546004145b156124fc57604080513360601b60208083019190915260348083018a9052835180840390910181526054909201909252805191012060006124248261300e565b905060018187878760405160008152602001604052604051808581526020018460ff1660ff1681526020018381526020018281526020019450505050506020604051602081039080840390855afa158015612483573d6000803e3d6000fd5b505050602060405103516001600160a01b031661249e6115f4565b6001600160a01b0316146124f9576040805162461bcd60e51b815260206004820152601f60248201527f6f776e65722073686f756c64207369676e20707572636861736520696e666f00604482015290519081900360640190fd5b50505b6006818154811061250957fe5b90600052602060002090600e020160010154421015801561254857506006818154811061253257fe5b90600052602060002090600e0201600201544211155b612588576040805162461bcd60e51b815260206004820152600c60248201526b696e76616c69642074696d6560a01b604482015290519081900360640190fd5b612593338688610fd1565b6125d3576040805162461bcd60e51b815260206004820152600c60248201526b34b73b30b634b2103ab9b2b960a11b604482015290519081900360640190fd5b60008581526005602090815260408083203384529091529020600301543490612602908263ffffffff612ec316565b6000878152600560209081526040808320338452909152902060030155600680548390811061262d57fe5b90600052602060002090600e020160030154600214156127f157685150ae84a8cdf000008710156126d4576006828154811061266557fe5b600091825260208083206005600e9093020182015489845291815260408084203385529091529091206003015411156126cf5760405162461bcd60e51b81526004018080602001828103825260228152602001806134566022913960400191505060405180910390fd5b6127ec565b685150ae84a8cdf0000087101580156126f5575068a2a15d09519be0000087105b15612773576006828154811061270757fe5b600091825260208083206006600e90930201919091015488835260058252604080842033855290925291206003015411156126cf5760405162461bcd60e51b81526004018080602001828103825260228152602001806134136022913960400191505060405180910390fd5b6006828154811061278057fe5b600091825260208083206007600e90930201919091015488835260058252604080842033855290925291206003015411156127ec5760405162461bcd60e51b81526004018080602001828103825260228152602001806134986022913960400191505060405180910390fd5b6129be565b600682815481106127fe57fe5b90600052602060002090600e020160030154600114156128a7576006828154811061282557fe5b600091825260208083206006600e90930201919091015488835260058252604080842033855290925291206003015411156127ec576040805162461bcd60e51b815260206004820152601a60248201527f696e76616c6964206d6178696d756d20636f6e74726962757465000000000000604482015290519081900360640190fd5b600682815481106128b457fe5b90600052602060002090600e0201600301546003141561295257600682815481106128db57fe5b600091825260208083206008600e90930201919091015488835260058252604080842033855290925291206003015411156127ec576040805162461bcd60e51b8152602060048201526012602482015271696e76616c696420636f6e7472696275746560701b604482015290519081900360640190fd5b60008681526005602090815260408083203384529091529020600881015460039091015411156129be576040805162461bcd60e51b8152602060048201526012602482015271696e76616c696420636f6e7472696275746560701b604482015290519081900360640190fd5b60006129fd670de0b6b3a764000061188c600686815481106129dc57fe5b90600052602060002090600e0201600c015485612f2190919063ffffffff16565b90506000612a0a88610e4c565b905060068481548110612a1957fe5b90600052602060002090600e0201600a01548111612a6d576040805162461bcd60e51b815260206004820152600c60248201526b125113c81cdbdb19081bdd5d60a21b604482015290519081900360640190fd5b81811015612ab1576040805162461bcd60e51b815260206004820152600c60248201526b125113c81cdbdb19081bdd5d60a21b604482015290519081900360640190fd5b6000888152600560209081526040808320338452909152902060020154612ade908363ffffffff612ec316565b600089815260056020908152604080832033845290915290206002015560068054612b2f91849187908110612b0f57fe5b90600052602060002090600e0201600d0154612ec390919063ffffffff16565b60068581548110612b3c57fe5b60009182526020909120600d600e90920201015550506001805550505050505050565b6000808080808080612b7888600163ffffffff612e8116565b600090815260076020526040902080546001820154600283015460038401546004850154600590950154939d929c50909a509850919650945092505050565b612bbf611603565b612bfe576040805162461bcd60e51b81526020600482018190526024820152600080516020613478833981519152604482015290519081900360640190fd5b6000612c1182600163ffffffff612e8116565b9050600060068281548110612c2257fe5b90600052602060002090600e02016008015490506000612c54670de0b6b3a764000061188c600686815481106129dc57fe5b905060005b8551811015612cb05760008581526005602052604081208751849290899085908110612c8157fe5b6020908102919091018101516001600160a01b0316825281019190915260400160002060020155600101612c59565b505050505050565b612cc0611603565b612cff576040805162461bcd60e51b81526020600482018190526024820152600080516020613478833981519152604482015290519081900360640190fd5b60005b8351811015612e285760008281526005602052604081208551849290879085908110612d2a57fe5b60200260200101516001600160a01b03166001600160a01b0316815260200190815260200160002060000181905550828181518110612d6557fe5b6020026020010151670de0b6b3a764000002600560008481526020019081526020016000206000868481518110612d9857fe5b60200260200101516001600160a01b03166001600160a01b03168152602001908152602001600020600801819055506001600560008481526020019081526020016000206000868481518110612dea57fe5b6020908102919091018101516001600160a01b031682528101919091526040016000206001908101805460ff19169215159290921790915501612d02565b50505050565b612e36611603565b612e75576040805162461bcd60e51b81526020600482018190526024820152600080516020613478833981519152604482015290519081900360640190fd5b612e7e8161305f565b50565b600061112483836040518060400160405280601e81526020017f536166654d6174683a207375627472616374696f6e206f766572666c6f7700008152506130ff565b600082820183811015611124576040805162461bcd60e51b815260206004820152601b60248201527f536166654d6174683a206164646974696f6e206f766572666c6f770000000000604482015290519081900360640190fd5b3390565b600082612f30575060006115ee565b82820282848281612f3d57fe5b04146111245760405162461bcd60e51b81526004018080602001828103825260218152602001806134356021913960400191505060405180910390fd5b600061112483836040518060400160405280601a81526020017f536166654d6174683a206469766973696f6e206279207a65726f000000000000815250613196565b604080516001600160a01b038416602482015260448082018490528251808303909101815260649091019091526020810180516001600160e01b031663a9059cbb60e01b17905261231f9084906131fb565b604080517f19457468657265756d205369676e6564204d6573736167653a0a333200000000602080830191909152603c8083019490945282518083039094018452605c909101909152815191012090565b6001600160a01b0381166130a45760405162461bcd60e51b81526004018080602001828103825260268152602001806133ed6026913960400191505060405180910390fd5b600080546040516001600160a01b03808516939216917f8be0079c531659141344cd1fd0a4f28419497f9722a3daafe3b4186f6b6457e091a3600080546001600160a01b0319166001600160a01b0392909216919091179055565b6000818484111561318e5760405162461bcd60e51b81526004018080602001828103825283818151815260200191508051906020019080838360005b8381101561315357818101518382015260200161313b565b50505050905090810190601f1680156131805780820380516001836020036101000a031916815260200191505b509250505060405180910390fd5b505050900390565b600081836131e55760405162461bcd60e51b815260206004820181815283516024840152835190928392604490910191908501908083836000831561315357818101518382015260200161313b565b5060008385816131f157fe5b0495945050505050565b61320d826001600160a01b03166133b3565b61325e576040805162461bcd60e51b815260206004820152601f60248201527f5361666545524332303a2063616c6c20746f206e6f6e2d636f6e747261637400604482015290519081900360640190fd5b60006060836001600160a01b0316836040518082805190602001908083835b6020831061329c5780518252601f19909201916020918201910161327d565b6001836020036101000a0380198251168184511680821785525050505050509050019150506000604051808303816000865af19150503d80600081146132fe576040519150601f19603f3d011682016040523d82523d6000602084013e613303565b606091505b50915091508161335a576040805162461bcd60e51b815260206004820181905260248201527f5361666545524332303a206c6f772d6c6576656c2063616c6c206661696c6564604482015290519081900360640190fd5b805115612e285780806020019051602081101561337657600080fd5b5051612e285760405162461bcd60e51b815260040180806020018281038252602a8152602001806134ba602a913960400191505060405180910390fd5b6000813f7fc5d2460186f7233c927e7db2dcc703c0e500b653ca82273b7bfad8045d85a470818114801590610ed157505015159291505056fe4f776e61626c653a206e6577206f776e657220697320746865207a65726f2061646472657373696e76616c6964206d6178696d756d20707572636861736520666f72207469657232536166654d6174683a206d756c7469706c69636174696f6e206f766572666c6f77696e76616c6964206d6178696d756d20707572636861736520666f722074696572314f776e61626c653a2063616c6c6572206973206e6f7420746865206f776e6572696e76616c6964206d6178696d756d20707572636861736520666f722074696572335361666545524332303a204552433230206f7065726174696f6e20646964206e6f742073756363656564a2646970667358221220a0d380db2f3b9aa55e3e11533d9da1f75350888d7265431809a824735ae801ba64736f6c63430006020033",
  "source": "pragma solidity >=0.6.0;\r\n\r\nimport \"@openzeppelin/contracts/token/ERC20/SafeERC20.sol\";\r\nimport \"@openzeppelin/contracts/math/SafeMath.sol\";\r\nimport \"@openzeppelin/contracts/ownership/Ownable.sol\";\r\nimport \"./ReentrancyGuard.sol\";\r\n\r\nlibrary ECDSA {\r\n    /**\r\n     * @dev Recover signer address from a message by using their signature\r\n     * @param hash bytes32 message, the hash is the signed message. What is recovered is the signer address.\r\n     * @param signature bytes signature, the signature is generated using web3.eth.sign()\r\n     */\r\n    function recover(bytes32 hash, bytes memory signature)\r\n        internal\r\n        pure\r\n        returns (address)\r\n    {\r\n        bytes32 r;\r\n        bytes32 s;\r\n        uint8 v;\r\n\r\n        // Check the signature length\r\n        if (signature.length != 65) {\r\n            return (address(0));\r\n        }\r\n\r\n        // Divide the signature in r, s and v variables with inline assembly.\r\n        assembly {\r\n            r := mload(add(signature, 0x20))\r\n            s := mload(add(signature, 0x40))\r\n            v := byte(0, mload(add(signature, 0x60)))\r\n        }\r\n\r\n        // Version of signature should be 27 or 28, but 0 and 1 are also possible versions\r\n        if (v < 27) {\r\n            v += 27;\r\n        }\r\n\r\n        // If the version is correct return the signer address\r\n        if (v != 27 && v != 28) {\r\n            return (address(0));\r\n        } else {\r\n            // solium-disable-next-line arg-overflow\r\n            return ecrecover(hash, v, r, s);\r\n        }\r\n    }\r\n\r\n    /**\r\n     * toEthSignedMessageHash\r\n     * @dev prefix a bytes32 value with \"\\x19Ethereum Signed Message:\"\r\n     * and hash the result\r\n     */\r\n    function toEthSignedMessageHash(bytes32 hash)\r\n        internal\r\n        pure\r\n        returns (bytes32)\r\n    {\r\n        return\r\n            keccak256(\r\n                abi.encodePacked(\"\\x19Ethereum Signed Message:\\n32\", hash)\r\n            );\r\n    }\r\n}\r\n\r\ncontract PolkabridgeLaunchPadV2 is Ownable, ReentrancyGuard {\r\n    string public name = \"PolkaBridge: LaunchPad V2\";\r\n    using SafeMath for uint256;\r\n    using SafeERC20 for IERC20;\r\n    using ECDSA for bytes32;\r\n\r\n    address payable private ReceiveToken;\r\n    uint256 MinimumStakeAmount;\r\n    struct IDOPool {\r\n        uint256 Id;\r\n        uint256 Begin;\r\n        uint256 End;\r\n        uint256 Type; //1: comminity round, 2 stackers round, 3 whitelist, 4 guaranteed\r\n        IERC20 IDOToken;\r\n        uint256 MaxPurchaseTier1;\r\n        uint256 MaxPurchaseTier2; //==comminity tier\r\n        uint256 MaxPurchaseTier3;\r\n        uint256 MaxSpecialPurchase;\r\n        uint256 TotalCap;\r\n        uint256 MinimumTokenSoldout;\r\n        uint256 TotalToken; //total sale token for this pool\r\n        uint256 RatePerETH;\r\n        uint256 TotalSold; //total number of token sold\r\n        \r\n    }\r\n\r\n    struct ClaimInfo {\r\n        uint256 ClaimTime1;\r\n        uint256 PercentClaim1;\r\n        uint256 ClaimTime2;\r\n        uint256 PercentClaim2;\r\n        uint256 ClaimTime3;\r\n        uint256 PercentClaim3;\r\n        uint256 ClaimTime4;\r\n        uint256 PercentClaim4;\r\n        uint256 ClaimTime5;\r\n        uint256 PercentClaim5;\r\n         uint256 ClaimTime6;\r\n        uint256 PercentClaim6;\r\n         uint256 ClaimTime7;\r\n        uint256 PercentClaim7;\r\n    }\r\n\r\n    struct User {\r\n        uint256 Id;\r\n        \r\n        bool IsWhitelist;\r\n        uint256 TotalTokenPurchase;\r\n        uint256 TotalETHPurchase;\r\n        uint256 PurchaseTime;\r\n        uint256 LastClaimed;\r\n        uint256 TotalPercentClaimed;\r\n        uint256 NumberClaimed;\r\n        \r\n        uint256 PurchaseAllocation;\r\n    }\r\n\r\n    mapping(uint256 => mapping(address => User)) public users; //poolid - listuser\r\n\r\n    IDOPool[] pools;\r\n\r\n    mapping(uint256 => ClaimInfo) public claimInfos; //pid\r\n\r\n    constructor(address payable receiveTokenAdd) public {\r\n        ReceiveToken = receiveTokenAdd;\r\n        MinimumStakeAmount=10000*1e18;\r\n    }\r\n\r\n    function addMulWhitelist(address[] memory user,uint256[] memory allocation, uint256 pid)///need pid in constantfile\r\n        public\r\n        onlyOwner\r\n    {\r\n        for (uint256 i = 0; i < user.length; i++) {\r\n            users[pid][user[i]].Id = pid;\r\n             users[pid][user[i]].PurchaseAllocation = allocation[i]*1e18;\r\n            users[pid][user[i]].IsWhitelist = true;\r\n           \r\n        }\r\n    }\r\n\r\n    function sign(address[] memory user, uint256 pid)///need pid in constantfile\r\n        public\r\n        onlyOwner\r\n    {\r\n        uint256 poolIndex = pid.sub(1);\r\n        uint256 maxSpeical= pools[poolIndex].MaxSpecialPurchase;\r\n        uint256 tokenAmount = maxSpeical.mul(pools[poolIndex].RatePerETH).div(1e18);\r\n\r\n        for (uint256 i = 0; i < user.length; i++) {\r\n          \r\n            users[pid][user[i]].TotalTokenPurchase = tokenAmount;\r\n            \r\n        }\r\n    }\r\n\r\n    function updateWhitelist(\r\n        address user,\r\n        uint256 pid,\r\n        bool isWhitelist\r\n    ) public onlyOwner {\r\n        users[pid][user].IsWhitelist = isWhitelist;\r\n       \r\n    }\r\n\r\n    function IsWhitelist(\r\n        address user,\r\n        uint256 pid,\r\n        uint256 stackAmount\r\n    ) public view returns (bool) {\r\n        uint256 poolIndex = pid.sub(1);\r\n        if (pools[poolIndex].Type == 1) // community round\r\n        {\r\n            return true;\r\n        } else if (pools[poolIndex].Type == 2) // stakers round\r\n        {\r\n            if (stackAmount >= MinimumStakeAmount) return true;\r\n            return false;\r\n        } else if (pools[poolIndex].Type == 3 ) //special round  \r\n        {\r\n            if (users[pid][user].IsWhitelist) return true;\r\n            return false;\r\n        }\r\n        else if (pools[poolIndex].Type ==4) //guaranteed round  \r\n        {\r\n            if (users[pid][user].IsWhitelist && stackAmount >= MinimumStakeAmount) return true;\r\n            return false;\r\n        } else {\r\n            return false;\r\n        }\r\n    }\r\n\r\n    function addPool(\r\n        uint256 begin,\r\n        uint256 end,\r\n        uint256 _type,\r\n        IERC20 idoToken,\r\n        uint256 maxPurchaseTier1,\r\n        uint256 maxPurchaseTier2,\r\n        uint256 maxPurchaseTier3,\r\n        uint256 maxSpecialPurchase,\r\n        uint256 totalCap,\r\n        uint256 totalToken,\r\n        uint256 ratePerETH,\r\n        uint256 minimumTokenSoldout\r\n       \r\n    ) public onlyOwner {\r\n        uint256 id = pools.length.add(1);\r\n        pools.push(\r\n            IDOPool({\r\n                Id: id,\r\n                Begin: begin,\r\n                End: end,\r\n                Type: _type,\r\n                IDOToken: idoToken,\r\n                MaxPurchaseTier1: maxPurchaseTier1,\r\n                MaxPurchaseTier2: maxPurchaseTier2,\r\n                MaxPurchaseTier3: maxPurchaseTier3,\r\n                MaxSpecialPurchase:maxSpecialPurchase,\r\n                TotalCap: totalCap,\r\n                TotalToken: totalToken,\r\n                RatePerETH: ratePerETH,\r\n                TotalSold: 0,\r\n                MinimumTokenSoldout: minimumTokenSoldout\r\n               \r\n            })\r\n        );\r\n    }\r\n\r\n    function addClaimInfo(\r\n        uint256 percentClaim1,\r\n        uint256 claimTime1,\r\n        uint256 percentClaim2,\r\n        uint256 claimTime2,\r\n        uint256 percentClaim3,\r\n        uint256 claimTime3,\r\n         uint256 percentClaim4,\r\n        uint256 claimTime4,\r\n         uint256 percentClaim5,\r\n        uint256 claimTime5,\r\n         uint256 percentClaim6,\r\n        uint256 claimTime6,\r\n         uint256 percentClaim7,\r\n        uint256 claimTime7,\r\n        uint256 pid\r\n    ) public onlyOwner {\r\n        claimInfos[pid].ClaimTime1 = claimTime1;\r\n        claimInfos[pid].PercentClaim1 = percentClaim1;\r\n        claimInfos[pid].ClaimTime2 = claimTime2;\r\n        claimInfos[pid].PercentClaim2 = percentClaim2;\r\n        claimInfos[pid].ClaimTime3 = claimTime3;\r\n        claimInfos[pid].PercentClaim3 = percentClaim3;\r\n        claimInfos[pid].ClaimTime4 = claimTime4;\r\n        claimInfos[pid].PercentClaim4 = percentClaim4;\r\n        claimInfos[pid].ClaimTime5 = claimTime5;\r\n        claimInfos[pid].PercentClaim5 = percentClaim5;\r\n         claimInfos[pid].ClaimTime6 = claimTime6;\r\n        claimInfos[pid].PercentClaim6 = percentClaim6;\r\n         claimInfos[pid].ClaimTime7 = claimTime7;\r\n        claimInfos[pid].PercentClaim7 = percentClaim7;\r\n    }\r\n\r\n    function updateClaimInfo(\r\n        uint256 percentClaim1,\r\n        uint256 claimTime1,\r\n        uint256 percentClaim2,\r\n        uint256 claimTime2,\r\n        uint256 percentClaim3,\r\n        uint256 claimTime3,\r\n          uint256 percentClaim4,\r\n        uint256 claimTime4,\r\n          uint256 percentClaim5,\r\n        uint256 claimTime5,\r\n         uint256 percentClaim6,\r\n        uint256 claimTime6,\r\n         uint256 percentClaim7,\r\n        uint256 claimTime7,\r\n        uint256 pid\r\n    ) public onlyOwner {\r\n        if (claimTime1 > 0) {\r\n            claimInfos[pid].ClaimTime1 = claimTime1;\r\n        }\r\n\r\n        if (percentClaim1 > 0) {\r\n            claimInfos[pid].PercentClaim1 = percentClaim1;\r\n        }\r\n        if (claimTime2 > 0) {\r\n            claimInfos[pid].ClaimTime2 = claimTime2;\r\n        }\r\n\r\n        if (percentClaim2 > 0) {\r\n            claimInfos[pid].PercentClaim2 = percentClaim2;\r\n        }\r\n\r\n        if (claimTime3 > 0) {\r\n            claimInfos[pid].ClaimTime3 = claimTime3;\r\n        }\r\n\r\n        if (percentClaim3 > 0) {\r\n            claimInfos[pid].PercentClaim3 = percentClaim3;\r\n        }\r\n\r\n          if (claimTime4 > 0) {\r\n            claimInfos[pid].ClaimTime4 = claimTime4;\r\n        }\r\n\r\n        if (percentClaim4 > 0) {\r\n            claimInfos[pid].PercentClaim4 = percentClaim4;\r\n        }\r\n\r\n           if (claimTime5 > 0) {\r\n            claimInfos[pid].ClaimTime5 = claimTime5;\r\n        }\r\n\r\n        if (percentClaim5 > 0) {\r\n            claimInfos[pid].PercentClaim5 = percentClaim5;\r\n        }\r\n\r\n           if (claimTime6 > 0) {\r\n            claimInfos[pid].ClaimTime6 = claimTime6;\r\n        }\r\n\r\n        if (percentClaim6 > 0) {\r\n            claimInfos[pid].PercentClaim6 = percentClaim6;\r\n        }\r\n\r\n           if (claimTime7 > 0) {\r\n            claimInfos[pid].ClaimTime7 = claimTime7;\r\n        }\r\n\r\n        if (percentClaim7 > 0) {\r\n            claimInfos[pid].PercentClaim7 = percentClaim7;\r\n        }\r\n    }\r\n\r\n    function updatePool(\r\n        uint256 pid,\r\n        uint256 begin,\r\n        uint256 end,\r\n        uint256 maxPurchaseTier1,\r\n        uint256 maxPurchaseTier2,\r\n        uint256 maxPurchaseTier3,\r\n         uint256 maxSpecialPurchase,\r\n        uint256 totalCap,\r\n        uint256 totalToken,\r\n        uint256 ratePerETH,\r\n        IERC20 idoToken,\r\n       \r\n        uint256 pooltype\r\n      \r\n    ) public onlyOwner {\r\n        uint256 poolIndex = pid.sub(1);\r\n        if (begin > 0) {\r\n            pools[poolIndex].Begin = begin;\r\n        }\r\n        if (end > 0) {\r\n            pools[poolIndex].End = end;\r\n        }\r\n\r\n        if (maxPurchaseTier1 > 0) {\r\n            pools[poolIndex].MaxPurchaseTier1 = maxPurchaseTier1;\r\n        }\r\n        if (maxPurchaseTier2 > 0) {\r\n            pools[poolIndex].MaxPurchaseTier2 = maxPurchaseTier2;\r\n        }\r\n        if (maxPurchaseTier3 > 0) {\r\n            pools[poolIndex].MaxPurchaseTier3 = maxPurchaseTier3;\r\n        }\r\n          if (maxSpecialPurchase > 0) {\r\n            pools[poolIndex].MaxSpecialPurchase = maxSpecialPurchase;\r\n        }\r\n        if (totalCap > 0) {\r\n            pools[poolIndex].TotalCap = totalCap;\r\n        }\r\n        if (totalToken > 0) {\r\n            pools[poolIndex].TotalToken = totalToken;\r\n        }\r\n        if (ratePerETH > 0) {\r\n            pools[poolIndex].RatePerETH = ratePerETH;\r\n        }\r\n\r\n       \r\n      \r\n        if (pooltype > 0) {\r\n            pools[poolIndex].Type = pooltype;\r\n        }\r\n        pools[poolIndex].IDOToken = idoToken;\r\n    }\r\n\r\n    function withdrawErc20(IERC20 token) public onlyOwner {\r\n        token.transfer(owner(), token.balanceOf(address(this)));\r\n    }\r\n\r\n    //withdraw ETH after IDO\r\n    function withdrawPoolFund() public onlyOwner {\r\n        uint256 balance = address(this).balance;\r\n        require(balance > 0, \"not enough fund\");\r\n        ReceiveToken.transfer(balance);\r\n    }\r\n\r\n    function purchaseIDO(\r\n        uint256 stakeAmount,\r\n        uint256 pid,\r\n        uint8 v,\r\n        bytes32 r,\r\n        bytes32 s\r\n    ) public payable nonReentrant {\r\n        uint256 poolIndex = pid.sub(1);\r\n\r\n        if (pools[poolIndex].Type == 2 || pools[poolIndex].Type == 4) {\r\n            bytes32 _hash = keccak256(abi.encodePacked(msg.sender, stakeAmount));\r\n            bytes32 messageHash = _hash.toEthSignedMessageHash();\r\n\r\n            require(\r\n                owner() == ecrecover(messageHash, v, r, s),\r\n                \"owner should sign purchase info\"\r\n            );\r\n        }\r\n\r\n        require(\r\n            block.timestamp >= pools[poolIndex].Begin &&\r\n                block.timestamp <= pools[poolIndex].End,\r\n            \"invalid time\"\r\n        );\r\n        //check user\r\n        require(IsWhitelist(msg.sender, pid, stakeAmount), \"invalid user\");\r\n\r\n        //check amount\r\n        uint256 ethAmount = msg.value;\r\n        users[pid][msg.sender].TotalETHPurchase = users[pid][msg.sender]\r\n            .TotalETHPurchase\r\n            .add(ethAmount);\r\n\r\n        if (pools[poolIndex].Type == 2) {\r\n            //stackers round\r\n            if (stakeAmount < 1500 * 1e18) {\r\n                require(\r\n                    users[pid][msg.sender].TotalETHPurchase <=\r\n                        pools[poolIndex].MaxPurchaseTier1,\r\n                    \"invalid maximum purchase for tier1\"\r\n                );\r\n            } else if (\r\n                stakeAmount >= 1500 * 1e18 && stakeAmount < 3000 * 1e18\r\n            ) {\r\n                require(\r\n                    users[pid][msg.sender].TotalETHPurchase <=\r\n                        pools[poolIndex].MaxPurchaseTier2,\r\n                    \"invalid maximum purchase for tier2\"\r\n                );\r\n            } else {\r\n                require(\r\n                    users[pid][msg.sender].TotalETHPurchase <=\r\n                        pools[poolIndex].MaxPurchaseTier3,\r\n                    \"invalid maximum purchase for tier3\"\r\n                );\r\n            }\r\n        } else if (pools[poolIndex].Type == 1) {\r\n            //community round\r\n\r\n            require(\r\n                users[pid][msg.sender].TotalETHPurchase <=\r\n                    pools[poolIndex].MaxPurchaseTier2,\r\n                \"invalid maximum contribute\"\r\n            );\r\n        } else  if (pools[poolIndex].Type == 3){//special\r\n            \r\n            require(\r\n                users[pid][msg.sender].TotalETHPurchase <=\r\n                    pools[poolIndex].MaxSpecialPurchase,\r\n                \"invalid contribute\"\r\n            );\r\n        }else{//4 guaranteed\r\n            \r\n            require(\r\n                users[pid][msg.sender].TotalETHPurchase <=\r\n                     users[pid][msg.sender].PurchaseAllocation,\r\n                \"invalid contribute\"\r\n            );\r\n        }\r\n\r\n        uint256 tokenAmount = ethAmount.mul(pools[poolIndex].RatePerETH).div(\r\n            1e18\r\n        );\r\n\r\n        uint256 remainToken = getRemainIDOToken(pid);\r\n        require(\r\n            remainToken > pools[poolIndex].MinimumTokenSoldout,\r\n            \"IDO sold out\"\r\n        );\r\n        require(remainToken >= tokenAmount, \"IDO sold out\");\r\n\r\n        users[pid][msg.sender].TotalTokenPurchase = users[pid][msg.sender]\r\n            .TotalTokenPurchase\r\n            .add(tokenAmount);\r\n\r\n        pools[poolIndex].TotalSold = pools[poolIndex].TotalSold.add(\r\n            tokenAmount\r\n        );\r\n    }\r\n\r\n    function claimToken(uint256 pid) public nonReentrant {\r\n        require(\r\n            users[pid][msg.sender].TotalPercentClaimed < 100,\r\n            \"you have claimed enough\"\r\n        );\r\n        uint256 userBalance = getUserTotalPurchase(pid);\r\n        require(userBalance > 0, \"invalid claim\");\r\n\r\n        uint256 poolIndex = pid.sub(1);\r\n        if (users[pid][msg.sender].NumberClaimed == 0) {\r\n            require(\r\n                block.timestamp >= claimInfos[poolIndex].ClaimTime1,\r\n                \"invalid time\"\r\n            );\r\n            pools[poolIndex].IDOToken.safeTransfer(\r\n                msg.sender,\r\n                userBalance.mul(claimInfos[poolIndex].PercentClaim1).div(100)\r\n            );\r\n          users[pid][msg.sender].TotalPercentClaimed=  users[pid][msg.sender].TotalPercentClaimed.add(\r\n                claimInfos[poolIndex].PercentClaim1\r\n            );\r\n        } else if (users[pid][msg.sender].NumberClaimed == 1) {\r\n            require(\r\n                block.timestamp >= claimInfos[poolIndex].ClaimTime2,\r\n                \"invalid time\"\r\n            );\r\n            pools[poolIndex].IDOToken.safeTransfer(\r\n                msg.sender,\r\n                userBalance.mul(claimInfos[poolIndex].PercentClaim2).div(100)\r\n            );\r\n            users[pid][msg.sender].TotalPercentClaimed=users[pid][msg.sender].TotalPercentClaimed.add(\r\n                claimInfos[poolIndex].PercentClaim2\r\n            );\r\n        } else if (users[pid][msg.sender].NumberClaimed == 2) {\r\n            require(\r\n                block.timestamp >= claimInfos[poolIndex].ClaimTime3,\r\n                \"invalid time\"\r\n            );\r\n            pools[poolIndex].IDOToken.safeTransfer(\r\n                msg.sender,\r\n                userBalance.mul(claimInfos[poolIndex].PercentClaim3).div(100)\r\n            );\r\n           users[pid][msg.sender].TotalPercentClaimed= users[pid][msg.sender].TotalPercentClaimed.add(\r\n                claimInfos[poolIndex].PercentClaim3\r\n            );\r\n        }\r\n\r\n         else if (users[pid][msg.sender].NumberClaimed == 3) {\r\n            require(\r\n                block.timestamp >= claimInfos[poolIndex].ClaimTime4,\r\n                \"invalid time\"\r\n            );\r\n            pools[poolIndex].IDOToken.safeTransfer(\r\n                msg.sender,\r\n                userBalance.mul(claimInfos[poolIndex].PercentClaim4).div(100)\r\n            );\r\n           users[pid][msg.sender].TotalPercentClaimed= users[pid][msg.sender].TotalPercentClaimed.add(\r\n                claimInfos[poolIndex].PercentClaim4\r\n            );\r\n        }\r\n         else if (users[pid][msg.sender].NumberClaimed == 4) {\r\n            require(\r\n                block.timestamp >= claimInfos[poolIndex].ClaimTime5,\r\n                \"invalid time\"\r\n            );\r\n            pools[poolIndex].IDOToken.safeTransfer(\r\n                msg.sender,\r\n                userBalance.mul(claimInfos[poolIndex].PercentClaim5).div(100)\r\n            );\r\n           users[pid][msg.sender].TotalPercentClaimed= users[pid][msg.sender].TotalPercentClaimed.add(\r\n                claimInfos[poolIndex].PercentClaim5\r\n            );\r\n        }\r\n        else if (users[pid][msg.sender].NumberClaimed == 5) {\r\n            require(\r\n                block.timestamp >= claimInfos[poolIndex].ClaimTime6,\r\n                \"invalid time\"\r\n            );\r\n            pools[poolIndex].IDOToken.safeTransfer(\r\n                msg.sender,\r\n                userBalance.mul(claimInfos[poolIndex].PercentClaim6).div(100)\r\n            );\r\n           users[pid][msg.sender].TotalPercentClaimed= users[pid][msg.sender].TotalPercentClaimed.add(\r\n                claimInfos[poolIndex].PercentClaim6\r\n            );\r\n        }\r\n        else if (users[pid][msg.sender].NumberClaimed == 6) {\r\n            require(\r\n                block.timestamp >= claimInfos[poolIndex].ClaimTime7,\r\n                \"invalid time\"\r\n            );\r\n            pools[poolIndex].IDOToken.safeTransfer(\r\n                msg.sender,\r\n                userBalance.mul(claimInfos[poolIndex].PercentClaim7).div(100)\r\n            );\r\n           users[pid][msg.sender].TotalPercentClaimed= users[pid][msg.sender].TotalPercentClaimed.add(\r\n                claimInfos[poolIndex].PercentClaim7\r\n            );\r\n        }\r\n\r\n        users[pid][msg.sender].LastClaimed = block.timestamp;\r\n        users[pid][msg.sender].NumberClaimed=users[pid][msg.sender].NumberClaimed.add(1);\r\n    }\r\n\r\n    function getUserTotalPurchase(uint256 pid) public view returns (uint256) {\r\n        return users[pid][msg.sender].TotalTokenPurchase;\r\n    }\r\n\r\n    function getRemainIDOToken(uint256 pid) public view returns (uint256) {\r\n        uint256 poolIndex = pid.sub(1);\r\n        uint256 tokenBalance = getBalanceTokenByPoolId(pid);\r\n        if (pools[poolIndex].TotalSold > tokenBalance) {\r\n            return 0;\r\n        }\r\n\r\n        return tokenBalance.sub(pools[poolIndex].TotalSold);\r\n    }\r\n\r\n    function getBalanceTokenByPoolId(uint256 pid)\r\n        public\r\n        view\r\n        returns (uint256)\r\n    {\r\n        uint256 poolIndex = pid.sub(1);\r\n\r\n        return pools[poolIndex].TotalToken;\r\n    }\r\n\r\n    function getPoolInfo(uint256 pid)\r\n        public\r\n        view\r\n        returns (\r\n            uint256,\r\n            uint256,\r\n            uint256,\r\n            uint256,\r\n            uint256,\r\n            IERC20\r\n        )\r\n    {\r\n        uint256 poolIndex = pid.sub(1);\r\n        return (\r\n            pools[poolIndex].Begin,\r\n            pools[poolIndex].End,\r\n            pools[poolIndex].Type,\r\n            pools[poolIndex].RatePerETH,\r\n            pools[poolIndex].TotalSold,\r\n            pools[poolIndex].IDOToken\r\n        );\r\n    }\r\n\r\n    function getClaimInfo(uint256 pid)\r\n        public\r\n        view\r\n        returns (\r\n            uint256,\r\n            uint256,\r\n            uint256,\r\n            uint256,\r\n            uint256,\r\n            uint256\r\n        )\r\n    {\r\n        uint256 poolIndex = pid.sub(1);\r\n        return (\r\n            claimInfos[poolIndex].ClaimTime1,\r\n            claimInfos[poolIndex].PercentClaim1,\r\n            claimInfos[poolIndex].ClaimTime2,\r\n            claimInfos[poolIndex].PercentClaim2,\r\n            claimInfos[poolIndex].ClaimTime3,\r\n            claimInfos[poolIndex].PercentClaim3\r\n        );\r\n    }\r\n\r\n    function getPoolSoldInfo(uint256 pid) public view returns (uint256) {\r\n        uint256 poolIndex = pid.sub(1);\r\n        return (pools[poolIndex].TotalSold);\r\n    }\r\n\r\n    function getWhitelistfo(uint256 pid)\r\n        public\r\n        view\r\n        returns (\r\n          \r\n            bool,\r\n            uint256,\r\n            uint256\r\n        )\r\n    {\r\n        return (\r\n           \r\n            users[pid][msg.sender].IsWhitelist,\r\n            users[pid][msg.sender].TotalTokenPurchase,\r\n            users[pid][msg.sender].TotalETHPurchase\r\n        );\r\n    }\r\n\r\n    function getUserInfo(uint256 pid, address user)\r\n        public\r\n        view\r\n        returns (\r\n            bool,\r\n            uint256,\r\n            uint256,\r\n            uint256\r\n        )\r\n    {\r\n        return (\r\n            users[pid][user].IsWhitelist,\r\n            users[pid][user].TotalTokenPurchase,\r\n            users[pid][user].TotalETHPurchase,\r\n            users[pid][user].TotalPercentClaimed\r\n        );\r\n    }\r\n\r\n    function getUserPurchaseAllocation(uint256 pid, address user)\r\n        public\r\n        view\r\n        returns (\r\n            uint256\r\n        )\r\n    {\r\n        return (\r\n            users[pid][user].PurchaseAllocation\r\n        );\r\n    }\r\n}\r\n",
  "sourcePath": "C:\\Users\\Thanh Phi\\Desktop\\PolkaBridgeSolution\\PolkaBridge-LaunchPad\\contracts\\PolkabridgeLaunchPadV2.sol",
  "compiler": {
    "name": "solc",
    "version": "0.6.2+commit.bacdbe57.Emscripten.clang"
  },
  "schemaVersion": "3.4.3",
  "updatedAt": "2021-12-03T13:03:49.042Z",
  "devdoc": {
    "methods": {
      "isOwner()": {
        "details": "Returns true if the caller is the current owner."
      },
      "owner()": {
        "details": "Returns the address of the current owner."
      },
      "renounceOwnership()": {
        "details": "Leaves the contract without owner. It will not be possible to call `onlyOwner` functions anymore. Can only be called by the current owner.     * NOTE: Renouncing ownership will leave the contract without an owner, thereby removing any functionality that is only available to the owner."
      },
      "transferOwnership(address)": {
        "details": "Transfers ownership of the contract to a new account (`newOwner`). Can only be called by the current owner."
      }
    }
  },
  "userdoc": {
    "methods": {}
  }
}