{
  "contractName": "PolkaBridgeLaunchPad",
  "abi": [
    {
      "inputs": [
        {
          "internalType": "address payable",
          "name": "receiveTokenAdd",
          "type": "address"
        },
        {
          "internalType": "contract IERC20",
          "name": "polkaBridge",
          "type": "address"
        },
        {
          "internalType": "contract PolkaBridgeStaking",
          "name": "_polkaBridgeStaking",
          "type": "address"
        }
      ],
      "stateMutability": "nonpayable",
      "type": "constructor"
    },
    {
      "anonymous": false,
      "inputs": [
        {
          "indexed": true,
          "internalType": "address",
          "name": "previousOwner",
          "type": "address"
        },
        {
          "indexed": true,
          "internalType": "address",
          "name": "newOwner",
          "type": "address"
        }
      ],
      "name": "OwnershipTransferred",
      "type": "event"
    },
    {
      "inputs": [],
      "name": "isOwner",
      "outputs": [
        {
          "internalType": "bool",
          "name": "",
          "type": "bool"
        }
      ],
      "stateMutability": "view",
      "type": "function"
    },
    {
      "inputs": [],
      "name": "name",
      "outputs": [
        {
          "internalType": "string",
          "name": "",
          "type": "string"
        }
      ],
      "stateMutability": "view",
      "type": "function"
    },
    {
      "inputs": [],
      "name": "owner",
      "outputs": [
        {
          "internalType": "address",
          "name": "",
          "type": "address"
        }
      ],
      "stateMutability": "view",
      "type": "function"
    },
    {
      "inputs": [],
      "name": "renounceOwnership",
      "outputs": [],
      "stateMutability": "nonpayable",
      "type": "function"
    },
    {
      "inputs": [
        {
          "internalType": "address",
          "name": "newOwner",
          "type": "address"
        }
      ],
      "name": "transferOwnership",
      "outputs": [],
      "stateMutability": "nonpayable",
      "type": "function"
    },
    {
      "inputs": [
        {
          "internalType": "uint256",
          "name": "",
          "type": "uint256"
        },
        {
          "internalType": "address",
          "name": "",
          "type": "address"
        }
      ],
      "name": "whitelist",
      "outputs": [
        {
          "internalType": "uint256",
          "name": "Id",
          "type": "uint256"
        },
        {
          "internalType": "address",
          "name": "UserAddress",
          "type": "address"
        },
        {
          "internalType": "bool",
          "name": "IsWhitelist",
          "type": "bool"
        },
        {
          "internalType": "uint256",
          "name": "TotalTokenPurchase",
          "type": "uint256"
        },
        {
          "internalType": "uint256",
          "name": "TotalETHPurchase",
          "type": "uint256"
        },
        {
          "internalType": "uint256",
          "name": "PurchaseTime",
          "type": "uint256"
        },
        {
          "internalType": "bool",
          "name": "IsActived",
          "type": "bool"
        },
        {
          "internalType": "bool",
          "name": "IsClaimed",
          "type": "bool"
        }
      ],
      "stateMutability": "view",
      "type": "function"
    },
    {
      "inputs": [
        {
          "internalType": "address",
          "name": "user",
          "type": "address"
        },
        {
          "internalType": "uint256",
          "name": "pid",
          "type": "uint256"
        }
      ],
      "name": "addWhitelist",
      "outputs": [],
      "stateMutability": "nonpayable",
      "type": "function"
    },
    {
      "inputs": [
        {
          "internalType": "address[]",
          "name": "user",
          "type": "address[]"
        },
        {
          "internalType": "uint256",
          "name": "pid",
          "type": "uint256"
        }
      ],
      "name": "addMulWhitelist",
      "outputs": [],
      "stateMutability": "nonpayable",
      "type": "function"
    },
    {
      "inputs": [
        {
          "internalType": "address",
          "name": "user",
          "type": "address"
        },
        {
          "internalType": "uint256",
          "name": "pid",
          "type": "uint256"
        },
        {
          "internalType": "bool",
          "name": "isWhitelist",
          "type": "bool"
        },
        {
          "internalType": "bool",
          "name": "isActived",
          "type": "bool"
        }
      ],
      "name": "updateWhitelist",
      "outputs": [],
      "stateMutability": "nonpayable",
      "type": "function"
    },
    {
      "inputs": [
        {
          "internalType": "address",
          "name": "user",
          "type": "address"
        },
        {
          "internalType": "uint256",
          "name": "pid",
          "type": "uint256"
        }
      ],
      "name": "IsWhitelist",
      "outputs": [
        {
          "internalType": "bool",
          "name": "",
          "type": "bool"
        }
      ],
      "stateMutability": "view",
      "type": "function"
    },
    {
      "inputs": [
        {
          "internalType": "address",
          "name": "user",
          "type": "address"
        },
        {
          "internalType": "uint256",
          "name": "poolId",
          "type": "uint256"
        }
      ],
      "name": "getUserStakingData",
      "outputs": [
        {
          "internalType": "uint256",
          "name": "amount",
          "type": "uint256"
        },
        {
          "internalType": "uint256",
          "name": "rewardDebt",
          "type": "uint256"
        },
        {
          "internalType": "uint256",
          "name": "rewardClaimed",
          "type": "uint256"
        },
        {
          "internalType": "uint256",
          "name": "lastBlock",
          "type": "uint256"
        },
        {
          "internalType": "uint256",
          "name": "beginTime",
          "type": "uint256"
        },
        {
          "internalType": "uint256",
          "name": "endTime",
          "type": "uint256"
        }
      ],
      "stateMutability": "view",
      "type": "function"
    },
    {
      "inputs": [
        {
          "internalType": "uint256",
          "name": "begin",
          "type": "uint256"
        },
        {
          "internalType": "uint256",
          "name": "end",
          "type": "uint256"
        },
        {
          "internalType": "uint256",
          "name": "_type",
          "type": "uint256"
        },
        {
          "internalType": "contract IERC20",
          "name": "idoToken",
          "type": "address"
        },
        {
          "internalType": "uint256",
          "name": "maxPurchaseTier1",
          "type": "uint256"
        },
        {
          "internalType": "uint256",
          "name": "maxPurchaseTier2",
          "type": "uint256"
        },
        {
          "internalType": "uint256",
          "name": "maxPurchaseTier3",
          "type": "uint256"
        },
        {
          "internalType": "uint256",
          "name": "totalCap",
          "type": "uint256"
        },
        {
          "internalType": "uint256",
          "name": "totalToken",
          "type": "uint256"
        },
        {
          "internalType": "uint256",
          "name": "ratePerETH",
          "type": "uint256"
        },
        {
          "internalType": "uint256",
          "name": "lockDuration",
          "type": "uint256"
        },
        {
          "internalType": "uint256",
          "name": "minimumTokenSoldout",
          "type": "uint256"
        }
      ],
      "name": "addPool",
      "outputs": [],
      "stateMutability": "nonpayable",
      "type": "function"
    },
    {
      "inputs": [
        {
          "internalType": "uint256",
          "name": "pid",
          "type": "uint256"
        },
        {
          "internalType": "uint256",
          "name": "begin",
          "type": "uint256"
        },
        {
          "internalType": "uint256",
          "name": "end",
          "type": "uint256"
        },
        {
          "internalType": "uint256",
          "name": "maxPurchaseTier1",
          "type": "uint256"
        },
        {
          "internalType": "uint256",
          "name": "maxPurchaseTier2",
          "type": "uint256"
        },
        {
          "internalType": "uint256",
          "name": "maxPurchaseTier3",
          "type": "uint256"
        },
        {
          "internalType": "uint256",
          "name": "totalCap",
          "type": "uint256"
        },
        {
          "internalType": "uint256",
          "name": "totalToken",
          "type": "uint256"
        },
        {
          "internalType": "uint256",
          "name": "ratePerETH",
          "type": "uint256"
        },
        {
          "internalType": "uint256",
          "name": "lockDuration",
          "type": "uint256"
        },
        {
          "internalType": "contract IERC20",
          "name": "idoToken",
          "type": "address"
        },
        {
          "internalType": "uint256",
          "name": "minimumTokenSoldout",
          "type": "uint256"
        },
        {
          "internalType": "uint256",
          "name": "pooltype",
          "type": "uint256"
        }
      ],
      "name": "updatePool",
      "outputs": [],
      "stateMutability": "nonpayable",
      "type": "function"
    },
    {
      "inputs": [
        {
          "internalType": "uint256",
          "name": "pid",
          "type": "uint256"
        }
      ],
      "name": "stopPool",
      "outputs": [],
      "stateMutability": "nonpayable",
      "type": "function"
    },
    {
      "inputs": [
        {
          "internalType": "uint256",
          "name": "pid",
          "type": "uint256"
        }
      ],
      "name": "activePool",
      "outputs": [],
      "stateMutability": "nonpayable",
      "type": "function"
    },
    {
      "inputs": [
        {
          "internalType": "contract IERC20",
          "name": "token",
          "type": "address"
        }
      ],
      "name": "withdrawErc20",
      "outputs": [],
      "stateMutability": "nonpayable",
      "type": "function"
    },
    {
      "inputs": [],
      "name": "withdrawPoolFund",
      "outputs": [],
      "stateMutability": "nonpayable",
      "type": "function"
    },
    {
      "inputs": [
        {
          "internalType": "uint256",
          "name": "pid",
          "type": "uint256"
        }
      ],
      "name": "purchaseIDO",
      "outputs": [],
      "stateMutability": "payable",
      "type": "function"
    },
    {
      "inputs": [
        {
          "internalType": "uint256",
          "name": "pid",
          "type": "uint256"
        }
      ],
      "name": "claimToken",
      "outputs": [],
      "stateMutability": "nonpayable",
      "type": "function"
    },
    {
      "inputs": [
        {
          "internalType": "uint256",
          "name": "pid",
          "type": "uint256"
        }
      ],
      "name": "getUserTotalPurchase",
      "outputs": [
        {
          "internalType": "uint256",
          "name": "",
          "type": "uint256"
        }
      ],
      "stateMutability": "view",
      "type": "function"
    },
    {
      "inputs": [
        {
          "internalType": "uint256",
          "name": "pid",
          "type": "uint256"
        }
      ],
      "name": "getRemainIDOToken",
      "outputs": [
        {
          "internalType": "uint256",
          "name": "",
          "type": "uint256"
        }
      ],
      "stateMutability": "view",
      "type": "function"
    },
    {
      "inputs": [
        {
          "internalType": "uint256",
          "name": "pid",
          "type": "uint256"
        }
      ],
      "name": "getBalanceTokenByPoolId",
      "outputs": [
        {
          "internalType": "uint256",
          "name": "",
          "type": "uint256"
        }
      ],
      "stateMutability": "view",
      "type": "function"
    },
    {
      "inputs": [
        {
          "internalType": "uint256",
          "name": "pid",
          "type": "uint256"
        }
      ],
      "name": "getPoolInfo",
      "outputs": [
        {
          "internalType": "uint256",
          "name": "",
          "type": "uint256"
        },
        {
          "internalType": "uint256",
          "name": "",
          "type": "uint256"
        },
        {
          "internalType": "uint256",
          "name": "",
          "type": "uint256"
        },
        {
          "internalType": "uint256",
          "name": "",
          "type": "uint256"
        },
        {
          "internalType": "uint256",
          "name": "",
          "type": "uint256"
        },
        {
          "internalType": "uint256",
          "name": "",
          "type": "uint256"
        },
        {
          "internalType": "bool",
          "name": "",
          "type": "bool"
        },
        {
          "internalType": "contract IERC20",
          "name": "",
          "type": "address"
        }
      ],
      "stateMutability": "view",
      "type": "function"
    },
    {
      "inputs": [
        {
          "internalType": "uint256",
          "name": "pid",
          "type": "uint256"
        }
      ],
      "name": "getPoolSoldInfo",
      "outputs": [
        {
          "internalType": "uint256",
          "name": "",
          "type": "uint256"
        },
        {
          "internalType": "uint256",
          "name": "",
          "type": "uint256"
        }
      ],
      "stateMutability": "view",
      "type": "function"
    },
    {
      "inputs": [
        {
          "internalType": "uint256",
          "name": "pid",
          "type": "uint256"
        }
      ],
      "name": "getWhitelistfo",
      "outputs": [
        {
          "internalType": "address",
          "name": "",
          "type": "address"
        },
        {
          "internalType": "bool",
          "name": "",
          "type": "bool"
        },
        {
          "internalType": "uint256",
          "name": "",
          "type": "uint256"
        },
        {
          "internalType": "uint256",
          "name": "",
          "type": "uint256"
        },
        {
          "internalType": "bool",
          "name": "",
          "type": "bool"
        }
      ],
      "stateMutability": "view",
      "type": "function"
    },
    {
      "inputs": [
        {
          "internalType": "uint256",
          "name": "pid",
          "type": "uint256"
        },
        {
          "internalType": "address",
          "name": "user",
          "type": "address"
        }
      ],
      "name": "getUserInfo",
      "outputs": [
        {
          "internalType": "bool",
          "name": "",
          "type": "bool"
        },
        {
          "internalType": "uint256",
          "name": "",
          "type": "uint256"
        },
        {
          "internalType": "uint256",
          "name": "",
          "type": "uint256"
        },
        {
          "internalType": "bool",
          "name": "",
          "type": "bool"
        }
      ],
      "stateMutability": "view",
      "type": "function"
    }
  ],
  "bytecode": "0x60806040526040518060400160405280601681526020017f506f6c6b614272696467653a204c61756e636850616400000000000000000000815250600290805190602001906200005192919062000235565b503480156200005f57600080fd5b50604051620040dc380380620040dc833981810160405260608110156200008557600080fd5b810190808051906020019092919080519060200190929190805190602001909291905050506000620000bc6200022d60201b60201c565b9050806000806101000a81548173ffffffffffffffffffffffffffffffffffffffff021916908373ffffffffffffffffffffffffffffffffffffffff1602179055508073ffffffffffffffffffffffffffffffffffffffff16600073ffffffffffffffffffffffffffffffffffffffff167f8be0079c531659141344cd1fd0a4f28419497f9722a3daafe3b4186f6b6457e060405160405180910390a3506001808190555082600560006101000a81548173ffffffffffffffffffffffffffffffffffffffff021916908373ffffffffffffffffffffffffffffffffffffffff16021790555081600360006101000a81548173ffffffffffffffffffffffffffffffffffffffff021916908373ffffffffffffffffffffffffffffffffffffffff16021790555080600460006101000a81548173ffffffffffffffffffffffffffffffffffffffff021916908373ffffffffffffffffffffffffffffffffffffffff160217905550505050620002e4565b600033905090565b828054600181600116156101000203166002900490600052602060002090601f016020900481019282601f106200027857805160ff1916838001178555620002a9565b82800160010185558215620002a9579182015b82811115620002a85782518255916020019190600101906200028b565b5b509050620002b89190620002bc565b5090565b620002e191905b80821115620002dd576000816000905550600101620002c3565b5090565b90565b613de880620002f46000396000f3fe6080604052600436106101815760003560e01c8063715018a6116100d1578063b39d90091161008a578063c734e25311610064578063c734e25314610b02578063c7e42b1b14610b58578063d70c33c814610ba9578063f2fde38b14610c1c57610181565b8063b39d9009146109b9578063b7de030314610a14578063c30ef48714610a6357610181565b8063715018a61461081f5780638da5cb5b146108365780638f32d59b1461088d5780639c131806146108bc578063a48ebe821461092f578063a9e7c2e51461097e57610181565b80631f4552cb1161013e578063392560dd11610118578063392560dd146105825780634b25bfce1461064c57806350933d4d146107245780635729bd4c146107e457610181565b80631f4552cb1461046c5780632561ae02146104835780632f380b35146104d257610181565b806306fdde03146101865780630b17c673146102165780630f4d0357146102a85780631069f3b5146102e35780631a1623181461036f5780631a1d69ec1461039d575b600080fd5b34801561019257600080fd5b5061019b610c6d565b6040518080602001828103825283818151815260200191508051906020019080838360005b838110156101db5780820151818401526020810190506101c0565b50505050905090810190601f1680156102085780820380516001836020036101000a031916815260200191505b509250505060405180910390f35b34801561022257600080fd5b5061026f6004803603604081101561023957600080fd5b81019080803573ffffffffffffffffffffffffffffffffffffffff16906020019092919080359060200190929190505050610d0b565b60405180878152602001868152602001858152602001848152602001838152602001828152602001965050505050505060405180910390f35b3480156102b457600080fd5b506102e1600480360360208110156102cb57600080fd5b8101908080359060200190929190505050610e3e565b005b3480156102ef57600080fd5b5061033c6004803603604081101561030657600080fd5b8101908080359060200190929190803573ffffffffffffffffffffffffffffffffffffffff169060200190929190505050610f0b565b60405180851515151581526020018481526020018381526020018215151515815260200194505050505060405180910390f35b61039b6004803603602081101561038557600080fd5b810190808035906020019092919050505061108c565b005b3480156103a957600080fd5b5061046a600480360360408110156103c057600080fd5b81019080803590602001906401000000008111156103dd57600080fd5b8201836020820111156103ef57600080fd5b8035906020019184602083028401116401000000008311171561041157600080fd5b919080806020026020016040519081016040528093929190818152602001838360200280828437600081840152601f19601f82011690508083019250505050505050919291929080359060200190929190505050611b34565b005b34801561047857600080fd5b50610481611df0565b005b34801561048f57600080fd5b506104bc600480360360208110156104a657600080fd5b8101908080359060200190929190505050611f51565b6040518082815260200191505060405180910390f35b3480156104de57600080fd5b5061050b600480360360208110156104f557600080fd5b8101908080359060200190929190505050611fe3565b60405180898152602001888152602001878152602001868152602001858152602001848152602001831515151581526020018273ffffffffffffffffffffffffffffffffffffffff1673ffffffffffffffffffffffffffffffffffffffff1681526020019850505050505050505060405180910390f35b34801561058e57600080fd5b5061064a60048036036101a08110156105a657600080fd5b8101908080359060200190929190803590602001909291908035906020019092919080359060200190929190803590602001909291908035906020019092919080359060200190929190803590602001909291908035906020019092919080359060200190929190803573ffffffffffffffffffffffffffffffffffffffff1690602001909291908035906020019092919080359060200190929190505050612148565b005b34801561065857600080fd5b506106a56004803603604081101561066f57600080fd5b8101908080359060200190929190803573ffffffffffffffffffffffffffffffffffffffff169060200190929190505050612436565b604051808981526020018873ffffffffffffffffffffffffffffffffffffffff1673ffffffffffffffffffffffffffffffffffffffff1681526020018715151515815260200186815260200185815260200184815260200183151515158152602001821515151581526020019850505050505050505060405180910390f35b34801561073057600080fd5b506107e2600480360361018081101561074857600080fd5b81019080803590602001909291908035906020019092919080359060200190929190803573ffffffffffffffffffffffffffffffffffffffff16906020019092919080359060200190929190803590602001909291908035906020019092919080359060200190929190803590602001909291908035906020019092919080359060200190929190803590602001909291905050506124d2565b005b3480156107f057600080fd5b5061081d6004803603602081101561080757600080fd5b8101908080359060200190929190505050612713565b005b34801561082b57600080fd5b506108346127e0565b005b34801561084257600080fd5b5061084b612919565b604051808273ffffffffffffffffffffffffffffffffffffffff1673ffffffffffffffffffffffffffffffffffffffff16815260200191505060405180910390f35b34801561089957600080fd5b506108a2612942565b604051808215151515815260200191505060405180910390f35b3480156108c857600080fd5b50610915600480360360408110156108df57600080fd5b81019080803573ffffffffffffffffffffffffffffffffffffffff169060200190929190803590602001909291905050506129a0565b604051808215151515815260200191505060405180910390f35b34801561093b57600080fd5b506109686004803603602081101561095257600080fd5b8101908080359060200190929190505050612b51565b6040518082815260200191505060405180910390f35b34801561098a57600080fd5b506109b7600480360360208110156109a157600080fd5b8101908080359060200190929190505050612bae565b005b3480156109c557600080fd5b50610a12600480360360408110156109dc57600080fd5b81019080803573ffffffffffffffffffffffffffffffffffffffff16906020019092919080359060200190929190505050612fdb565b005b348015610a2057600080fd5b50610a4d60048036036020811015610a3757600080fd5b810190808035906020019092919050505061321b565b6040518082815260200191505060405180910390f35b348015610a6f57600080fd5b50610a9c60048036036020811015610a8657600080fd5b810190808035906020019092919050505061325b565b604051808673ffffffffffffffffffffffffffffffffffffffff1673ffffffffffffffffffffffffffffffffffffffff16815260200185151515158152602001848152602001838152602001821515151581526020019550505050505060405180910390f35b348015610b0e57600080fd5b50610b3b60048036036020811015610b2557600080fd5b8101908080359060200190929190505050613454565b604051808381526020018281526020019250505060405180910390f35b348015610b6457600080fd5b50610ba760048036036020811015610b7b57600080fd5b81019080803573ffffffffffffffffffffffffffffffffffffffff1690602001909291905050506134b7565b005b348015610bb557600080fd5b50610c1a60048036036080811015610bcc57600080fd5b81019080803573ffffffffffffffffffffffffffffffffffffffff169060200190929190803590602001909291908035151590602001909291908035151590602001909291905050506136b5565b005b348015610c2857600080fd5b50610c6b60048036036020811015610c3f57600080fd5b81019080803573ffffffffffffffffffffffffffffffffffffffff16906020019092919050505061380b565b005b60028054600181600116156101000203166002900480601f016020809104026020016040519081016040528092919081815260200182805460018160011615610100020316600290048015610d035780601f10610cd857610100808354040283529160200191610d03565b820191906000526020600020905b815481529060010190602001808311610ce657829003601f168201915b505050505081565b600080600080600080600460009054906101000a900473ffffffffffffffffffffffffffffffffffffffff1673ffffffffffffffffffffffffffffffffffffffff166393f1a40b888a6040518363ffffffff1660e01b8152600401808381526020018273ffffffffffffffffffffffffffffffffffffffff1673ffffffffffffffffffffffffffffffffffffffff1681526020019250505060c06040518083038186803b158015610dbb57600080fd5b505afa158015610dcf573d6000803e3d6000fd5b505050506040513d60c0811015610de557600080fd5b810190808051906020019092919080519060200190929190805190602001909291908051906020019092919080519060200190929190805190602001909291905050509550955095509550955095509295509295509295565b610e46612942565b610eb8576040517f08c379a00000000000000000000000000000000000000000000000000000000081526004018080602001828103825260208152602001807f4f776e61626c653a2063616c6c6572206973206e6f7420746865206f776e657281525060200191505060405180910390fd5b6000610ece60018361389190919063ffffffff16565b9050600060078281548110610edf57fe5b90600052602060002090600f0201600c0160006101000a81548160ff0219169083151502179055505050565b6000806000806006600087815260200190815260200160002060008673ffffffffffffffffffffffffffffffffffffffff1673ffffffffffffffffffffffffffffffffffffffff16815260200190815260200160002060010160149054906101000a900460ff166006600088815260200190815260200160002060008773ffffffffffffffffffffffffffffffffffffffff1673ffffffffffffffffffffffffffffffffffffffff168152602001908152602001600020600201546006600089815260200190815260200160002060008873ffffffffffffffffffffffffffffffffffffffff1673ffffffffffffffffffffffffffffffffffffffff16815260200190815260200160002060030154600660008a815260200190815260200160002060008973ffffffffffffffffffffffffffffffffffffffff1673ffffffffffffffffffffffffffffffffffffffff16815260200190815260200160002060050160019054906101000a900460ff16935093509350935092959194509250565b60026001541415611105576040517f08c379a000000000000000000000000000000000000000000000000000000000815260040180806020018281038252601f8152602001807f5265656e7472616e637947756172643a207265656e7472616e742063616c6c0081525060200191505060405180910390fd5b6002600181905550600061112360018361389190919063ffffffff16565b90506007818154811061113257fe5b90600052602060002090600f0201600c0160009054906101000a900460ff166111c3576040517f08c379a000000000000000000000000000000000000000000000000000000000815260040180806020018281038252600c8152602001807f696e76616c696420706f6f6c000000000000000000000000000000000000000081525060200191505060405180910390fd5b600781815481106111d057fe5b90600052602060002090600f020160010154421015801561120f5750600781815481106111f957fe5b90600052602060002090600f0201600201544211155b611281576040517f08c379a000000000000000000000000000000000000000000000000000000000815260040180806020018281038252600c8152602001807f696e76616c69642074696d65000000000000000000000000000000000000000081525060200191505060405180910390fd5b61128b33836129a0565b6112fd576040517f08c379a000000000000000000000000000000000000000000000000000000000815260040180806020018281038252600c8152602001807f696e76616c69642075736572000000000000000000000000000000000000000081525060200191505060405180910390fd5b6000349050611368816006600086815260200190815260200160002060003373ffffffffffffffffffffffffffffffffffffffff1673ffffffffffffffffffffffffffffffffffffffff168152602001908152602001600020600301546138db90919063ffffffff16565b6006600085815260200190815260200160002060003373ffffffffffffffffffffffffffffffffffffffff1673ffffffffffffffffffffffffffffffffffffffff168152602001908152602001600020600301819055506002600783815481106113ce57fe5b90600052602060002090600f02016003015414156116b2576000806000806000806113fa336000610d0b565b955095509550955095509550685150ae84a8cdf000008610156114e6576007888154811061142457fe5b90600052602060002090600f020160050154600660008b815260200190815260200160002060003373ffffffffffffffffffffffffffffffffffffffff1673ffffffffffffffffffffffffffffffffffffffff1681526020019081526020016000206003015411156114e1576040517f08c379a0000000000000000000000000000000000000000000000000000000008152600401808060200182810382526022815260200180613d6f6022913960400191505060405180910390fd5b6116a7565b685150ae84a8cdf000008610158015611507575068a2a15d09519be0000086105b156115db576007888154811061151957fe5b90600052602060002090600f020160060154600660008b815260200190815260200160002060003373ffffffffffffffffffffffffffffffffffffffff1673ffffffffffffffffffffffffffffffffffffffff1681526020019081526020016000206003015411156115d6576040517f08c379a0000000000000000000000000000000000000000000000000000000008152600401808060200182810382526022815260200180613d2c6022913960400191505060405180910390fd5b6116a6565b600788815481106115e857fe5b90600052602060002090600f020160070154600660008b815260200190815260200160002060003373ffffffffffffffffffffffffffffffffffffffff1673ffffffffffffffffffffffffffffffffffffffff1681526020019081526020016000206003015411156116a5576040517f08c379a0000000000000000000000000000000000000000000000000000000008152600401808060200182810382526022815260200180613d916022913960400191505060405180910390fd5b5b5b5050505050506118b1565b6001600783815481106116c157fe5b90600052602060002090600f02016003015414156117c557600782815481106116e657fe5b90600052602060002090600f0201600601546006600085815260200190815260200160002060003373ffffffffffffffffffffffffffffffffffffffff1673ffffffffffffffffffffffffffffffffffffffff1681526020019081526020016000206003015411156117c0576040517f08c379a000000000000000000000000000000000000000000000000000000000815260040180806020018281038252601a8152602001807f696e76616c6964206d6178696d756d20636f6e7472696275746500000000000081525060200191505060405180910390fd5b6118b0565b6002600783815481106117d457fe5b90600052602060002090600f020160070154026006600085815260200190815260200160002060003373ffffffffffffffffffffffffffffffffffffffff1673ffffffffffffffffffffffffffffffffffffffff1681526020019081526020016000206003015411156118af576040517f08c379a000000000000000000000000000000000000000000000000000000000815260040180806020018281038252601a8152602001807f696e76616c6964206d6178696d756d20636f6e7472696275746500000000000081525060200191505060405180910390fd5b5b5b60006118fe670de0b6b3a76400006118f0600786815481106118cf57fe5b90600052602060002090600f0201600b01548561396390919063ffffffff16565b6139e990919063ffffffff16565b9050600061190b85611f51565b90506007848154811061191a57fe5b90600052602060002090600f02016009015481116119a0576040517f08c379a000000000000000000000000000000000000000000000000000000000815260040180806020018281038252600c8152602001807f49444f20736f6c64206f7574000000000000000000000000000000000000000081525060200191505060405180910390fd5b81811015611a16576040517f08c379a000000000000000000000000000000000000000000000000000000000815260040180806020018281038252600c8152602001807f49444f20736f6c64206f7574000000000000000000000000000000000000000081525060200191505060405180910390fd5b611a7c826006600088815260200190815260200160002060003373ffffffffffffffffffffffffffffffffffffffff1673ffffffffffffffffffffffffffffffffffffffff168152602001908152602001600020600201546138db90919063ffffffff16565b6006600087815260200190815260200160002060003373ffffffffffffffffffffffffffffffffffffffff1673ffffffffffffffffffffffffffffffffffffffff16815260200190815260200160002060020181905550611b048260078681548110611ae457fe5b90600052602060002090600f0201600e01546138db90919063ffffffff16565b60078581548110611b1157fe5b90600052602060002090600f0201600e0181905550505050506001808190555050565b611b3c612942565b611bae576040517f08c379a00000000000000000000000000000000000000000000000000000000081526004018080602001828103825260208152602001807f4f776e61626c653a2063616c6c6572206973206e6f7420746865206f776e657281525060200191505060405180910390fd5b60008090505b8251811015611deb5781600660008481526020019081526020016000206000858481518110611bdf57fe5b602002602001015173ffffffffffffffffffffffffffffffffffffffff1673ffffffffffffffffffffffffffffffffffffffff16815260200190815260200160002060000181905550828181518110611c3457fe5b6020026020010151600660008481526020019081526020016000206000858481518110611c5d57fe5b602002602001015173ffffffffffffffffffffffffffffffffffffffff1673ffffffffffffffffffffffffffffffffffffffff16815260200190815260200160002060010160006101000a81548173ffffffffffffffffffffffffffffffffffffffff021916908373ffffffffffffffffffffffffffffffffffffffff1602179055506001600660008481526020019081526020016000206000858481518110611d0357fe5b602002602001015173ffffffffffffffffffffffffffffffffffffffff1673ffffffffffffffffffffffffffffffffffffffff16815260200190815260200160002060010160146101000a81548160ff0219169083151502179055506001600660008481526020019081526020016000206000858481518110611d8257fe5b602002602001015173ffffffffffffffffffffffffffffffffffffffff1673ffffffffffffffffffffffffffffffffffffffff16815260200190815260200160002060050160006101000a81548160ff0219169083151502179055508080600101915050611bb4565b505050565b611df8612942565b611e6a576040517f08c379a00000000000000000000000000000000000000000000000000000000081526004018080602001828103825260208152602001807f4f776e61626c653a2063616c6c6572206973206e6f7420746865206f776e657281525060200191505060405180910390fd5b600047905060008111611ee5576040517f08c379a000000000000000000000000000000000000000000000000000000000815260040180806020018281038252600f8152602001807f6e6f7420656e6f7567682066756e64000000000000000000000000000000000081525060200191505060405180910390fd5b600560009054906101000a900473ffffffffffffffffffffffffffffffffffffffff1673ffffffffffffffffffffffffffffffffffffffff166108fc829081150290604051600060405180830381858888f19350505050158015611f4d573d6000803e3d6000fd5b5050565b600080611f6860018461389190919063ffffffff16565b90506000611f758461321b565b90508060078381548110611f8557fe5b90600052602060002090600f0201600e01541115611fa857600092505050611fde565b611fd960078381548110611fb857fe5b90600052602060002090600f0201600e01548261389190919063ffffffff16565b925050505b919050565b600080600080600080600080600061200560018b61389190919063ffffffff16565b90506007818154811061201457fe5b90600052602060002090600f0201600101546007828154811061203357fe5b90600052602060002090600f0201600201546007838154811061205257fe5b90600052602060002090600f0201600301546007848154811061207157fe5b90600052602060002090600f0201600b01546007858154811061209057fe5b90600052602060002090600f0201600d0154600786815481106120af57fe5b90600052602060002090600f0201600e0154600787815481106120ce57fe5b90600052602060002090600f0201600c0160009054906101000a900460ff16600788815481106120fa57fe5b90600052602060002090600f020160040160009054906101000a900473ffffffffffffffffffffffffffffffffffffffff169850985098509850985098509850985050919395975091939597565b612150612942565b6121c2576040517f08c379a00000000000000000000000000000000000000000000000000000000081526004018080602001828103825260208152602001807f4f776e61626c653a2063616c6c6572206973206e6f7420746865206f776e657281525060200191505060405180910390fd5b60006121d860018f61389190919063ffffffff16565b905060008d1115612207578c600782815481106121f157fe5b90600052602060002090600f0201600101819055505b60008c1115612234578b6007828154811061221e57fe5b90600052602060002090600f0201600201819055505b60008b1115612261578a6007828154811061224b57fe5b90600052602060002090600f0201600501819055505b60008a111561228e57896007828154811061227857fe5b90600052602060002090600f0201600601819055505b60008911156122bb5788600782815481106122a557fe5b90600052602060002090600f0201600701819055505b60008811156122e85787600782815481106122d257fe5b90600052602060002090600f0201600801819055505b60008711156123155786600782815481106122ff57fe5b90600052602060002090600f0201600a01819055505b600086111561234257856007828154811061232c57fe5b90600052602060002090600f0201600b01819055505b600085111561236f57846007828154811061235957fe5b90600052602060002090600f0201600d01819055505b600083111561239c57826007828154811061238657fe5b90600052602060002090600f0201600901819055505b60008211156123c95781600782815481106123b357fe5b90600052602060002090600f0201600301819055505b83600782815481106123d757fe5b90600052602060002090600f020160040160006101000a81548173ffffffffffffffffffffffffffffffffffffffff021916908373ffffffffffffffffffffffffffffffffffffffff1602179055505050505050505050505050505050565b6006602052816000526040600020602052806000526040600020600091509150508060000154908060010160009054906101000a900473ffffffffffffffffffffffffffffffffffffffff16908060010160149054906101000a900460ff16908060020154908060030154908060040154908060050160009054906101000a900460ff16908060050160019054906101000a900460ff16905088565b6124da612942565b61254c576040517f08c379a00000000000000000000000000000000000000000000000000000000081526004018080602001828103825260208152602001807f4f776e61626c653a2063616c6c6572206973206e6f7420746865206f776e657281525060200191505060405180910390fd5b600061256760016007805490506138db90919063ffffffff16565b90506007604051806101e001604052808381526020018f81526020018e81526020018d81526020018c73ffffffffffffffffffffffffffffffffffffffff1681526020018b81526020018a8152602001898152602001888152602001848152602001878152602001868152602001600115158152602001858152602001600081525090806001815401808255809150506001900390600052602060002090600f02016000909190919091506000820151816000015560208201518160010155604082015181600201556060820151816003015560808201518160040160006101000a81548173ffffffffffffffffffffffffffffffffffffffff021916908373ffffffffffffffffffffffffffffffffffffffff16021790555060a0820151816005015560c0820151816006015560e082015181600701556101008201518160080155610120820151816009015561014082015181600a015561016082015181600b015561018082015181600c0160006101000a81548160ff0219169083151502179055506101a082015181600d01556101c082015181600e0155505050505050505050505050505050565b61271b612942565b61278d576040517f08c379a00000000000000000000000000000000000000000000000000000000081526004018080602001828103825260208152602001807f4f776e61626c653a2063616c6c6572206973206e6f7420746865206f776e657281525060200191505060405180910390fd5b60006127a360018361389190919063ffffffff16565b90506001600782815481106127b457fe5b90600052602060002090600f0201600c0160006101000a81548160ff0219169083151502179055505050565b6127e8612942565b61285a576040517f08c379a00000000000000000000000000000000000000000000000000000000081526004018080602001828103825260208152602001807f4f776e61626c653a2063616c6c6572206973206e6f7420746865206f776e657281525060200191505060405180910390fd5b600073ffffffffffffffffffffffffffffffffffffffff166000809054906101000a900473ffffffffffffffffffffffffffffffffffffffff1673ffffffffffffffffffffffffffffffffffffffff167f8be0079c531659141344cd1fd0a4f28419497f9722a3daafe3b4186f6b6457e060405160405180910390a360008060006101000a81548173ffffffffffffffffffffffffffffffffffffffff021916908373ffffffffffffffffffffffffffffffffffffffff160217905550565b60008060009054906101000a900473ffffffffffffffffffffffffffffffffffffffff16905090565b60008060009054906101000a900473ffffffffffffffffffffffffffffffffffffffff1673ffffffffffffffffffffffffffffffffffffffff16612984613a33565b73ffffffffffffffffffffffffffffffffffffffff1614905090565b6000806129b760018461389190919063ffffffff16565b90506001600782815481106129c857fe5b90600052602060002090600f0201600301541415612ab2576006600084815260200190815260200160002060008573ffffffffffffffffffffffffffffffffffffffff1673ffffffffffffffffffffffffffffffffffffffff16815260200190815260200160002060010160149054906101000a900460ff168015612aaa57506006600084815260200190815260200160002060008573ffffffffffffffffffffffffffffffffffffffff1673ffffffffffffffffffffffffffffffffffffffff16815260200190815260200160002060050160009054906101000a900460ff165b915050612b4b565b600260078281548110612ac157fe5b90600052602060002090600f0201600301541415612b1457600080600080600080612aed8a6000610d0b565b955095509550955095509550681b1ae4d6e2ef500000861015975050505050505050612b4b565b600360078281548110612b2357fe5b90600052602060002090600f0201600301541415612b45576001915050612b4b565b60009150505b92915050565b60006006600083815260200190815260200160002060003373ffffffffffffffffffffffffffffffffffffffff1673ffffffffffffffffffffffffffffffffffffffff168152602001908152602001600020600201549050919050565b60026001541415612c27576040517f08c379a000000000000000000000000000000000000000000000000000000000815260040180806020018281038252601f8152602001807f5265656e7472616e637947756172643a207265656e7472616e742063616c6c0081525060200191505060405180910390fd5b60026001819055506006600082815260200190815260200160002060003373ffffffffffffffffffffffffffffffffffffffff1673ffffffffffffffffffffffffffffffffffffffff16815260200190815260200160002060050160019054906101000a900460ff1615612d03576040517f08c379a00000000000000000000000000000000000000000000000000000000081526004018080602001828103825260148152602001807f7573657220616c726561647920636c61696d656400000000000000000000000081525060200191505060405180910390fd5b6000612d1960018361389190919063ffffffff16565b9050612d6a60078281548110612d2b57fe5b90600052602060002090600f0201600d015460078381548110612d4a57fe5b90600052602060002090600f0201600201546138db90919063ffffffff16565b421015612ddf576040517f08c379a000000000000000000000000000000000000000000000000000000000815260040180806020018281038252601e8152602001807f6e6f74206f6e2074696d6520666f7220636c61696d696e6720746f6b656e000081525060200191505060405180910390fd5b6000612dea83612b51565b905060008111612e62576040517f08c379a000000000000000000000000000000000000000000000000000000000815260040180806020018281038252600d8152602001807f696e76616c696420636c61696d0000000000000000000000000000000000000081525060200191505060405180910390fd5b60078281548110612e6f57fe5b90600052602060002090600f020160040160009054906101000a900473ffffffffffffffffffffffffffffffffffffffff1673ffffffffffffffffffffffffffffffffffffffff1663a9059cbb33836040518363ffffffff1660e01b8152600401808373ffffffffffffffffffffffffffffffffffffffff1673ffffffffffffffffffffffffffffffffffffffff16815260200182815260200192505050602060405180830381600087803b158015612f2757600080fd5b505af1158015612f3b573d6000803e3d6000fd5b505050506040513d6020811015612f5157600080fd5b81019080805190602001909291905050505060016006600085815260200190815260200160002060003373ffffffffffffffffffffffffffffffffffffffff1673ffffffffffffffffffffffffffffffffffffffff16815260200190815260200160002060050160016101000a81548160ff02191690831515021790555050506001808190555050565b612fe3612942565b613055576040517f08c379a00000000000000000000000000000000000000000000000000000000081526004018080602001828103825260208152602001807f4f776e61626c653a2063616c6c6572206973206e6f7420746865206f776e657281525060200191505060405180910390fd5b806006600083815260200190815260200160002060008473ffffffffffffffffffffffffffffffffffffffff1673ffffffffffffffffffffffffffffffffffffffff16815260200190815260200160002060000181905550816006600083815260200190815260200160002060008473ffffffffffffffffffffffffffffffffffffffff1673ffffffffffffffffffffffffffffffffffffffff16815260200190815260200160002060010160006101000a81548173ffffffffffffffffffffffffffffffffffffffff021916908373ffffffffffffffffffffffffffffffffffffffff16021790555060016006600083815260200190815260200160002060008473ffffffffffffffffffffffffffffffffffffffff1673ffffffffffffffffffffffffffffffffffffffff16815260200190815260200160002060010160146101000a81548160ff02191690831515021790555060016006600083815260200190815260200160002060008473ffffffffffffffffffffffffffffffffffffffff1673ffffffffffffffffffffffffffffffffffffffff16815260200190815260200160002060050160006101000a81548160ff0219169083151502179055505050565b60008061323260018461389190919063ffffffff16565b90506007818154811061324157fe5b90600052602060002090600f0201600a0154915050919050565b60008060008060006006600087815260200190815260200160002060003373ffffffffffffffffffffffffffffffffffffffff1673ffffffffffffffffffffffffffffffffffffffff16815260200190815260200160002060010160009054906101000a900473ffffffffffffffffffffffffffffffffffffffff166006600088815260200190815260200160002060003373ffffffffffffffffffffffffffffffffffffffff1673ffffffffffffffffffffffffffffffffffffffff16815260200190815260200160002060010160149054906101000a900460ff166006600089815260200190815260200160002060003373ffffffffffffffffffffffffffffffffffffffff1673ffffffffffffffffffffffffffffffffffffffff16815260200190815260200160002060020154600660008a815260200190815260200160002060003373ffffffffffffffffffffffffffffffffffffffff1673ffffffffffffffffffffffffffffffffffffffff16815260200190815260200160002060030154600660008b815260200190815260200160002060003373ffffffffffffffffffffffffffffffffffffffff1673ffffffffffffffffffffffffffffffffffffffff16815260200190815260200160002060050160019054906101000a900460ff169450945094509450945091939590929450565b600080600061346d60018561389190919063ffffffff16565b90506007818154811061347c57fe5b90600052602060002090600f0201600d01546007828154811061349b57fe5b90600052602060002090600f0201600e01549250925050915091565b6134bf612942565b613531576040517f08c379a00000000000000000000000000000000000000000000000000000000081526004018080602001828103825260208152602001807f4f776e61626c653a2063616c6c6572206973206e6f7420746865206f776e657281525060200191505060405180910390fd5b8073ffffffffffffffffffffffffffffffffffffffff1663a9059cbb613555612919565b8373ffffffffffffffffffffffffffffffffffffffff166370a08231306040518263ffffffff1660e01b8152600401808273ffffffffffffffffffffffffffffffffffffffff1673ffffffffffffffffffffffffffffffffffffffff16815260200191505060206040518083038186803b1580156135d257600080fd5b505afa1580156135e6573d6000803e3d6000fd5b505050506040513d60208110156135fc57600080fd5b81019080805190602001909291905050506040518363ffffffff1660e01b8152600401808373ffffffffffffffffffffffffffffffffffffffff1673ffffffffffffffffffffffffffffffffffffffff16815260200182815260200192505050602060405180830381600087803b15801561367657600080fd5b505af115801561368a573d6000803e3d6000fd5b505050506040513d60208110156136a057600080fd5b81019080805190602001909291905050505050565b6136bd612942565b61372f576040517f08c379a00000000000000000000000000000000000000000000000000000000081526004018080602001828103825260208152602001807f4f776e61626c653a2063616c6c6572206973206e6f7420746865206f776e657281525060200191505060405180910390fd5b816006600085815260200190815260200160002060008673ffffffffffffffffffffffffffffffffffffffff1673ffffffffffffffffffffffffffffffffffffffff16815260200190815260200160002060010160146101000a81548160ff021916908315150217905550806006600085815260200190815260200160002060008673ffffffffffffffffffffffffffffffffffffffff1673ffffffffffffffffffffffffffffffffffffffff16815260200190815260200160002060050160006101000a81548160ff02191690831515021790555050505050565b613813612942565b613885576040517f08c379a00000000000000000000000000000000000000000000000000000000081526004018080602001828103825260208152602001807f4f776e61626c653a2063616c6c6572206973206e6f7420746865206f776e657281525060200191505060405180910390fd5b61388e81613a3b565b50565b60006138d383836040518060400160405280601e81526020017f536166654d6174683a207375627472616374696f6e206f766572666c6f770000815250613b7f565b905092915050565b600080828401905083811015613959576040517f08c379a000000000000000000000000000000000000000000000000000000000815260040180806020018281038252601b8152602001807f536166654d6174683a206164646974696f6e206f766572666c6f77000000000081525060200191505060405180910390fd5b8091505092915050565b60008083141561397657600090506139e3565b600082840290508284828161398757fe5b04146139de576040517f08c379a0000000000000000000000000000000000000000000000000000000008152600401808060200182810382526021815260200180613d4e6021913960400191505060405180910390fd5b809150505b92915050565b6000613a2b83836040518060400160405280601a81526020017f536166654d6174683a206469766973696f6e206279207a65726f000000000000815250613c3f565b905092915050565b600033905090565b600073ffffffffffffffffffffffffffffffffffffffff168173ffffffffffffffffffffffffffffffffffffffff161415613ac1576040517f08c379a0000000000000000000000000000000000000000000000000000000008152600401808060200182810382526026815260200180613d066026913960400191505060405180910390fd5b8073ffffffffffffffffffffffffffffffffffffffff166000809054906101000a900473ffffffffffffffffffffffffffffffffffffffff1673ffffffffffffffffffffffffffffffffffffffff167f8be0079c531659141344cd1fd0a4f28419497f9722a3daafe3b4186f6b6457e060405160405180910390a3806000806101000a81548173ffffffffffffffffffffffffffffffffffffffff021916908373ffffffffffffffffffffffffffffffffffffffff16021790555050565b6000838311158290613c2c576040517f08c379a00000000000000000000000000000000000000000000000000000000081526004018080602001828103825283818151815260200191508051906020019080838360005b83811015613bf1578082015181840152602081019050613bd6565b50505050905090810190601f168015613c1e5780820380516001836020036101000a031916815260200191505b509250505060405180910390fd5b5060008385039050809150509392505050565b60008083118290613ceb576040517f08c379a00000000000000000000000000000000000000000000000000000000081526004018080602001828103825283818151815260200191508051906020019080838360005b83811015613cb0578082015181840152602081019050613c95565b50505050905090810190601f168015613cdd5780820380516001836020036101000a031916815260200191505b509250505060405180910390fd5b506000838581613cf757fe5b04905080915050939250505056fe4f776e61626c653a206e6577206f776e657220697320746865207a65726f2061646472657373696e76616c6964206d6178696d756d20707572636861736520666f72207469657232536166654d6174683a206d756c7469706c69636174696f6e206f766572666c6f77696e76616c6964206d6178696d756d20707572636861736520666f72207469657231696e76616c6964206d6178696d756d20707572636861736520666f72207469657233a2646970667358221220bdcc14a68124179d3de19a353d9e73d200f3916ad7054f8f25d140275c0a1fca64736f6c63430006020033",
  "source": "pragma solidity >=0.6.0;\r\n\r\nimport \"@openzeppelin/contracts/token/ERC20/SafeERC20.sol\";\r\nimport \"@openzeppelin/contracts/math/SafeMath.sol\";\r\nimport \"@openzeppelin/contracts/ownership/Ownable.sol\";\r\nimport \"./ReentrancyGuard.sol\";\r\nimport \"./PolkaBridgeStaking.sol\";\r\n\r\ncontract PolkaBridgeLaunchPad is Ownable, ReentrancyGuard {\r\n    string public name = \"PolkaBridge: LaunchPad\";\r\n    using SafeMath for uint256;\r\n    using SafeERC20 for IERC20;\r\n\r\n    IERC20 polkaBridgeToken;\r\n    PolkaBridgeStaking polkaBridgeStaking;\r\n\r\n    address payable private ReceiveToken;\r\n\r\n    struct IDOPool {\r\n        uint256 Id;\r\n        uint256 Begin;\r\n        uint256 End;\r\n        uint256 Type; //1:public, 2:private\r\n        IERC20 IDOToken;\r\n        uint256 MaxPurchaseTier1;\r\n        uint256 MaxPurchaseTier2; //==public tier\r\n        uint256 MaxPurchaseTier3;\r\n        uint256 TotalCap;\r\n        uint256 MinimumTokenSoldout;\r\n        uint256 TotalToken; //total sale token for this pool\r\n        uint256 RatePerETH;\r\n        bool IsActived;\r\n        uint256 LockDuration; //lock after purchase\r\n        uint256 TotalSold; //total number of token sold\r\n    }\r\n\r\n    struct User {\r\n        uint256 Id;\r\n        address UserAddress;\r\n        bool IsWhitelist;\r\n        uint256 TotalTokenPurchase;\r\n        uint256 TotalETHPurchase;\r\n        uint256 PurchaseTime;\r\n        bool IsActived;\r\n        bool IsClaimed;\r\n    }\r\n\r\n    mapping(uint256 => mapping(address => User)) public whitelist; //poolid - listuser\r\n\r\n    IDOPool[] pools;\r\n\r\n    constructor(\r\n        address payable receiveTokenAdd,\r\n        IERC20 polkaBridge,\r\n        PolkaBridgeStaking _polkaBridgeStaking\r\n    ) public {\r\n        ReceiveToken = receiveTokenAdd;\r\n        polkaBridgeToken = polkaBridge;\r\n        polkaBridgeStaking = _polkaBridgeStaking;\r\n    }\r\n\r\n    function addWhitelist(address user, uint256 pid) public onlyOwner {\r\n        whitelist[pid][user].Id = pid;\r\n        whitelist[pid][user].UserAddress = user;\r\n        whitelist[pid][user].IsWhitelist = true;\r\n\r\n        whitelist[pid][user].IsActived = true;\r\n    }\r\n\r\n    function addMulWhitelist(address[] memory user, uint256 pid)\r\n        public\r\n        onlyOwner\r\n    {\r\n        for (uint256 i = 0; i < user.length; i++) {\r\n            whitelist[pid][user[i]].Id = pid;\r\n            whitelist[pid][user[i]].UserAddress = user[i];\r\n            whitelist[pid][user[i]].IsWhitelist = true;\r\n\r\n            whitelist[pid][user[i]].IsActived = true;\r\n        }\r\n    }\r\n\r\n    function updateWhitelist(\r\n        address user,\r\n        uint256 pid,\r\n        bool isWhitelist,\r\n        bool isActived\r\n    ) public onlyOwner {\r\n        whitelist[pid][user].IsWhitelist = isWhitelist;\r\n        whitelist[pid][user].IsActived = isActived;\r\n    }\r\n\r\n    function IsWhitelist(address user, uint256 pid) public view returns (bool) {\r\n        uint256 poolIndex = pid.sub(1);\r\n        if (pools[poolIndex].Type == 1) //public\r\n        {\r\n            return (whitelist[pid][user].IsWhitelist &&\r\n                whitelist[pid][user].IsActived);\r\n        } else if (pools[poolIndex].Type == 2) //private\r\n        {\r\n            (\r\n                uint256 amount,\r\n                uint256 rewardDebt,\r\n                uint256 rewardClaimed,\r\n                uint256 lastBlock,\r\n                uint256 beginTime,\r\n                uint256 endTime\r\n            ) = getUserStakingData(user, 0);\r\n            return (amount >= 500 * 1e18);\r\n        } else if (pools[poolIndex].Type == 3) {\r\n            //community round\r\n\r\n            return true;\r\n        } else {\r\n            return false;\r\n        }\r\n    }\r\n\r\n    function getUserStakingData(address user, uint256 poolId)\r\n        public\r\n        view\r\n        returns (\r\n            uint256 amount,\r\n            uint256 rewardDebt,\r\n            uint256 rewardClaimed,\r\n            uint256 lastBlock,\r\n            uint256 beginTime,\r\n            uint256 endTime\r\n        )\r\n    {\r\n        return (polkaBridgeStaking.userInfo(poolId, user));\r\n    }\r\n\r\n    function addPool(\r\n        uint256 begin,\r\n        uint256 end,\r\n        uint256 _type,\r\n        IERC20 idoToken,\r\n        uint256 maxPurchaseTier1,\r\n        uint256 maxPurchaseTier2,\r\n        uint256 maxPurchaseTier3,\r\n        uint256 totalCap,\r\n        uint256 totalToken,\r\n        uint256 ratePerETH,\r\n        uint256 lockDuration,\r\n        uint256 minimumTokenSoldout\r\n    ) public onlyOwner {\r\n        uint256 id = pools.length.add(1);\r\n        pools.push(\r\n            IDOPool({\r\n                Id: id,\r\n                Begin: begin,\r\n                End: end,\r\n                Type: _type,\r\n                IDOToken: idoToken,\r\n                MaxPurchaseTier1: maxPurchaseTier1,\r\n                MaxPurchaseTier2: maxPurchaseTier2,\r\n                MaxPurchaseTier3: maxPurchaseTier3,\r\n                TotalCap: totalCap,\r\n                TotalToken: totalToken,\r\n                RatePerETH: ratePerETH,\r\n                IsActived: true,\r\n                LockDuration: lockDuration,\r\n                TotalSold: 0,\r\n                MinimumTokenSoldout: minimumTokenSoldout\r\n            })\r\n        );\r\n    }\r\n\r\n    function updatePool(\r\n        uint256 pid,\r\n        uint256 begin,\r\n        uint256 end,\r\n        uint256 maxPurchaseTier1,\r\n        uint256 maxPurchaseTier2,\r\n        uint256 maxPurchaseTier3,\r\n        uint256 totalCap,\r\n        uint256 totalToken,\r\n        uint256 ratePerETH,\r\n        uint256 lockDuration,\r\n        IERC20 idoToken,\r\n        uint256 minimumTokenSoldout,\r\n        uint256 pooltype\r\n    ) public onlyOwner {\r\n        uint256 poolIndex = pid.sub(1);\r\n        if (begin > 0) {\r\n            pools[poolIndex].Begin = begin;\r\n        }\r\n        if (end > 0) {\r\n            pools[poolIndex].End = end;\r\n        }\r\n\r\n        if (maxPurchaseTier1 > 0) {\r\n            pools[poolIndex].MaxPurchaseTier1 = maxPurchaseTier1;\r\n        }\r\n        if (maxPurchaseTier2 > 0) {\r\n            pools[poolIndex].MaxPurchaseTier2 = maxPurchaseTier2;\r\n        }\r\n        if (maxPurchaseTier3 > 0) {\r\n            pools[poolIndex].MaxPurchaseTier3 = maxPurchaseTier3;\r\n        }\r\n        if (totalCap > 0) {\r\n            pools[poolIndex].TotalCap = totalCap;\r\n        }\r\n        if (totalToken > 0) {\r\n            pools[poolIndex].TotalToken = totalToken;\r\n        }\r\n        if (ratePerETH > 0) {\r\n            pools[poolIndex].RatePerETH = ratePerETH;\r\n        }\r\n        if (lockDuration > 0) {\r\n            pools[poolIndex].LockDuration = lockDuration;\r\n        }\r\n        if (minimumTokenSoldout > 0) {\r\n            pools[poolIndex].MinimumTokenSoldout = minimumTokenSoldout;\r\n        }\r\n        if (pooltype > 0) {\r\n            pools[poolIndex].Type = pooltype;\r\n        }\r\n        pools[poolIndex].IDOToken = idoToken;\r\n    }\r\n\r\n    function stopPool(uint256 pid) public onlyOwner {\r\n        uint256 poolIndex = pid.sub(1);\r\n        pools[poolIndex].IsActived = false;\r\n    }\r\n\r\n    function activePool(uint256 pid) public onlyOwner {\r\n        uint256 poolIndex = pid.sub(1);\r\n        pools[poolIndex].IsActived = true;\r\n    }\r\n\r\n    //withdraw contract token\r\n    //use for someone send token to contract\r\n    //recuse wrong user\r\n\r\n    function withdrawErc20(IERC20 token) public onlyOwner {\r\n        token.transfer(owner(), token.balanceOf(address(this)));\r\n    }\r\n\r\n    //withdraw ETH after IDO\r\n    function withdrawPoolFund() public onlyOwner {\r\n        uint256 balance = address(this).balance;\r\n        require(balance > 0, \"not enough fund\");\r\n        ReceiveToken.transfer(balance);\r\n    }\r\n\r\n    function purchaseIDO(uint256 pid) public payable nonReentrant {\r\n        uint256 poolIndex = pid.sub(1);\r\n\r\n        require(pools[poolIndex].IsActived, \"invalid pool\");\r\n        require(\r\n            block.timestamp >= pools[poolIndex].Begin &&\r\n                block.timestamp <= pools[poolIndex].End,\r\n            \"invalid time\"\r\n        );\r\n        //check user\r\n        require(IsWhitelist(msg.sender, pid), \"invalid user\");\r\n\r\n        //check amount\r\n        uint256 ethAmount = msg.value;\r\n        whitelist[pid][msg.sender].TotalETHPurchase = whitelist[pid][msg.sender]\r\n            .TotalETHPurchase\r\n            .add(ethAmount);\r\n\r\n        if (pools[poolIndex].Type == 2) {\r\n            (\r\n                uint256 stakeAmount,\r\n                uint256 rewardDebt,\r\n                uint256 rewardClaimed,\r\n                uint256 lastBlock,\r\n                uint256 beginTime,\r\n                uint256 endTime\r\n            ) = getUserStakingData(msg.sender, 0);\r\n            if (stakeAmount < 1500 * 1e18) {\r\n                require(\r\n                    whitelist[pid][msg.sender].TotalETHPurchase <=\r\n                        pools[poolIndex].MaxPurchaseTier1,\r\n                    \"invalid maximum purchase for tier1\"\r\n                );\r\n            } else if (\r\n                stakeAmount >= 1500 * 1e18 && stakeAmount < 3000 * 1e18\r\n            ) {\r\n                require(\r\n                    whitelist[pid][msg.sender].TotalETHPurchase <=\r\n                        pools[poolIndex].MaxPurchaseTier2,\r\n                    \"invalid maximum purchase for tier2\"\r\n                );\r\n            } else {\r\n                require(\r\n                    whitelist[pid][msg.sender].TotalETHPurchase <=\r\n                        pools[poolIndex].MaxPurchaseTier3,\r\n                    \"invalid maximum purchase for tier3\"\r\n                );\r\n            }\r\n        } else if (pools[poolIndex].Type == 1) {\r\n            //public pool\r\n\r\n            require(\r\n                whitelist[pid][msg.sender].TotalETHPurchase <=\r\n                    pools[poolIndex].MaxPurchaseTier2,\r\n                \"invalid maximum contribute\"\r\n            );\r\n        } else {\r\n            //community round\r\n            require(\r\n                whitelist[pid][msg.sender].TotalETHPurchase <=\r\n                    pools[poolIndex].MaxPurchaseTier3 * 2,\r\n                \"invalid maximum contribute\"\r\n            );\r\n        }\r\n\r\n        uint256 tokenAmount = ethAmount.mul(pools[poolIndex].RatePerETH).div(\r\n            1e18\r\n        );\r\n\r\n        uint256 remainToken = getRemainIDOToken(pid);\r\n        require(\r\n            remainToken > pools[poolIndex].MinimumTokenSoldout,\r\n            \"IDO sold out\"\r\n        );\r\n        require(remainToken >= tokenAmount, \"IDO sold out\");\r\n\r\n        whitelist[pid][msg.sender].TotalTokenPurchase = whitelist[pid][\r\n            msg.sender\r\n        ].TotalTokenPurchase.add(tokenAmount);\r\n\r\n        pools[poolIndex].TotalSold = pools[poolIndex].TotalSold.add(\r\n            tokenAmount\r\n        );\r\n    }\r\n\r\n    function claimToken(uint256 pid) public nonReentrant {\r\n        require(!whitelist[pid][msg.sender].IsClaimed, \"user already claimed\");\r\n        uint256 poolIndex = pid.sub(1);\r\n\r\n        require(\r\n            block.timestamp >=\r\n                pools[poolIndex].End.add(pools[poolIndex].LockDuration),\r\n            \"not on time for claiming token\"\r\n        );\r\n\r\n        uint256 userBalance = getUserTotalPurchase(pid);\r\n\r\n        require(userBalance > 0, \"invalid claim\");\r\n\r\n        pools[poolIndex].IDOToken.transfer(msg.sender, userBalance);\r\n        whitelist[pid][msg.sender].IsClaimed = true;\r\n    }\r\n\r\n    function getUserTotalPurchase(uint256 pid) public view returns (uint256) {\r\n        return whitelist[pid][msg.sender].TotalTokenPurchase;\r\n    }\r\n\r\n    function getRemainIDOToken(uint256 pid) public view returns (uint256) {\r\n        uint256 poolIndex = pid.sub(1);\r\n        uint256 tokenBalance = getBalanceTokenByPoolId(pid);\r\n        if (pools[poolIndex].TotalSold > tokenBalance) {\r\n            return 0;\r\n        }\r\n\r\n        return tokenBalance.sub(pools[poolIndex].TotalSold);\r\n    }\r\n\r\n    function getBalanceTokenByPoolId(uint256 pid)\r\n        public\r\n        view\r\n        returns (uint256)\r\n    {\r\n        uint256 poolIndex = pid.sub(1);\r\n        //return pools[poolIndex].IDOToken.balanceOf(address(this));\r\n        return pools[poolIndex].TotalToken;\r\n    }\r\n\r\n    function getPoolInfo(uint256 pid)\r\n        public\r\n        view\r\n        returns (\r\n            uint256,\r\n            uint256,\r\n            // uint256,\r\n            // uint256,\r\n            uint256,\r\n            uint256,\r\n            uint256,\r\n            uint256,\r\n            bool,\r\n            IERC20\r\n        )\r\n    {\r\n        uint256 poolIndex = pid.sub(1);\r\n        return (\r\n            pools[poolIndex].Begin,\r\n            pools[poolIndex].End,\r\n            pools[poolIndex].Type,\r\n            //pools[poolIndex].AmountPBRRequire,\r\n            //pools[poolIndex].MaxPurchase,\r\n            pools[poolIndex].RatePerETH,\r\n            pools[poolIndex].LockDuration,\r\n            pools[poolIndex].TotalSold,\r\n            pools[poolIndex].IsActived,\r\n            pools[poolIndex].IDOToken\r\n        );\r\n    }\r\n\r\n    function getPoolSoldInfo(uint256 pid)\r\n        public\r\n        view\r\n        returns (uint256, uint256)\r\n    {\r\n        uint256 poolIndex = pid.sub(1);\r\n        return (pools[poolIndex].LockDuration, pools[poolIndex].TotalSold);\r\n    }\r\n\r\n    function getWhitelistfo(uint256 pid)\r\n        public\r\n        view\r\n        returns (\r\n            address,\r\n            bool,\r\n            uint256,\r\n            uint256,\r\n            bool\r\n        )\r\n    {\r\n        return (\r\n            whitelist[pid][msg.sender].UserAddress,\r\n            whitelist[pid][msg.sender].IsWhitelist,\r\n            whitelist[pid][msg.sender].TotalTokenPurchase,\r\n            whitelist[pid][msg.sender].TotalETHPurchase,\r\n            whitelist[pid][msg.sender].IsClaimed\r\n        );\r\n    }\r\n\r\n    function getUserInfo(uint256 pid, address user)\r\n        public\r\n        view\r\n        returns (\r\n            bool,\r\n            uint256,\r\n            uint256,\r\n            bool\r\n        )\r\n    {\r\n        return (\r\n            whitelist[pid][user].IsWhitelist,\r\n            whitelist[pid][user].TotalTokenPurchase,\r\n            whitelist[pid][user].TotalETHPurchase,\r\n            whitelist[pid][user].IsClaimed\r\n        );\r\n    }\r\n}\r\n",
  "sourcePath": "C:\\Users\\Thanh Phi\\Desktop\\PolkaBridgeSolution\\PolkaBridge-LaunchPad\\contracts\\PolkaBridgeLaunchPad.sol",
  "compiler": {
    "name": "solc",
    "version": "0.6.2+commit.bacdbe57.Emscripten.clang"
  },
  "schemaVersion": "3.4.3",
  "updatedAt": "2021-09-30T04:34:02.947Z",
  "devdoc": {
    "methods": {
      "isOwner()": {
        "details": "Returns true if the caller is the current owner."
      },
      "owner()": {
        "details": "Returns the address of the current owner."
      },
      "renounceOwnership()": {
        "details": "Leaves the contract without owner. It will not be possible to call `onlyOwner` functions anymore. Can only be called by the current owner.     * NOTE: Renouncing ownership will leave the contract without an owner, thereby removing any functionality that is only available to the owner."
      },
      "transferOwnership(address)": {
        "details": "Transfers ownership of the contract to a new account (`newOwner`). Can only be called by the current owner."
      }
    }
  },
  "userdoc": {
    "methods": {}
  }
}