{
  "contractName": "PolkabridgeLaunchPadV2",
  "abi": [
    {
      "inputs": [
        {
          "internalType": "address payable",
          "name": "receiveTokenAdd",
          "type": "address"
        }
      ],
      "stateMutability": "nonpayable",
      "type": "constructor"
    },
    {
      "anonymous": false,
      "inputs": [
        {
          "indexed": true,
          "internalType": "address",
          "name": "previousOwner",
          "type": "address"
        },
        {
          "indexed": true,
          "internalType": "address",
          "name": "newOwner",
          "type": "address"
        }
      ],
      "name": "OwnershipTransferred",
      "type": "event"
    },
    {
      "inputs": [
        {
          "internalType": "uint256",
          "name": "",
          "type": "uint256"
        }
      ],
      "name": "claimInfos",
      "outputs": [
        {
          "internalType": "uint256",
          "name": "ClaimTime1",
          "type": "uint256"
        },
        {
          "internalType": "uint256",
          "name": "PercentClaim1",
          "type": "uint256"
        },
        {
          "internalType": "uint256",
          "name": "ClaimTime2",
          "type": "uint256"
        },
        {
          "internalType": "uint256",
          "name": "PercentClaim2",
          "type": "uint256"
        },
        {
          "internalType": "uint256",
          "name": "ClaimTime3",
          "type": "uint256"
        },
        {
          "internalType": "uint256",
          "name": "PercentClaim3",
          "type": "uint256"
        },
        {
          "internalType": "uint256",
          "name": "ClaimTime4",
          "type": "uint256"
        },
        {
          "internalType": "uint256",
          "name": "PercentClaim4",
          "type": "uint256"
        },
        {
          "internalType": "uint256",
          "name": "ClaimTime5",
          "type": "uint256"
        },
        {
          "internalType": "uint256",
          "name": "PercentClaim5",
          "type": "uint256"
        }
      ],
      "stateMutability": "view",
      "type": "function"
    },
    {
      "inputs": [],
      "name": "isOwner",
      "outputs": [
        {
          "internalType": "bool",
          "name": "",
          "type": "bool"
        }
      ],
      "stateMutability": "view",
      "type": "function"
    },
    {
      "inputs": [],
      "name": "name",
      "outputs": [
        {
          "internalType": "string",
          "name": "",
          "type": "string"
        }
      ],
      "stateMutability": "view",
      "type": "function"
    },
    {
      "inputs": [],
      "name": "owner",
      "outputs": [
        {
          "internalType": "address",
          "name": "",
          "type": "address"
        }
      ],
      "stateMutability": "view",
      "type": "function"
    },
    {
      "inputs": [],
      "name": "renounceOwnership",
      "outputs": [],
      "stateMutability": "nonpayable",
      "type": "function"
    },
    {
      "inputs": [
        {
          "internalType": "address",
          "name": "newOwner",
          "type": "address"
        }
      ],
      "name": "transferOwnership",
      "outputs": [],
      "stateMutability": "nonpayable",
      "type": "function"
    },
    {
      "inputs": [
        {
          "internalType": "uint256",
          "name": "",
          "type": "uint256"
        },
        {
          "internalType": "address",
          "name": "",
          "type": "address"
        }
      ],
      "name": "users",
      "outputs": [
        {
          "internalType": "uint256",
          "name": "Id",
          "type": "uint256"
        },
        {
          "internalType": "address",
          "name": "UserAddress",
          "type": "address"
        },
        {
          "internalType": "bool",
          "name": "IsWhitelist",
          "type": "bool"
        },
        {
          "internalType": "uint256",
          "name": "TotalTokenPurchase",
          "type": "uint256"
        },
        {
          "internalType": "uint256",
          "name": "TotalETHPurchase",
          "type": "uint256"
        },
        {
          "internalType": "uint256",
          "name": "PurchaseTime",
          "type": "uint256"
        },
        {
          "internalType": "uint256",
          "name": "LastClaimed",
          "type": "uint256"
        },
        {
          "internalType": "uint256",
          "name": "TotalPercentClaimed",
          "type": "uint256"
        },
        {
          "internalType": "uint256",
          "name": "NumberClaimed",
          "type": "uint256"
        },
        {
          "internalType": "bool",
          "name": "IsActived",
          "type": "bool"
        }
      ],
      "stateMutability": "view",
      "type": "function"
    },
    {
      "inputs": [
        {
          "internalType": "address[]",
          "name": "user",
          "type": "address[]"
        },
        {
          "internalType": "uint256",
          "name": "pid",
          "type": "uint256"
        }
      ],
      "name": "addMulWhitelist",
      "outputs": [],
      "stateMutability": "nonpayable",
      "type": "function"
    },
    {
      "inputs": [
        {
          "internalType": "address",
          "name": "user",
          "type": "address"
        },
        {
          "internalType": "uint256",
          "name": "pid",
          "type": "uint256"
        },
        {
          "internalType": "bool",
          "name": "isWhitelist",
          "type": "bool"
        },
        {
          "internalType": "bool",
          "name": "isActived",
          "type": "bool"
        }
      ],
      "name": "updateWhitelist",
      "outputs": [],
      "stateMutability": "nonpayable",
      "type": "function"
    },
    {
      "inputs": [
        {
          "internalType": "address",
          "name": "user",
          "type": "address"
        },
        {
          "internalType": "uint256",
          "name": "pid",
          "type": "uint256"
        },
        {
          "internalType": "uint256",
          "name": "stackAmount",
          "type": "uint256"
        }
      ],
      "name": "IsWhitelist",
      "outputs": [
        {
          "internalType": "bool",
          "name": "",
          "type": "bool"
        }
      ],
      "stateMutability": "view",
      "type": "function"
    },
    {
      "inputs": [
        {
          "internalType": "uint256",
          "name": "begin",
          "type": "uint256"
        },
        {
          "internalType": "uint256",
          "name": "end",
          "type": "uint256"
        },
        {
          "internalType": "uint256",
          "name": "_type",
          "type": "uint256"
        },
        {
          "internalType": "contract IERC20",
          "name": "idoToken",
          "type": "address"
        },
        {
          "internalType": "uint256",
          "name": "maxPurchaseTier1",
          "type": "uint256"
        },
        {
          "internalType": "uint256",
          "name": "maxPurchaseTier2",
          "type": "uint256"
        },
        {
          "internalType": "uint256",
          "name": "maxPurchaseTier3",
          "type": "uint256"
        },
        {
          "internalType": "uint256",
          "name": "maxSpecialPurchase",
          "type": "uint256"
        },
        {
          "internalType": "uint256",
          "name": "totalCap",
          "type": "uint256"
        },
        {
          "internalType": "uint256",
          "name": "totalToken",
          "type": "uint256"
        },
        {
          "internalType": "uint256",
          "name": "ratePerETH",
          "type": "uint256"
        },
        {
          "internalType": "uint256",
          "name": "minimumTokenSoldout",
          "type": "uint256"
        }
      ],
      "name": "addPool",
      "outputs": [],
      "stateMutability": "nonpayable",
      "type": "function"
    },
    {
      "inputs": [
        {
          "internalType": "uint256",
          "name": "percentClaim1",
          "type": "uint256"
        },
        {
          "internalType": "uint256",
          "name": "claimTime1",
          "type": "uint256"
        },
        {
          "internalType": "uint256",
          "name": "percentClaim2",
          "type": "uint256"
        },
        {
          "internalType": "uint256",
          "name": "claimTime2",
          "type": "uint256"
        },
        {
          "internalType": "uint256",
          "name": "percentClaim3",
          "type": "uint256"
        },
        {
          "internalType": "uint256",
          "name": "claimTime3",
          "type": "uint256"
        },
        {
          "internalType": "uint256",
          "name": "percentClaim4",
          "type": "uint256"
        },
        {
          "internalType": "uint256",
          "name": "claimTime4",
          "type": "uint256"
        },
        {
          "internalType": "uint256",
          "name": "percentClaim5",
          "type": "uint256"
        },
        {
          "internalType": "uint256",
          "name": "claimTime5",
          "type": "uint256"
        },
        {
          "internalType": "uint256",
          "name": "pid",
          "type": "uint256"
        }
      ],
      "name": "addClaimInfo",
      "outputs": [],
      "stateMutability": "nonpayable",
      "type": "function"
    },
    {
      "inputs": [
        {
          "internalType": "uint256",
          "name": "percentClaim1",
          "type": "uint256"
        },
        {
          "internalType": "uint256",
          "name": "claimTime1",
          "type": "uint256"
        },
        {
          "internalType": "uint256",
          "name": "percentClaim2",
          "type": "uint256"
        },
        {
          "internalType": "uint256",
          "name": "claimTime2",
          "type": "uint256"
        },
        {
          "internalType": "uint256",
          "name": "percentClaim3",
          "type": "uint256"
        },
        {
          "internalType": "uint256",
          "name": "claimTime3",
          "type": "uint256"
        },
        {
          "internalType": "uint256",
          "name": "percentClaim4",
          "type": "uint256"
        },
        {
          "internalType": "uint256",
          "name": "claimTime4",
          "type": "uint256"
        },
        {
          "internalType": "uint256",
          "name": "percentClaim5",
          "type": "uint256"
        },
        {
          "internalType": "uint256",
          "name": "claimTime5",
          "type": "uint256"
        },
        {
          "internalType": "uint256",
          "name": "pid",
          "type": "uint256"
        }
      ],
      "name": "updateClaimInfo",
      "outputs": [],
      "stateMutability": "nonpayable",
      "type": "function"
    },
    {
      "inputs": [
        {
          "internalType": "uint256",
          "name": "pid",
          "type": "uint256"
        },
        {
          "internalType": "uint256",
          "name": "begin",
          "type": "uint256"
        },
        {
          "internalType": "uint256",
          "name": "end",
          "type": "uint256"
        },
        {
          "internalType": "uint256",
          "name": "maxPurchaseTier1",
          "type": "uint256"
        },
        {
          "internalType": "uint256",
          "name": "maxPurchaseTier2",
          "type": "uint256"
        },
        {
          "internalType": "uint256",
          "name": "maxPurchaseTier3",
          "type": "uint256"
        },
        {
          "internalType": "uint256",
          "name": "maxSpecialPurchase",
          "type": "uint256"
        },
        {
          "internalType": "uint256",
          "name": "totalCap",
          "type": "uint256"
        },
        {
          "internalType": "uint256",
          "name": "totalToken",
          "type": "uint256"
        },
        {
          "internalType": "uint256",
          "name": "ratePerETH",
          "type": "uint256"
        },
        {
          "internalType": "contract IERC20",
          "name": "idoToken",
          "type": "address"
        },
        {
          "internalType": "uint256",
          "name": "pooltype",
          "type": "uint256"
        }
      ],
      "name": "updatePool",
      "outputs": [],
      "stateMutability": "nonpayable",
      "type": "function"
    },
    {
      "inputs": [
        {
          "internalType": "contract IERC20",
          "name": "token",
          "type": "address"
        }
      ],
      "name": "withdrawErc20",
      "outputs": [],
      "stateMutability": "nonpayable",
      "type": "function"
    },
    {
      "inputs": [],
      "name": "withdrawPoolFund",
      "outputs": [],
      "stateMutability": "nonpayable",
      "type": "function"
    },
    {
      "inputs": [
        {
          "internalType": "uint256",
          "name": "stakeAmount",
          "type": "uint256"
        },
        {
          "internalType": "uint256",
          "name": "pid",
          "type": "uint256"
        },
        {
          "internalType": "uint8",
          "name": "v",
          "type": "uint8"
        },
        {
          "internalType": "bytes32",
          "name": "r",
          "type": "bytes32"
        },
        {
          "internalType": "bytes32",
          "name": "s",
          "type": "bytes32"
        }
      ],
      "name": "purchaseIDO",
      "outputs": [],
      "stateMutability": "payable",
      "type": "function"
    },
    {
      "inputs": [
        {
          "internalType": "uint256",
          "name": "pid",
          "type": "uint256"
        }
      ],
      "name": "claimToken",
      "outputs": [],
      "stateMutability": "nonpayable",
      "type": "function"
    },
    {
      "inputs": [
        {
          "internalType": "uint256",
          "name": "pid",
          "type": "uint256"
        }
      ],
      "name": "getUserTotalPurchase",
      "outputs": [
        {
          "internalType": "uint256",
          "name": "",
          "type": "uint256"
        }
      ],
      "stateMutability": "view",
      "type": "function"
    },
    {
      "inputs": [
        {
          "internalType": "uint256",
          "name": "pid",
          "type": "uint256"
        }
      ],
      "name": "getRemainIDOToken",
      "outputs": [
        {
          "internalType": "uint256",
          "name": "",
          "type": "uint256"
        }
      ],
      "stateMutability": "view",
      "type": "function"
    },
    {
      "inputs": [
        {
          "internalType": "uint256",
          "name": "pid",
          "type": "uint256"
        }
      ],
      "name": "getBalanceTokenByPoolId",
      "outputs": [
        {
          "internalType": "uint256",
          "name": "",
          "type": "uint256"
        }
      ],
      "stateMutability": "view",
      "type": "function"
    },
    {
      "inputs": [
        {
          "internalType": "uint256",
          "name": "pid",
          "type": "uint256"
        }
      ],
      "name": "getPoolInfo",
      "outputs": [
        {
          "internalType": "uint256",
          "name": "",
          "type": "uint256"
        },
        {
          "internalType": "uint256",
          "name": "",
          "type": "uint256"
        },
        {
          "internalType": "uint256",
          "name": "",
          "type": "uint256"
        },
        {
          "internalType": "uint256",
          "name": "",
          "type": "uint256"
        },
        {
          "internalType": "uint256",
          "name": "",
          "type": "uint256"
        },
        {
          "internalType": "contract IERC20",
          "name": "",
          "type": "address"
        }
      ],
      "stateMutability": "view",
      "type": "function"
    },
    {
      "inputs": [
        {
          "internalType": "uint256",
          "name": "pid",
          "type": "uint256"
        }
      ],
      "name": "getClaimInfo",
      "outputs": [
        {
          "internalType": "uint256",
          "name": "",
          "type": "uint256"
        },
        {
          "internalType": "uint256",
          "name": "",
          "type": "uint256"
        },
        {
          "internalType": "uint256",
          "name": "",
          "type": "uint256"
        },
        {
          "internalType": "uint256",
          "name": "",
          "type": "uint256"
        },
        {
          "internalType": "uint256",
          "name": "",
          "type": "uint256"
        },
        {
          "internalType": "uint256",
          "name": "",
          "type": "uint256"
        }
      ],
      "stateMutability": "view",
      "type": "function"
    },
    {
      "inputs": [
        {
          "internalType": "uint256",
          "name": "pid",
          "type": "uint256"
        }
      ],
      "name": "getPoolSoldInfo",
      "outputs": [
        {
          "internalType": "uint256",
          "name": "",
          "type": "uint256"
        }
      ],
      "stateMutability": "view",
      "type": "function"
    },
    {
      "inputs": [
        {
          "internalType": "uint256",
          "name": "pid",
          "type": "uint256"
        }
      ],
      "name": "getWhitelistfo",
      "outputs": [
        {
          "internalType": "address",
          "name": "",
          "type": "address"
        },
        {
          "internalType": "bool",
          "name": "",
          "type": "bool"
        },
        {
          "internalType": "uint256",
          "name": "",
          "type": "uint256"
        },
        {
          "internalType": "uint256",
          "name": "",
          "type": "uint256"
        }
      ],
      "stateMutability": "view",
      "type": "function"
    },
    {
      "inputs": [
        {
          "internalType": "uint256",
          "name": "pid",
          "type": "uint256"
        },
        {
          "internalType": "address",
          "name": "user",
          "type": "address"
        }
      ],
      "name": "getUserInfo",
      "outputs": [
        {
          "internalType": "bool",
          "name": "",
          "type": "bool"
        },
        {
          "internalType": "uint256",
          "name": "",
          "type": "uint256"
        },
        {
          "internalType": "uint256",
          "name": "",
          "type": "uint256"
        },
        {
          "internalType": "uint256",
          "name": "",
          "type": "uint256"
        }
      ],
      "stateMutability": "view",
      "type": "function"
    }
  ],
  "bytecode": "0x60c0604052601960808190527f506f6c6b614272696467653a204c61756e63685061642056320000000000000060a090815262000040916002919062000111565b503480156200004e57600080fd5b506040516200312338038062003123833981810160405260208110156200007457600080fd5b505160006200008b6001600160e01b036200010c16565b600080546001600160a01b0319166001600160a01b0383169081178255604051929350917f8be0079c531659141344cd1fd0a4f28419497f9722a3daafe3b4186f6b6457e0908290a35060018055600380546001600160a01b0319166001600160a01b0392909216919091179055681b1ae4d6e2ef500000600455620001b3565b335b90565b828054600181600116156101000203166002900490600052602060002090601f016020900481019282601f106200015457805160ff191683800117855562000184565b8280016001018555821562000184579182015b828111156200018457825182559160200191906001019062000167565b506200019292915062000196565b5090565b6200010e91905b808211156200019257600081556001016200019d565b612f6080620001c36000396000f3fe6080604052600436106101815760003560e01c806396f5fef5116100d1578063c30ef4871161008a578063d0d5527511610064578063d0d5527514610894578063d2070193146108cc578063d70c33c814610929578063f2fde38b1461097257610181565b8063c30ef487146107dd578063c734e25314610837578063c7e42b1b1461086157610181565b806396f5fef5146105e8578063a48ebe8214610662578063a9e7c2e51461068c578063afad4db2146106b6578063b7de030314610720578063b9d02df41461074a57610181565b80632f380b351161013e578063521d7d9011610118578063521d7d9014610513578063715018a61461058d5780638da5cb5b146105a25780638f32d59b146105d357610181565b80632f380b35146103e057806336c287f91461044657806350933d4d1461049957610181565b806306fdde03146101865780631069f3b5146102105780631a1d69ec146102715780631f4552cb146103255780632229abd71461033a5780632561ae02146103a4575b600080fd5b34801561019257600080fd5b5061019b6109a5565b6040805160208082528351818301528351919283929083019185019080838360005b838110156101d55781810151838201526020016101bd565b50505050905090810190601f1680156102025780820380516001836020036101000a031916815260200191505b509250505060405180910390f35b34801561021c57600080fd5b506102496004803603604081101561023357600080fd5b50803590602001356001600160a01b0316610a30565b6040805194151585526020850193909352838301919091526060830152519081900360800190f35b34801561027d57600080fd5b506103236004803603604081101561029457600080fd5b8101906020810181356401000000008111156102af57600080fd5b8201836020820111156102c157600080fd5b803590602001918460208302840111640100000000831117156102e357600080fd5b9190808060200260200160405190810160405280939291908181526020018383602002808284376000920191909152509295505091359250610a7b915050565b005b34801561033157600080fd5b50610323610c6a565b34801561034657600080fd5b50610323600480360361016081101561035e57600080fd5b5080359060208101359060408101359060608101359060808101359060a08101359060c08101359060e08101359061010081013590610120810135906101400135610d34565b3480156103b057600080fd5b506103ce600480360360208110156103c757600080fd5b5035610e94565b60408051918252519081900360200190f35b3480156103ec57600080fd5b5061040a6004803603602081101561040357600080fd5b5035610f23565b60408051968752602087019590955285850193909352606085019190915260808401526001600160a01b031660a0830152519081900360c00190f35b34801561045257600080fd5b506104856004803603606081101561046957600080fd5b506001600160a01b038135169060208101359060400135611019565b604080519115158252519081900360200190f35b3480156104a557600080fd5b5061032360048036036101808110156104bd57600080fd5b508035906020810135906040810135906001600160a01b036060820135169060808101359060a08101359060c08101359060e081013590610100810135906101208101359061014081013590610160013561110d565b34801561051f57600080fd5b50610323600480360361018081101561053757600080fd5b5080359060208101359060408101359060608101359060808101359060a08101359060c08101359060e08101359061010081013590610120810135906001600160a01b03610140820135169061016001356112c6565b34801561059957600080fd5b50610323611518565b3480156105ae57600080fd5b506105b76115a9565b604080516001600160a01b039092168252519081900360200190f35b3480156105df57600080fd5b506104856115b8565b3480156105f457600080fd5b506106126004803603602081101561060b57600080fd5b50356115dc565b604080519a8b5260208b0199909952898901979097526060890195909552608088019390935260a087019190915260c086015260e085015261010084015261012083015251908190036101400190f35b34801561066e57600080fd5b506103ce6004803603602081101561068557600080fd5b5035611630565b34801561069857600080fd5b50610323600480360360208110156106af57600080fd5b5035611650565b3480156106c257600080fd5b5061032360048036036101608110156106da57600080fd5b5080359060208101359060408101359060608101359060808101359060a08101359060c08101359060e08101359061010081013590610120810135906101400135611cd7565b34801561072c57600080fd5b506103ce6004803603602081101561074357600080fd5b5035611d74565b34801561075657600080fd5b506107836004803603604081101561076d57600080fd5b50803590602001356001600160a01b0316611db1565b604080519a8b526001600160a01b0390991660208b0152961515898901526060890195909552608088019390935260a087019190915260c086015260e0850152610100840152151561012083015251908190036101400190f35b3480156107e957600080fd5b506108076004803603602081101561080057600080fd5b5035611e1a565b604080516001600160a01b0390951685529215156020850152838301919091526060830152519081900360800190f35b34801561084357600080fd5b506103ce6004803603602081101561085a57600080fd5b5035611e5d565b34801561086d57600080fd5b506103236004803603602081101561088457600080fd5b50356001600160a01b0316611e9a565b610323600480360360a08110156108aa57600080fd5b5080359060208101359060ff6040820135169060608101359060800135611fe3565b3480156108d857600080fd5b506108f6600480360360208110156108ef57600080fd5b503561276d565b604080519687526020870195909552858501939093526060850191909152608084015260a0830152519081900360c00190f35b34801561093557600080fd5b506103236004803603608081101561094c57600080fd5b506001600160a01b038135169060208101359060408101351515906060013515156127c5565b34801561097e57600080fd5b506103236004803603602081101561099557600080fd5b50356001600160a01b0316612866565b6002805460408051602060018416156101000260001901909316849004601f81018490048402820184019092528181529291830182828015610a285780601f106109fd57610100808354040283529160200191610a28565b820191906000526020600020905b815481529060010190602001808311610a0b57829003601f168201915b505050505081565b60009182526005602090815260408084206001600160a01b039390931684529190529020600181015460028201546003830154600690930154600160a01b90920460ff169390929190565b610a836115b8565b610ac2576040805162461bcd60e51b81526020600482018190526024820152600080516020612ebf833981519152604482015290519081900360640190fd5b60005b8251811015610c655760008281526005602052604081208451849290869085908110610aed57fe5b60200260200101516001600160a01b03166001600160a01b0316815260200190815260200160002060000181905550828181518110610b2857fe5b6020026020010151600560008481526020019081526020016000206000858481518110610b5157fe5b60200260200101516001600160a01b03166001600160a01b0316815260200190815260200160002060010160006101000a8154816001600160a01b0302191690836001600160a01b031602179055506001600560008481526020019081526020016000206000858481518110610bc357fe5b60200260200101516001600160a01b03166001600160a01b0316815260200190815260200160002060010160146101000a81548160ff0219169083151502179055506001600560008481526020019081526020016000206000858481518110610c2857fe5b6020908102919091018101516001600160a01b03168252810191909152604001600020600801805460ff1916911515919091179055600101610ac5565b505050565b610c726115b8565b610cb1576040805162461bcd60e51b81526020600482018190526024820152600080516020612ebf833981519152604482015290519081900360640190fd5b4780610cf6576040805162461bcd60e51b815260206004820152600f60248201526e1b9bdd08195b9bdd59da08199d5b99608a1b604482015290519081900360640190fd5b6003546040516001600160a01b039091169082156108fc029083906000818181858888f19350505050158015610d30573d6000803e3d6000fd5b5050565b610d3c6115b8565b610d7b576040805162461bcd60e51b81526020600482018190526024820152600080516020612ebf833981519152604482015290519081900360640190fd5b8915610d935760008181526007602052604090208a90555b8a15610dae5760008181526007602052604090206001018b90555b8715610dc95760008181526007602052604090206002018890555b8815610de45760008181526007602052604090206003018990555b8515610dff5760008181526007602052604090206004018690555b8615610e1a5760008181526007602052604090206005018790555b8315610e355760008181526007602052604090206006018490555b8415610e51576000818152600760208190526040909120018590555b8115610e6c5760008181526007602052604090206008018290555b8215610e875760008181526007602052604090206009018390555b5050505050505050505050565b600080610ea883600163ffffffff6128b916565b90506000610eb584611d74565b90508060068381548110610ec557fe5b90600052602060002090600e0201600d01541115610ee857600092505050610f1e565b610f1960068381548110610ef857fe5b90600052602060002090600e0201600d0154826128b990919063ffffffff16565b925050505b919050565b6000808080808080610f3c88600163ffffffff6128b916565b905060068181548110610f4b57fe5b90600052602060002090600e02016001015460068281548110610f6a57fe5b90600052602060002090600e02016002015460068381548110610f8957fe5b90600052602060002090600e02016003015460068481548110610fa857fe5b90600052602060002090600e0201600c015460068581548110610fc757fe5b90600052602060002090600e0201600d015460068681548110610fe657fe5b60009182526020909120600e9091020160040154949d939c50919a50985096506001600160a01b03909116945092505050565b60008061102d84600163ffffffff6128b916565b90506006818154811061103c57fe5b90600052602060002090600e02016003015460011415611060576001915050611106565b6006818154811061106d57fe5b90600052602060002090600e020160030154600214156110a457600454831061109a576001915050611106565b6000915050611106565b600681815481106110b157fe5b90600052602060002090600e0201600301546003141561109a5760008181526005602090815260408083206001600160a01b0389168452909152902060010154600160a01b900460ff161561109a5760019150505b9392505050565b6111156115b8565b611154576040805162461bcd60e51b81526020600482018190526024820152600080516020612ebf833981519152604482015290519081900360640190fd5b60065460009061116b90600163ffffffff61290416565b90506006604051806101c001604052808381526020018f81526020018e81526020018d81526020018c6001600160a01b031681526020018b81526020018a8152602001898152602001888152602001878152602001848152602001868152602001858152602001600081525090806001815401808255809150506001900390600052602060002090600e02016000909190919091506000820151816000015560208201518160010155604082015181600201556060820151816003015560808201518160040160006101000a8154816001600160a01b0302191690836001600160a01b0316021790555060a0820151816005015560c0820151816006015560e082015181600701556101008201518160080155610120820151816009015561014082015181600a015561016082015181600b015561018082015181600c01556101a082015181600d0155505050505050505050505050505050565b6112ce6115b8565b61130d576040805162461bcd60e51b81526020600482018190526024820152600080516020612ebf833981519152604482015290519081900360640190fd5b60006113208d600163ffffffff6128b916565b90508b1561134c578b6006828154811061133657fe5b90600052602060002090600e0201600101819055505b8a15611376578a6006828154811061136057fe5b90600052602060002090600e0201600201819055505b89156113a057896006828154811061138a57fe5b90600052602060002090600e0201600501819055505b88156113ca5788600682815481106113b457fe5b90600052602060002090600e0201600601819055505b87156113f45787600682815481106113de57fe5b90600052602060002090600e0201600701819055505b861561141e57866006828154811061140857fe5b90600052602060002090600e0201600801819055505b851561144857856006828154811061143257fe5b90600052602060002090600e0201600901819055505b841561147257846006828154811061145c57fe5b90600052602060002090600e0201600b01819055505b831561149c57836006828154811061148657fe5b90600052602060002090600e0201600c01819055505b81156114c65781600682815481106114b057fe5b90600052602060002090600e0201600301819055505b82600682815481106114d457fe5b90600052602060002090600e020160040160006101000a8154816001600160a01b0302191690836001600160a01b0316021790555050505050505050505050505050565b6115206115b8565b61155f576040805162461bcd60e51b81526020600482018190526024820152600080516020612ebf833981519152604482015290519081900360640190fd5b600080546040516001600160a01b03909116907f8be0079c531659141344cd1fd0a4f28419497f9722a3daafe3b4186f6b6457e0908390a3600080546001600160a01b0319169055565b6000546001600160a01b031690565b600080546001600160a01b03166115cd61295e565b6001600160a01b031614905090565b6007602052806000526040600020600091509050806000015490806001015490806002015490806003015490806004015490806005015490806006015490806007015490806008015490806009015490508a565b600090815260056020908152604080832033845290915290206002015490565b600260015414156116a8576040805162461bcd60e51b815260206004820152601f60248201527f5265656e7472616e637947756172643a207265656e7472616e742063616c6c00604482015290519081900360640190fd5b6002600155600081815260056020908152604080832033845290915290206006015460641161171e576040805162461bcd60e51b815260206004820152601760248201527f796f75206861766520636c61696d656420656e6f756768000000000000000000604482015290519081900360640190fd5b600061172982611630565b905060008111611770576040805162461bcd60e51b815260206004820152600d60248201526c696e76616c696420636c61696d60981b604482015290519081900360640190fd5b600061178383600163ffffffff6128b916565b60008481526005602090815260408083203384529091529020600701549091506118c9576000818152600760205260409020544210156117f9576040805162461bcd60e51b815260206004820152600c60248201526b696e76616c69642074696d6560a01b604482015290519081900360640190fd5b60008181526007602052604090206001015461186c9033906118359060649061182990879063ffffffff61296216565b9063ffffffff6129bb16565b6006848154811061184257fe5b600091825260209091206004600e9092020101546001600160a01b0316919063ffffffff6129fd16565b60008181526007602090815260408083206001015486845260058352818420338552909252909120600601546118a79163ffffffff61290416565b6000848152600560209081526040808320338452909152902060060155611c7d565b6000838152600560209081526040808320338452909152902060070154600114156119ae57600081815260076020526040902060020154421015611943576040805162461bcd60e51b815260206004820152600c60248201526b696e76616c69642074696d6560a01b604482015290519081900360640190fd5b6000818152600760205260409020600301546119739033906118359060649061182990879063ffffffff61296216565b60008181526007602090815260408083206003015486845260058352818420338552909252909120600601546118a79163ffffffff61290416565b600083815260056020908152604080832033845290915290206007015460021415611a9457600081815260076020526040902060040154421015611a28576040805162461bcd60e51b815260206004820152600c60248201526b696e76616c69642074696d6560a01b604482015290519081900360640190fd5b600081815260076020526040902060050154611a589033906118359060649061182990879063ffffffff61296216565b6000818152600760209081526040808320600590810154878552908352818420338552909252909120600601546118a79163ffffffff61290416565b600083815260056020908152604080832033845290915290206007015460031415611b7a57600081815260076020526040902060060154421015611b0e576040805162461bcd60e51b815260206004820152600c60248201526b696e76616c69642074696d6560a01b604482015290519081900360640190fd5b611b4033611835606461182960076000878152602001908152602001600020600701548761296290919063ffffffff16565b600081815260076020818152604080842090920154868452600582528284203385529091529120600601546118a79163ffffffff61290416565b600083815260056020908152604080832033845290915290206007015460041415611c7d57600081815260076020526040902060080154421015611bf4576040805162461bcd60e51b815260206004820152600c60248201526b696e76616c69642074696d6560a01b604482015290519081900360640190fd5b600081815260076020526040902060090154611c249033906118359060649061182990879063ffffffff61296216565b6000818152600760209081526040808320600901548684526005835281842033855290925290912060060154611c5f9163ffffffff61290416565b60008481526005602090815260408083203384529091529020600601555b6000838152600560208181526040808420338552909152909120429181019190915560070154611cae906001612904565b600093845260056020908152604080862033875290915290932060070192909255505060018055565b611cdf6115b8565b611d1e576040805162461bcd60e51b81526020600482018190526024820152600080516020612ebf833981519152604482015290519081900360640190fd5b6000908152600760208190526040909120998a5560018a019a909a556002890196909655600388019690965560048701929092556005860192909255600685015593830193909355600882019290925560090155565b600080611d8883600163ffffffff6128b916565b905060068181548110611d9757fe5b90600052602060002090600e0201600b0154915050919050565b6005602081815260009384526040808520909152918352912080546001820154600283015460038401546004850154958501546006860154600787015460089097015495976001600160a01b0386169760ff600160a01b9097048716979596949591949091168a565b60009081526005602090815260408083203384529091529020600181015460028201546003909201546001600160a01b03821693600160a01b90920460ff169291565b600080611e7183600163ffffffff6128b916565b905060068181548110611e8057fe5b90600052602060002090600e0201600d0154915050919050565b611ea26115b8565b611ee1576040805162461bcd60e51b81526020600482018190526024820152600080516020612ebf833981519152604482015290519081900360640190fd5b806001600160a01b031663a9059cbb611ef86115a9565b604080516370a0823160e01b815230600482015290516001600160a01b038616916370a08231916024808301926020929190829003018186803b158015611f3e57600080fd5b505afa158015611f52573d6000803e3d6000fd5b505050506040513d6020811015611f6857600080fd5b5051604080516001600160e01b031960e086901b1681526001600160a01b03909316600484015260248301919091525160448083019260209291908290030181600087803b158015611fb957600080fd5b505af1158015611fcd573d6000803e3d6000fd5b505050506040513d6020811015610c6557600080fd5b6002600154141561203b576040805162461bcd60e51b815260206004820152601f60248201527f5265656e7472616e637947756172643a207265656e7472616e742063616c6c00604482015290519081900360640190fd5b6002600190815560009061205690869063ffffffff6128b916565b90506006818154811061206557fe5b90600052602060002090600e0201600301546002141561219257604080513360601b60208083019190915260348083018a9052835180840390910181526054909201909252805191012060006120ba82612a4f565b905060018187878760405160008152602001604052604051808581526020018460ff1660ff1681526020018381526020018281526020019450505050506020604051602081039080840390855afa158015612119573d6000803e3d6000fd5b505050602060405103516001600160a01b03166121346115a9565b6001600160a01b03161461218f576040805162461bcd60e51b815260206004820152601f60248201527f6f776e65722073686f756c64207369676e20707572636861736520696e666f00604482015290519081900360640190fd5b50505b6006818154811061219f57fe5b90600052602060002090600e02016001015442101580156121de5750600681815481106121c857fe5b90600052602060002090600e0201600201544211155b61221e576040805162461bcd60e51b815260206004820152600c60248201526b696e76616c69642074696d6560a01b604482015290519081900360640190fd5b612229338688611019565b612269576040805162461bcd60e51b815260206004820152600c60248201526b34b73b30b634b2103ab9b2b960a11b604482015290519081900360640190fd5b60008581526005602090815260408083203384529091529020600301543490612298908263ffffffff61290416565b600087815260056020908152604080832033845290915290206003015560068054839081106122c357fe5b90600052602060002090600e0201600301546002141561248757685150ae84a8cdf0000087101561236a57600682815481106122fb57fe5b600091825260208083206005600e9093020182015489845291815260408084203385529091529091206003015411156123655760405162461bcd60e51b8152600401808060200182810382526022815260200180612e9d6022913960400191505060405180910390fd5b612482565b685150ae84a8cdf00000871015801561238b575068a2a15d09519be0000087105b15612409576006828154811061239d57fe5b600091825260208083206006600e90930201919091015488835260058252604080842033855290925291206003015411156123655760405162461bcd60e51b8152600401808060200182810382526022815260200180612e5a6022913960400191505060405180910390fd5b6006828154811061241657fe5b600091825260208083206007600e90930201919091015488835260058252604080842033855290925291206003015411156124825760405162461bcd60e51b8152600401808060200182810382526022815260200180612edf6022913960400191505060405180910390fd5b6125cc565b6006828154811061249457fe5b90600052602060002090600e0201600301546001141561253d57600682815481106124bb57fe5b600091825260208083206006600e9093020191909101548883526005825260408084203385529092529120600301541115612482576040805162461bcd60e51b815260206004820152601a60248201527f696e76616c6964206d6178696d756d20636f6e74726962757465000000000000604482015290519081900360640190fd5b6006828154811061254a57fe5b600091825260208083206008600e90930201919091015488835260058252604080842033855290925291206003015411156125cc576040805162461bcd60e51b815260206004820152601a60248201527f696e76616c6964206d6178696d756d20636f6e74726962757465000000000000604482015290519081900360640190fd5b600061260b670de0b6b3a7640000611829600686815481106125ea57fe5b90600052602060002090600e0201600c01548561296290919063ffffffff16565b9050600061261888610e94565b90506006848154811061262757fe5b90600052602060002090600e0201600a0154811161267b576040805162461bcd60e51b815260206004820152600c60248201526b125113c81cdbdb19081bdd5d60a21b604482015290519081900360640190fd5b818110156126bf576040805162461bcd60e51b815260206004820152600c60248201526b125113c81cdbdb19081bdd5d60a21b604482015290519081900360640190fd5b60008881526005602090815260408083203384529091529020600201546126ec908363ffffffff61290416565b60008981526005602090815260408083203384529091529020600201556006805461273d9184918790811061271d57fe5b90600052602060002090600e0201600d015461290490919063ffffffff16565b6006858154811061274a57fe5b60009182526020909120600d600e90920201015550506001805550505050505050565b600080808080808061278688600163ffffffff6128b916565b600090815260076020526040902080546001820154600283015460038401546004850154600590950154939d929c50909a509850919650945092505050565b6127cd6115b8565b61280c576040805162461bcd60e51b81526020600482018190526024820152600080516020612ebf833981519152604482015290519081900360640190fd5b60009283526005602090815260408085206001600160a01b039690961685529490529290912060018101805460ff60a01b1916600160a01b9315159390930292909217909155600801805460ff1916911515919091179055565b61286e6115b8565b6128ad576040805162461bcd60e51b81526020600482018190526024820152600080516020612ebf833981519152604482015290519081900360640190fd5b6128b681612aa0565b50565b60006128fb83836040518060400160405280601e81526020017f536166654d6174683a207375627472616374696f6e206f766572666c6f770000815250612b40565b90505b92915050565b6000828201838110156128fb576040805162461bcd60e51b815260206004820152601b60248201527f536166654d6174683a206164646974696f6e206f766572666c6f770000000000604482015290519081900360640190fd5b3390565b600082612971575060006128fe565b8282028284828161297e57fe5b04146128fb5760405162461bcd60e51b8152600401808060200182810382526021815260200180612e7c6021913960400191505060405180910390fd5b60006128fb83836040518060400160405280601a81526020017f536166654d6174683a206469766973696f6e206279207a65726f000000000000815250612bd7565b604080516001600160a01b038416602482015260448082018490528251808303909101815260649091019091526020810180516001600160e01b031663a9059cbb60e01b179052610c65908490612c3c565b604080517f19457468657265756d205369676e6564204d6573736167653a0a333200000000602080830191909152603c8083019490945282518083039094018452605c909101909152815191012090565b6001600160a01b038116612ae55760405162461bcd60e51b8152600401808060200182810382526026815260200180612e346026913960400191505060405180910390fd5b600080546040516001600160a01b03808516939216917f8be0079c531659141344cd1fd0a4f28419497f9722a3daafe3b4186f6b6457e091a3600080546001600160a01b0319166001600160a01b0392909216919091179055565b60008184841115612bcf5760405162461bcd60e51b81526004018080602001828103825283818151815260200191508051906020019080838360005b83811015612b94578181015183820152602001612b7c565b50505050905090810190601f168015612bc15780820380516001836020036101000a031916815260200191505b509250505060405180910390fd5b505050900390565b60008183612c265760405162461bcd60e51b8152602060048201818152835160248401528351909283926044909101919085019080838360008315612b94578181015183820152602001612b7c565b506000838581612c3257fe5b0495945050505050565b612c4e826001600160a01b0316612dfa565b612c9f576040805162461bcd60e51b815260206004820152601f60248201527f5361666545524332303a2063616c6c20746f206e6f6e2d636f6e747261637400604482015290519081900360640190fd5b60006060836001600160a01b0316836040518082805190602001908083835b60208310612cdd5780518252601f199092019160209182019101612cbe565b6001836020036101000a0380198251168184511680821785525050505050509050019150506000604051808303816000865af19150503d8060008114612d3f576040519150601f19603f3d011682016040523d82523d6000602084013e612d44565b606091505b509150915081612d9b576040805162461bcd60e51b815260206004820181905260248201527f5361666545524332303a206c6f772d6c6576656c2063616c6c206661696c6564604482015290519081900360640190fd5b805115612df457808060200190516020811015612db757600080fd5b5051612df45760405162461bcd60e51b815260040180806020018281038252602a815260200180612f01602a913960400191505060405180910390fd5b50505050565b6000813f7fc5d2460186f7233c927e7db2dcc703c0e500b653ca82273b7bfad8045d85a470818114801590610f1957505015159291505056fe4f776e61626c653a206e6577206f776e657220697320746865207a65726f2061646472657373696e76616c6964206d6178696d756d20707572636861736520666f72207469657232536166654d6174683a206d756c7469706c69636174696f6e206f766572666c6f77696e76616c6964206d6178696d756d20707572636861736520666f722074696572314f776e61626c653a2063616c6c6572206973206e6f7420746865206f776e6572696e76616c6964206d6178696d756d20707572636861736520666f722074696572335361666545524332303a204552433230206f7065726174696f6e20646964206e6f742073756363656564a2646970667358221220531a186cc68e8a4f2d8aabf78b06419568fc900e83ef2eff4b2c711e72e1647564736f6c63430006020033",
  "source": "pragma solidity >=0.6.0;\r\n\r\nimport \"@openzeppelin/contracts/token/ERC20/SafeERC20.sol\";\r\nimport \"@openzeppelin/contracts/math/SafeMath.sol\";\r\nimport \"@openzeppelin/contracts/ownership/Ownable.sol\";\r\nimport \"./ReentrancyGuard.sol\";\r\n\r\nlibrary ECDSA {\r\n    /**\r\n     * @dev Recover signer address from a message by using their signature\r\n     * @param hash bytes32 message, the hash is the signed message. What is recovered is the signer address.\r\n     * @param signature bytes signature, the signature is generated using web3.eth.sign()\r\n     */\r\n    function recover(bytes32 hash, bytes memory signature)\r\n        internal\r\n        pure\r\n        returns (address)\r\n    {\r\n        bytes32 r;\r\n        bytes32 s;\r\n        uint8 v;\r\n\r\n        // Check the signature length\r\n        if (signature.length != 65) {\r\n            return (address(0));\r\n        }\r\n\r\n        // Divide the signature in r, s and v variables with inline assembly.\r\n        assembly {\r\n            r := mload(add(signature, 0x20))\r\n            s := mload(add(signature, 0x40))\r\n            v := byte(0, mload(add(signature, 0x60)))\r\n        }\r\n\r\n        // Version of signature should be 27 or 28, but 0 and 1 are also possible versions\r\n        if (v < 27) {\r\n            v += 27;\r\n        }\r\n\r\n        // If the version is correct return the signer address\r\n        if (v != 27 && v != 28) {\r\n            return (address(0));\r\n        } else {\r\n            // solium-disable-next-line arg-overflow\r\n            return ecrecover(hash, v, r, s);\r\n        }\r\n    }\r\n\r\n    /**\r\n     * toEthSignedMessageHash\r\n     * @dev prefix a bytes32 value with \"\\x19Ethereum Signed Message:\"\r\n     * and hash the result\r\n     */\r\n    function toEthSignedMessageHash(bytes32 hash)\r\n        internal\r\n        pure\r\n        returns (bytes32)\r\n    {\r\n        return\r\n            keccak256(\r\n                abi.encodePacked(\"\\x19Ethereum Signed Message:\\n32\", hash)\r\n            );\r\n    }\r\n}\r\n\r\ncontract PolkabridgeLaunchPadV2 is Ownable, ReentrancyGuard {\r\n    string public name = \"PolkaBridge: LaunchPad V2\";\r\n    using SafeMath for uint256;\r\n    using SafeERC20 for IERC20;\r\n    using ECDSA for bytes32;\r\n\r\n    address payable private ReceiveToken;\r\n    uint256 MinimumStakeAmount;\r\n    struct IDOPool {\r\n        uint256 Id;\r\n        uint256 Begin;\r\n        uint256 End;\r\n        uint256 Type; //1: comminity round, 2 stackers round\r\n        IERC20 IDOToken;\r\n        uint256 MaxPurchaseTier1;\r\n        uint256 MaxPurchaseTier2; //==comminity tier\r\n        uint256 MaxPurchaseTier3;\r\n        uint256 MaxSpecialPurchase;\r\n        uint256 TotalCap;\r\n        uint256 MinimumTokenSoldout;\r\n        uint256 TotalToken; //total sale token for this pool\r\n        uint256 RatePerETH;\r\n        uint256 TotalSold; //total number of token sold\r\n        \r\n    }\r\n\r\n    struct ClaimInfo {\r\n        uint256 ClaimTime1;\r\n        uint256 PercentClaim1;\r\n        uint256 ClaimTime2;\r\n        uint256 PercentClaim2;\r\n        uint256 ClaimTime3;\r\n        uint256 PercentClaim3;\r\n        uint256 ClaimTime4;\r\n        uint256 PercentClaim4;\r\n        uint256 ClaimTime5;\r\n        uint256 PercentClaim5;\r\n    }\r\n\r\n    struct User {\r\n        uint256 Id;\r\n        address UserAddress;\r\n        bool IsWhitelist;\r\n        uint256 TotalTokenPurchase;\r\n        uint256 TotalETHPurchase;\r\n        uint256 PurchaseTime;\r\n        uint256 LastClaimed;\r\n        uint256 TotalPercentClaimed;\r\n        uint256 NumberClaimed;\r\n        bool IsActived;\r\n    }\r\n\r\n    mapping(uint256 => mapping(address => User)) public users; //poolid - listuser\r\n\r\n    IDOPool[] pools;\r\n\r\n    mapping(uint256 => ClaimInfo) public claimInfos; //pid\r\n\r\n    constructor(address payable receiveTokenAdd) public {\r\n        ReceiveToken = receiveTokenAdd;\r\n        MinimumStakeAmount=500*1e18;\r\n    }\r\n\r\n    function addMulWhitelist(address[] memory user, uint256 pid)\r\n        public\r\n        onlyOwner\r\n    {\r\n        for (uint256 i = 0; i < user.length; i++) {\r\n            users[pid][user[i]].Id = pid;\r\n            users[pid][user[i]].UserAddress = user[i];\r\n            users[pid][user[i]].IsWhitelist = true;\r\n            users[pid][user[i]].IsActived = true;\r\n        }\r\n    }\r\n\r\n    function updateWhitelist(\r\n        address user,\r\n        uint256 pid,\r\n        bool isWhitelist,\r\n        bool isActived\r\n    ) public onlyOwner {\r\n        users[pid][user].IsWhitelist = isWhitelist;\r\n        users[pid][user].IsActived = isActived;\r\n    }\r\n\r\n    function IsWhitelist(\r\n        address user,\r\n        uint256 pid,\r\n        uint256 stackAmount\r\n    ) public view returns (bool) {\r\n        uint256 poolIndex = pid.sub(1);\r\n        if (pools[poolIndex].Type == 1) // community round\r\n        {\r\n            return true;\r\n        } else if (pools[poolIndex].Type == 2) // stakers round\r\n        {\r\n            if (stackAmount >= MinimumStakeAmount) return true;\r\n            return false;\r\n        } else if (pools[poolIndex].Type == 3) //special round\r\n        {\r\n            if (users[poolIndex][user].IsWhitelist) return true;\r\n            return false;\r\n        } else {\r\n            return false;\r\n        }\r\n    }\r\n\r\n    function addPool(\r\n        uint256 begin,\r\n        uint256 end,\r\n        uint256 _type,\r\n        IERC20 idoToken,\r\n        uint256 maxPurchaseTier1,\r\n        uint256 maxPurchaseTier2,\r\n        uint256 maxPurchaseTier3,\r\n        uint256 maxSpecialPurchase,\r\n        uint256 totalCap,\r\n        uint256 totalToken,\r\n        uint256 ratePerETH,\r\n        uint256 minimumTokenSoldout\r\n       \r\n    ) public onlyOwner {\r\n        uint256 id = pools.length.add(1);\r\n        pools.push(\r\n            IDOPool({\r\n                Id: id,\r\n                Begin: begin,\r\n                End: end,\r\n                Type: _type,\r\n                IDOToken: idoToken,\r\n                MaxPurchaseTier1: maxPurchaseTier1,\r\n                MaxPurchaseTier2: maxPurchaseTier2,\r\n                MaxPurchaseTier3: maxPurchaseTier3,\r\n                MaxSpecialPurchase:maxSpecialPurchase,\r\n                TotalCap: totalCap,\r\n                TotalToken: totalToken,\r\n                RatePerETH: ratePerETH,\r\n                TotalSold: 0,\r\n                MinimumTokenSoldout: minimumTokenSoldout\r\n               \r\n            })\r\n        );\r\n    }\r\n\r\n    function addClaimInfo(\r\n        uint256 percentClaim1,\r\n        uint256 claimTime1,\r\n        uint256 percentClaim2,\r\n        uint256 claimTime2,\r\n        uint256 percentClaim3,\r\n        uint256 claimTime3,\r\n         uint256 percentClaim4,\r\n        uint256 claimTime4,\r\n         uint256 percentClaim5,\r\n        uint256 claimTime5,\r\n        uint256 pid\r\n    ) public onlyOwner {\r\n        claimInfos[pid].ClaimTime1 = claimTime1;\r\n        claimInfos[pid].PercentClaim1 = percentClaim1;\r\n        claimInfos[pid].ClaimTime2 = claimTime2;\r\n        claimInfos[pid].PercentClaim2 = percentClaim2;\r\n        claimInfos[pid].ClaimTime3 = claimTime3;\r\n        claimInfos[pid].PercentClaim3 = percentClaim3;\r\n        claimInfos[pid].ClaimTime4 = claimTime4;\r\n        claimInfos[pid].PercentClaim4 = percentClaim4;\r\n        claimInfos[pid].ClaimTime5 = claimTime5;\r\n        claimInfos[pid].PercentClaim5 = percentClaim5;\r\n    }\r\n\r\n    function updateClaimInfo(\r\n        uint256 percentClaim1,\r\n        uint256 claimTime1,\r\n        uint256 percentClaim2,\r\n        uint256 claimTime2,\r\n        uint256 percentClaim3,\r\n        uint256 claimTime3,\r\n          uint256 percentClaim4,\r\n        uint256 claimTime4,\r\n          uint256 percentClaim5,\r\n        uint256 claimTime5,\r\n        uint256 pid\r\n    ) public onlyOwner {\r\n        if (claimTime1 > 0) {\r\n            claimInfos[pid].ClaimTime1 = claimTime1;\r\n        }\r\n\r\n        if (percentClaim1 > 0) {\r\n            claimInfos[pid].PercentClaim1 = percentClaim1;\r\n        }\r\n        if (claimTime2 > 0) {\r\n            claimInfos[pid].ClaimTime2 = claimTime2;\r\n        }\r\n\r\n        if (percentClaim2 > 0) {\r\n            claimInfos[pid].PercentClaim2 = percentClaim2;\r\n        }\r\n\r\n        if (claimTime3 > 0) {\r\n            claimInfos[pid].ClaimTime3 = claimTime3;\r\n        }\r\n\r\n        if (percentClaim3 > 0) {\r\n            claimInfos[pid].PercentClaim3 = percentClaim3;\r\n        }\r\n\r\n          if (claimTime4 > 0) {\r\n            claimInfos[pid].ClaimTime4 = claimTime4;\r\n        }\r\n\r\n        if (percentClaim4 > 0) {\r\n            claimInfos[pid].PercentClaim4 = percentClaim4;\r\n        }\r\n\r\n           if (claimTime5 > 0) {\r\n            claimInfos[pid].ClaimTime5 = claimTime5;\r\n        }\r\n\r\n        if (percentClaim5 > 0) {\r\n            claimInfos[pid].PercentClaim5 = percentClaim5;\r\n        }\r\n    }\r\n\r\n    function updatePool(\r\n        uint256 pid,\r\n        uint256 begin,\r\n        uint256 end,\r\n        uint256 maxPurchaseTier1,\r\n        uint256 maxPurchaseTier2,\r\n        uint256 maxPurchaseTier3,\r\n         uint256 maxSpecialPurchase,\r\n        uint256 totalCap,\r\n        uint256 totalToken,\r\n        uint256 ratePerETH,\r\n        IERC20 idoToken,\r\n       \r\n        uint256 pooltype\r\n      \r\n    ) public onlyOwner {\r\n        uint256 poolIndex = pid.sub(1);\r\n        if (begin > 0) {\r\n            pools[poolIndex].Begin = begin;\r\n        }\r\n        if (end > 0) {\r\n            pools[poolIndex].End = end;\r\n        }\r\n\r\n        if (maxPurchaseTier1 > 0) {\r\n            pools[poolIndex].MaxPurchaseTier1 = maxPurchaseTier1;\r\n        }\r\n        if (maxPurchaseTier2 > 0) {\r\n            pools[poolIndex].MaxPurchaseTier2 = maxPurchaseTier2;\r\n        }\r\n        if (maxPurchaseTier3 > 0) {\r\n            pools[poolIndex].MaxPurchaseTier3 = maxPurchaseTier3;\r\n        }\r\n          if (maxSpecialPurchase > 0) {\r\n            pools[poolIndex].MaxSpecialPurchase = maxSpecialPurchase;\r\n        }\r\n        if (totalCap > 0) {\r\n            pools[poolIndex].TotalCap = totalCap;\r\n        }\r\n        if (totalToken > 0) {\r\n            pools[poolIndex].TotalToken = totalToken;\r\n        }\r\n        if (ratePerETH > 0) {\r\n            pools[poolIndex].RatePerETH = ratePerETH;\r\n        }\r\n\r\n       \r\n      \r\n        if (pooltype > 0) {\r\n            pools[poolIndex].Type = pooltype;\r\n        }\r\n        pools[poolIndex].IDOToken = idoToken;\r\n    }\r\n\r\n    function withdrawErc20(IERC20 token) public onlyOwner {\r\n        token.transfer(owner(), token.balanceOf(address(this)));\r\n    }\r\n\r\n    //withdraw ETH after IDO\r\n    function withdrawPoolFund() public onlyOwner {\r\n        uint256 balance = address(this).balance;\r\n        require(balance > 0, \"not enough fund\");\r\n        ReceiveToken.transfer(balance);\r\n    }\r\n\r\n    function purchaseIDO(\r\n        uint256 stakeAmount,\r\n        uint256 pid,\r\n        uint8 v,\r\n        bytes32 r,\r\n        bytes32 s\r\n    ) public payable nonReentrant {\r\n        uint256 poolIndex = pid.sub(1);\r\n\r\n        if (pools[poolIndex].Type == 2) {\r\n            bytes32 _hash = keccak256(abi.encodePacked(msg.sender, stakeAmount));\r\n            bytes32 messageHash = _hash.toEthSignedMessageHash();\r\n\r\n            require(\r\n                owner() == ecrecover(messageHash, v, r, s),\r\n                \"owner should sign purchase info\"\r\n            );\r\n        }\r\n\r\n        require(\r\n            block.timestamp >= pools[poolIndex].Begin &&\r\n                block.timestamp <= pools[poolIndex].End,\r\n            \"invalid time\"\r\n        );\r\n        //check user\r\n        require(IsWhitelist(msg.sender, pid, stakeAmount), \"invalid user\");\r\n\r\n        //check amount\r\n        uint256 ethAmount = msg.value;\r\n        users[pid][msg.sender].TotalETHPurchase = users[pid][msg.sender]\r\n            .TotalETHPurchase\r\n            .add(ethAmount);\r\n\r\n        if (pools[poolIndex].Type == 2) {\r\n            //stackers round\r\n            if (stakeAmount < 1500 * 1e18) {\r\n                require(\r\n                    users[pid][msg.sender].TotalETHPurchase <=\r\n                        pools[poolIndex].MaxPurchaseTier1,\r\n                    \"invalid maximum purchase for tier1\"\r\n                );\r\n            } else if (\r\n                stakeAmount >= 1500 * 1e18 && stakeAmount < 3000 * 1e18\r\n            ) {\r\n                require(\r\n                    users[pid][msg.sender].TotalETHPurchase <=\r\n                        pools[poolIndex].MaxPurchaseTier2,\r\n                    \"invalid maximum purchase for tier2\"\r\n                );\r\n            } else {\r\n                require(\r\n                    users[pid][msg.sender].TotalETHPurchase <=\r\n                        pools[poolIndex].MaxPurchaseTier3,\r\n                    \"invalid maximum purchase for tier3\"\r\n                );\r\n            }\r\n        } else if (pools[poolIndex].Type == 1) {\r\n            //community round\r\n\r\n            require(\r\n                users[pid][msg.sender].TotalETHPurchase <=\r\n                    pools[poolIndex].MaxPurchaseTier2,\r\n                \"invalid maximum contribute\"\r\n            );\r\n        } else {\r\n            //=3\r\n            require(\r\n                users[pid][msg.sender].TotalETHPurchase <=\r\n                    pools[poolIndex].MaxSpecialPurchase,\r\n                \"invalid maximum contribute\"\r\n            );\r\n        }\r\n\r\n        uint256 tokenAmount = ethAmount.mul(pools[poolIndex].RatePerETH).div(\r\n            1e18\r\n        );\r\n\r\n        uint256 remainToken = getRemainIDOToken(pid);\r\n        require(\r\n            remainToken > pools[poolIndex].MinimumTokenSoldout,\r\n            \"IDO sold out\"\r\n        );\r\n        require(remainToken >= tokenAmount, \"IDO sold out\");\r\n\r\n        users[pid][msg.sender].TotalTokenPurchase = users[pid][msg.sender]\r\n            .TotalTokenPurchase\r\n            .add(tokenAmount);\r\n\r\n        pools[poolIndex].TotalSold = pools[poolIndex].TotalSold.add(\r\n            tokenAmount\r\n        );\r\n    }\r\n\r\n    function claimToken(uint256 pid) public nonReentrant {\r\n        require(\r\n            users[pid][msg.sender].TotalPercentClaimed < 100,\r\n            \"you have claimed enough\"\r\n        );\r\n        uint256 userBalance = getUserTotalPurchase(pid);\r\n        require(userBalance > 0, \"invalid claim\");\r\n\r\n        uint256 poolIndex = pid.sub(1);\r\n        if (users[pid][msg.sender].NumberClaimed == 0) {\r\n            require(\r\n                block.timestamp >= claimInfos[poolIndex].ClaimTime1,\r\n                \"invalid time\"\r\n            );\r\n            pools[poolIndex].IDOToken.safeTransfer(\r\n                msg.sender,\r\n                userBalance.mul(claimInfos[poolIndex].PercentClaim1).div(100)\r\n            );\r\n          users[pid][msg.sender].TotalPercentClaimed=  users[pid][msg.sender].TotalPercentClaimed.add(\r\n                claimInfos[poolIndex].PercentClaim1\r\n            );\r\n        } else if (users[pid][msg.sender].NumberClaimed == 1) {\r\n            require(\r\n                block.timestamp >= claimInfos[poolIndex].ClaimTime2,\r\n                \"invalid time\"\r\n            );\r\n            pools[poolIndex].IDOToken.safeTransfer(\r\n                msg.sender,\r\n                userBalance.mul(claimInfos[poolIndex].PercentClaim2).div(100)\r\n            );\r\n            users[pid][msg.sender].TotalPercentClaimed=users[pid][msg.sender].TotalPercentClaimed.add(\r\n                claimInfos[poolIndex].PercentClaim2\r\n            );\r\n        } else if (users[pid][msg.sender].NumberClaimed == 2) {\r\n            require(\r\n                block.timestamp >= claimInfos[poolIndex].ClaimTime3,\r\n                \"invalid time\"\r\n            );\r\n            pools[poolIndex].IDOToken.safeTransfer(\r\n                msg.sender,\r\n                userBalance.mul(claimInfos[poolIndex].PercentClaim3).div(100)\r\n            );\r\n           users[pid][msg.sender].TotalPercentClaimed= users[pid][msg.sender].TotalPercentClaimed.add(\r\n                claimInfos[poolIndex].PercentClaim3\r\n            );\r\n        }\r\n\r\n         else if (users[pid][msg.sender].NumberClaimed == 3) {\r\n            require(\r\n                block.timestamp >= claimInfos[poolIndex].ClaimTime4,\r\n                \"invalid time\"\r\n            );\r\n            pools[poolIndex].IDOToken.safeTransfer(\r\n                msg.sender,\r\n                userBalance.mul(claimInfos[poolIndex].PercentClaim4).div(100)\r\n            );\r\n           users[pid][msg.sender].TotalPercentClaimed= users[pid][msg.sender].TotalPercentClaimed.add(\r\n                claimInfos[poolIndex].PercentClaim4\r\n            );\r\n        }\r\n         else if (users[pid][msg.sender].NumberClaimed == 4) {\r\n            require(\r\n                block.timestamp >= claimInfos[poolIndex].ClaimTime5,\r\n                \"invalid time\"\r\n            );\r\n            pools[poolIndex].IDOToken.safeTransfer(\r\n                msg.sender,\r\n                userBalance.mul(claimInfos[poolIndex].PercentClaim5).div(100)\r\n            );\r\n           users[pid][msg.sender].TotalPercentClaimed= users[pid][msg.sender].TotalPercentClaimed.add(\r\n                claimInfos[poolIndex].PercentClaim5\r\n            );\r\n        }\r\n\r\n        users[pid][msg.sender].LastClaimed = block.timestamp;\r\n        users[pid][msg.sender].NumberClaimed=users[pid][msg.sender].NumberClaimed.add(1);\r\n    }\r\n\r\n    function getUserTotalPurchase(uint256 pid) public view returns (uint256) {\r\n        return users[pid][msg.sender].TotalTokenPurchase;\r\n    }\r\n\r\n    function getRemainIDOToken(uint256 pid) public view returns (uint256) {\r\n        uint256 poolIndex = pid.sub(1);\r\n        uint256 tokenBalance = getBalanceTokenByPoolId(pid);\r\n        if (pools[poolIndex].TotalSold > tokenBalance) {\r\n            return 0;\r\n        }\r\n\r\n        return tokenBalance.sub(pools[poolIndex].TotalSold);\r\n    }\r\n\r\n    function getBalanceTokenByPoolId(uint256 pid)\r\n        public\r\n        view\r\n        returns (uint256)\r\n    {\r\n        uint256 poolIndex = pid.sub(1);\r\n\r\n        return pools[poolIndex].TotalToken;\r\n    }\r\n\r\n    function getPoolInfo(uint256 pid)\r\n        public\r\n        view\r\n        returns (\r\n            uint256,\r\n            uint256,\r\n            uint256,\r\n            uint256,\r\n            uint256,\r\n            IERC20\r\n        )\r\n    {\r\n        uint256 poolIndex = pid.sub(1);\r\n        return (\r\n            pools[poolIndex].Begin,\r\n            pools[poolIndex].End,\r\n            pools[poolIndex].Type,\r\n            pools[poolIndex].RatePerETH,\r\n            pools[poolIndex].TotalSold,\r\n            pools[poolIndex].IDOToken\r\n        );\r\n    }\r\n\r\n    function getClaimInfo(uint256 pid)\r\n        public\r\n        view\r\n        returns (\r\n            uint256,\r\n            uint256,\r\n            uint256,\r\n            uint256,\r\n            uint256,\r\n            uint256\r\n        )\r\n    {\r\n        uint256 poolIndex = pid.sub(1);\r\n        return (\r\n            claimInfos[poolIndex].ClaimTime1,\r\n            claimInfos[poolIndex].PercentClaim1,\r\n            claimInfos[poolIndex].ClaimTime2,\r\n            claimInfos[poolIndex].PercentClaim2,\r\n            claimInfos[poolIndex].ClaimTime3,\r\n            claimInfos[poolIndex].PercentClaim3\r\n        );\r\n    }\r\n\r\n    function getPoolSoldInfo(uint256 pid) public view returns (uint256) {\r\n        uint256 poolIndex = pid.sub(1);\r\n        return (pools[poolIndex].TotalSold);\r\n    }\r\n\r\n    function getWhitelistfo(uint256 pid)\r\n        public\r\n        view\r\n        returns (\r\n            address,\r\n            bool,\r\n            uint256,\r\n            uint256\r\n        )\r\n    {\r\n        return (\r\n            users[pid][msg.sender].UserAddress,\r\n            users[pid][msg.sender].IsWhitelist,\r\n            users[pid][msg.sender].TotalTokenPurchase,\r\n            users[pid][msg.sender].TotalETHPurchase\r\n        );\r\n    }\r\n\r\n    function getUserInfo(uint256 pid, address user)\r\n        public\r\n        view\r\n        returns (\r\n            bool,\r\n            uint256,\r\n            uint256,\r\n            uint256\r\n        )\r\n    {\r\n        return (\r\n            users[pid][user].IsWhitelist,\r\n            users[pid][user].TotalTokenPurchase,\r\n            users[pid][user].TotalETHPurchase,\r\n            users[pid][user].TotalPercentClaimed\r\n        );\r\n    }\r\n\r\n    \r\n}\r\n",
  "sourcePath": "C:\\Users\\Thanh Phi\\Desktop\\PolkaBridgeSolution\\PolkaBridge-LaunchPad\\contracts\\PolkabridgeLaunchPadV2.sol",
  "compiler": {
    "name": "solc",
    "version": "0.6.2+commit.bacdbe57.Emscripten.clang"
  },
  "schemaVersion": "3.4.3",
  "updatedAt": "2021-11-23T16:06:39.169Z",
  "devdoc": {
    "methods": {
      "isOwner()": {
        "details": "Returns true if the caller is the current owner."
      },
      "owner()": {
        "details": "Returns the address of the current owner."
      },
      "renounceOwnership()": {
        "details": "Leaves the contract without owner. It will not be possible to call `onlyOwner` functions anymore. Can only be called by the current owner.     * NOTE: Renouncing ownership will leave the contract without an owner, thereby removing any functionality that is only available to the owner."
      },
      "transferOwnership(address)": {
        "details": "Transfers ownership of the contract to a new account (`newOwner`). Can only be called by the current owner."
      }
    }
  },
  "userdoc": {
    "methods": {}
  }
}