{
  "contractName": "PolkaBridgeLaunchPad",
  "abi": [
    {
      "inputs": [
        {
          "internalType": "address payable",
          "name": "receiveTokenAdd",
          "type": "address"
        },
        {
          "internalType": "contract IERC20",
          "name": "polkaBridge",
          "type": "address"
        },
        {
          "internalType": "contract PolkaBridgeStaking",
          "name": "_polkaBridgeStaking",
          "type": "address"
        }
      ],
      "stateMutability": "nonpayable",
      "type": "constructor"
    },
    {
      "anonymous": false,
      "inputs": [
        {
          "indexed": true,
          "internalType": "address",
          "name": "previousOwner",
          "type": "address"
        },
        {
          "indexed": true,
          "internalType": "address",
          "name": "newOwner",
          "type": "address"
        }
      ],
      "name": "OwnershipTransferred",
      "type": "event"
    },
    {
      "inputs": [],
      "name": "isOwner",
      "outputs": [
        {
          "internalType": "bool",
          "name": "",
          "type": "bool"
        }
      ],
      "stateMutability": "view",
      "type": "function"
    },
    {
      "inputs": [],
      "name": "name",
      "outputs": [
        {
          "internalType": "string",
          "name": "",
          "type": "string"
        }
      ],
      "stateMutability": "view",
      "type": "function"
    },
    {
      "inputs": [],
      "name": "owner",
      "outputs": [
        {
          "internalType": "address",
          "name": "",
          "type": "address"
        }
      ],
      "stateMutability": "view",
      "type": "function"
    },
    {
      "inputs": [],
      "name": "renounceOwnership",
      "outputs": [],
      "stateMutability": "nonpayable",
      "type": "function"
    },
    {
      "inputs": [
        {
          "internalType": "address",
          "name": "newOwner",
          "type": "address"
        }
      ],
      "name": "transferOwnership",
      "outputs": [],
      "stateMutability": "nonpayable",
      "type": "function"
    },
    {
      "inputs": [
        {
          "internalType": "uint256",
          "name": "",
          "type": "uint256"
        },
        {
          "internalType": "address",
          "name": "",
          "type": "address"
        }
      ],
      "name": "whitelist",
      "outputs": [
        {
          "internalType": "uint256",
          "name": "Id",
          "type": "uint256"
        },
        {
          "internalType": "address",
          "name": "UserAddress",
          "type": "address"
        },
        {
          "internalType": "bool",
          "name": "IsWhitelist",
          "type": "bool"
        },
        {
          "internalType": "uint256",
          "name": "TotalTokenPurchase",
          "type": "uint256"
        },
        {
          "internalType": "uint256",
          "name": "TotalETHPurchase",
          "type": "uint256"
        },
        {
          "internalType": "uint256",
          "name": "PurchaseTime",
          "type": "uint256"
        },
        {
          "internalType": "bool",
          "name": "IsActived",
          "type": "bool"
        },
        {
          "internalType": "bool",
          "name": "IsClaimed",
          "type": "bool"
        }
      ],
      "stateMutability": "view",
      "type": "function"
    },
    {
      "inputs": [
        {
          "internalType": "address",
          "name": "user",
          "type": "address"
        },
        {
          "internalType": "uint256",
          "name": "pid",
          "type": "uint256"
        }
      ],
      "name": "addWhitelist",
      "outputs": [],
      "stateMutability": "nonpayable",
      "type": "function"
    },
    {
      "inputs": [
        {
          "internalType": "address[]",
          "name": "user",
          "type": "address[]"
        },
        {
          "internalType": "uint256",
          "name": "pid",
          "type": "uint256"
        }
      ],
      "name": "addMulWhitelist",
      "outputs": [],
      "stateMutability": "nonpayable",
      "type": "function"
    },
    {
      "inputs": [
        {
          "internalType": "address",
          "name": "user",
          "type": "address"
        },
        {
          "internalType": "uint256",
          "name": "pid",
          "type": "uint256"
        },
        {
          "internalType": "bool",
          "name": "isWhitelist",
          "type": "bool"
        },
        {
          "internalType": "bool",
          "name": "isActived",
          "type": "bool"
        }
      ],
      "name": "updateWhitelist",
      "outputs": [],
      "stateMutability": "nonpayable",
      "type": "function"
    },
    {
      "inputs": [
        {
          "internalType": "address",
          "name": "user",
          "type": "address"
        },
        {
          "internalType": "uint256",
          "name": "pid",
          "type": "uint256"
        }
      ],
      "name": "IsWhitelist",
      "outputs": [
        {
          "internalType": "bool",
          "name": "",
          "type": "bool"
        }
      ],
      "stateMutability": "view",
      "type": "function"
    },
    {
      "inputs": [
        {
          "internalType": "address",
          "name": "user",
          "type": "address"
        },
        {
          "internalType": "uint256",
          "name": "poolId",
          "type": "uint256"
        }
      ],
      "name": "getUserStakingData",
      "outputs": [
        {
          "internalType": "uint256",
          "name": "amount",
          "type": "uint256"
        },
        {
          "internalType": "uint256",
          "name": "rewardDebt",
          "type": "uint256"
        },
        {
          "internalType": "uint256",
          "name": "rewardClaimed",
          "type": "uint256"
        },
        {
          "internalType": "uint256",
          "name": "lastBlock",
          "type": "uint256"
        },
        {
          "internalType": "uint256",
          "name": "beginTime",
          "type": "uint256"
        },
        {
          "internalType": "uint256",
          "name": "endTime",
          "type": "uint256"
        }
      ],
      "stateMutability": "view",
      "type": "function"
    },
    {
      "inputs": [
        {
          "internalType": "uint256",
          "name": "begin",
          "type": "uint256"
        },
        {
          "internalType": "uint256",
          "name": "end",
          "type": "uint256"
        },
        {
          "internalType": "uint256",
          "name": "_type",
          "type": "uint256"
        },
        {
          "internalType": "contract IERC20",
          "name": "idoToken",
          "type": "address"
        },
        {
          "internalType": "uint256",
          "name": "maxPurchaseTier1",
          "type": "uint256"
        },
        {
          "internalType": "uint256",
          "name": "maxPurchaseTier2",
          "type": "uint256"
        },
        {
          "internalType": "uint256",
          "name": "maxPurchaseTier3",
          "type": "uint256"
        },
        {
          "internalType": "uint256",
          "name": "totalCap",
          "type": "uint256"
        },
        {
          "internalType": "uint256",
          "name": "totalToken",
          "type": "uint256"
        },
        {
          "internalType": "uint256",
          "name": "ratePerETH",
          "type": "uint256"
        },
        {
          "internalType": "uint256",
          "name": "lockDuration",
          "type": "uint256"
        },
        {
          "internalType": "uint256",
          "name": "minimumTokenSoldout",
          "type": "uint256"
        }
      ],
      "name": "addPool",
      "outputs": [],
      "stateMutability": "nonpayable",
      "type": "function"
    },
    {
      "inputs": [
        {
          "internalType": "uint256",
          "name": "pid",
          "type": "uint256"
        },
        {
          "internalType": "uint256",
          "name": "begin",
          "type": "uint256"
        },
        {
          "internalType": "uint256",
          "name": "end",
          "type": "uint256"
        },
        {
          "internalType": "uint256",
          "name": "maxPurchaseTier1",
          "type": "uint256"
        },
        {
          "internalType": "uint256",
          "name": "maxPurchaseTier2",
          "type": "uint256"
        },
        {
          "internalType": "uint256",
          "name": "maxPurchaseTier3",
          "type": "uint256"
        },
        {
          "internalType": "uint256",
          "name": "totalCap",
          "type": "uint256"
        },
        {
          "internalType": "uint256",
          "name": "totalToken",
          "type": "uint256"
        },
        {
          "internalType": "uint256",
          "name": "ratePerETH",
          "type": "uint256"
        },
        {
          "internalType": "uint256",
          "name": "lockDuration",
          "type": "uint256"
        },
        {
          "internalType": "contract IERC20",
          "name": "idoToken",
          "type": "address"
        },
        {
          "internalType": "uint256",
          "name": "minimumTokenSoldout",
          "type": "uint256"
        },
        {
          "internalType": "uint256",
          "name": "pooltype",
          "type": "uint256"
        }
      ],
      "name": "updatePool",
      "outputs": [],
      "stateMutability": "nonpayable",
      "type": "function"
    },
    {
      "inputs": [
        {
          "internalType": "uint256",
          "name": "pid",
          "type": "uint256"
        }
      ],
      "name": "stopPool",
      "outputs": [],
      "stateMutability": "nonpayable",
      "type": "function"
    },
    {
      "inputs": [
        {
          "internalType": "uint256",
          "name": "pid",
          "type": "uint256"
        }
      ],
      "name": "activePool",
      "outputs": [],
      "stateMutability": "nonpayable",
      "type": "function"
    },
    {
      "inputs": [
        {
          "internalType": "contract IERC20",
          "name": "token",
          "type": "address"
        }
      ],
      "name": "withdrawErc20",
      "outputs": [],
      "stateMutability": "nonpayable",
      "type": "function"
    },
    {
      "inputs": [],
      "name": "withdrawPoolFund",
      "outputs": [],
      "stateMutability": "nonpayable",
      "type": "function"
    },
    {
      "inputs": [
        {
          "internalType": "uint256",
          "name": "pid",
          "type": "uint256"
        }
      ],
      "name": "purchaseIDO",
      "outputs": [],
      "stateMutability": "payable",
      "type": "function"
    },
    {
      "inputs": [
        {
          "internalType": "uint256",
          "name": "pid",
          "type": "uint256"
        }
      ],
      "name": "claimToken",
      "outputs": [],
      "stateMutability": "nonpayable",
      "type": "function"
    },
    {
      "inputs": [
        {
          "internalType": "uint256",
          "name": "pid",
          "type": "uint256"
        }
      ],
      "name": "getUserTotalPurchase",
      "outputs": [
        {
          "internalType": "uint256",
          "name": "",
          "type": "uint256"
        }
      ],
      "stateMutability": "view",
      "type": "function"
    },
    {
      "inputs": [
        {
          "internalType": "uint256",
          "name": "pid",
          "type": "uint256"
        }
      ],
      "name": "getRemainIDOToken",
      "outputs": [
        {
          "internalType": "uint256",
          "name": "",
          "type": "uint256"
        }
      ],
      "stateMutability": "view",
      "type": "function"
    },
    {
      "inputs": [
        {
          "internalType": "uint256",
          "name": "pid",
          "type": "uint256"
        }
      ],
      "name": "getBalanceTokenByPoolId",
      "outputs": [
        {
          "internalType": "uint256",
          "name": "",
          "type": "uint256"
        }
      ],
      "stateMutability": "view",
      "type": "function"
    },
    {
      "inputs": [
        {
          "internalType": "uint256",
          "name": "pid",
          "type": "uint256"
        }
      ],
      "name": "getPoolInfo",
      "outputs": [
        {
          "internalType": "uint256",
          "name": "",
          "type": "uint256"
        },
        {
          "internalType": "uint256",
          "name": "",
          "type": "uint256"
        },
        {
          "internalType": "uint256",
          "name": "",
          "type": "uint256"
        },
        {
          "internalType": "uint256",
          "name": "",
          "type": "uint256"
        },
        {
          "internalType": "uint256",
          "name": "",
          "type": "uint256"
        },
        {
          "internalType": "uint256",
          "name": "",
          "type": "uint256"
        },
        {
          "internalType": "bool",
          "name": "",
          "type": "bool"
        },
        {
          "internalType": "contract IERC20",
          "name": "",
          "type": "address"
        }
      ],
      "stateMutability": "view",
      "type": "function"
    },
    {
      "inputs": [
        {
          "internalType": "uint256",
          "name": "pid",
          "type": "uint256"
        }
      ],
      "name": "getPoolSoldInfo",
      "outputs": [
        {
          "internalType": "uint256",
          "name": "",
          "type": "uint256"
        },
        {
          "internalType": "uint256",
          "name": "",
          "type": "uint256"
        }
      ],
      "stateMutability": "view",
      "type": "function"
    },
    {
      "inputs": [
        {
          "internalType": "uint256",
          "name": "pid",
          "type": "uint256"
        }
      ],
      "name": "getWhitelistfo",
      "outputs": [
        {
          "internalType": "address",
          "name": "",
          "type": "address"
        },
        {
          "internalType": "bool",
          "name": "",
          "type": "bool"
        },
        {
          "internalType": "uint256",
          "name": "",
          "type": "uint256"
        },
        {
          "internalType": "uint256",
          "name": "",
          "type": "uint256"
        },
        {
          "internalType": "bool",
          "name": "",
          "type": "bool"
        }
      ],
      "stateMutability": "view",
      "type": "function"
    },
    {
      "inputs": [
        {
          "internalType": "uint256",
          "name": "pid",
          "type": "uint256"
        },
        {
          "internalType": "address",
          "name": "user",
          "type": "address"
        }
      ],
      "name": "getUserInfo",
      "outputs": [
        {
          "internalType": "bool",
          "name": "",
          "type": "bool"
        },
        {
          "internalType": "uint256",
          "name": "",
          "type": "uint256"
        },
        {
          "internalType": "uint256",
          "name": "",
          "type": "uint256"
        },
        {
          "internalType": "bool",
          "name": "",
          "type": "bool"
        }
      ],
      "stateMutability": "view",
      "type": "function"
    }
  ],
  "bytecode": "0x60c0604052601660808190527f506f6c6b614272696467653a204c61756e63685061640000000000000000000060a090815262000040916002919062000130565b503480156200004e57600080fd5b5060405162002ba238038062002ba2833981810160405260608110156200007457600080fd5b508051602082015160409092015190919060006200009a6001600160e01b036200012b16565b600080546001600160a01b0319166001600160a01b0383169081178255604051929350917f8be0079c531659141344cd1fd0a4f28419497f9722a3daafe3b4186f6b6457e0908290a35060018055600580546001600160a01b039485166001600160a01b031991821617909155600380549385169382169390931790925560048054919093169116179055620001d2565b335b90565b828054600181600116156101000203166002900490600052602060002090601f016020900481019282601f106200017357805160ff1916838001178555620001a3565b82800160010185558215620001a3579182015b82811115620001a357825182559160200191906001019062000186565b50620001b1929150620001b5565b5090565b6200012d91905b80821115620001b15760008155600101620001bc565b6129c080620001e26000396000f3fe6080604052600436106101815760003560e01c8063715018a6116100d1578063b39d90091161008a578063c734e25311610064578063c734e2531461080c578063c7e42b1b1461084f578063d70c33c814610882578063f2fde38b146108cb57610181565b8063b39d900914610748578063b7de030314610781578063c30ef487146107ab57610181565b8063715018a61461064c5780638da5cb5b146106615780638f32d59b146106925780639c131806146106bb578063a48ebe82146106f4578063a9e7c2e51461071e57610181565b80631f4552cb1161013e578063392560dd11610118578063392560dd146104a15780634b25bfce1461052257806350933d4d146105a85780635729bd4c1461062257610181565b80631f4552cb146103da5780632561ae02146103ef5780632f380b351461042b57610181565b806306fdde03146101865780630b17c673146102105780630f4d03571461027c5780631069f3b5146102a85780631a1623181461030b5780631a1d69ec14610328575b600080fd5b34801561019257600080fd5b5061019b6108fe565b6040805160208082528351818301528351919283929083019185019080838360005b838110156101d55781810151838201526020016101bd565b50505050905090810190601f1680156102025780820380516001836020036101000a031916815260200191505b509250505060405180910390f35b34801561021c57600080fd5b506102496004803603604081101561023357600080fd5b506001600160a01b038135169060200135610989565b604080519687526020870195909552858501939093526060850191909152608084015260a0830152519081900360c00190f35b34801561028857600080fd5b506102a66004803603602081101561029f57600080fd5b5035610a46565b005b3480156102b457600080fd5b506102e1600480360360408110156102cb57600080fd5b50803590602001356001600160a01b0316610ad7565b60408051941515855260208501939093528383019190915215156060830152519081900360800190f35b6102a66004803603602081101561032157600080fd5b5035610b2a565b34801561033457600080fd5b506102a66004803603604081101561034b57600080fd5b81019060208101813564010000000081111561036657600080fd5b82018360208201111561037857600080fd5b8035906020019184602083028401116401000000008311171561039a57600080fd5b9190808060200260200160405190810160405280939291908181526020018383602002808284376000920191909152509295505091359250611213915050565b3480156103e657600080fd5b506102a6611402565b3480156103fb57600080fd5b506104196004803603602081101561041257600080fd5b50356114cc565b60408051918252519081900360200190f35b34801561043757600080fd5b506104556004803603602081101561044e57600080fd5b503561155b565b604080519889526020890197909752878701959095526060870193909352608086019190915260a0850152151560c08401526001600160a01b031660e083015251908190036101000190f35b3480156104ad57600080fd5b506102a660048036036101a08110156104c557600080fd5b5080359060208101359060408101359060608101359060808101359060a08101359060c08101359060e08101359061010081013590610120810135906001600160a01b0361014082013516906101608101359061018001356116ac565b34801561052e57600080fd5b5061055b6004803603604081101561054557600080fd5b50803590602001356001600160a01b0316611929565b604080519889526001600160a01b039097166020890152941515878701526060870193909352608086019190915260a0850152151560c0840152151560e083015251908190036101000190f35b3480156105b457600080fd5b506102a660048036036101808110156105cc57600080fd5b508035906020810135906040810135906001600160a01b036060820135169060808101359060a08101359060c08101359060e0810135906101008101359061012081013590610140810135906101600135611985565b34801561062e57600080fd5b506102a66004803603602081101561064557600080fd5b5035611cd8565b34801561065857600080fd5b506102a6611d43565b34801561066d57600080fd5b50610676611dd4565b604080516001600160a01b039092168252519081900360200190f35b34801561069e57600080fd5b506106a7611de3565b604080519115158252519081900360200190f35b3480156106c757600080fd5b506106a7600480360360408110156106de57600080fd5b506001600160a01b038135169060200135611e07565b34801561070057600080fd5b506104196004803603602081101561071757600080fd5b5035611f47565b34801561072a57600080fd5b506102a66004803603602081101561074157600080fd5b5035611f67565b34801561075457600080fd5b506102a66004803603604081101561076b57600080fd5b506001600160a01b03813516906020013561220a565b34801561078d57600080fd5b50610419600480360360208110156107a457600080fd5b50356122b3565b3480156107b757600080fd5b506107d5600480360360208110156107ce57600080fd5b50356122f0565b604080516001600160a01b039096168652931515602086015284840192909252606084015215156080830152519081900360a00190f35b34801561081857600080fd5b506108366004803603602081101561082f57600080fd5b5035612343565b6040805192835260208301919091528051918290030190f35b34801561085b57600080fd5b506102a66004803603602081101561087257600080fd5b50356001600160a01b03166123a2565b34801561088e57600080fd5b506102a6600480360360808110156108a557600080fd5b506001600160a01b038135169060208101359060408101351515906060013515156124eb565b3480156108d757600080fd5b506102a6600480360360208110156108ee57600080fd5b50356001600160a01b031661258c565b6002805460408051602060018416156101000260001901909316849004601f810184900484028201840190925281815292918301828280156109815780601f1061095657610100808354040283529160200191610981565b820191906000526020600020905b81548152906001019060200180831161096457829003601f168201915b505050505081565b60048054604080516393f1a40b60e01b81529283018490526001600160a01b03858116602485015290516000938493849384938493849392909216916393f1a40b9160448083019260c0929190829003018186803b1580156109ea57600080fd5b505afa1580156109fe573d6000803e3d6000fd5b505050506040513d60c0811015610a1457600080fd5b508051602082015160408301516060840151608085015160a090950151939d929c50909a509850919650945092505050565b610a4e611de3565b610a8d576040805162461bcd60e51b81526020600482018190526024820152600080516020612949833981519152604482015290519081900360640190fd5b6000610aa082600163ffffffff6125df16565b9050600060078281548110610ab157fe5b60009182526020909120600f90910201600c01805460ff19169115159190911790555050565b60009182526006602090815260408084206001600160a01b039390931684529190529020600181015460028201546003830154600590930154600160a01b90920460ff9081169491939261010090041690565b60026001541415610b82576040805162461bcd60e51b815260206004820152601f60248201527f5265656e7472616e637947756172643a207265656e7472616e742063616c6c00604482015290519081900360640190fd5b60026001908155600090610b9d90839063ffffffff6125df16565b905060078181548110610bac57fe5b60009182526020909120600c600f90920201015460ff16610c03576040805162461bcd60e51b815260206004820152600c60248201526b1a5b9d985b1a59081c1bdbdb60a21b604482015290519081900360640190fd5b60078181548110610c1057fe5b90600052602060002090600f0201600101544210158015610c4f575060078181548110610c3957fe5b90600052602060002090600f0201600201544211155b610c8f576040805162461bcd60e51b815260206004820152600c60248201526b696e76616c69642074696d6560a01b604482015290519081900360640190fd5b610c993383611e07565b610cd9576040805162461bcd60e51b815260206004820152600c60248201526b34b73b30b634b2103ab9b2b960a11b604482015290519081900360640190fd5b60008281526006602090815260408083203384529091529020600301543490610d08908263ffffffff61262816565b60008481526006602090815260408083203384529091529020600301556007805483908110610d3357fe5b90600052602060002090600f02016003015460021415610f1d57600080600080600080610d61336000610989565b955095509550955095509550685150ae84a8cdf00000861015610dfc5760078881548110610d8b57fe5b600091825260208083206005600f9093020191909101548b83526006825260408084203385529092529120600301541115610df75760405162461bcd60e51b81526004018080602001828103825260228152602001806129276022913960400191505060405180910390fd5b610f12565b685150ae84a8cdf000008610158015610e1d575068a2a15d09519be0000086105b15610e995760078881548110610e2f57fe5b600091825260208083206006600f909302018201548c84529181526040808420338552909152909120600301541115610df75760405162461bcd60e51b81526004018080602001828103825260228152602001806128e46022913960400191505060405180910390fd5b60078881548110610ea657fe5b600091825260208083206007600f9093020191909101548b83526006825260408084203385529092529120600301541115610f125760405162461bcd60e51b81526004018080602001828103825260228152602001806129696022913960400191505060405180910390fd5b50505050505061106a565b60078281548110610f2a57fe5b90600052602060002090600f02016003015460011415610fd65760078281548110610f5157fe5b600091825260208083206006600f909302018201548684529181526040808420338552909152909120600301541115610fd1576040805162461bcd60e51b815260206004820152601a60248201527f696e76616c6964206d6178696d756d20636f6e74726962757465000000000000604482015290519081900360640190fd5b61106a565b60078281548110610fe357fe5b600091825260208083206007600f9093020191909101548583526006825260408084203385529092529120600301546002909102101561106a576040805162461bcd60e51b815260206004820152601a60248201527f696e76616c6964206d6178696d756d20636f6e74726962757465000000000000604482015290519081900360640190fd5b60006110b5670de0b6b3a76400006110a96007868154811061108857fe5b90600052602060002090600f0201600b01548561268290919063ffffffff16565b9063ffffffff6126db16565b905060006110c2856114cc565b9050600784815481106110d157fe5b90600052602060002090600f0201600901548111611125576040805162461bcd60e51b815260206004820152600c60248201526b125113c81cdbdb19081bdd5d60a21b604482015290519081900360640190fd5b81811015611169576040805162461bcd60e51b815260206004820152600c60248201526b125113c81cdbdb19081bdd5d60a21b604482015290519081900360640190fd5b6000858152600660209081526040808320338452909152902060020154611196908363ffffffff61262816565b6000868152600660209081526040808320338452909152902060020155600780546111e7918491879081106111c757fe5b90600052602060002090600f0201600e015461262890919063ffffffff16565b600785815481106111f457fe5b60009182526020909120600e600f909202010155505060018055505050565b61121b611de3565b61125a576040805162461bcd60e51b81526020600482018190526024820152600080516020612949833981519152604482015290519081900360640190fd5b60005b82518110156113fd576000828152600660205260408120845184929086908590811061128557fe5b60200260200101516001600160a01b03166001600160a01b03168152602001908152602001600020600001819055508281815181106112c057fe5b60200260200101516006600084815260200190815260200160002060008584815181106112e957fe5b60200260200101516001600160a01b03166001600160a01b0316815260200190815260200160002060010160006101000a8154816001600160a01b0302191690836001600160a01b03160217905550600160066000848152602001908152602001600020600085848151811061135b57fe5b60200260200101516001600160a01b03166001600160a01b0316815260200190815260200160002060010160146101000a81548160ff02191690831515021790555060016006600084815260200190815260200160002060008584815181106113c057fe5b6020908102919091018101516001600160a01b03168252810191909152604001600020600501805460ff191691151591909117905560010161125d565b505050565b61140a611de3565b611449576040805162461bcd60e51b81526020600482018190526024820152600080516020612949833981519152604482015290519081900360640190fd5b478061148e576040805162461bcd60e51b815260206004820152600f60248201526e1b9bdd08195b9bdd59da08199d5b99608a1b604482015290519081900360640190fd5b6005546040516001600160a01b039091169082156108fc029083906000818181858888f193505050501580156114c8573d6000803e3d6000fd5b5050565b6000806114e083600163ffffffff6125df16565b905060006114ed846122b3565b905080600783815481106114fd57fe5b90600052602060002090600f0201600e0154111561152057600092505050611556565b6115516007838154811061153057fe5b90600052602060002090600f0201600e0154826125df90919063ffffffff16565b925050505b919050565b600080808080808080806115768a600163ffffffff6125df16565b90506007818154811061158557fe5b90600052602060002090600f020160010154600782815481106115a457fe5b90600052602060002090600f020160020154600783815481106115c357fe5b90600052602060002090600f020160030154600784815481106115e257fe5b90600052602060002090600f0201600b01546007858154811061160157fe5b90600052602060002090600f0201600d01546007868154811061162057fe5b90600052602060002090600f0201600e01546007878154811061163f57fe5b90600052602060002090600f0201600c0160009054906101000a900460ff166007888154811061166b57fe5b90600052602060002090600f020160040160009054906101000a90046001600160a01b03169850985098509850985098509850985050919395975091939597565b6116b4611de3565b6116f3576040805162461bcd60e51b81526020600482018190526024820152600080516020612949833981519152604482015290519081900360640190fd5b60006117068e600163ffffffff6125df16565b90508c15611732578c6007828154811061171c57fe5b90600052602060002090600f0201600101819055505b8b1561175c578b6007828154811061174657fe5b90600052602060002090600f0201600201819055505b8a15611786578a6007828154811061177057fe5b90600052602060002090600f0201600501819055505b89156117b057896007828154811061179a57fe5b90600052602060002090600f0201600601819055505b88156117da5788600782815481106117c457fe5b90600052602060002090600f0201600701819055505b87156118045787600782815481106117ee57fe5b90600052602060002090600f0201600801819055505b861561182e57866007828154811061181857fe5b90600052602060002090600f0201600a01819055505b851561185857856007828154811061184257fe5b90600052602060002090600f0201600b01819055505b841561188257846007828154811061186c57fe5b90600052602060002090600f0201600d01819055505b82156118ac57826007828154811061189657fe5b90600052602060002090600f0201600901819055505b81156118d65781600782815481106118c057fe5b90600052602060002090600f0201600301819055505b83600782815481106118e457fe5b90600052602060002090600f020160040160006101000a8154816001600160a01b0302191690836001600160a01b031602179055505050505050505050505050505050565b600660209081526000928352604080842090915290825290208054600182015460028301546003840154600485015460059095015493946001600160a01b0384169460ff600160a01b9095048516948181169161010090041688565b61198d611de3565b6119cc576040805162461bcd60e51b81526020600482018190526024820152600080516020612949833981519152604482015290519081900360640190fd5b6007546000906119e390600163ffffffff61262816565b604080516101e081018252918252602082019e8f5281019c8d52606081019b8c526001600160a01b039a8b166080820190815260a082019a8b5260c08201998a5260e082019889526101008201978852610120820193845261014082019687526101608201958652600161018083018181526101a0840196875260006101c0850181815260078054948501815590915293517fa66cc928b5edb82af9bd49922954155ab7b0942694bea4ce44661d9a8736c688600f909302928301559f517fa66cc928b5edb82af9bd49922954155ab7b0942694bea4ce44661d9a8736c6898201559d517fa66cc928b5edb82af9bd49922954155ab7b0942694bea4ce44661d9a8736c68a8f01559b517fa66cc928b5edb82af9bd49922954155ab7b0942694bea4ce44661d9a8736c68b8e01559a517fa66cc928b5edb82af9bd49922954155ab7b0942694bea4ce44661d9a8736c68c8d0180546001600160a01b03191691909b161790995596517fa66cc928b5edb82af9bd49922954155ab7b0942694bea4ce44661d9a8736c68d8b015594517fa66cc928b5edb82af9bd49922954155ab7b0942694bea4ce44661d9a8736c68e8a015592517fa66cc928b5edb82af9bd49922954155ab7b0942694bea4ce44661d9a8736c68f89015590517fa66cc928b5edb82af9bd49922954155ab7b0942694bea4ce44661d9a8736c69088015592517fa66cc928b5edb82af9bd49922954155ab7b0942694bea4ce44661d9a8736c69187015591517fa66cc928b5edb82af9bd49922954155ab7b0942694bea4ce44661d9a8736c69286015590517fa66cc928b5edb82af9bd49922954155ab7b0942694bea4ce44661d9a8736c69385015593517fa66cc928b5edb82af9bd49922954155ab7b0942694bea4ce44661d9a8736c6948401805460ff19169115159190911790555091517fa66cc928b5edb82af9bd49922954155ab7b0942694bea4ce44661d9a8736c69582015590517fa66cc928b5edb82af9bd49922954155ab7b0942694bea4ce44661d9a8736c69690910155565b611ce0611de3565b611d1f576040805162461bcd60e51b81526020600482018190526024820152600080516020612949833981519152604482015290519081900360640190fd5b6000611d3282600163ffffffff6125df16565b9050600160078281548110610ab157fe5b611d4b611de3565b611d8a576040805162461bcd60e51b81526020600482018190526024820152600080516020612949833981519152604482015290519081900360640190fd5b600080546040516001600160a01b03909116907f8be0079c531659141344cd1fd0a4f28419497f9722a3daafe3b4186f6b6457e0908390a3600080546001600160a01b0319169055565b6000546001600160a01b031690565b600080546001600160a01b0316611df861271d565b6001600160a01b031614905090565b600080611e1b83600163ffffffff6125df16565b905060078181548110611e2a57fe5b90600052602060002090600f02016003015460011415611ead5760008381526006602090815260408083206001600160a01b0388168452909152902060010154600160a01b900460ff168015611ea5575060008381526006602090815260408083206001600160a01b038816845290915290206005015460ff165b915050611f41565b60078181548110611eba57fe5b90600052602060002090600f02016003015460021415611f0a57600080600080600080611ee88a6000610989565b505050681b1ae4d6e2ef500000909210159950611f4198505050505050505050565b60078181548110611f1757fe5b90600052602060002090600f02016003015460031415611f3b576001915050611f41565b60009150505b92915050565b600090815260066020908152604080832033845290915290206002015490565b60026001541415611fbf576040805162461bcd60e51b815260206004820152601f60248201527f5265656e7472616e637947756172643a207265656e7472616e742063616c6c00604482015290519081900360640190fd5b60026001556000818152600660209081526040808320338452909152902060050154610100900460ff1615612032576040805162461bcd60e51b81526020600482015260146024820152731d5cd95c88185b1c9958591e4818db185a5b595960621b604482015290519081900360640190fd5b600061204582600163ffffffff6125df16565b90506120966007828154811061205757fe5b90600052602060002090600f0201600d01546007838154811061207657fe5b90600052602060002090600f02016002015461262890919063ffffffff16565b4210156120ea576040805162461bcd60e51b815260206004820152601e60248201527f6e6f74206f6e2074696d6520666f7220636c61696d696e6720746f6b656e0000604482015290519081900360640190fd5b60006120f583611f47565b90506000811161213c576040805162461bcd60e51b815260206004820152600d60248201526c696e76616c696420636c61696d60981b604482015290519081900360640190fd5b6007828154811061214957fe5b600091825260208083206004600f909302018201546040805163a9059cbb60e01b8152339481019490945260248401869052516001600160a01b039091169363a9059cbb936044808201949392918390030190829087803b1580156121ad57600080fd5b505af11580156121c1573d6000803e3d6000fd5b505050506040513d60208110156121d757600080fd5b5050506000918252506006602090815260408083203384529091529020600501805461ff00191661010017905560018055565b612212611de3565b612251576040805162461bcd60e51b81526020600482018190526024820152600080516020612949833981519152604482015290519081900360640190fd5b60008181526006602090815260408083206001600160a01b039095168084528583529083209384556001808501805460ff60a01b196001600160a01b0319909116841716600160a01b179055925292909252600501805460ff19169091179055565b6000806122c783600163ffffffff6125df16565b9050600781815481106122d657fe5b90600052602060002090600f0201600a0154915050919050565b600090815260066020908152604080832033845290915290206001810154600282015460038301546005909301546001600160a01b03831694600160a01b90930460ff9081169492936101009092041690565b6000808061235884600163ffffffff6125df16565b90506007818154811061236757fe5b90600052602060002090600f0201600d01546007828154811061238657fe5b90600052602060002090600f0201600e01549250925050915091565b6123aa611de3565b6123e9576040805162461bcd60e51b81526020600482018190526024820152600080516020612949833981519152604482015290519081900360640190fd5b806001600160a01b031663a9059cbb612400611dd4565b604080516370a0823160e01b815230600482015290516001600160a01b038616916370a08231916024808301926020929190829003018186803b15801561244657600080fd5b505afa15801561245a573d6000803e3d6000fd5b505050506040513d602081101561247057600080fd5b5051604080516001600160e01b031960e086901b1681526001600160a01b03909316600484015260248301919091525160448083019260209291908290030181600087803b1580156124c157600080fd5b505af11580156124d5573d6000803e3d6000fd5b505050506040513d60208110156113fd57600080fd5b6124f3611de3565b612532576040805162461bcd60e51b81526020600482018190526024820152600080516020612949833981519152604482015290519081900360640190fd5b60009283526006602090815260408085206001600160a01b039690961685529490529290912060018101805460ff60a01b1916600160a01b9315159390930292909217909155600501805460ff1916911515919091179055565b612594611de3565b6125d3576040805162461bcd60e51b81526020600482018190526024820152600080516020612949833981519152604482015290519081900360640190fd5b6125dc81612721565b50565b600061262183836040518060400160405280601e81526020017f536166654d6174683a207375627472616374696f6e206f766572666c6f7700008152506127c1565b9392505050565b600082820183811015612621576040805162461bcd60e51b815260206004820152601b60248201527f536166654d6174683a206164646974696f6e206f766572666c6f770000000000604482015290519081900360640190fd5b60008261269157506000611f41565b8282028284828161269e57fe5b04146126215760405162461bcd60e51b81526004018080602001828103825260218152602001806129066021913960400191505060405180910390fd5b600061262183836040518060400160405280601a81526020017f536166654d6174683a206469766973696f6e206279207a65726f000000000000815250612858565b3390565b6001600160a01b0381166127665760405162461bcd60e51b81526004018080602001828103825260268152602001806128be6026913960400191505060405180910390fd5b600080546040516001600160a01b03808516939216917f8be0079c531659141344cd1fd0a4f28419497f9722a3daafe3b4186f6b6457e091a3600080546001600160a01b0319166001600160a01b0392909216919091179055565b600081848411156128505760405162461bcd60e51b81526004018080602001828103825283818151815260200191508051906020019080838360005b838110156128155781810151838201526020016127fd565b50505050905090810190601f1680156128425780820380516001836020036101000a031916815260200191505b509250505060405180910390fd5b505050900390565b600081836128a75760405162461bcd60e51b81526020600482018181528351602484015283519092839260449091019190850190808383600083156128155781810151838201526020016127fd565b5060008385816128b357fe5b049594505050505056fe4f776e61626c653a206e6577206f776e657220697320746865207a65726f2061646472657373696e76616c6964206d6178696d756d20707572636861736520666f72207469657232536166654d6174683a206d756c7469706c69636174696f6e206f766572666c6f77696e76616c6964206d6178696d756d20707572636861736520666f722074696572314f776e61626c653a2063616c6c6572206973206e6f7420746865206f776e6572696e76616c6964206d6178696d756d20707572636861736520666f72207469657233a2646970667358221220a44c9ac669f756457597a1e2e05af2eee409096c5d887a05419de512aec1f0fd64736f6c63430006020033",
  "source": "pragma solidity >=0.6.0;\r\n\r\nimport \"@openzeppelin/contracts/token/ERC20/SafeERC20.sol\";\r\nimport \"@openzeppelin/contracts/math/SafeMath.sol\";\r\nimport \"@openzeppelin/contracts/ownership/Ownable.sol\";\r\nimport \"./ReentrancyGuard.sol\";\r\nimport \"./PolkaBridgeStaking.sol\";\r\n\r\ncontract PolkaBridgeLaunchPad is Ownable, ReentrancyGuard {\r\n    string public name = \"PolkaBridge: LaunchPad\";\r\n    using SafeMath for uint256;\r\n    using SafeERC20 for IERC20;\r\n\r\n    IERC20 polkaBridgeToken;\r\n    PolkaBridgeStaking polkaBridgeStaking;\r\n\r\n    address payable private ReceiveToken;\r\n\r\n    struct IDOPool {\r\n        uint256 Id;\r\n        uint256 Begin;\r\n        uint256 End;\r\n        uint256 Type; //1:public, 2:private\r\n        IERC20 IDOToken;\r\n        uint256 MaxPurchaseTier1;\r\n        uint256 MaxPurchaseTier2; //==public tier\r\n        uint256 MaxPurchaseTier3;\r\n        uint256 TotalCap;\r\n        uint256 MinimumTokenSoldout;\r\n        uint256 TotalToken; //total sale token for this pool\r\n        uint256 RatePerETH;\r\n        bool IsActived;\r\n        uint256 LockDuration; //lock after purchase\r\n        uint256 TotalSold; //total number of token sold\r\n    }\r\n\r\n    struct User {\r\n        uint256 Id;\r\n        address UserAddress;\r\n        bool IsWhitelist;\r\n        uint256 TotalTokenPurchase;\r\n        uint256 TotalETHPurchase;\r\n        uint256 PurchaseTime;\r\n        bool IsActived;\r\n        bool IsClaimed;\r\n    }\r\n\r\n    mapping(uint256 => mapping(address => User)) public whitelist; //poolid - listuser\r\n\r\n    IDOPool[] pools;\r\n\r\n    constructor(\r\n        address payable receiveTokenAdd,\r\n        IERC20 polkaBridge,\r\n        PolkaBridgeStaking _polkaBridgeStaking\r\n    ) public {\r\n        ReceiveToken = receiveTokenAdd;\r\n        polkaBridgeToken = polkaBridge;\r\n        polkaBridgeStaking = _polkaBridgeStaking;\r\n    }\r\n\r\n    function addWhitelist(address user, uint256 pid) public onlyOwner {\r\n        whitelist[pid][user].Id = pid;\r\n        whitelist[pid][user].UserAddress = user;\r\n        whitelist[pid][user].IsWhitelist = true;\r\n\r\n        whitelist[pid][user].IsActived = true;\r\n    }\r\n\r\n    function addMulWhitelist(address[] memory user, uint256 pid)\r\n        public\r\n        onlyOwner\r\n    {\r\n        for (uint256 i = 0; i < user.length; i++) {\r\n            whitelist[pid][user[i]].Id = pid;\r\n            whitelist[pid][user[i]].UserAddress = user[i];\r\n            whitelist[pid][user[i]].IsWhitelist = true;\r\n\r\n            whitelist[pid][user[i]].IsActived = true;\r\n        }\r\n    }\r\n\r\n    function updateWhitelist(\r\n        address user,\r\n        uint256 pid,\r\n        bool isWhitelist,\r\n        bool isActived\r\n    ) public onlyOwner {\r\n        whitelist[pid][user].IsWhitelist = isWhitelist;\r\n        whitelist[pid][user].IsActived = isActived;\r\n    }\r\n\r\n    function IsWhitelist(address user, uint256 pid) public view returns (bool) {\r\n        uint256 poolIndex = pid.sub(1);\r\n        if (pools[poolIndex].Type == 1) //public\r\n        {\r\n            return (whitelist[pid][user].IsWhitelist &&\r\n                whitelist[pid][user].IsActived);\r\n        } else if (pools[poolIndex].Type == 2) //private\r\n        {\r\n            (\r\n                uint256 amount,\r\n                uint256 rewardDebt,\r\n                uint256 rewardClaimed,\r\n                uint256 lastBlock,\r\n                uint256 beginTime,\r\n                uint256 endTime\r\n            ) = getUserStakingData(user, 0);\r\n            return (amount >= 500 * 1e18);\r\n        } else if (pools[poolIndex].Type == 3) {\r\n            //community round\r\n\r\n            return true;\r\n        } else {\r\n            return false;\r\n        }\r\n    }\r\n\r\n    function getUserStakingData(address user, uint256 poolId)\r\n        public\r\n        view\r\n        returns (\r\n            uint256 amount,\r\n            uint256 rewardDebt,\r\n            uint256 rewardClaimed,\r\n            uint256 lastBlock,\r\n            uint256 beginTime,\r\n            uint256 endTime\r\n        )\r\n    {\r\n        return (polkaBridgeStaking.userInfo(poolId, user));\r\n    }\r\n\r\n    function addPool(\r\n        uint256 begin,\r\n        uint256 end,\r\n        uint256 _type,\r\n        IERC20 idoToken,\r\n        uint256 maxPurchaseTier1,\r\n        uint256 maxPurchaseTier2,\r\n        uint256 maxPurchaseTier3,\r\n        uint256 totalCap,\r\n        uint256 totalToken,\r\n        uint256 ratePerETH,\r\n        uint256 lockDuration,\r\n        uint256 minimumTokenSoldout\r\n    ) public onlyOwner {\r\n        uint256 id = pools.length.add(1);\r\n        pools.push(\r\n            IDOPool({\r\n                Id: id,\r\n                Begin: begin,\r\n                End: end,\r\n                Type: _type,\r\n                IDOToken: idoToken,\r\n                MaxPurchaseTier1: maxPurchaseTier1,\r\n                MaxPurchaseTier2: maxPurchaseTier2,\r\n                MaxPurchaseTier3: maxPurchaseTier3,\r\n                TotalCap: totalCap,\r\n                TotalToken: totalToken,\r\n                RatePerETH: ratePerETH,\r\n                IsActived: true,\r\n                LockDuration: lockDuration,\r\n                TotalSold: 0,\r\n                MinimumTokenSoldout: minimumTokenSoldout\r\n            })\r\n        );\r\n    }\r\n\r\n    function updatePool(\r\n        uint256 pid,\r\n        uint256 begin,\r\n        uint256 end,\r\n        uint256 maxPurchaseTier1,\r\n        uint256 maxPurchaseTier2,\r\n        uint256 maxPurchaseTier3,\r\n        uint256 totalCap,\r\n        uint256 totalToken,\r\n        uint256 ratePerETH,\r\n        uint256 lockDuration,\r\n        IERC20 idoToken,\r\n        uint256 minimumTokenSoldout,\r\n        uint256 pooltype\r\n    ) public onlyOwner {\r\n        uint256 poolIndex = pid.sub(1);\r\n        if (begin > 0) {\r\n            pools[poolIndex].Begin = begin;\r\n        }\r\n        if (end > 0) {\r\n            pools[poolIndex].End = end;\r\n        }\r\n\r\n        if (maxPurchaseTier1 > 0) {\r\n            pools[poolIndex].MaxPurchaseTier1 = maxPurchaseTier1;\r\n        }\r\n        if (maxPurchaseTier2 > 0) {\r\n            pools[poolIndex].MaxPurchaseTier2 = maxPurchaseTier2;\r\n        }\r\n        if (maxPurchaseTier3 > 0) {\r\n            pools[poolIndex].MaxPurchaseTier3 = maxPurchaseTier3;\r\n        }\r\n        if (totalCap > 0) {\r\n            pools[poolIndex].TotalCap = totalCap;\r\n        }\r\n        if (totalToken > 0) {\r\n            pools[poolIndex].TotalToken = totalToken;\r\n        }\r\n        if (ratePerETH > 0) {\r\n            pools[poolIndex].RatePerETH = ratePerETH;\r\n        }\r\n        if (lockDuration > 0) {\r\n            pools[poolIndex].LockDuration = lockDuration;\r\n        }\r\n        if (minimumTokenSoldout > 0) {\r\n            pools[poolIndex].MinimumTokenSoldout = minimumTokenSoldout;\r\n        }\r\n        if (pooltype > 0) {\r\n            pools[poolIndex].Type = pooltype;\r\n        }\r\n        pools[poolIndex].IDOToken = idoToken;\r\n    }\r\n\r\n    function stopPool(uint256 pid) public onlyOwner {\r\n        uint256 poolIndex = pid.sub(1);\r\n        pools[poolIndex].IsActived = false;\r\n    }\r\n\r\n    function activePool(uint256 pid) public onlyOwner {\r\n        uint256 poolIndex = pid.sub(1);\r\n        pools[poolIndex].IsActived = true;\r\n    }\r\n\r\n    //withdraw contract token\r\n    //use for someone send token to contract\r\n    //recuse wrong user\r\n\r\n    function withdrawErc20(IERC20 token) public onlyOwner {\r\n        token.transfer(owner(), token.balanceOf(address(this)));\r\n    }\r\n\r\n    //withdraw ETH after IDO\r\n    function withdrawPoolFund() public onlyOwner {\r\n        uint256 balance = address(this).balance;\r\n        require(balance > 0, \"not enough fund\");\r\n        ReceiveToken.transfer(balance);\r\n    }\r\n\r\n    function purchaseIDO(uint256 pid) public payable nonReentrant {\r\n        uint256 poolIndex = pid.sub(1);\r\n\r\n        require(pools[poolIndex].IsActived, \"invalid pool\");\r\n        require(\r\n            block.timestamp >= pools[poolIndex].Begin &&\r\n                block.timestamp <= pools[poolIndex].End,\r\n            \"invalid time\"\r\n        );\r\n        //check user\r\n        require(IsWhitelist(msg.sender, pid), \"invalid user\");\r\n\r\n        //check amount\r\n        uint256 ethAmount = msg.value;\r\n        whitelist[pid][msg.sender].TotalETHPurchase = whitelist[pid][msg.sender]\r\n            .TotalETHPurchase\r\n            .add(ethAmount);\r\n\r\n        if (pools[poolIndex].Type == 2) {\r\n            (\r\n                uint256 stakeAmount,\r\n                uint256 rewardDebt,\r\n                uint256 rewardClaimed,\r\n                uint256 lastBlock,\r\n                uint256 beginTime,\r\n                uint256 endTime\r\n            ) = getUserStakingData(msg.sender, 0);\r\n            if (stakeAmount < 1500 * 1e18) {\r\n                require(\r\n                    whitelist[pid][msg.sender].TotalETHPurchase <=\r\n                        pools[poolIndex].MaxPurchaseTier1,\r\n                    \"invalid maximum purchase for tier1\"\r\n                );\r\n            } else if (\r\n                stakeAmount >= 1500 * 1e18 && stakeAmount < 3000 * 1e18\r\n            ) {\r\n                require(\r\n                    whitelist[pid][msg.sender].TotalETHPurchase <=\r\n                        pools[poolIndex].MaxPurchaseTier2,\r\n                    \"invalid maximum purchase for tier2\"\r\n                );\r\n            } else {\r\n                require(\r\n                    whitelist[pid][msg.sender].TotalETHPurchase <=\r\n                        pools[poolIndex].MaxPurchaseTier3,\r\n                    \"invalid maximum purchase for tier3\"\r\n                );\r\n            }\r\n        } else if (pools[poolIndex].Type == 1) {\r\n            //public pool\r\n\r\n            require(\r\n                whitelist[pid][msg.sender].TotalETHPurchase <=\r\n                    pools[poolIndex].MaxPurchaseTier2,\r\n                \"invalid maximum contribute\"\r\n            );\r\n        } else {\r\n            //community round\r\n            require(\r\n                whitelist[pid][msg.sender].TotalETHPurchase <=\r\n                    pools[poolIndex].MaxPurchaseTier3 * 2,\r\n                \"invalid maximum contribute\"\r\n            );\r\n        }\r\n\r\n        uint256 tokenAmount = ethAmount.mul(pools[poolIndex].RatePerETH).div(\r\n            1e18\r\n        );\r\n\r\n        uint256 remainToken = getRemainIDOToken(pid);\r\n        require(\r\n            remainToken > pools[poolIndex].MinimumTokenSoldout,\r\n            \"IDO sold out\"\r\n        );\r\n        require(remainToken >= tokenAmount, \"IDO sold out\");\r\n\r\n        whitelist[pid][msg.sender].TotalTokenPurchase = whitelist[pid][\r\n            msg.sender\r\n        ].TotalTokenPurchase.add(tokenAmount);\r\n\r\n        pools[poolIndex].TotalSold = pools[poolIndex].TotalSold.add(\r\n            tokenAmount\r\n        );\r\n    }\r\n\r\n    function claimToken(uint256 pid) public nonReentrant {\r\n        require(!whitelist[pid][msg.sender].IsClaimed, \"user already claimed\");\r\n        uint256 poolIndex = pid.sub(1);\r\n\r\n        require(\r\n            block.timestamp >=\r\n                pools[poolIndex].End.add(pools[poolIndex].LockDuration),\r\n            \"not on time for claiming token\"\r\n        );\r\n\r\n        uint256 userBalance = getUserTotalPurchase(pid);\r\n\r\n        require(userBalance > 0, \"invalid claim\");\r\n\r\n        pools[poolIndex].IDOToken.transfer(msg.sender, userBalance);\r\n        whitelist[pid][msg.sender].IsClaimed = true;\r\n    }\r\n\r\n    function getUserTotalPurchase(uint256 pid) public view returns (uint256) {\r\n        return whitelist[pid][msg.sender].TotalTokenPurchase;\r\n    }\r\n\r\n    function getRemainIDOToken(uint256 pid) public view returns (uint256) {\r\n        uint256 poolIndex = pid.sub(1);\r\n        uint256 tokenBalance = getBalanceTokenByPoolId(pid);\r\n        if (pools[poolIndex].TotalSold > tokenBalance) {\r\n            return 0;\r\n        }\r\n\r\n        return tokenBalance.sub(pools[poolIndex].TotalSold);\r\n    }\r\n\r\n    function getBalanceTokenByPoolId(uint256 pid)\r\n        public\r\n        view\r\n        returns (uint256)\r\n    {\r\n        uint256 poolIndex = pid.sub(1);\r\n        //return pools[poolIndex].IDOToken.balanceOf(address(this));\r\n        return pools[poolIndex].TotalToken;\r\n    }\r\n\r\n    function getPoolInfo(uint256 pid)\r\n        public\r\n        view\r\n        returns (\r\n            uint256,\r\n            uint256,\r\n            // uint256,\r\n            // uint256,\r\n            uint256,\r\n            uint256,\r\n            uint256,\r\n            uint256,\r\n            bool,\r\n            IERC20\r\n        )\r\n    {\r\n        uint256 poolIndex = pid.sub(1);\r\n        return (\r\n            pools[poolIndex].Begin,\r\n            pools[poolIndex].End,\r\n            pools[poolIndex].Type,\r\n            //pools[poolIndex].AmountPBRRequire,\r\n            //pools[poolIndex].MaxPurchase,\r\n            pools[poolIndex].RatePerETH,\r\n            pools[poolIndex].LockDuration,\r\n            pools[poolIndex].TotalSold,\r\n            pools[poolIndex].IsActived,\r\n            pools[poolIndex].IDOToken\r\n        );\r\n    }\r\n\r\n    function getPoolSoldInfo(uint256 pid)\r\n        public\r\n        view\r\n        returns (uint256, uint256)\r\n    {\r\n        uint256 poolIndex = pid.sub(1);\r\n        return (pools[poolIndex].LockDuration, pools[poolIndex].TotalSold);\r\n    }\r\n\r\n    function getWhitelistfo(uint256 pid)\r\n        public\r\n        view\r\n        returns (\r\n            address,\r\n            bool,\r\n            uint256,\r\n            uint256,\r\n            bool\r\n        )\r\n    {\r\n        return (\r\n            whitelist[pid][msg.sender].UserAddress,\r\n            whitelist[pid][msg.sender].IsWhitelist,\r\n            whitelist[pid][msg.sender].TotalTokenPurchase,\r\n            whitelist[pid][msg.sender].TotalETHPurchase,\r\n            whitelist[pid][msg.sender].IsClaimed\r\n        );\r\n    }\r\n\r\n    function getUserInfo(uint256 pid, address user)\r\n        public\r\n        view\r\n        returns (\r\n            bool,\r\n            uint256,\r\n            uint256,\r\n            bool\r\n        )\r\n    {\r\n        return (\r\n            whitelist[pid][user].IsWhitelist,\r\n            whitelist[pid][user].TotalTokenPurchase,\r\n            whitelist[pid][user].TotalETHPurchase,\r\n            whitelist[pid][user].IsClaimed\r\n        );\r\n    }\r\n}\r\n",
  "sourcePath": "C:\\Users\\Thanh Phi\\Desktop\\PolkaBridgeSolution\\PolkaBridge-LaunchPad\\contracts\\PolkaBridgeLaunchPad.sol",
  "compiler": {
    "name": "solc",
    "version": "0.6.2+commit.bacdbe57.Emscripten.clang"
  },
  "schemaVersion": "3.4.3",
  "updatedAt": "2021-12-03T13:03:48.936Z",
  "devdoc": {
    "methods": {
      "isOwner()": {
        "details": "Returns true if the caller is the current owner."
      },
      "owner()": {
        "details": "Returns the address of the current owner."
      },
      "renounceOwnership()": {
        "details": "Leaves the contract without owner. It will not be possible to call `onlyOwner` functions anymore. Can only be called by the current owner.     * NOTE: Renouncing ownership will leave the contract without an owner, thereby removing any functionality that is only available to the owner."
      },
      "transferOwnership(address)": {
        "details": "Transfers ownership of the contract to a new account (`newOwner`). Can only be called by the current owner."
      }
    }
  },
  "userdoc": {
    "methods": {}
  }
}