{
  "contractName": "PolkaBridgeLaunchPad",
  "abi": [
    {
      "inputs": [
        {
          "internalType": "address payable",
          "name": "receiveTokenAdd",
          "type": "address"
        },
        {
          "internalType": "contract IERC20",
          "name": "polkaBridge",
          "type": "address"
        }
      ],
      "stateMutability": "nonpayable",
      "type": "constructor"
    },
    {
      "anonymous": false,
      "inputs": [
        {
          "indexed": true,
          "internalType": "address",
          "name": "previousOwner",
          "type": "address"
        },
        {
          "indexed": true,
          "internalType": "address",
          "name": "newOwner",
          "type": "address"
        }
      ],
      "name": "OwnershipTransferred",
      "type": "event"
    },
    {
      "inputs": [],
      "name": "isOwner",
      "outputs": [
        {
          "internalType": "bool",
          "name": "",
          "type": "bool"
        }
      ],
      "stateMutability": "view",
      "type": "function"
    },
    {
      "inputs": [],
      "name": "name",
      "outputs": [
        {
          "internalType": "string",
          "name": "",
          "type": "string"
        }
      ],
      "stateMutability": "view",
      "type": "function"
    },
    {
      "inputs": [],
      "name": "owner",
      "outputs": [
        {
          "internalType": "address",
          "name": "",
          "type": "address"
        }
      ],
      "stateMutability": "view",
      "type": "function"
    },
    {
      "inputs": [],
      "name": "renounceOwnership",
      "outputs": [],
      "stateMutability": "nonpayable",
      "type": "function"
    },
    {
      "inputs": [
        {
          "internalType": "address",
          "name": "newOwner",
          "type": "address"
        }
      ],
      "name": "transferOwnership",
      "outputs": [],
      "stateMutability": "nonpayable",
      "type": "function"
    },
    {
      "stateMutability": "payable",
      "type": "receive"
    },
    {
      "inputs": [
        {
          "internalType": "address",
          "name": "user",
          "type": "address"
        },
        {
          "internalType": "uint256",
          "name": "pid",
          "type": "uint256"
        }
      ],
      "name": "addWhitelist",
      "outputs": [],
      "stateMutability": "nonpayable",
      "type": "function"
    },
    {
      "inputs": [
        {
          "internalType": "address",
          "name": "user",
          "type": "address"
        },
        {
          "internalType": "uint256",
          "name": "pid",
          "type": "uint256"
        },
        {
          "internalType": "bool",
          "name": "isWhitelist",
          "type": "bool"
        },
        {
          "internalType": "bool",
          "name": "isActived",
          "type": "bool"
        }
      ],
      "name": "updateWhitelist",
      "outputs": [],
      "stateMutability": "nonpayable",
      "type": "function"
    },
    {
      "inputs": [
        {
          "internalType": "address",
          "name": "user",
          "type": "address"
        },
        {
          "internalType": "uint256",
          "name": "pid",
          "type": "uint256"
        }
      ],
      "name": "IsWhitelist",
      "outputs": [
        {
          "internalType": "bool",
          "name": "",
          "type": "bool"
        }
      ],
      "stateMutability": "view",
      "type": "function"
    },
    {
      "inputs": [
        {
          "internalType": "string",
          "name": "name",
          "type": "string"
        },
        {
          "internalType": "uint256",
          "name": "begin",
          "type": "uint256"
        },
        {
          "internalType": "uint256",
          "name": "end",
          "type": "uint256"
        },
        {
          "internalType": "uint256",
          "name": "_type",
          "type": "uint256"
        },
        {
          "internalType": "contract IERC20",
          "name": "idoToken",
          "type": "address"
        },
        {
          "internalType": "uint256",
          "name": "minPurchase",
          "type": "uint256"
        },
        {
          "internalType": "uint256",
          "name": "maxPurchase",
          "type": "uint256"
        },
        {
          "internalType": "uint256",
          "name": "totalCap",
          "type": "uint256"
        },
        {
          "internalType": "uint256",
          "name": "amountPBRRequire",
          "type": "uint256"
        },
        {
          "internalType": "uint256",
          "name": "ratePerETH",
          "type": "uint256"
        },
        {
          "internalType": "uint256",
          "name": "lockDuration",
          "type": "uint256"
        }
      ],
      "name": "addPool",
      "outputs": [],
      "stateMutability": "nonpayable",
      "type": "function"
    },
    {
      "inputs": [
        {
          "internalType": "uint256",
          "name": "pid",
          "type": "uint256"
        },
        {
          "internalType": "uint256",
          "name": "begin",
          "type": "uint256"
        },
        {
          "internalType": "uint256",
          "name": "end",
          "type": "uint256"
        },
        {
          "internalType": "uint256",
          "name": "amountPBRRequire",
          "type": "uint256"
        },
        {
          "internalType": "uint256",
          "name": "minPurchase",
          "type": "uint256"
        },
        {
          "internalType": "uint256",
          "name": "maxPurchase",
          "type": "uint256"
        },
        {
          "internalType": "uint256",
          "name": "totalCap",
          "type": "uint256"
        },
        {
          "internalType": "uint256",
          "name": "ratePerETH",
          "type": "uint256"
        },
        {
          "internalType": "bool",
          "name": "isActived",
          "type": "bool"
        },
        {
          "internalType": "bool",
          "name": "isStoped",
          "type": "bool"
        },
        {
          "internalType": "uint256",
          "name": "lockDuration",
          "type": "uint256"
        }
      ],
      "name": "updatePool",
      "outputs": [],
      "stateMutability": "nonpayable",
      "type": "function"
    },
    {
      "inputs": [
        {
          "internalType": "contract IERC20",
          "name": "token",
          "type": "address"
        }
      ],
      "name": "withdrawErc20",
      "outputs": [],
      "stateMutability": "nonpayable",
      "type": "function"
    },
    {
      "inputs": [],
      "name": "withdrawPoolFund",
      "outputs": [],
      "stateMutability": "nonpayable",
      "type": "function"
    },
    {
      "inputs": [
        {
          "internalType": "uint256",
          "name": "pid",
          "type": "uint256"
        }
      ],
      "name": "purchaseIDO",
      "outputs": [],
      "stateMutability": "payable",
      "type": "function"
    },
    {
      "inputs": [
        {
          "internalType": "uint256",
          "name": "pid",
          "type": "uint256"
        }
      ],
      "name": "claimToken",
      "outputs": [],
      "stateMutability": "nonpayable",
      "type": "function"
    },
    {
      "inputs": [
        {
          "internalType": "uint256",
          "name": "pid",
          "type": "uint256"
        }
      ],
      "name": "getUserTotalPurchase",
      "outputs": [
        {
          "internalType": "uint256",
          "name": "",
          "type": "uint256"
        }
      ],
      "stateMutability": "view",
      "type": "function"
    },
    {
      "inputs": [
        {
          "internalType": "uint256",
          "name": "poolIndex",
          "type": "uint256"
        }
      ],
      "name": "remainIDOToken",
      "outputs": [
        {
          "internalType": "uint256",
          "name": "",
          "type": "uint256"
        }
      ],
      "stateMutability": "view",
      "type": "function"
    },
    {
      "inputs": [
        {
          "internalType": "uint256",
          "name": "pid",
          "type": "uint256"
        }
      ],
      "name": "getPoolInfo",
      "outputs": [
        {
          "internalType": "uint256",
          "name": "",
          "type": "uint256"
        },
        {
          "internalType": "uint256",
          "name": "",
          "type": "uint256"
        },
        {
          "internalType": "uint256",
          "name": "",
          "type": "uint256"
        },
        {
          "internalType": "uint256",
          "name": "",
          "type": "uint256"
        },
        {
          "internalType": "uint256",
          "name": "",
          "type": "uint256"
        },
        {
          "internalType": "uint256",
          "name": "",
          "type": "uint256"
        },
        {
          "internalType": "uint256",
          "name": "",
          "type": "uint256"
        },
        {
          "internalType": "uint256",
          "name": "",
          "type": "uint256"
        }
      ],
      "stateMutability": "view",
      "type": "function"
    }
  ],
  "bytecode": "0x60806040526040518060400160405280601681526020017f506f6c6b614272696467653a204c61756e6368506164000000000000000000008152506001908051906020019062000051929190620001ee565b50670de0b6b3a76400006002553480156200006b57600080fd5b506040516200300238038062003002833981810160405260408110156200009157600080fd5b8101908080519060200190929190805190602001909291905050506000620000be620001e660201b60201c565b9050806000806101000a81548173ffffffffffffffffffffffffffffffffffffffff021916908373ffffffffffffffffffffffffffffffffffffffff1602179055508073ffffffffffffffffffffffffffffffffffffffff16600073ffffffffffffffffffffffffffffffffffffffff167f8be0079c531659141344cd1fd0a4f28419497f9722a3daafe3b4186f6b6457e060405160405180910390a35081600460006101000a81548173ffffffffffffffffffffffffffffffffffffffff021916908373ffffffffffffffffffffffffffffffffffffffff16021790555080600360006101000a81548173ffffffffffffffffffffffffffffffffffffffff021916908373ffffffffffffffffffffffffffffffffffffffff16021790555050506200029d565b600033905090565b828054600181600116156101000203166002900490600052602060002090601f016020900481019282601f106200023157805160ff191683800117855562000262565b8280016001018555821562000262579182015b828111156200026157825182559160200191906001019062000244565b5b50905062000271919062000275565b5090565b6200029a91905b80821115620002965760008160009055506001016200027c565b5090565b90565b612d5580620002ad6000396000f3fe6080604052600436106101025760003560e01c80639c13180611610095578063b39d900911610064578063b39d90091461058f578063c7e42b1b146105ea578063d70c33c81461063b578063ea3d821e146106ae578063f2fde38b1461075257610109565b80639c13180614610443578063a48ebe82146104b6578063a965413414610505578063a9e7c2e51461055457610109565b8063715018a6116100d1578063715018a6146102635780638a0e2a6b1461027a5780638da5cb5b146103bd5780638f32d59b1461041457610109565b806306fdde031461010e5780631a1623181461019e5780631f4552cb146101cc5780632f380b35146101e357610109565b3661010957005b600080fd5b34801561011a57600080fd5b506101236107a3565b6040518080602001828103825283818151815260200191508051906020019080838360005b83811015610163578082015181840152602081019050610148565b50505050905090810190601f1680156101905780820380516001836020036101000a031916815260200191505b509250505060405180910390f35b6101ca600480360360208110156101b457600080fd5b8101908080359060200190929190505050610841565b005b3480156101d857600080fd5b506101e1611288565b005b3480156101ef57600080fd5b5061021c6004803603602081101561020657600080fd5b81019080803590602001909291905050506113e9565b604051808981526020018881526020018781526020018681526020018581526020018481526020018381526020018281526020019850505050505050505060405180910390f35b34801561026f57600080fd5b50610278611521565b005b34801561028657600080fd5b506103bb600480360361016081101561029e57600080fd5b81019080803590602001906401000000008111156102bb57600080fd5b8201836020820111156102cd57600080fd5b803590602001918460018302840111640100000000831117156102ef57600080fd5b91908080601f016020809104026020016040519081016040528093929190818152602001838380828437600081840152601f19601f820116905080830192505050505050509192919290803590602001909291908035906020019092919080359060200190929190803573ffffffffffffffffffffffffffffffffffffffff16906020019092919080359060200190929190803590602001909291908035906020019092919080359060200190929190803590602001909291908035906020019092919050505061165a565b005b3480156103c957600080fd5b506103d2611925565b604051808273ffffffffffffffffffffffffffffffffffffffff1673ffffffffffffffffffffffffffffffffffffffff16815260200191505060405180910390f35b34801561042057600080fd5b5061042961194e565b604051808215151515815260200191505060405180910390f35b34801561044f57600080fd5b5061049c6004803603604081101561046657600080fd5b81019080803573ffffffffffffffffffffffffffffffffffffffff169060200190929190803590602001909291905050506119ac565b604051808215151515815260200191505060405180910390f35b3480156104c257600080fd5b506104ef600480360360208110156104d957600080fd5b8101908080359060200190929190505050611a17565b6040518082815260200191505060405180910390f35b34801561051157600080fd5b5061053e6004803603602081101561052857600080fd5b8101908080359060200190929190505050611a74565b6040518082815260200191505060405180910390f35b34801561056057600080fd5b5061058d6004803603602081101561057757600080fd5b8101908080359060200190929190505050611ba3565b005b34801561059b57600080fd5b506105e8600480360360408110156105b257600080fd5b81019080803573ffffffffffffffffffffffffffffffffffffffff16906020019092919080359060200190929190505050611fbf565b005b3480156105f657600080fd5b506106396004803603602081101561060d57600080fd5b81019080803573ffffffffffffffffffffffffffffffffffffffff169060200190929190505050612257565b005b34801561064757600080fd5b506106ac6004803603608081101561065e57600080fd5b81019080803573ffffffffffffffffffffffffffffffffffffffff16906020019092919080359060200190929190803515159060200190929190803515159060200190929190505050612455565b005b3480156106ba57600080fd5b5061075060048036036101608110156106d257600080fd5b810190808035906020019092919080359060200190929190803590602001909291908035906020019092919080359060200190929190803590602001909291908035906020019092919080359060200190929190803515159060200190929190803515159060200190929190803590602001909291905050506125ab565b005b34801561075e57600080fd5b506107a16004803603602081101561077557600080fd5b81019080803573ffffffffffffffffffffffffffffffffffffffff169060200190929190505050612849565b005b60018054600181600116156101000203166002900480601f0160208091040260200160405190810160405280929190818152602001828054600181600116156101000203166002900480156108395780601f1061080e57610100808354040283529160200191610839565b820191906000526020600020905b81548152906001019060200180831161081c57829003601f168201915b505050505081565b60006108576001836128cf90919063ffffffff16565b905060008110156108d0576040517f08c379a000000000000000000000000000000000000000000000000000000000815260040180806020018281038252600c8152602001807f696e76616c696420706f6f6c000000000000000000000000000000000000000081525060200191505060405180910390fd5b600681815481106108dd57fe5b9060005260206000209060120201600b0160009054906101000a900460ff16801561093157506006818154811061091057fe5b9060005260206000209060120201600b0160019054906101000a900460ff16155b6109a3576040517f08c379a000000000000000000000000000000000000000000000000000000000815260040180806020018281038252600c8152602001807f696e76616c696420706f6f6c000000000000000000000000000000000000000081525060200191505060405180910390fd5b600681815481106109b057fe5b90600052602060002090601202016002015442101580156109ef5750600681815481106109d957fe5b9060005260206000209060120201600301544211155b610a61576040517f08c379a000000000000000000000000000000000000000000000000000000000815260040180806020018281038252600c8152602001807f696e76616c69642074696d65000000000000000000000000000000000000000081525060200191505060405180910390fd5b6000610a6c82611a74565b90506002548111610ad257600160068381548110610a8657fe5b906000526020600020906012020160100160006101000a81548160ff0219169083151502179055504260068381548110610abc57fe5b9060005260206000209060120201601101819055505b60068281548110610adf57fe5b906000526020600020906012020160100160009054906101000a900460ff1615610b71576040517f08c379a000000000000000000000000000000000000000000000000000000000815260040180806020018281038252600c8152602001807f49444f20736f6c64206f7574000000000000000000000000000000000000000081525060200191505060405180910390fd5b600034905060068381548110610b8357fe5b906000526020600020906012020160080154811115610c0a576040517f08c379a000000000000000000000000000000000000000000000000000000000815260040180806020018281038252601a8152602001807f696e76616c6964206d6178696d756d20636f6e7472696275746500000000000081525060200191505060405180910390fd5b610c70816005600087815260200190815260200160002060003373ffffffffffffffffffffffffffffffffffffffff1673ffffffffffffffffffffffffffffffffffffffff1681526020019081526020016000206004015461291990919063ffffffff16565b6005600086815260200190815260200160002060003373ffffffffffffffffffffffffffffffffffffffff1673ffffffffffffffffffffffffffffffffffffffff1681526020019081526020016000206004018190555060068381548110610cd457fe5b9060005260206000209060120201600801546005600086815260200190815260200160002060003373ffffffffffffffffffffffffffffffffffffffff1673ffffffffffffffffffffffffffffffffffffffff168152602001908152602001600020600401541115610e6b57610da6816005600087815260200190815260200160002060003373ffffffffffffffffffffffffffffffffffffffff1673ffffffffffffffffffffffffffffffffffffffff168152602001908152602001600020600401546128cf90919063ffffffff16565b6005600086815260200190815260200160002060003373ffffffffffffffffffffffffffffffffffffffff1673ffffffffffffffffffffffffffffffffffffffff168152602001908152602001600020600401819055506040517f08c379a000000000000000000000000000000000000000000000000000000000815260040180806020018281038252601a8152602001807f696e76616c6964206d6178696d756d20636f6e7472696275746500000000000081525060200191505060405180910390fd5b6005600085815260200190815260200160002060003373ffffffffffffffffffffffffffffffffffffffff1673ffffffffffffffffffffffffffffffffffffffff16815260200190815260200160002060010160149054906101000a900460ff168015610f3557506005600085815260200190815260200160002060003373ffffffffffffffffffffffffffffffffffffffff1673ffffffffffffffffffffffffffffffffffffffff16815260200190815260200160002060060160009054906101000a900460ff165b610fa7576040517f08c379a000000000000000000000000000000000000000000000000000000000815260040180806020018281038252600c8152602001807f696e76616c69642075736572000000000000000000000000000000000000000081525060200191505060405180910390fd5b600260068481548110610fb657fe5b906000526020600020906012020160040154141561113c5760068381548110610fdb57fe5b906000526020600020906012020160050154600360009054906101000a900473ffffffffffffffffffffffffffffffffffffffff1673ffffffffffffffffffffffffffffffffffffffff166370a08231336040518263ffffffff1660e01b8152600401808273ffffffffffffffffffffffffffffffffffffffff1673ffffffffffffffffffffffffffffffffffffffff16815260200191505060206040518083038186803b15801561108c57600080fd5b505afa1580156110a0573d6000803e3d6000fd5b505050506040513d60208110156110b657600080fd5b8101908080519060200190929190505050101561113b576040517f08c379a000000000000000000000000000000000000000000000000000000000815260040180806020018281038252600d8152602001807f6d75737420686f6c64205042520000000000000000000000000000000000000081525060200191505060405180910390fd5b5b600061116f6006858154811061114e57fe5b9060005260206000209060120201600a0154836129a190919063ffffffff16565b90506111d7816005600088815260200190815260200160002060003373ffffffffffffffffffffffffffffffffffffffff1673ffffffffffffffffffffffffffffffffffffffff1681526020019081526020016000206003015461291990919063ffffffff16565b6005600087815260200190815260200160002060003373ffffffffffffffffffffffffffffffffffffffff1673ffffffffffffffffffffffffffffffffffffffff1681526020019081526020016000206003018190555061125f816006868154811061123f57fe5b9060005260206000209060120201600f015461291990919063ffffffff16565b6006858154811061126c57fe5b9060005260206000209060120201600f01819055505050505050565b61129061194e565b611302576040517f08c379a00000000000000000000000000000000000000000000000000000000081526004018080602001828103825260208152602001807f4f776e61626c653a2063616c6c6572206973206e6f7420746865206f776e657281525060200191505060405180910390fd5b60004790506000811161137d576040517f08c379a000000000000000000000000000000000000000000000000000000000815260040180806020018281038252600f8152602001807f6e6f7420656e6f7567682066756e64000000000000000000000000000000000081525060200191505060405180910390fd5b600460009054906101000a900473ffffffffffffffffffffffffffffffffffffffff1673ffffffffffffffffffffffffffffffffffffffff166108fc829081150290604051600060405180830381858888f193505050501580156113e5573d6000803e3d6000fd5b5050565b600080600080600080600080600061140b60018b6128cf90919063ffffffff16565b90506006818154811061141a57fe5b9060005260206000209060120201600201546006828154811061143957fe5b9060005260206000209060120201600301546006838154811061145857fe5b9060005260206000209060120201600401546006848154811061147757fe5b9060005260206000209060120201600501546006858154811061149657fe5b906000526020600020906012020160080154600686815481106114b557fe5b9060005260206000209060120201600a0154600687815481106114d457fe5b9060005260206000209060120201600e0154600688815481106114f357fe5b9060005260206000209060120201600f01549850985098509850985098509850985050919395975091939597565b61152961194e565b61159b576040517f08c379a00000000000000000000000000000000000000000000000000000000081526004018080602001828103825260208152602001807f4f776e61626c653a2063616c6c6572206973206e6f7420746865206f776e657281525060200191505060405180910390fd5b600073ffffffffffffffffffffffffffffffffffffffff166000809054906101000a900473ffffffffffffffffffffffffffffffffffffffff1673ffffffffffffffffffffffffffffffffffffffff167f8be0079c531659141344cd1fd0a4f28419497f9722a3daafe3b4186f6b6457e060405160405180910390a360008060006101000a81548173ffffffffffffffffffffffffffffffffffffffff021916908373ffffffffffffffffffffffffffffffffffffffff160217905550565b61166261194e565b6116d4576040517f08c379a00000000000000000000000000000000000000000000000000000000081526004018080602001828103825260208152602001807f4f776e61626c653a2063616c6c6572206973206e6f7420746865206f776e657281525060200191505060405180910390fd5b60006116ef600160068054905061291990919063ffffffff16565b905060066040518061026001604052808381526020018e81526020018d81526020018c81526020018b81526020018681526020018a73ffffffffffffffffffffffffffffffffffffffff1681526020018981526020018881526020018781526020018581526020016001151581526020016000151581526020014281526020016000815260200184815260200160008152602001600015158152602001600081525090806001815401808255809150506001900390600052602060002090601202016000909190919091506000820151816000015560208201518160010190805190602001906117e0929190612c33565b5060408201518160020155606082015181600301556080820151816004015560a0820151816005015560c08201518160060160006101000a81548173ffffffffffffffffffffffffffffffffffffffff021916908373ffffffffffffffffffffffffffffffffffffffff16021790555060e082015181600701556101008201518160080155610120820151816009015561014082015181600a015561016082015181600b0160006101000a81548160ff02191690831515021790555061018082015181600b0160016101000a81548160ff0219169083151502179055506101a082015181600c01556101c082015181600d01556101e082015181600e015561020082015181600f01556102208201518160100160006101000a81548160ff02191690831515021790555061024082015181601101555050505050505050505050505050565b60008060009054906101000a900473ffffffffffffffffffffffffffffffffffffffff16905090565b60008060009054906101000a900473ffffffffffffffffffffffffffffffffffffffff1673ffffffffffffffffffffffffffffffffffffffff16611990612a27565b73ffffffffffffffffffffffffffffffffffffffff1614905090565b60006005600083815260200190815260200160002060008473ffffffffffffffffffffffffffffffffffffffff1673ffffffffffffffffffffffffffffffffffffffff16815260200190815260200160002060010160149054906101000a900460ff16905092915050565b60006005600083815260200190815260200160002060003373ffffffffffffffffffffffffffffffffffffffff1673ffffffffffffffffffffffffffffffffffffffff168152602001908152602001600020600301549050919050565b6000611b9c60068381548110611a8657fe5b9060005260206000209060120201600f015460068481548110611aa557fe5b906000526020600020906012020160060160009054906101000a900473ffffffffffffffffffffffffffffffffffffffff1673ffffffffffffffffffffffffffffffffffffffff166370a08231306040518263ffffffff1660e01b8152600401808273ffffffffffffffffffffffffffffffffffffffff1673ffffffffffffffffffffffffffffffffffffffff16815260200191505060206040518083038186803b158015611b5357600080fd5b505afa158015611b67573d6000803e3d6000fd5b505050506040513d6020811015611b7d57600080fd5b81019080805190602001909291905050506128cf90919063ffffffff16565b9050919050565b6005600082815260200190815260200160002060003373ffffffffffffffffffffffffffffffffffffffff1673ffffffffffffffffffffffffffffffffffffffff16815260200190815260200160002060060160019054906101000a900460ff1615611c77576040517f08c379a00000000000000000000000000000000000000000000000000000000081526004018080602001828103825260148152602001807f7573657220616c726561647920636c61696d656400000000000000000000000081525060200191505060405180910390fd5b6000611c8d6001836128cf90919063ffffffff16565b90506000811015611d06576040517f08c379a000000000000000000000000000000000000000000000000000000000815260040180806020018281038252600c8152602001807f696e76616c696420706f6f6c000000000000000000000000000000000000000081525060200191505060405180910390fd5b611d5560068281548110611d1657fe5b9060005260206000209060120201600e015460068381548110611d3557fe5b90600052602060002090601202016002015461291990919063ffffffff16565b421015611dca576040517f08c379a000000000000000000000000000000000000000000000000000000000815260040180806020018281038252600b8152602001807f6e6f74206f6e2074696d6500000000000000000000000000000000000000000081525060200191505060405180910390fd5b6000611dd583611a17565b905060008111611e4d576040517f08c379a000000000000000000000000000000000000000000000000000000000815260040180806020018281038252600d8152602001807f696e76616c696420636c61696d0000000000000000000000000000000000000081525060200191505060405180910390fd5b60068281548110611e5a57fe5b906000526020600020906012020160060160009054906101000a900473ffffffffffffffffffffffffffffffffffffffff1673ffffffffffffffffffffffffffffffffffffffff1663a9059cbb33836040518363ffffffff1660e01b8152600401808373ffffffffffffffffffffffffffffffffffffffff1673ffffffffffffffffffffffffffffffffffffffff16815260200182815260200192505050602060405180830381600087803b158015611f1257600080fd5b505af1158015611f26573d6000803e3d6000fd5b505050506040513d6020811015611f3c57600080fd5b81019080805190602001909291905050505060016005600085815260200190815260200160002060003373ffffffffffffffffffffffffffffffffffffffff1673ffffffffffffffffffffffffffffffffffffffff16815260200190815260200160002060060160016101000a81548160ff021916908315150217905550505050565b611fc761194e565b612039576040517f08c379a00000000000000000000000000000000000000000000000000000000081526004018080602001828103825260208152602001807f4f776e61626c653a2063616c6c6572206973206e6f7420746865206f776e657281525060200191505060405180910390fd5b806005600083815260200190815260200160002060008473ffffffffffffffffffffffffffffffffffffffff1673ffffffffffffffffffffffffffffffffffffffff16815260200190815260200160002060000181905550816005600083815260200190815260200160002060008473ffffffffffffffffffffffffffffffffffffffff1673ffffffffffffffffffffffffffffffffffffffff16815260200190815260200160002060010160006101000a81548173ffffffffffffffffffffffffffffffffffffffff021916908373ffffffffffffffffffffffffffffffffffffffff16021790555060016005600083815260200190815260200160002060008473ffffffffffffffffffffffffffffffffffffffff1673ffffffffffffffffffffffffffffffffffffffff16815260200190815260200160002060010160146101000a81548160ff021916908315150217905550426005600083815260200190815260200160002060008473ffffffffffffffffffffffffffffffffffffffff1673ffffffffffffffffffffffffffffffffffffffff1681526020019081526020016000206002018190555060016005600083815260200190815260200160002060008473ffffffffffffffffffffffffffffffffffffffff1673ffffffffffffffffffffffffffffffffffffffff16815260200190815260200160002060060160006101000a81548160ff0219169083151502179055505050565b61225f61194e565b6122d1576040517f08c379a00000000000000000000000000000000000000000000000000000000081526004018080602001828103825260208152602001807f4f776e61626c653a2063616c6c6572206973206e6f7420746865206f776e657281525060200191505060405180910390fd5b8073ffffffffffffffffffffffffffffffffffffffff1663a9059cbb6122f5611925565b8373ffffffffffffffffffffffffffffffffffffffff166370a08231306040518263ffffffff1660e01b8152600401808273ffffffffffffffffffffffffffffffffffffffff1673ffffffffffffffffffffffffffffffffffffffff16815260200191505060206040518083038186803b15801561237257600080fd5b505afa158015612386573d6000803e3d6000fd5b505050506040513d602081101561239c57600080fd5b81019080805190602001909291905050506040518363ffffffff1660e01b8152600401808373ffffffffffffffffffffffffffffffffffffffff1673ffffffffffffffffffffffffffffffffffffffff16815260200182815260200192505050602060405180830381600087803b15801561241657600080fd5b505af115801561242a573d6000803e3d6000fd5b505050506040513d602081101561244057600080fd5b81019080805190602001909291905050505050565b61245d61194e565b6124cf576040517f08c379a00000000000000000000000000000000000000000000000000000000081526004018080602001828103825260208152602001807f4f776e61626c653a2063616c6c6572206973206e6f7420746865206f776e657281525060200191505060405180910390fd5b816005600085815260200190815260200160002060008673ffffffffffffffffffffffffffffffffffffffff1673ffffffffffffffffffffffffffffffffffffffff16815260200190815260200160002060010160146101000a81548160ff021916908315150217905550806005600085815260200190815260200160002060008673ffffffffffffffffffffffffffffffffffffffff1673ffffffffffffffffffffffffffffffffffffffff16815260200190815260200160002060060160006101000a81548160ff02191690831515021790555050505050565b6125b361194e565b612625576040517f08c379a00000000000000000000000000000000000000000000000000000000081526004018080602001828103825260208152602001807f4f776e61626c653a2063616c6c6572206973206e6f7420746865206f776e657281525060200191505060405180910390fd5b600061263b60018d6128cf90919063ffffffff16565b905060008b111561266a578a6006828154811061265457fe5b9060005260206000209060120201600201819055505b60008a111561269757896006828154811061268157fe5b9060005260206000209060120201600301819055505b60008911156126c45788600682815481106126ae57fe5b9060005260206000209060120201600501819055505b60008811156126f15787600682815481106126db57fe5b9060005260206000209060120201600701819055505b600087111561271e57866006828154811061270857fe5b9060005260206000209060120201600801819055505b600086111561274b57856006828154811061273557fe5b9060005260206000209060120201600901819055505b600085111561277857846006828154811061276257fe5b9060005260206000209060120201600a01819055505b60008211156127a557816006828154811061278f57fe5b9060005260206000209060120201600e01819055505b83600682815481106127b357fe5b9060005260206000209060120201600b0160006101000a81548160ff02191690831515021790555082600682815481106127e957fe5b9060005260206000209060120201600b0160016101000a81548160ff021916908315150217905550821561283b57426006828154811061282557fe5b9060005260206000209060120201600d01819055505b505050505050505050505050565b61285161194e565b6128c3576040517f08c379a00000000000000000000000000000000000000000000000000000000081526004018080602001828103825260208152602001807f4f776e61626c653a2063616c6c6572206973206e6f7420746865206f776e657281525060200191505060405180910390fd5b6128cc81612a2f565b50565b600061291183836040518060400160405280601e81526020017f536166654d6174683a207375627472616374696f6e206f766572666c6f770000815250612b73565b905092915050565b600080828401905083811015612997576040517f08c379a000000000000000000000000000000000000000000000000000000000815260040180806020018281038252601b8152602001807f536166654d6174683a206164646974696f6e206f766572666c6f77000000000081525060200191505060405180910390fd5b8091505092915050565b6000808314156129b45760009050612a21565b60008284029050828482816129c557fe5b0414612a1c576040517f08c379a0000000000000000000000000000000000000000000000000000000008152600401808060200182810382526021815260200180612cff6021913960400191505060405180910390fd5b809150505b92915050565b600033905090565b600073ffffffffffffffffffffffffffffffffffffffff168173ffffffffffffffffffffffffffffffffffffffff161415612ab5576040517f08c379a0000000000000000000000000000000000000000000000000000000008152600401808060200182810382526026815260200180612cd96026913960400191505060405180910390fd5b8073ffffffffffffffffffffffffffffffffffffffff166000809054906101000a900473ffffffffffffffffffffffffffffffffffffffff1673ffffffffffffffffffffffffffffffffffffffff167f8be0079c531659141344cd1fd0a4f28419497f9722a3daafe3b4186f6b6457e060405160405180910390a3806000806101000a81548173ffffffffffffffffffffffffffffffffffffffff021916908373ffffffffffffffffffffffffffffffffffffffff16021790555050565b6000838311158290612c20576040517f08c379a00000000000000000000000000000000000000000000000000000000081526004018080602001828103825283818151815260200191508051906020019080838360005b83811015612be5578082015181840152602081019050612bca565b50505050905090810190601f168015612c125780820380516001836020036101000a031916815260200191505b509250505060405180910390fd5b5060008385039050809150509392505050565b828054600181600116156101000203166002900490600052602060002090601f016020900481019282601f10612c7457805160ff1916838001178555612ca2565b82800160010185558215612ca2579182015b82811115612ca1578251825591602001919060010190612c86565b5b509050612caf9190612cb3565b5090565b612cd591905b80821115612cd1576000816000905550600101612cb9565b5090565b9056fe4f776e61626c653a206e6577206f776e657220697320746865207a65726f2061646472657373536166654d6174683a206d756c7469706c69636174696f6e206f766572666c6f77a26469706673582212202bd91ece2d077999ac4af0f3d386f81b0590c168053a8b681ff6a122719d162f64736f6c63430006020033",
  "source": "pragma solidity >=0.6.0;\r\n\r\nimport \"@openzeppelin/contracts/token/ERC20/SafeERC20.sol\";\r\nimport \"@openzeppelin/contracts/math/SafeMath.sol\";\r\nimport \"@openzeppelin/contracts/ownership/Ownable.sol\";\r\n\r\ncontract PolkaBridgeLaunchPad is Ownable {\r\n    string public name = \"PolkaBridge: LaunchPad\";\r\n    using SafeMath for uint256;\r\n    using SafeERC20 for IERC20;\r\n    uint256 private CONST_MINIMUM = 1000000000000000000;\r\n    IERC20 polkaBridgeToken;\r\n\r\n    address payable private ReceiveToken;\r\n\r\n    struct IDOPool {\r\n        uint256 Id;\r\n        string Name;\r\n        uint256 Begin;\r\n        uint256 End;\r\n        uint256 Type; //1:public, 2:private\r\n        uint256 AmountPBRRequire; //must e18,important when init\r\n        IERC20 IDOToken;\r\n        uint256 MinPurchase;\r\n        uint256 MaxPurchase;\r\n        uint256 TotalCap;\r\n        uint256 RatePerETH;\r\n        bool IsActived;\r\n        bool IsStoped;\r\n        uint256 ActivedDate;\r\n        uint256 StopDate;\r\n        uint256 LockDuration; //lock after purchase\r\n        uint256 TotalSold; //total number of token sold\r\n        bool IsSoldOut; //reach hardcap\r\n        uint256 SoldOutAt; //sold out at time\r\n    }\r\n\r\n    struct User {\r\n        uint256 Id;\r\n        address UserAddress;\r\n        bool IsWhitelist;\r\n        uint256 WhitelistDate;\r\n        uint256 TotalTokenPurchase;\r\n        uint256 TotalETHPurchase;\r\n        uint256 PurchaseTime;\r\n        bool IsActived;\r\n        bool IsClaimed;\r\n    }\r\n\r\n    mapping(uint256 => mapping(address => User)) whitelist; //poolid - listuser\r\n\r\n    IDOPool[] pools;\r\n\r\n    constructor(address payable receiveTokenAdd, IERC20 polkaBridge) public {\r\n        ReceiveToken = receiveTokenAdd;\r\n        polkaBridgeToken = polkaBridge;\r\n    }\r\n\r\n    function addWhitelist(address user, uint256 pid) public onlyOwner {\r\n        whitelist[pid][user].Id = pid;\r\n        whitelist[pid][user].UserAddress = user;\r\n        whitelist[pid][user].IsWhitelist = true;\r\n        whitelist[pid][user].WhitelistDate = block.timestamp;\r\n        whitelist[pid][user].IsActived = true;\r\n    }\r\n\r\n    function updateWhitelist(\r\n        address user,\r\n        uint256 pid,\r\n        bool isWhitelist,\r\n        bool isActived\r\n    ) public onlyOwner {\r\n        whitelist[pid][user].IsWhitelist = isWhitelist;\r\n        whitelist[pid][user].IsActived = isActived;\r\n    }\r\n\r\n    function IsWhitelist(address user, uint256 pid) public view returns (bool) {\r\n        return whitelist[pid][user].IsWhitelist;\r\n    }\r\n\r\n    function addPool(\r\n        string memory name,\r\n        uint256 begin,\r\n        uint256 end,\r\n        uint256 _type,\r\n        IERC20 idoToken,\r\n        uint256 minPurchase,\r\n        uint256 maxPurchase,\r\n        uint256 totalCap,\r\n        uint256 amountPBRRequire,\r\n        uint256 ratePerETH,\r\n        uint256 lockDuration\r\n    ) public onlyOwner {\r\n        uint256 id = pools.length.add(1);\r\n        pools.push(\r\n            IDOPool({\r\n                Id: id,\r\n                Name: name,\r\n                Begin: begin,\r\n                End: end,\r\n                Type: _type,\r\n                AmountPBRRequire: amountPBRRequire,\r\n                IDOToken: idoToken,\r\n                MinPurchase: minPurchase,\r\n                MaxPurchase: maxPurchase,\r\n                TotalCap: totalCap,\r\n                RatePerETH: ratePerETH,\r\n                IsActived: true,\r\n                IsStoped: false,\r\n                ActivedDate: block.timestamp,\r\n                StopDate: 0,\r\n                LockDuration: lockDuration,\r\n                TotalSold: 0,\r\n                IsSoldOut: false,\r\n                SoldOutAt: 0\r\n            })\r\n        );\r\n    }\r\n\r\n    function updatePool(\r\n        uint256 pid,\r\n        uint256 begin,\r\n        uint256 end,\r\n        uint256 amountPBRRequire,\r\n        uint256 minPurchase,\r\n        uint256 maxPurchase,\r\n        uint256 totalCap,\r\n        uint256 ratePerETH,\r\n        bool isActived,\r\n        bool isStoped,\r\n        uint256 lockDuration\r\n    ) public onlyOwner {\r\n        uint256 poolIndex = pid.sub(1);\r\n        if (begin > 0) {\r\n            pools[poolIndex].Begin = begin;\r\n        }\r\n        if (end > 0) {\r\n            pools[poolIndex].End = end;\r\n        }\r\n        if (amountPBRRequire > 0) {\r\n            pools[poolIndex].AmountPBRRequire = amountPBRRequire;\r\n        }\r\n        if (minPurchase > 0) {\r\n            pools[poolIndex].MinPurchase = minPurchase;\r\n        }\r\n        if (maxPurchase > 0) {\r\n            pools[poolIndex].MaxPurchase = maxPurchase;\r\n        }\r\n        if (totalCap > 0) {\r\n            pools[poolIndex].TotalCap = totalCap;\r\n        }\r\n        if (ratePerETH > 0) {\r\n            pools[poolIndex].RatePerETH = ratePerETH;\r\n        }\r\n        if (lockDuration > 0) {\r\n            pools[poolIndex].LockDuration = lockDuration;\r\n        }\r\n        pools[poolIndex].IsActived = isActived;\r\n        pools[poolIndex].IsStoped = isStoped;\r\n        if (isStoped) {\r\n            pools[poolIndex].StopDate = block.timestamp;\r\n        }\r\n    }\r\n\r\n    //withdraw contract token\r\n    //use for someone send token to contract\r\n    //recuse wrong user\r\n\r\n    function withdrawErc20(IERC20 token) public onlyOwner {\r\n        token.transfer(owner(), token.balanceOf(address(this)));\r\n    }\r\n\r\n    //withdraw ETH after IDO\r\n    function withdrawPoolFund() public onlyOwner {\r\n        uint256 balance = address(this).balance;\r\n        require(balance > 0, \"not enough fund\");\r\n        ReceiveToken.transfer(balance);\r\n    }\r\n\r\n    function purchaseIDO(uint256 pid) public payable {\r\n        uint256 poolIndex = pid.sub(1);\r\n        require(poolIndex >= 0, \"invalid pool\");\r\n        require(\r\n            pools[poolIndex].IsActived && !pools[poolIndex].IsStoped,\r\n            \"invalid pool\"\r\n        );\r\n        require(\r\n            block.timestamp >= pools[poolIndex].Begin &&\r\n                block.timestamp <= pools[poolIndex].End,\r\n            \"invalid time\"\r\n        );\r\n        uint256 remainToken = remainIDOToken(poolIndex);\r\n        if (remainToken <= CONST_MINIMUM) {\r\n            pools[poolIndex].IsSoldOut = true;\r\n            pools[poolIndex].SoldOutAt = block.timestamp;\r\n        }\r\n\r\n        require(!pools[poolIndex].IsSoldOut, \"IDO sold out\");\r\n\r\n        uint256 ethAmount = msg.value;\r\n        // require(\r\n        //     ethAmount >= pools[poolIndex].MinPurchase,\r\n        //     \"invalid minimum contribute\"\r\n        // );\r\n        require(\r\n            ethAmount <= pools[poolIndex].MaxPurchase,\r\n            \"invalid maximum contribute\"\r\n        );\r\n\r\n        whitelist[pid][msg.sender].TotalETHPurchase = whitelist[pid][msg.sender]\r\n            .TotalETHPurchase\r\n            .add(ethAmount);\r\n        if (\r\n            whitelist[pid][msg.sender].TotalETHPurchase >\r\n            pools[poolIndex].MaxPurchase\r\n        ) {\r\n            whitelist[pid][msg.sender].TotalETHPurchase = whitelist[pid][\r\n                msg.sender\r\n            ]\r\n                .TotalETHPurchase\r\n                .sub(ethAmount);\r\n            revert(\"invalid maximum contribute\");\r\n        }\r\n\r\n        //check user\r\n        require(\r\n            whitelist[pid][msg.sender].IsWhitelist &&\r\n                whitelist[pid][msg.sender].IsActived,\r\n            \"invalid user\"\r\n        );\r\n        if (pools[poolIndex].Type == 2) //private, check hold PBR\r\n        {\r\n            require(\r\n                polkaBridgeToken.balanceOf(msg.sender) >=\r\n                    pools[poolIndex].AmountPBRRequire,\r\n                \"must hold PBR\"\r\n            );\r\n        }\r\n\r\n        //storage\r\n        uint256 tokenAmount = ethAmount.mul(pools[poolIndex].RatePerETH);\r\n        whitelist[pid][msg.sender].TotalTokenPurchase = whitelist[pid][\r\n            msg.sender\r\n        ]\r\n            .TotalTokenPurchase\r\n            .add(tokenAmount);\r\n\r\n        pools[poolIndex].TotalSold = pools[poolIndex].TotalSold.add(\r\n            tokenAmount\r\n        );\r\n    }\r\n\r\n    function claimToken(uint256 pid) public {\r\n        require(!whitelist[pid][msg.sender].IsClaimed, \"user already claimed\");\r\n        uint256 poolIndex = pid.sub(1);\r\n        require(poolIndex >= 0, \"invalid pool\");\r\n\r\n        require(\r\n            block.timestamp >=\r\n                pools[poolIndex].Begin.add(pools[poolIndex].LockDuration),\r\n            \"not on time\"\r\n        );\r\n\r\n        uint256 userBalance = getUserTotalPurchase(pid);\r\n\r\n        require(userBalance > 0, \"invalid claim\");\r\n\r\n        pools[poolIndex].IDOToken.transfer(msg.sender, userBalance);\r\n        whitelist[pid][msg.sender].IsClaimed = true;\r\n    }\r\n\r\n    function getUserTotalPurchase(uint256 pid) public view returns (uint256) {\r\n        return whitelist[pid][msg.sender].TotalTokenPurchase;\r\n    }\r\n\r\n    function remainIDOToken(uint256 poolIndex) public view returns (uint256) {\r\n        return\r\n            pools[poolIndex].IDOToken.balanceOf(address(this)).sub(\r\n                pools[poolIndex].TotalSold\r\n            );\r\n    }\r\n\r\n    function getPoolInfo(uint256 pid)\r\n        public\r\n        view\r\n        returns (\r\n            uint256,\r\n            uint256,\r\n            uint256,\r\n            uint256,\r\n            uint256,\r\n            uint256,\r\n            uint256,\r\n            uint256\r\n        )\r\n    {\r\n        uint256 poolIndex = pid.sub(1);\r\n        return (\r\n            pools[poolIndex].Begin,\r\n            pools[poolIndex].End,\r\n            pools[poolIndex].Type,\r\n            pools[poolIndex].AmountPBRRequire,\r\n            pools[poolIndex].MaxPurchase,\r\n            pools[poolIndex].RatePerETH,\r\n            pools[poolIndex].LockDuration,\r\n            pools[poolIndex].TotalSold\r\n        );\r\n    }\r\n\r\n    receive() external payable {}\r\n}\r\n",
  "sourcePath": "C:/Users/thanhphi/Desktop/PolkaBridgeSolution/PolkaBridge-LaunchPad/contracts/PolkaBridgeLaunchPad.sol",
  "compiler": {
    "name": "solc",
    "version": "0.6.2+commit.bacdbe57.Emscripten.clang"
  },
  "schemaVersion": "3.3.3",
  "updatedAt": "2021-03-29T04:32:03.467Z",
  "devdoc": {
    "methods": {
      "isOwner()": {
        "details": "Returns true if the caller is the current owner."
      },
      "owner()": {
        "details": "Returns the address of the current owner."
      },
      "renounceOwnership()": {
        "details": "Leaves the contract without owner. It will not be possible to call `onlyOwner` functions anymore. Can only be called by the current owner.     * NOTE: Renouncing ownership will leave the contract without an owner, thereby removing any functionality that is only available to the owner."
      },
      "transferOwnership(address)": {
        "details": "Transfers ownership of the contract to a new account (`newOwner`). Can only be called by the current owner."
      }
    }
  },
  "userdoc": {
    "methods": {}
  }
}