{
  "contractName": "PolkaBridgeLaunchPad",
  "abi": [
    {
      "inputs": [
        {
          "internalType": "address payable",
          "name": "receiveTokenAdd",
          "type": "address"
        },
        {
          "internalType": "contract IERC20",
          "name": "polkaBridge",
          "type": "address"
        }
      ],
      "stateMutability": "nonpayable",
      "type": "constructor"
    },
    {
      "anonymous": false,
      "inputs": [
        {
          "indexed": true,
          "internalType": "address",
          "name": "previousOwner",
          "type": "address"
        },
        {
          "indexed": true,
          "internalType": "address",
          "name": "newOwner",
          "type": "address"
        }
      ],
      "name": "OwnershipTransferred",
      "type": "event"
    },
    {
      "inputs": [],
      "name": "isOwner",
      "outputs": [
        {
          "internalType": "bool",
          "name": "",
          "type": "bool"
        }
      ],
      "stateMutability": "view",
      "type": "function",
      "constant": true
    },
    {
      "inputs": [],
      "name": "name",
      "outputs": [
        {
          "internalType": "string",
          "name": "",
          "type": "string"
        }
      ],
      "stateMutability": "view",
      "type": "function",
      "constant": true
    },
    {
      "inputs": [],
      "name": "owner",
      "outputs": [
        {
          "internalType": "address",
          "name": "",
          "type": "address"
        }
      ],
      "stateMutability": "view",
      "type": "function",
      "constant": true
    },
    {
      "inputs": [],
      "name": "renounceOwnership",
      "outputs": [],
      "stateMutability": "nonpayable",
      "type": "function"
    },
    {
      "inputs": [
        {
          "internalType": "address",
          "name": "newOwner",
          "type": "address"
        }
      ],
      "name": "transferOwnership",
      "outputs": [],
      "stateMutability": "nonpayable",
      "type": "function"
    },
    {
      "stateMutability": "payable",
      "type": "receive",
      "payable": true
    },
    {
      "inputs": [
        {
          "internalType": "address",
          "name": "user",
          "type": "address"
        },
        {
          "internalType": "uint256",
          "name": "pid",
          "type": "uint256"
        }
      ],
      "name": "addWhitelist",
      "outputs": [],
      "stateMutability": "nonpayable",
      "type": "function"
    },
    {
      "inputs": [
        {
          "internalType": "address",
          "name": "user",
          "type": "address"
        },
        {
          "internalType": "uint256",
          "name": "pid",
          "type": "uint256"
        },
        {
          "internalType": "bool",
          "name": "isWhitelist",
          "type": "bool"
        },
        {
          "internalType": "bool",
          "name": "isActived",
          "type": "bool"
        }
      ],
      "name": "updateWhitelist",
      "outputs": [],
      "stateMutability": "nonpayable",
      "type": "function"
    },
    {
      "inputs": [
        {
          "internalType": "address",
          "name": "user",
          "type": "address"
        },
        {
          "internalType": "uint256",
          "name": "pid",
          "type": "uint256"
        }
      ],
      "name": "IsWhitelist",
      "outputs": [
        {
          "internalType": "bool",
          "name": "",
          "type": "bool"
        }
      ],
      "stateMutability": "view",
      "type": "function",
      "constant": true
    },
    {
      "inputs": [
        {
          "internalType": "string",
          "name": "name",
          "type": "string"
        },
        {
          "internalType": "uint256",
          "name": "begin",
          "type": "uint256"
        },
        {
          "internalType": "uint256",
          "name": "end",
          "type": "uint256"
        },
        {
          "internalType": "uint256",
          "name": "_type",
          "type": "uint256"
        },
        {
          "internalType": "contract IERC20",
          "name": "idoToken",
          "type": "address"
        },
        {
          "internalType": "uint256",
          "name": "minPurchase",
          "type": "uint256"
        },
        {
          "internalType": "uint256",
          "name": "maxPurchase",
          "type": "uint256"
        },
        {
          "internalType": "uint256",
          "name": "totalCap",
          "type": "uint256"
        },
        {
          "internalType": "uint256",
          "name": "totalToken",
          "type": "uint256"
        },
        {
          "internalType": "uint256",
          "name": "amountPBRRequire",
          "type": "uint256"
        },
        {
          "internalType": "uint256",
          "name": "ratePerETH",
          "type": "uint256"
        },
        {
          "internalType": "uint256",
          "name": "lockDuration",
          "type": "uint256"
        }
      ],
      "name": "addPool",
      "outputs": [],
      "stateMutability": "nonpayable",
      "type": "function"
    },
    {
      "inputs": [
        {
          "internalType": "uint256",
          "name": "pid",
          "type": "uint256"
        },
        {
          "internalType": "uint256",
          "name": "begin",
          "type": "uint256"
        },
        {
          "internalType": "uint256",
          "name": "end",
          "type": "uint256"
        },
        {
          "internalType": "uint256",
          "name": "amountPBRRequire",
          "type": "uint256"
        },
        {
          "internalType": "uint256",
          "name": "minPurchase",
          "type": "uint256"
        },
        {
          "internalType": "uint256",
          "name": "maxPurchase",
          "type": "uint256"
        },
        {
          "internalType": "uint256",
          "name": "totalCap",
          "type": "uint256"
        },
        {
          "internalType": "uint256",
          "name": "totalToken",
          "type": "uint256"
        },
        {
          "internalType": "uint256",
          "name": "ratePerETH",
          "type": "uint256"
        },
        {
          "internalType": "bool",
          "name": "isActived",
          "type": "bool"
        },
        {
          "internalType": "bool",
          "name": "isStoped",
          "type": "bool"
        },
        {
          "internalType": "uint256",
          "name": "lockDuration",
          "type": "uint256"
        }
      ],
      "name": "updatePool",
      "outputs": [],
      "stateMutability": "nonpayable",
      "type": "function"
    },
    {
      "inputs": [
        {
          "internalType": "contract IERC20",
          "name": "token",
          "type": "address"
        }
      ],
      "name": "withdrawErc20",
      "outputs": [],
      "stateMutability": "nonpayable",
      "type": "function"
    },
    {
      "inputs": [],
      "name": "withdrawPoolFund",
      "outputs": [],
      "stateMutability": "nonpayable",
      "type": "function"
    },
    {
      "inputs": [
        {
          "internalType": "uint256",
          "name": "pid",
          "type": "uint256"
        }
      ],
      "name": "purchaseIDO",
      "outputs": [],
      "stateMutability": "payable",
      "type": "function",
      "payable": true
    },
    {
      "inputs": [
        {
          "internalType": "uint256",
          "name": "pid",
          "type": "uint256"
        }
      ],
      "name": "claimToken",
      "outputs": [],
      "stateMutability": "nonpayable",
      "type": "function"
    },
    {
      "inputs": [
        {
          "internalType": "uint256",
          "name": "pid",
          "type": "uint256"
        }
      ],
      "name": "getUserTotalPurchase",
      "outputs": [
        {
          "internalType": "uint256",
          "name": "",
          "type": "uint256"
        }
      ],
      "stateMutability": "view",
      "type": "function",
      "constant": true
    },
    {
      "inputs": [
        {
          "internalType": "uint256",
          "name": "pid",
          "type": "uint256"
        }
      ],
      "name": "getRemainIDOToken",
      "outputs": [
        {
          "internalType": "uint256",
          "name": "",
          "type": "uint256"
        }
      ],
      "stateMutability": "view",
      "type": "function",
      "constant": true
    },
    {
      "inputs": [
        {
          "internalType": "uint256",
          "name": "pid",
          "type": "uint256"
        }
      ],
      "name": "getBalanceTokenByPoolId",
      "outputs": [
        {
          "internalType": "uint256",
          "name": "",
          "type": "uint256"
        }
      ],
      "stateMutability": "view",
      "type": "function",
      "constant": true
    },
    {
      "inputs": [
        {
          "internalType": "uint256",
          "name": "pid",
          "type": "uint256"
        }
      ],
      "name": "getPoolInfo",
      "outputs": [
        {
          "internalType": "uint256",
          "name": "",
          "type": "uint256"
        },
        {
          "internalType": "uint256",
          "name": "",
          "type": "uint256"
        },
        {
          "internalType": "uint256",
          "name": "",
          "type": "uint256"
        },
        {
          "internalType": "uint256",
          "name": "",
          "type": "uint256"
        },
        {
          "internalType": "uint256",
          "name": "",
          "type": "uint256"
        },
        {
          "internalType": "uint256",
          "name": "",
          "type": "uint256"
        },
        {
          "internalType": "uint256",
          "name": "",
          "type": "uint256"
        },
        {
          "internalType": "uint256",
          "name": "",
          "type": "uint256"
        },
        {
          "internalType": "bool",
          "name": "",
          "type": "bool"
        },
        {
          "internalType": "contract IERC20",
          "name": "",
          "type": "address"
        }
      ],
      "stateMutability": "view",
      "type": "function",
      "constant": true
    },
    {
      "inputs": [
        {
          "internalType": "uint256",
          "name": "pid",
          "type": "uint256"
        }
      ],
      "name": "getPoolSoldInfo",
      "outputs": [
        {
          "internalType": "uint256",
          "name": "",
          "type": "uint256"
        },
        {
          "internalType": "uint256",
          "name": "",
          "type": "uint256"
        },
        {
          "internalType": "bool",
          "name": "",
          "type": "bool"
        },
        {
          "internalType": "uint256",
          "name": "",
          "type": "uint256"
        }
      ],
      "stateMutability": "view",
      "type": "function",
      "constant": true
    },
    {
      "inputs": [
        {
          "internalType": "uint256",
          "name": "pid",
          "type": "uint256"
        }
      ],
      "name": "getWhitelistfo",
      "outputs": [
        {
          "internalType": "address",
          "name": "",
          "type": "address"
        },
        {
          "internalType": "bool",
          "name": "",
          "type": "bool"
        },
        {
          "internalType": "uint256",
          "name": "",
          "type": "uint256"
        },
        {
          "internalType": "uint256",
          "name": "",
          "type": "uint256"
        },
        {
          "internalType": "uint256",
          "name": "",
          "type": "uint256"
        },
        {
          "internalType": "bool",
          "name": "",
          "type": "bool"
        }
      ],
      "stateMutability": "view",
      "type": "function",
      "constant": true
    }
  ],
  "bytecode": "0x60806040526040518060400160405280601681526020017f506f6c6b614272696467653a204c61756e6368506164000000000000000000008152506001908051906020019062000051929190620001ee565b50670de0b6b3a76400006002553480156200006b57600080fd5b506040516200353a3803806200353a833981810160405260408110156200009157600080fd5b8101908080519060200190929190805190602001909291905050506000620000be620001e660201b60201c565b9050806000806101000a81548173ffffffffffffffffffffffffffffffffffffffff021916908373ffffffffffffffffffffffffffffffffffffffff1602179055508073ffffffffffffffffffffffffffffffffffffffff16600073ffffffffffffffffffffffffffffffffffffffff167f8be0079c531659141344cd1fd0a4f28419497f9722a3daafe3b4186f6b6457e060405160405180910390a35081600460006101000a81548173ffffffffffffffffffffffffffffffffffffffff021916908373ffffffffffffffffffffffffffffffffffffffff16021790555080600360006101000a81548173ffffffffffffffffffffffffffffffffffffffff021916908373ffffffffffffffffffffffffffffffffffffffff16021790555050506200029d565b600033905090565b828054600181600116156101000203166002900490600052602060002090601f016020900481019282601f106200023157805160ff191683800117855562000262565b8280016001018555821562000262579182015b828111156200026157825182559160200191906001019062000244565b5b50905062000271919062000275565b5090565b6200029a91905b80821115620002965760008160009055506001016200027c565b5090565b90565b61328d80620002ad6000396000f3fe6080604052600436106101235760003560e01c8063a48ebe82116100a0578063c734e25311610064578063c734e253146106a9578063c7854f0a14610711578063c7e42b1b1461085e578063d70c33c8146108af578063f2fde38b146109225761012a565b8063a48ebe82146104cf578063a9e7c2e51461051e578063b39d900914610559578063b7de0303146105b4578063c30ef487146106035761012a565b8063363d9472116100e7578063363d947214610311578063715018a6146103bf5780638da5cb5b146103d65780638f32d59b1461042d5780639c1318061461045c5761012a565b806306fdde031461012f5780631a162318146101bf5780631f4552cb146101ed5780632561ae02146102045780632f380b35146102535761012a565b3661012a57005b600080fd5b34801561013b57600080fd5b50610144610973565b6040518080602001828103825283818151815260200191508051906020019080838360005b83811015610184578082015181840152602081019050610169565b50505050905090810190601f1680156101b15780820380516001836020036101000a031916815260200191505b509250505060405180910390f35b6101eb600480360360208110156101d557600080fd5b8101908080359060200190929190505050610a11565b005b3480156101f957600080fd5b506102026113fb565b005b34801561021057600080fd5b5061023d6004803603602081101561022757600080fd5b810190808035906020019092919050505061155c565b6040518082815260200191505060405180910390f35b34801561025f57600080fd5b5061028c6004803603602081101561027657600080fd5b81019080803590602001909291905050506115bc565b604051808b81526020018a8152602001898152602001888152602001878152602001868152602001858152602001848152602001831515151581526020018273ffffffffffffffffffffffffffffffffffffffff1673ffffffffffffffffffffffffffffffffffffffff1681526020019a505050505050505050505060405180910390f35b34801561031d57600080fd5b506103bd600480360361018081101561033557600080fd5b8101908080359060200190929190803590602001909291908035906020019092919080359060200190929190803590602001909291908035906020019092919080359060200190929190803590602001909291908035906020019092919080351515906020019092919080351515906020019092919080359060200190929190505050611768565b005b3480156103cb57600080fd5b506103d4611a34565b005b3480156103e257600080fd5b506103eb611b6d565b604051808273ffffffffffffffffffffffffffffffffffffffff1673ffffffffffffffffffffffffffffffffffffffff16815260200191505060405180910390f35b34801561043957600080fd5b50610442611b96565b604051808215151515815260200191505060405180910390f35b34801561046857600080fd5b506104b56004803603604081101561047f57600080fd5b81019080803573ffffffffffffffffffffffffffffffffffffffff16906020019092919080359060200190929190505050611bf4565b604051808215151515815260200191505060405180910390f35b3480156104db57600080fd5b50610508600480360360208110156104f257600080fd5b8101908080359060200190929190505050611c5f565b6040518082815260200191505060405180910390f35b34801561052a57600080fd5b506105576004803603602081101561054157600080fd5b8101908080359060200190929190505050611cbc565b005b34801561056557600080fd5b506105b26004803603604081101561057c57600080fd5b81019080803573ffffffffffffffffffffffffffffffffffffffff16906020019092919080359060200190929190505050612061565b005b3480156105c057600080fd5b506105ed600480360360208110156105d757600080fd5b81019080803590602001909291905050506122f9565b6040518082815260200191505060405180910390f35b34801561060f57600080fd5b5061063c6004803603602081101561062657600080fd5b8101908080359060200190929190505050612339565b604051808773ffffffffffffffffffffffffffffffffffffffff1673ffffffffffffffffffffffffffffffffffffffff1681526020018615151515815260200185815260200184815260200183815260200182151515158152602001965050505050505060405180910390f35b3480156106b557600080fd5b506106e2600480360360208110156106cc57600080fd5b8101908080359060200190929190505050612589565b604051808581526020018481526020018315151515815260200182815260200194505050505060405180910390f35b34801561071d57600080fd5b5061085c600480360361018081101561073557600080fd5b810190808035906020019064010000000081111561075257600080fd5b82018360208201111561076457600080fd5b8035906020019184600183028401116401000000008311171561078657600080fd5b91908080601f016020809104026020016040519081016040528093929190818152602001838380828437600081840152601f19601f820116905080830192505050505050509192919290803590602001909291908035906020019092919080359060200190929190803573ffffffffffffffffffffffffffffffffffffffff16906020019092919080359060200190929190803590602001909291908035906020019092919080359060200190929190803590602001909291908035906020019092919080359060200190929190505050612640565b005b34801561086a57600080fd5b506108ad6004803603602081101561088157600080fd5b81019080803573ffffffffffffffffffffffffffffffffffffffff16906020019092919050505061291d565b005b3480156108bb57600080fd5b50610920600480360360808110156108d257600080fd5b81019080803573ffffffffffffffffffffffffffffffffffffffff16906020019092919080359060200190929190803515159060200190929190803515159060200190929190505050612b1b565b005b34801561092e57600080fd5b506109716004803603602081101561094557600080fd5b81019080803573ffffffffffffffffffffffffffffffffffffffff169060200190929190505050612c71565b005b60018054600181600116156101000203166002900480601f016020809104026020016040519081016040528092919081815260200182805460018160011615610100020316600290048015610a095780601f106109de57610100808354040283529160200191610a09565b820191906000526020600020905b8154815290600101906020018083116109ec57829003601f168201915b505050505081565b6000610a27600183612cf790919063ffffffff16565b905060068181548110610a3657fe5b9060005260206000209060130201600c0160009054906101000a900460ff168015610a8a575060068181548110610a6957fe5b9060005260206000209060130201600c0160019054906101000a900460ff16155b610afc576040517f08c379a000000000000000000000000000000000000000000000000000000000815260040180806020018281038252600c8152602001807f696e76616c696420706f6f6c000000000000000000000000000000000000000081525060200191505060405180910390fd5b60068181548110610b0957fe5b9060005260206000209060130201600201544210158015610b48575060068181548110610b3257fe5b9060005260206000209060130201600301544211155b610bba576040517f08c379a000000000000000000000000000000000000000000000000000000000815260040180806020018281038252600c8152602001807f696e76616c69642074696d65000000000000000000000000000000000000000081525060200191505060405180910390fd5b6000610bc58361155c565b90506002548111610c2b57600160068381548110610bdf57fe5b906000526020600020906013020160110160006101000a81548160ff0219169083151502179055504260068381548110610c1557fe5b9060005260206000209060130201601201819055505b60068281548110610c3857fe5b906000526020600020906013020160110160009054906101000a900460ff1615610cca576040517f08c379a000000000000000000000000000000000000000000000000000000000815260040180806020018281038252600c8152602001807f49444f20736f6c64206f7574000000000000000000000000000000000000000081525060200191505060405180910390fd5b600034905060068381548110610cdc57fe5b906000526020600020906013020160080154811115610d63576040517f08c379a000000000000000000000000000000000000000000000000000000000815260040180806020018281038252601a8152602001807f696e76616c6964206d6178696d756d20636f6e7472696275746500000000000081525060200191505060405180910390fd5b610dc9816005600087815260200190815260200160002060003373ffffffffffffffffffffffffffffffffffffffff1673ffffffffffffffffffffffffffffffffffffffff16815260200190815260200160002060040154612d4190919063ffffffff16565b6005600086815260200190815260200160002060003373ffffffffffffffffffffffffffffffffffffffff1673ffffffffffffffffffffffffffffffffffffffff1681526020019081526020016000206004018190555060068381548110610e2d57fe5b9060005260206000209060130201600801546005600086815260200190815260200160002060003373ffffffffffffffffffffffffffffffffffffffff1673ffffffffffffffffffffffffffffffffffffffff168152602001908152602001600020600401541115610fc457610eff816005600087815260200190815260200160002060003373ffffffffffffffffffffffffffffffffffffffff1673ffffffffffffffffffffffffffffffffffffffff16815260200190815260200160002060040154612cf790919063ffffffff16565b6005600086815260200190815260200160002060003373ffffffffffffffffffffffffffffffffffffffff1673ffffffffffffffffffffffffffffffffffffffff168152602001908152602001600020600401819055506040517f08c379a000000000000000000000000000000000000000000000000000000000815260040180806020018281038252601a8152602001807f696e76616c6964206d6178696d756d20636f6e7472696275746500000000000081525060200191505060405180910390fd5b6005600085815260200190815260200160002060003373ffffffffffffffffffffffffffffffffffffffff1673ffffffffffffffffffffffffffffffffffffffff16815260200190815260200160002060010160149054906101000a900460ff16801561108e57506005600085815260200190815260200160002060003373ffffffffffffffffffffffffffffffffffffffff1673ffffffffffffffffffffffffffffffffffffffff16815260200190815260200160002060060160009054906101000a900460ff165b611100576040517f08c379a000000000000000000000000000000000000000000000000000000000815260040180806020018281038252600c8152602001807f696e76616c69642075736572000000000000000000000000000000000000000081525060200191505060405180910390fd5b60026006848154811061110f57fe5b9060005260206000209060130201600401541415611295576006838154811061113457fe5b906000526020600020906013020160050154600360009054906101000a900473ffffffffffffffffffffffffffffffffffffffff1673ffffffffffffffffffffffffffffffffffffffff166370a08231336040518263ffffffff1660e01b8152600401808273ffffffffffffffffffffffffffffffffffffffff1673ffffffffffffffffffffffffffffffffffffffff16815260200191505060206040518083038186803b1580156111e557600080fd5b505afa1580156111f9573d6000803e3d6000fd5b505050506040513d602081101561120f57600080fd5b81019080805190602001909291905050501015611294576040517f08c379a000000000000000000000000000000000000000000000000000000000815260040180806020018281038252600d8152602001807f6d75737420686f6c64205042520000000000000000000000000000000000000081525060200191505060405180910390fd5b5b60006112e2670de0b6b3a76400006112d4600687815481106112b357fe5b9060005260206000209060130201600b015485612dc990919063ffffffff16565b612e4f90919063ffffffff16565b905061134a816005600088815260200190815260200160002060003373ffffffffffffffffffffffffffffffffffffffff1673ffffffffffffffffffffffffffffffffffffffff16815260200190815260200160002060030154612d4190919063ffffffff16565b6005600087815260200190815260200160002060003373ffffffffffffffffffffffffffffffffffffffff1673ffffffffffffffffffffffffffffffffffffffff168152602001908152602001600020600301819055506113d281600686815481106113b257fe5b906000526020600020906013020160100154612d4190919063ffffffff16565b600685815481106113df57fe5b9060005260206000209060130201601001819055505050505050565b611403611b96565b611475576040517f08c379a00000000000000000000000000000000000000000000000000000000081526004018080602001828103825260208152602001807f4f776e61626c653a2063616c6c6572206973206e6f7420746865206f776e657281525060200191505060405180910390fd5b6000479050600081116114f0576040517f08c379a000000000000000000000000000000000000000000000000000000000815260040180806020018281038252600f8152602001807f6e6f7420656e6f7567682066756e64000000000000000000000000000000000081525060200191505060405180910390fd5b600460009054906101000a900473ffffffffffffffffffffffffffffffffffffffff1673ffffffffffffffffffffffffffffffffffffffff166108fc829081150290604051600060405180830381858888f19350505050158015611558573d6000803e3d6000fd5b5050565b600080611573600184612cf790919063ffffffff16565b90506000611580846122f9565b90506115b36006838154811061159257fe5b90600052602060002090601302016010015482612cf790919063ffffffff16565b92505050919050565b60008060008060008060008060008060006115e160018d612cf790919063ffffffff16565b9050600681815481106115f057fe5b9060005260206000209060130201600201546006828154811061160f57fe5b9060005260206000209060130201600301546006838154811061162e57fe5b9060005260206000209060130201600401546006848154811061164d57fe5b9060005260206000209060130201600501546006858154811061166c57fe5b9060005260206000209060130201600801546006868154811061168b57fe5b9060005260206000209060130201600b0154600687815481106116aa57fe5b9060005260206000209060130201600f0154600688815481106116c957fe5b906000526020600020906013020160100154600689815481106116e857fe5b9060005260206000209060130201600c0160009054906101000a900460ff1660068a8154811061171457fe5b906000526020600020906013020160060160009054906101000a900473ffffffffffffffffffffffffffffffffffffffff169a509a509a509a509a509a509a509a509a509a50509193959799509193959799565b611770611b96565b6117e2576040517f08c379a00000000000000000000000000000000000000000000000000000000081526004018080602001828103825260208152602001807f4f776e61626c653a2063616c6c6572206973206e6f7420746865206f776e657281525060200191505060405180910390fd5b60006117f860018e612cf790919063ffffffff16565b905060008c1115611827578b6006828154811061181157fe5b9060005260206000209060130201600201819055505b60008b1115611854578a6006828154811061183e57fe5b9060005260206000209060130201600301819055505b60008a111561188157896006828154811061186b57fe5b9060005260206000209060130201600501819055505b60008911156118ae57886006828154811061189857fe5b9060005260206000209060130201600701819055505b60008811156118db5787600682815481106118c557fe5b9060005260206000209060130201600801819055505b60008711156119085786600682815481106118f257fe5b9060005260206000209060130201600901819055505b600086111561193557856006828154811061191f57fe5b9060005260206000209060130201600a01819055505b600085111561196257846006828154811061194c57fe5b9060005260206000209060130201600b01819055505b600082111561198f57816006828154811061197957fe5b9060005260206000209060130201600f01819055505b836006828154811061199d57fe5b9060005260206000209060130201600c0160006101000a81548160ff02191690831515021790555082600682815481106119d357fe5b9060005260206000209060130201600c0160016101000a81548160ff0219169083151502179055508215611a25574260068281548110611a0f57fe5b9060005260206000209060130201600e01819055505b50505050505050505050505050565b611a3c611b96565b611aae576040517f08c379a00000000000000000000000000000000000000000000000000000000081526004018080602001828103825260208152602001807f4f776e61626c653a2063616c6c6572206973206e6f7420746865206f776e657281525060200191505060405180910390fd5b600073ffffffffffffffffffffffffffffffffffffffff166000809054906101000a900473ffffffffffffffffffffffffffffffffffffffff1673ffffffffffffffffffffffffffffffffffffffff167f8be0079c531659141344cd1fd0a4f28419497f9722a3daafe3b4186f6b6457e060405160405180910390a360008060006101000a81548173ffffffffffffffffffffffffffffffffffffffff021916908373ffffffffffffffffffffffffffffffffffffffff160217905550565b60008060009054906101000a900473ffffffffffffffffffffffffffffffffffffffff16905090565b60008060009054906101000a900473ffffffffffffffffffffffffffffffffffffffff1673ffffffffffffffffffffffffffffffffffffffff16611bd8612e99565b73ffffffffffffffffffffffffffffffffffffffff1614905090565b60006005600083815260200190815260200160002060008473ffffffffffffffffffffffffffffffffffffffff1673ffffffffffffffffffffffffffffffffffffffff16815260200190815260200160002060010160149054906101000a900460ff16905092915050565b60006005600083815260200190815260200160002060003373ffffffffffffffffffffffffffffffffffffffff1673ffffffffffffffffffffffffffffffffffffffff168152602001908152602001600020600301549050919050565b6005600082815260200190815260200160002060003373ffffffffffffffffffffffffffffffffffffffff1673ffffffffffffffffffffffffffffffffffffffff16815260200190815260200160002060060160019054906101000a900460ff1615611d90576040517f08c379a00000000000000000000000000000000000000000000000000000000081526004018080602001828103825260148152602001807f7573657220616c726561647920636c61696d656400000000000000000000000081525060200191505060405180910390fd5b6000611da6600183612cf790919063ffffffff16565b9050611df760068281548110611db857fe5b9060005260206000209060130201600f015460068381548110611dd757fe5b906000526020600020906013020160030154612d4190919063ffffffff16565b421015611e6c576040517f08c379a000000000000000000000000000000000000000000000000000000000815260040180806020018281038252600b8152602001807f6e6f74206f6e2074696d6500000000000000000000000000000000000000000081525060200191505060405180910390fd5b6000611e7783611c5f565b905060008111611eef576040517f08c379a000000000000000000000000000000000000000000000000000000000815260040180806020018281038252600d8152602001807f696e76616c696420636c61696d0000000000000000000000000000000000000081525060200191505060405180910390fd5b60068281548110611efc57fe5b906000526020600020906013020160060160009054906101000a900473ffffffffffffffffffffffffffffffffffffffff1673ffffffffffffffffffffffffffffffffffffffff1663a9059cbb33836040518363ffffffff1660e01b8152600401808373ffffffffffffffffffffffffffffffffffffffff1673ffffffffffffffffffffffffffffffffffffffff16815260200182815260200192505050602060405180830381600087803b158015611fb457600080fd5b505af1158015611fc8573d6000803e3d6000fd5b505050506040513d6020811015611fde57600080fd5b81019080805190602001909291905050505060016005600085815260200190815260200160002060003373ffffffffffffffffffffffffffffffffffffffff1673ffffffffffffffffffffffffffffffffffffffff16815260200190815260200160002060060160016101000a81548160ff021916908315150217905550505050565b612069611b96565b6120db576040517f08c379a00000000000000000000000000000000000000000000000000000000081526004018080602001828103825260208152602001807f4f776e61626c653a2063616c6c6572206973206e6f7420746865206f776e657281525060200191505060405180910390fd5b806005600083815260200190815260200160002060008473ffffffffffffffffffffffffffffffffffffffff1673ffffffffffffffffffffffffffffffffffffffff16815260200190815260200160002060000181905550816005600083815260200190815260200160002060008473ffffffffffffffffffffffffffffffffffffffff1673ffffffffffffffffffffffffffffffffffffffff16815260200190815260200160002060010160006101000a81548173ffffffffffffffffffffffffffffffffffffffff021916908373ffffffffffffffffffffffffffffffffffffffff16021790555060016005600083815260200190815260200160002060008473ffffffffffffffffffffffffffffffffffffffff1673ffffffffffffffffffffffffffffffffffffffff16815260200190815260200160002060010160146101000a81548160ff021916908315150217905550426005600083815260200190815260200160002060008473ffffffffffffffffffffffffffffffffffffffff1673ffffffffffffffffffffffffffffffffffffffff1681526020019081526020016000206002018190555060016005600083815260200190815260200160002060008473ffffffffffffffffffffffffffffffffffffffff1673ffffffffffffffffffffffffffffffffffffffff16815260200190815260200160002060060160006101000a81548160ff0219169083151502179055505050565b600080612310600184612cf790919063ffffffff16565b90506006818154811061231f57fe5b9060005260206000209060130201600a0154915050919050565b6000806000806000806005600088815260200190815260200160002060003373ffffffffffffffffffffffffffffffffffffffff1673ffffffffffffffffffffffffffffffffffffffff16815260200190815260200160002060010160009054906101000a900473ffffffffffffffffffffffffffffffffffffffff166005600089815260200190815260200160002060003373ffffffffffffffffffffffffffffffffffffffff1673ffffffffffffffffffffffffffffffffffffffff16815260200190815260200160002060010160149054906101000a900460ff16600560008a815260200190815260200160002060003373ffffffffffffffffffffffffffffffffffffffff1673ffffffffffffffffffffffffffffffffffffffff16815260200190815260200160002060020154600560008b815260200190815260200160002060003373ffffffffffffffffffffffffffffffffffffffff1673ffffffffffffffffffffffffffffffffffffffff16815260200190815260200160002060030154600560008c815260200190815260200160002060003373ffffffffffffffffffffffffffffffffffffffff1673ffffffffffffffffffffffffffffffffffffffff16815260200190815260200160002060040154600560008d815260200190815260200160002060003373ffffffffffffffffffffffffffffffffffffffff1673ffffffffffffffffffffffffffffffffffffffff16815260200190815260200160002060060160019054906101000a900460ff1695509550955095509550955091939550919395565b60008060008060006125a5600187612cf790919063ffffffff16565b9050600681815481106125b457fe5b9060005260206000209060130201600f0154600682815481106125d357fe5b906000526020600020906013020160100154600683815481106125f257fe5b906000526020600020906013020160110160009054906101000a900460ff166006848154811061261e57fe5b9060005260206000209060130201601201549450945094509450509193509193565b612648611b96565b6126ba576040517f08c379a00000000000000000000000000000000000000000000000000000000081526004018080602001828103825260208152602001807f4f776e61626c653a2063616c6c6572206973206e6f7420746865206f776e657281525060200191505060405180910390fd5b60006126d56001600680549050612d4190919063ffffffff16565b905060066040518061028001604052808381526020018f81526020018e81526020018d81526020018c81526020018681526020018b73ffffffffffffffffffffffffffffffffffffffff1681526020018a81526020018981526020018881526020018781526020018581526020016001151581526020016000151581526020014281526020016000815260200184815260200160008152602001600015158152602001600081525090806001815401808255809150506001900390600052602060002090601302016000909190919091506000820151816000015560208201518160010190805190602001906127cc92919061316b565b5060408201518160020155606082015181600301556080820151816004015560a0820151816005015560c08201518160060160006101000a81548173ffffffffffffffffffffffffffffffffffffffff021916908373ffffffffffffffffffffffffffffffffffffffff16021790555060e082015181600701556101008201518160080155610120820151816009015561014082015181600a015561016082015181600b015561018082015181600c0160006101000a81548160ff0219169083151502179055506101a082015181600c0160016101000a81548160ff0219169083151502179055506101c082015181600d01556101e082015181600e015561020082015181600f015561022082015181601001556102408201518160110160006101000a81548160ff0219169083151502179055506102608201518160120155505050505050505050505050505050565b612925611b96565b612997576040517f08c379a00000000000000000000000000000000000000000000000000000000081526004018080602001828103825260208152602001807f4f776e61626c653a2063616c6c6572206973206e6f7420746865206f776e657281525060200191505060405180910390fd5b8073ffffffffffffffffffffffffffffffffffffffff1663a9059cbb6129bb611b6d565b8373ffffffffffffffffffffffffffffffffffffffff166370a08231306040518263ffffffff1660e01b8152600401808273ffffffffffffffffffffffffffffffffffffffff1673ffffffffffffffffffffffffffffffffffffffff16815260200191505060206040518083038186803b158015612a3857600080fd5b505afa158015612a4c573d6000803e3d6000fd5b505050506040513d6020811015612a6257600080fd5b81019080805190602001909291905050506040518363ffffffff1660e01b8152600401808373ffffffffffffffffffffffffffffffffffffffff1673ffffffffffffffffffffffffffffffffffffffff16815260200182815260200192505050602060405180830381600087803b158015612adc57600080fd5b505af1158015612af0573d6000803e3d6000fd5b505050506040513d6020811015612b0657600080fd5b81019080805190602001909291905050505050565b612b23611b96565b612b95576040517f08c379a00000000000000000000000000000000000000000000000000000000081526004018080602001828103825260208152602001807f4f776e61626c653a2063616c6c6572206973206e6f7420746865206f776e657281525060200191505060405180910390fd5b816005600085815260200190815260200160002060008673ffffffffffffffffffffffffffffffffffffffff1673ffffffffffffffffffffffffffffffffffffffff16815260200190815260200160002060010160146101000a81548160ff021916908315150217905550806005600085815260200190815260200160002060008673ffffffffffffffffffffffffffffffffffffffff1673ffffffffffffffffffffffffffffffffffffffff16815260200190815260200160002060060160006101000a81548160ff02191690831515021790555050505050565b612c79611b96565b612ceb576040517f08c379a00000000000000000000000000000000000000000000000000000000081526004018080602001828103825260208152602001807f4f776e61626c653a2063616c6c6572206973206e6f7420746865206f776e657281525060200191505060405180910390fd5b612cf481612ea1565b50565b6000612d3983836040518060400160405280601e81526020017f536166654d6174683a207375627472616374696f6e206f766572666c6f770000815250612fe5565b905092915050565b600080828401905083811015612dbf576040517f08c379a000000000000000000000000000000000000000000000000000000000815260040180806020018281038252601b8152602001807f536166654d6174683a206164646974696f6e206f766572666c6f77000000000081525060200191505060405180910390fd5b8091505092915050565b600080831415612ddc5760009050612e49565b6000828402905082848281612ded57fe5b0414612e44576040517f08c379a00000000000000000000000000000000000000000000000000000000081526004018080602001828103825260218152602001806132376021913960400191505060405180910390fd5b809150505b92915050565b6000612e9183836040518060400160405280601a81526020017f536166654d6174683a206469766973696f6e206279207a65726f0000000000008152506130a5565b905092915050565b600033905090565b600073ffffffffffffffffffffffffffffffffffffffff168173ffffffffffffffffffffffffffffffffffffffff161415612f27576040517f08c379a00000000000000000000000000000000000000000000000000000000081526004018080602001828103825260268152602001806132116026913960400191505060405180910390fd5b8073ffffffffffffffffffffffffffffffffffffffff166000809054906101000a900473ffffffffffffffffffffffffffffffffffffffff1673ffffffffffffffffffffffffffffffffffffffff167f8be0079c531659141344cd1fd0a4f28419497f9722a3daafe3b4186f6b6457e060405160405180910390a3806000806101000a81548173ffffffffffffffffffffffffffffffffffffffff021916908373ffffffffffffffffffffffffffffffffffffffff16021790555050565b6000838311158290613092576040517f08c379a00000000000000000000000000000000000000000000000000000000081526004018080602001828103825283818151815260200191508051906020019080838360005b8381101561305757808201518184015260208101905061303c565b50505050905090810190601f1680156130845780820380516001836020036101000a031916815260200191505b509250505060405180910390fd5b5060008385039050809150509392505050565b60008083118290613151576040517f08c379a00000000000000000000000000000000000000000000000000000000081526004018080602001828103825283818151815260200191508051906020019080838360005b838110156131165780820151818401526020810190506130fb565b50505050905090810190601f1680156131435780820380516001836020036101000a031916815260200191505b509250505060405180910390fd5b50600083858161315d57fe5b049050809150509392505050565b828054600181600116156101000203166002900490600052602060002090601f016020900481019282601f106131ac57805160ff19168380011785556131da565b828001600101855582156131da579182015b828111156131d95782518255916020019190600101906131be565b5b5090506131e791906131eb565b5090565b61320d91905b808211156132095760008160009055506001016131f1565b5090565b9056fe4f776e61626c653a206e6577206f776e657220697320746865207a65726f2061646472657373536166654d6174683a206d756c7469706c69636174696f6e206f766572666c6f77a2646970667358221220f80d5517380fceefd9db7b341491fa5dd259b55347f2075a2f47cddd5fc39b3964736f6c63430006020033",
  "source": "pragma solidity >=0.6.0;\r\n\r\nimport \"@openzeppelin/contracts/token/ERC20/SafeERC20.sol\";\r\nimport \"@openzeppelin/contracts/math/SafeMath.sol\";\r\nimport \"@openzeppelin/contracts/ownership/Ownable.sol\";\r\n\r\ncontract PolkaBridgeLaunchPad is Ownable {\r\n    string public name = \"PolkaBridge: LaunchPad\";\r\n    using SafeMath for uint256;\r\n    using SafeERC20 for IERC20;\r\n    uint256 private CONST_MINIMUM = 1000000000000000000;\r\n    IERC20 polkaBridgeToken;\r\n\r\n    address payable private ReceiveToken;\r\n\r\n    struct IDOPool {\r\n        uint256 Id;\r\n        string Name;\r\n        uint256 Begin;\r\n        uint256 End;\r\n        uint256 Type; //1:public, 2:private\r\n        uint256 AmountPBRRequire; //must e18,important when init\r\n        IERC20 IDOToken;\r\n        uint256 MinPurchase;\r\n        uint256 MaxPurchase;\r\n        uint256 TotalCap;\r\n        uint256 TotalToken; //total sale token for this pool\r\n        uint256 RatePerETH;\r\n        bool IsActived;\r\n        bool IsStoped;\r\n        uint256 ActivedDate;\r\n        uint256 StopDate;\r\n        uint256 LockDuration; //lock after purchase\r\n        uint256 TotalSold; //total number of token sold\r\n        bool IsSoldOut; //reach hardcap\r\n        uint256 SoldOutAt; //sold out at time\r\n    }\r\n\r\n    struct User {\r\n        uint256 Id;\r\n        address UserAddress;\r\n        bool IsWhitelist;\r\n        uint256 WhitelistDate;\r\n        uint256 TotalTokenPurchase;\r\n        uint256 TotalETHPurchase;\r\n        uint256 PurchaseTime;\r\n        bool IsActived;\r\n        bool IsClaimed;\r\n    }\r\n\r\n    mapping(uint256 => mapping(address => User)) whitelist; //poolid - listuser\r\n\r\n    IDOPool[] pools;\r\n\r\n    constructor(address payable receiveTokenAdd, IERC20 polkaBridge) public {\r\n        ReceiveToken = receiveTokenAdd;\r\n        polkaBridgeToken = polkaBridge;\r\n    }\r\n\r\n    function addWhitelist(address user, uint256 pid) public onlyOwner {\r\n        whitelist[pid][user].Id = pid;\r\n        whitelist[pid][user].UserAddress = user;\r\n        whitelist[pid][user].IsWhitelist = true;\r\n        whitelist[pid][user].WhitelistDate = block.timestamp;\r\n        whitelist[pid][user].IsActived = true;\r\n    }\r\n\r\n    function updateWhitelist(\r\n        address user,\r\n        uint256 pid,\r\n        bool isWhitelist,\r\n        bool isActived\r\n    ) public onlyOwner {\r\n        whitelist[pid][user].IsWhitelist = isWhitelist;\r\n        whitelist[pid][user].IsActived = isActived;\r\n    }\r\n\r\n    function IsWhitelist(address user, uint256 pid) public view returns (bool) {\r\n        return whitelist[pid][user].IsWhitelist;\r\n    }\r\n\r\n    function addPool(\r\n        string memory name,\r\n        uint256 begin,\r\n        uint256 end,\r\n        uint256 _type,\r\n        IERC20 idoToken,\r\n        uint256 minPurchase,\r\n        uint256 maxPurchase,\r\n        uint256 totalCap,\r\n        uint256 totalToken,\r\n        uint256 amountPBRRequire,\r\n        uint256 ratePerETH,\r\n        uint256 lockDuration\r\n    ) public onlyOwner {\r\n        uint256 id = pools.length.add(1);\r\n        pools.push(\r\n            IDOPool({\r\n                Id: id,\r\n                Name: name,\r\n                Begin: begin,\r\n                End: end,\r\n                Type: _type,\r\n                AmountPBRRequire: amountPBRRequire,\r\n                IDOToken: idoToken,\r\n                MinPurchase: minPurchase,\r\n                MaxPurchase: maxPurchase,\r\n                TotalCap: totalCap,\r\n                TotalToken: totalToken,\r\n                RatePerETH: ratePerETH,\r\n                IsActived: true,\r\n                IsStoped: false,\r\n                ActivedDate: block.timestamp,\r\n                StopDate: 0,\r\n                LockDuration: lockDuration,\r\n                TotalSold: 0,\r\n                IsSoldOut: false,\r\n                SoldOutAt: 0\r\n            })\r\n        );\r\n    }\r\n\r\n    function updatePool(\r\n        uint256 pid,\r\n        uint256 begin,\r\n        uint256 end,\r\n        uint256 amountPBRRequire,\r\n        uint256 minPurchase,\r\n        uint256 maxPurchase,\r\n        uint256 totalCap,\r\n        uint256 totalToken,\r\n        uint256 ratePerETH,\r\n        bool isActived,\r\n        bool isStoped,\r\n        uint256 lockDuration\r\n    ) public onlyOwner {\r\n        uint256 poolIndex = pid.sub(1);\r\n        if (begin > 0) {\r\n            pools[poolIndex].Begin = begin;\r\n        }\r\n        if (end > 0) {\r\n            pools[poolIndex].End = end;\r\n        }\r\n        if (amountPBRRequire > 0) {\r\n            pools[poolIndex].AmountPBRRequire = amountPBRRequire;\r\n        }\r\n        if (minPurchase > 0) {\r\n            pools[poolIndex].MinPurchase = minPurchase;\r\n        }\r\n        if (maxPurchase > 0) {\r\n            pools[poolIndex].MaxPurchase = maxPurchase;\r\n        }\r\n        if (totalCap > 0) {\r\n            pools[poolIndex].TotalCap = totalCap;\r\n        }\r\n        if (totalToken > 0) {\r\n            pools[poolIndex].TotalToken = totalToken;\r\n        }\r\n        if (ratePerETH > 0) {\r\n            pools[poolIndex].RatePerETH = ratePerETH;\r\n        }\r\n        if (lockDuration > 0) {\r\n            pools[poolIndex].LockDuration = lockDuration;\r\n        }\r\n        pools[poolIndex].IsActived = isActived;\r\n        pools[poolIndex].IsStoped = isStoped;\r\n        if (isStoped) {\r\n            pools[poolIndex].StopDate = block.timestamp;\r\n        }\r\n    }\r\n\r\n    //withdraw contract token\r\n    //use for someone send token to contract\r\n    //recuse wrong user\r\n\r\n    function withdrawErc20(IERC20 token) public onlyOwner {\r\n        token.transfer(owner(), token.balanceOf(address(this)));\r\n    }\r\n\r\n    //withdraw ETH after IDO\r\n    function withdrawPoolFund() public onlyOwner {\r\n        uint256 balance = address(this).balance;\r\n        require(balance > 0, \"not enough fund\");\r\n        ReceiveToken.transfer(balance);\r\n    }\r\n\r\n    function purchaseIDO(uint256 pid) public payable {\r\n        uint256 poolIndex = pid.sub(1);\r\n\r\n        require(\r\n            pools[poolIndex].IsActived && !pools[poolIndex].IsStoped,\r\n            \"invalid pool\"\r\n        );\r\n        require(\r\n            block.timestamp >= pools[poolIndex].Begin &&\r\n                block.timestamp <= pools[poolIndex].End,\r\n            \"invalid time\"\r\n        );\r\n        uint256 remainToken = getRemainIDOToken(pid);\r\n        if (remainToken <= CONST_MINIMUM) {\r\n            pools[poolIndex].IsSoldOut = true;\r\n            pools[poolIndex].SoldOutAt = block.timestamp;\r\n            \r\n        }\r\n\r\n        require(!pools[poolIndex].IsSoldOut, \"IDO sold out\");\r\n\r\n        uint256 ethAmount = msg.value;\r\n        // require(\r\n        //     ethAmount >= pools[poolIndex].MinPurchase,\r\n        //     \"invalid minimum contribute\"\r\n        // );\r\n        require(\r\n            ethAmount <= pools[poolIndex].MaxPurchase,\r\n            \"invalid maximum contribute\"\r\n        );\r\n\r\n        whitelist[pid][msg.sender].TotalETHPurchase = whitelist[pid][msg.sender]\r\n            .TotalETHPurchase\r\n            .add(ethAmount);\r\n        if (\r\n            whitelist[pid][msg.sender].TotalETHPurchase >\r\n            pools[poolIndex].MaxPurchase\r\n        ) {\r\n            whitelist[pid][msg.sender].TotalETHPurchase = whitelist[pid][\r\n                msg.sender\r\n            ]\r\n                .TotalETHPurchase\r\n                .sub(ethAmount);\r\n            revert(\"invalid maximum contribute\");\r\n        }\r\n\r\n        //check user\r\n        require(\r\n            whitelist[pid][msg.sender].IsWhitelist &&\r\n                whitelist[pid][msg.sender].IsActived,\r\n            \"invalid user\"\r\n        );\r\n        if (pools[poolIndex].Type == 2) //private, check hold PBR\r\n        {\r\n            require(\r\n                polkaBridgeToken.balanceOf(msg.sender) >=\r\n                    pools[poolIndex].AmountPBRRequire,\r\n                \"must hold PBR\"\r\n            );\r\n        }\r\n\r\n        //storage\r\n        uint256 tokenAmount =\r\n            ethAmount.mul(pools[poolIndex].RatePerETH).div(1e18);\r\n        whitelist[pid][msg.sender].TotalTokenPurchase = whitelist[pid][\r\n            msg.sender\r\n        ]\r\n            .TotalTokenPurchase\r\n            .add(tokenAmount);\r\n\r\n        pools[poolIndex].TotalSold = pools[poolIndex].TotalSold.add(\r\n            tokenAmount\r\n        );\r\n    }\r\n\r\n    function claimToken(uint256 pid) public {\r\n        require(!whitelist[pid][msg.sender].IsClaimed, \"user already claimed\");\r\n        uint256 poolIndex = pid.sub(1);\r\n\r\n        require(\r\n            block.timestamp >=\r\n                pools[poolIndex].End.add(pools[poolIndex].LockDuration),\r\n            \"not on time\"\r\n        );\r\n\r\n        uint256 userBalance = getUserTotalPurchase(pid);\r\n\r\n        require(userBalance > 0, \"invalid claim\");\r\n\r\n        pools[poolIndex].IDOToken.transfer(msg.sender, userBalance);\r\n        whitelist[pid][msg.sender].IsClaimed = true;\r\n    }\r\n\r\n    function getUserTotalPurchase(uint256 pid) public view returns (uint256) {\r\n        return whitelist[pid][msg.sender].TotalTokenPurchase;\r\n    }\r\n\r\n    function getRemainIDOToken(uint256 pid) public view returns (uint256) {\r\n        uint256 poolIndex = pid.sub(1);\r\n        uint256 tokenBalance = getBalanceTokenByPoolId(pid);\r\n        return tokenBalance.sub(pools[poolIndex].TotalSold);\r\n    }\r\n\r\n    function getBalanceTokenByPoolId(uint256 pid)\r\n        public\r\n        view\r\n        returns (uint256)\r\n    {\r\n        uint256 poolIndex = pid.sub(1);\r\n        //return pools[poolIndex].IDOToken.balanceOf(address(this));\r\n        return pools[poolIndex].TotalToken;\r\n    }\r\n\r\n    function getPoolInfo(uint256 pid)\r\n        public\r\n        view\r\n        returns (\r\n            uint256,\r\n            uint256,\r\n            uint256,\r\n            uint256,\r\n            uint256,\r\n            uint256,\r\n            uint256,\r\n            uint256,\r\n            bool,\r\n            IERC20\r\n        )\r\n    {\r\n        uint256 poolIndex = pid.sub(1);\r\n        return (\r\n            pools[poolIndex].Begin,\r\n            pools[poolIndex].End,\r\n            pools[poolIndex].Type,\r\n            pools[poolIndex].AmountPBRRequire,\r\n            pools[poolIndex].MaxPurchase,\r\n            pools[poolIndex].RatePerETH,\r\n            pools[poolIndex].LockDuration,\r\n            pools[poolIndex].TotalSold,\r\n            pools[poolIndex].IsActived,\r\n            pools[poolIndex].IDOToken\r\n        );\r\n    }\r\n\r\n    function getPoolSoldInfo(uint256 pid)\r\n        public\r\n        view\r\n        returns (\r\n            uint256,\r\n            uint256,\r\n            bool,\r\n            uint256\r\n        )\r\n    {\r\n        uint256 poolIndex = pid.sub(1);\r\n        return (\r\n            pools[poolIndex].LockDuration,\r\n            pools[poolIndex].TotalSold,\r\n            pools[poolIndex].IsSoldOut,\r\n            pools[poolIndex].SoldOutAt\r\n        );\r\n    }\r\n\r\n    function getWhitelistfo(uint256 pid)\r\n        public\r\n        view\r\n        returns (\r\n            address,\r\n            bool,\r\n            uint256,\r\n            uint256,\r\n            uint256,\r\n            bool\r\n        )\r\n    {\r\n        return (\r\n            whitelist[pid][msg.sender].UserAddress,\r\n            whitelist[pid][msg.sender].IsWhitelist,\r\n            whitelist[pid][msg.sender].WhitelistDate,\r\n            whitelist[pid][msg.sender].TotalTokenPurchase,\r\n            whitelist[pid][msg.sender].TotalETHPurchase,\r\n            whitelist[pid][msg.sender].IsClaimed\r\n        );\r\n    }\r\n\r\n    receive() external payable {}\r\n}\r\n",
  "sourcePath": "C:/Users/thanhphi/Desktop/PolkaBridgeSolution/PolkaBridge-LaunchPad/contracts/PolkaBridgeLaunchPad.sol",
  "compiler": {
    "name": "solc",
    "version": "0.6.2+commit.bacdbe57.Emscripten.clang"
  },
  "schemaVersion": "3.3.3",
  "updatedAt": "2021-04-08T08:31:40.793Z",
  "networkType": "ethereum",
  "devdoc": {
    "methods": {
      "isOwner()": {
        "details": "Returns true if the caller is the current owner."
      },
      "owner()": {
        "details": "Returns the address of the current owner."
      },
      "renounceOwnership()": {
        "details": "Leaves the contract without owner. It will not be possible to call `onlyOwner` functions anymore. Can only be called by the current owner.     * NOTE: Renouncing ownership will leave the contract without an owner, thereby removing any functionality that is only available to the owner."
      },
      "transferOwnership(address)": {
        "details": "Transfers ownership of the contract to a new account (`newOwner`). Can only be called by the current owner."
      }
    }
  },
  "userdoc": {
    "methods": {}
  }
}