{
  "contractName": "PolkabridgeLaunchPadV2",
  "abi": [
    {
      "inputs": [
        {
          "internalType": "address payable",
          "name": "receiveTokenAdd",
          "type": "address"
        }
      ],
      "stateMutability": "nonpayable",
      "type": "constructor"
    },
    {
      "anonymous": false,
      "inputs": [
        {
          "indexed": true,
          "internalType": "address",
          "name": "previousOwner",
          "type": "address"
        },
        {
          "indexed": true,
          "internalType": "address",
          "name": "newOwner",
          "type": "address"
        }
      ],
      "name": "OwnershipTransferred",
      "type": "event"
    },
    {
      "inputs": [
        {
          "internalType": "uint256",
          "name": "",
          "type": "uint256"
        }
      ],
      "name": "claimInfos",
      "outputs": [
        {
          "internalType": "uint256",
          "name": "ClaimTime1",
          "type": "uint256"
        },
        {
          "internalType": "uint256",
          "name": "PercentClaim1",
          "type": "uint256"
        },
        {
          "internalType": "uint256",
          "name": "ClaimTime2",
          "type": "uint256"
        },
        {
          "internalType": "uint256",
          "name": "PercentClaim2",
          "type": "uint256"
        },
        {
          "internalType": "uint256",
          "name": "ClaimTime3",
          "type": "uint256"
        },
        {
          "internalType": "uint256",
          "name": "PercentClaim3",
          "type": "uint256"
        },
        {
          "internalType": "uint256",
          "name": "ClaimTime4",
          "type": "uint256"
        },
        {
          "internalType": "uint256",
          "name": "PercentClaim4",
          "type": "uint256"
        },
        {
          "internalType": "uint256",
          "name": "ClaimTime5",
          "type": "uint256"
        },
        {
          "internalType": "uint256",
          "name": "PercentClaim5",
          "type": "uint256"
        }
      ],
      "stateMutability": "view",
      "type": "function",
      "constant": true
    },
    {
      "inputs": [],
      "name": "isOwner",
      "outputs": [
        {
          "internalType": "bool",
          "name": "",
          "type": "bool"
        }
      ],
      "stateMutability": "view",
      "type": "function",
      "constant": true
    },
    {
      "inputs": [],
      "name": "name",
      "outputs": [
        {
          "internalType": "string",
          "name": "",
          "type": "string"
        }
      ],
      "stateMutability": "view",
      "type": "function",
      "constant": true
    },
    {
      "inputs": [],
      "name": "owner",
      "outputs": [
        {
          "internalType": "address",
          "name": "",
          "type": "address"
        }
      ],
      "stateMutability": "view",
      "type": "function",
      "constant": true
    },
    {
      "inputs": [],
      "name": "renounceOwnership",
      "outputs": [],
      "stateMutability": "nonpayable",
      "type": "function"
    },
    {
      "inputs": [
        {
          "internalType": "address",
          "name": "newOwner",
          "type": "address"
        }
      ],
      "name": "transferOwnership",
      "outputs": [],
      "stateMutability": "nonpayable",
      "type": "function"
    },
    {
      "inputs": [
        {
          "internalType": "uint256",
          "name": "",
          "type": "uint256"
        },
        {
          "internalType": "address",
          "name": "",
          "type": "address"
        }
      ],
      "name": "users",
      "outputs": [
        {
          "internalType": "uint256",
          "name": "Id",
          "type": "uint256"
        },
        {
          "internalType": "address",
          "name": "UserAddress",
          "type": "address"
        },
        {
          "internalType": "bool",
          "name": "IsWhitelist",
          "type": "bool"
        },
        {
          "internalType": "uint256",
          "name": "TotalTokenPurchase",
          "type": "uint256"
        },
        {
          "internalType": "uint256",
          "name": "TotalETHPurchase",
          "type": "uint256"
        },
        {
          "internalType": "uint256",
          "name": "PurchaseTime",
          "type": "uint256"
        },
        {
          "internalType": "uint256",
          "name": "LastClaimed",
          "type": "uint256"
        },
        {
          "internalType": "uint256",
          "name": "TotalPercentClaimed",
          "type": "uint256"
        },
        {
          "internalType": "uint256",
          "name": "NumberClaimed",
          "type": "uint256"
        },
        {
          "internalType": "bool",
          "name": "IsActived",
          "type": "bool"
        }
      ],
      "stateMutability": "view",
      "type": "function",
      "constant": true
    },
    {
      "inputs": [
        {
          "internalType": "address[]",
          "name": "user",
          "type": "address[]"
        },
        {
          "internalType": "uint256",
          "name": "pid",
          "type": "uint256"
        }
      ],
      "name": "addMulWhitelist",
      "outputs": [],
      "stateMutability": "nonpayable",
      "type": "function"
    },
    {
      "inputs": [
        {
          "internalType": "address",
          "name": "user",
          "type": "address"
        },
        {
          "internalType": "uint256",
          "name": "pid",
          "type": "uint256"
        },
        {
          "internalType": "bool",
          "name": "isWhitelist",
          "type": "bool"
        },
        {
          "internalType": "bool",
          "name": "isActived",
          "type": "bool"
        }
      ],
      "name": "updateWhitelist",
      "outputs": [],
      "stateMutability": "nonpayable",
      "type": "function"
    },
    {
      "inputs": [
        {
          "internalType": "address",
          "name": "user",
          "type": "address"
        },
        {
          "internalType": "uint256",
          "name": "pid",
          "type": "uint256"
        },
        {
          "internalType": "uint256",
          "name": "stackAmount",
          "type": "uint256"
        }
      ],
      "name": "IsWhitelist",
      "outputs": [
        {
          "internalType": "bool",
          "name": "",
          "type": "bool"
        }
      ],
      "stateMutability": "view",
      "type": "function",
      "constant": true
    },
    {
      "inputs": [
        {
          "internalType": "uint256",
          "name": "begin",
          "type": "uint256"
        },
        {
          "internalType": "uint256",
          "name": "end",
          "type": "uint256"
        },
        {
          "internalType": "uint256",
          "name": "_type",
          "type": "uint256"
        },
        {
          "internalType": "contract IERC20",
          "name": "idoToken",
          "type": "address"
        },
        {
          "internalType": "uint256",
          "name": "maxPurchaseTier1",
          "type": "uint256"
        },
        {
          "internalType": "uint256",
          "name": "maxPurchaseTier2",
          "type": "uint256"
        },
        {
          "internalType": "uint256",
          "name": "maxPurchaseTier3",
          "type": "uint256"
        },
        {
          "internalType": "uint256",
          "name": "totalCap",
          "type": "uint256"
        },
        {
          "internalType": "uint256",
          "name": "totalToken",
          "type": "uint256"
        },
        {
          "internalType": "uint256",
          "name": "ratePerETH",
          "type": "uint256"
        },
        {
          "internalType": "uint256",
          "name": "minimumTokenSoldout",
          "type": "uint256"
        },
        {
          "internalType": "uint256",
          "name": "minimumStakeAmount",
          "type": "uint256"
        }
      ],
      "name": "addPool",
      "outputs": [],
      "stateMutability": "nonpayable",
      "type": "function"
    },
    {
      "inputs": [
        {
          "internalType": "uint256",
          "name": "percentClaim1",
          "type": "uint256"
        },
        {
          "internalType": "uint256",
          "name": "claimTime1",
          "type": "uint256"
        },
        {
          "internalType": "uint256",
          "name": "percentClaim2",
          "type": "uint256"
        },
        {
          "internalType": "uint256",
          "name": "claimTime2",
          "type": "uint256"
        },
        {
          "internalType": "uint256",
          "name": "percentClaim3",
          "type": "uint256"
        },
        {
          "internalType": "uint256",
          "name": "claimTime3",
          "type": "uint256"
        },
        {
          "internalType": "uint256",
          "name": "percentClaim4",
          "type": "uint256"
        },
        {
          "internalType": "uint256",
          "name": "claimTime4",
          "type": "uint256"
        },
        {
          "internalType": "uint256",
          "name": "percentClaim5",
          "type": "uint256"
        },
        {
          "internalType": "uint256",
          "name": "claimTime5",
          "type": "uint256"
        },
        {
          "internalType": "uint256",
          "name": "pid",
          "type": "uint256"
        }
      ],
      "name": "addClaimInfo",
      "outputs": [],
      "stateMutability": "nonpayable",
      "type": "function"
    },
    {
      "inputs": [
        {
          "internalType": "uint256",
          "name": "percentClaim1",
          "type": "uint256"
        },
        {
          "internalType": "uint256",
          "name": "claimTime1",
          "type": "uint256"
        },
        {
          "internalType": "uint256",
          "name": "percentClaim2",
          "type": "uint256"
        },
        {
          "internalType": "uint256",
          "name": "claimTime2",
          "type": "uint256"
        },
        {
          "internalType": "uint256",
          "name": "percentClaim3",
          "type": "uint256"
        },
        {
          "internalType": "uint256",
          "name": "claimTime3",
          "type": "uint256"
        },
        {
          "internalType": "uint256",
          "name": "percentClaim4",
          "type": "uint256"
        },
        {
          "internalType": "uint256",
          "name": "claimTime4",
          "type": "uint256"
        },
        {
          "internalType": "uint256",
          "name": "percentClaim5",
          "type": "uint256"
        },
        {
          "internalType": "uint256",
          "name": "claimTime5",
          "type": "uint256"
        },
        {
          "internalType": "uint256",
          "name": "pid",
          "type": "uint256"
        }
      ],
      "name": "updateClaimInfo",
      "outputs": [],
      "stateMutability": "nonpayable",
      "type": "function"
    },
    {
      "inputs": [
        {
          "internalType": "uint256",
          "name": "pid",
          "type": "uint256"
        },
        {
          "internalType": "uint256",
          "name": "begin",
          "type": "uint256"
        },
        {
          "internalType": "uint256",
          "name": "end",
          "type": "uint256"
        },
        {
          "internalType": "uint256",
          "name": "maxPurchaseTier1",
          "type": "uint256"
        },
        {
          "internalType": "uint256",
          "name": "maxPurchaseTier2",
          "type": "uint256"
        },
        {
          "internalType": "uint256",
          "name": "maxPurchaseTier3",
          "type": "uint256"
        },
        {
          "internalType": "uint256",
          "name": "totalCap",
          "type": "uint256"
        },
        {
          "internalType": "uint256",
          "name": "totalToken",
          "type": "uint256"
        },
        {
          "internalType": "uint256",
          "name": "ratePerETH",
          "type": "uint256"
        },
        {
          "internalType": "contract IERC20",
          "name": "idoToken",
          "type": "address"
        },
        {
          "internalType": "uint256",
          "name": "minimumTokenSoldout",
          "type": "uint256"
        },
        {
          "internalType": "uint256",
          "name": "pooltype",
          "type": "uint256"
        },
        {
          "internalType": "uint256",
          "name": "minimumStakeAmount",
          "type": "uint256"
        }
      ],
      "name": "updatePool",
      "outputs": [],
      "stateMutability": "nonpayable",
      "type": "function"
    },
    {
      "inputs": [
        {
          "internalType": "contract IERC20",
          "name": "token",
          "type": "address"
        }
      ],
      "name": "withdrawErc20",
      "outputs": [],
      "stateMutability": "nonpayable",
      "type": "function"
    },
    {
      "inputs": [],
      "name": "withdrawPoolFund",
      "outputs": [],
      "stateMutability": "nonpayable",
      "type": "function"
    },
    {
      "inputs": [
        {
          "internalType": "uint256",
          "name": "stakeAmount",
          "type": "uint256"
        },
        {
          "internalType": "uint256",
          "name": "pid",
          "type": "uint256"
        },
        {
          "internalType": "uint8",
          "name": "v",
          "type": "uint8"
        },
        {
          "internalType": "bytes32",
          "name": "r",
          "type": "bytes32"
        },
        {
          "internalType": "bytes32",
          "name": "s",
          "type": "bytes32"
        }
      ],
      "name": "purchaseIDO",
      "outputs": [],
      "stateMutability": "payable",
      "type": "function",
      "payable": true
    },
    {
      "inputs": [
        {
          "internalType": "uint256",
          "name": "pid",
          "type": "uint256"
        }
      ],
      "name": "claimToken",
      "outputs": [],
      "stateMutability": "nonpayable",
      "type": "function"
    },
    {
      "inputs": [
        {
          "internalType": "uint256",
          "name": "pid",
          "type": "uint256"
        }
      ],
      "name": "getUserTotalPurchase",
      "outputs": [
        {
          "internalType": "uint256",
          "name": "",
          "type": "uint256"
        }
      ],
      "stateMutability": "view",
      "type": "function",
      "constant": true
    },
    {
      "inputs": [
        {
          "internalType": "uint256",
          "name": "pid",
          "type": "uint256"
        }
      ],
      "name": "getRemainIDOToken",
      "outputs": [
        {
          "internalType": "uint256",
          "name": "",
          "type": "uint256"
        }
      ],
      "stateMutability": "view",
      "type": "function",
      "constant": true
    },
    {
      "inputs": [
        {
          "internalType": "uint256",
          "name": "pid",
          "type": "uint256"
        }
      ],
      "name": "getBalanceTokenByPoolId",
      "outputs": [
        {
          "internalType": "uint256",
          "name": "",
          "type": "uint256"
        }
      ],
      "stateMutability": "view",
      "type": "function",
      "constant": true
    },
    {
      "inputs": [
        {
          "internalType": "uint256",
          "name": "pid",
          "type": "uint256"
        }
      ],
      "name": "getPoolInfo",
      "outputs": [
        {
          "internalType": "uint256",
          "name": "",
          "type": "uint256"
        },
        {
          "internalType": "uint256",
          "name": "",
          "type": "uint256"
        },
        {
          "internalType": "uint256",
          "name": "",
          "type": "uint256"
        },
        {
          "internalType": "uint256",
          "name": "",
          "type": "uint256"
        },
        {
          "internalType": "uint256",
          "name": "",
          "type": "uint256"
        },
        {
          "internalType": "contract IERC20",
          "name": "",
          "type": "address"
        }
      ],
      "stateMutability": "view",
      "type": "function",
      "constant": true
    },
    {
      "inputs": [
        {
          "internalType": "uint256",
          "name": "pid",
          "type": "uint256"
        }
      ],
      "name": "getClaimInfo",
      "outputs": [
        {
          "internalType": "uint256",
          "name": "",
          "type": "uint256"
        },
        {
          "internalType": "uint256",
          "name": "",
          "type": "uint256"
        },
        {
          "internalType": "uint256",
          "name": "",
          "type": "uint256"
        },
        {
          "internalType": "uint256",
          "name": "",
          "type": "uint256"
        },
        {
          "internalType": "uint256",
          "name": "",
          "type": "uint256"
        },
        {
          "internalType": "uint256",
          "name": "",
          "type": "uint256"
        }
      ],
      "stateMutability": "view",
      "type": "function",
      "constant": true
    },
    {
      "inputs": [
        {
          "internalType": "uint256",
          "name": "pid",
          "type": "uint256"
        }
      ],
      "name": "getPoolSoldInfo",
      "outputs": [
        {
          "internalType": "uint256",
          "name": "",
          "type": "uint256"
        }
      ],
      "stateMutability": "view",
      "type": "function",
      "constant": true
    },
    {
      "inputs": [
        {
          "internalType": "uint256",
          "name": "pid",
          "type": "uint256"
        }
      ],
      "name": "getWhitelistfo",
      "outputs": [
        {
          "internalType": "address",
          "name": "",
          "type": "address"
        },
        {
          "internalType": "bool",
          "name": "",
          "type": "bool"
        },
        {
          "internalType": "uint256",
          "name": "",
          "type": "uint256"
        },
        {
          "internalType": "uint256",
          "name": "",
          "type": "uint256"
        }
      ],
      "stateMutability": "view",
      "type": "function",
      "constant": true
    },
    {
      "inputs": [
        {
          "internalType": "uint256",
          "name": "pid",
          "type": "uint256"
        },
        {
          "internalType": "address",
          "name": "user",
          "type": "address"
        }
      ],
      "name": "getUserInfo",
      "outputs": [
        {
          "internalType": "bool",
          "name": "",
          "type": "bool"
        },
        {
          "internalType": "uint256",
          "name": "",
          "type": "uint256"
        },
        {
          "internalType": "uint256",
          "name": "",
          "type": "uint256"
        },
        {
          "internalType": "uint256",
          "name": "",
          "type": "uint256"
        }
      ],
      "stateMutability": "view",
      "type": "function",
      "constant": true
    }
  ],
  "bytecode": "0x60c0604052601960808190527f506f6c6b614272696467653a204c61756e63685061642056320000000000000060a090815262000040916002919062000104565b503480156200004e57600080fd5b506040516200315738038062003157833981810160405260208110156200007457600080fd5b505160006200008b6001600160e01b03620000ff16565b600080546001600160a01b0319166001600160a01b0383169081178255604051929350917f8be0079c531659141344cd1fd0a4f28419497f9722a3daafe3b4186f6b6457e0908290a35060018055600380546001600160a01b0319166001600160a01b0392909216919091179055620001a6565b335b90565b828054600181600116156101000203166002900490600052602060002090601f016020900481019282601f106200014757805160ff191683800117855562000177565b8280016001018555821562000177579182015b82811115620001775782518255916020019190600101906200015a565b506200018592915062000189565b5090565b6200010191905b8082111562000185576000815560010162000190565b612fa180620001b66000396000f3fe6080604052600436106101815760003560e01c806396f5fef5116100d1578063c30ef4871161008a578063d0d5527511610064578063d0d552751461089b578063d2070193146108d3578063d70c33c814610930578063f2fde38b1461097957610181565b8063c30ef487146107e4578063c734e2531461083e578063c7e42b1b1461086857610181565b806396f5fef5146105ef578063a48ebe8214610669578063a9e7c2e514610693578063afad4db2146106bd578063b7de030314610727578063b9d02df41461075157610181565b80632f380b351161013e57806350933d4d1161011857806350933d4d1461051a578063715018a6146105945780638da5cb5b146105a95780638f32d59b146105da57610181565b80632f380b35146103e057806336c287f9146104465780634365295e1461049957610181565b806306fdde03146101865780631069f3b5146102105780631a1d69ec146102715780631f4552cb146103255780632229abd71461033a5780632561ae02146103a4575b600080fd5b34801561019257600080fd5b5061019b6109ac565b6040805160208082528351818301528351919283929083019185019080838360005b838110156101d55781810151838201526020016101bd565b50505050905090810190601f1680156102025780820380516001836020036101000a031916815260200191505b509250505060405180910390f35b34801561021c57600080fd5b506102496004803603604081101561023357600080fd5b50803590602001356001600160a01b0316610a37565b6040805194151585526020850193909352838301919091526060830152519081900360800190f35b34801561027d57600080fd5b506103236004803603604081101561029457600080fd5b8101906020810181356401000000008111156102af57600080fd5b8201836020820111156102c157600080fd5b803590602001918460208302840111640100000000831117156102e357600080fd5b9190808060200260200160405190810160405280939291908181526020018383602002808284376000920191909152509295505091359250610a82915050565b005b34801561033157600080fd5b50610323610c71565b34801561034657600080fd5b50610323600480360361016081101561035e57600080fd5b5080359060208101359060408101359060608101359060808101359060a08101359060c08101359060e08101359061010081013590610120810135906101400135610d3b565b3480156103b057600080fd5b506103ce600480360360208110156103c757600080fd5b5035610e9b565b60408051918252519081900360200190f35b3480156103ec57600080fd5b5061040a6004803603602081101561040357600080fd5b5035610f2a565b60408051968752602087019590955285850193909352606085019190915260808401526001600160a01b031660a0830152519081900360c00190f35b34801561045257600080fd5b506104856004803603606081101561046957600080fd5b506001600160a01b038135169060208101359060400135611020565b604080519115158252519081900360200190f35b3480156104a557600080fd5b5061032360048036036101a08110156104bd57600080fd5b5080359060208101359060408101359060608101359060808101359060a08101359060c08101359060e081013590610100810135906001600160a01b03610120820135169061014081013590610160810135906101800135611130565b34801561052657600080fd5b50610323600480360361018081101561053e57600080fd5b508035906020810135906040810135906001600160a01b036060820135169060808101359060a08101359060c08101359060e08101359061010081013590610120810135906101408101359061016001356113ad565b3480156105a057600080fd5b50610323611566565b3480156105b557600080fd5b506105be6115f7565b604080516001600160a01b039092168252519081900360200190f35b3480156105e657600080fd5b50610485611606565b3480156105fb57600080fd5b506106196004803603602081101561061257600080fd5b503561162a565b604080519a8b5260208b0199909952898901979097526060890195909552608088019390935260a087019190915260c086015260e085015261010084015261012083015251908190036101400190f35b34801561067557600080fd5b506103ce6004803603602081101561068c57600080fd5b503561167e565b34801561069f57600080fd5b50610323600480360360208110156106b657600080fd5b503561169e565b3480156106c957600080fd5b5061032360048036036101608110156106e157600080fd5b5080359060208101359060408101359060608101359060808101359060a08101359060c08101359060e08101359061010081013590610120810135906101400135611d16565b34801561073357600080fd5b506103ce6004803603602081101561074a57600080fd5b5035611db6565b34801561075d57600080fd5b5061078a6004803603604081101561077457600080fd5b50803590602001356001600160a01b0316611df3565b604080519a8b526001600160a01b0390991660208b0152961515898901526060890195909552608088019390935260a087019190915260c086015260e0850152610100840152151561012083015251908190036101400190f35b3480156107f057600080fd5b5061080e6004803603602081101561080757600080fd5b5035611e59565b604080516001600160a01b0390951685529215156020850152838301919091526060830152519081900360800190f35b34801561084a57600080fd5b506103ce6004803603602081101561086157600080fd5b5035611e9c565b34801561087457600080fd5b506103236004803603602081101561088b57600080fd5b50356001600160a01b0316611ed9565b610323600480360360a08110156108b157600080fd5b5080359060208101359060ff6040820135169060608101359060800135612022565b3480156108df57600080fd5b506108fd600480360360208110156108f657600080fd5b50356127ae565b604080519687526020870195909552858501939093526060850191909152608084015260a0830152519081900360c00190f35b34801561093c57600080fd5b506103236004803603608081101561095357600080fd5b506001600160a01b03813516906020810135906040810135151590606001351515612806565b34801561098557600080fd5b506103236004803603602081101561099c57600080fd5b50356001600160a01b03166128a7565b6002805460408051602060018416156101000260001901909316849004601f81018490048402820184019092528181529291830182828015610a2f5780601f10610a0457610100808354040283529160200191610a2f565b820191906000526020600020905b815481529060010190602001808311610a1257829003601f168201915b505050505081565b60009182526004602090815260408084206001600160a01b039390931684529190529020600181015460028201546003830154600690930154600160a01b90920460ff169390929190565b610a8a611606565b610ac9576040805162461bcd60e51b81526020600482018190526024820152600080516020612f00833981519152604482015290519081900360640190fd5b60005b8251811015610c6c5760008281526004602052604081208451849290869085908110610af457fe5b60200260200101516001600160a01b03166001600160a01b0316815260200190815260200160002060000181905550828181518110610b2f57fe5b6020026020010151600460008481526020019081526020016000206000858481518110610b5857fe5b60200260200101516001600160a01b03166001600160a01b0316815260200190815260200160002060010160006101000a8154816001600160a01b0302191690836001600160a01b031602179055506001600460008481526020019081526020016000206000858481518110610bca57fe5b60200260200101516001600160a01b03166001600160a01b0316815260200190815260200160002060010160146101000a81548160ff0219169083151502179055506001600460008481526020019081526020016000206000858481518110610c2f57fe5b6020908102919091018101516001600160a01b03168252810191909152604001600020600801805460ff1916911515919091179055600101610acc565b505050565b610c79611606565b610cb8576040805162461bcd60e51b81526020600482018190526024820152600080516020612f00833981519152604482015290519081900360640190fd5b4780610cfd576040805162461bcd60e51b815260206004820152600f60248201526e1b9bdd08195b9bdd59da08199d5b99608a1b604482015290519081900360640190fd5b6003546040516001600160a01b039091169082156108fc029083906000818181858888f19350505050158015610d37573d6000803e3d6000fd5b5050565b610d43611606565b610d82576040805162461bcd60e51b81526020600482018190526024820152600080516020612f00833981519152604482015290519081900360640190fd5b8915610d9a5760008181526006602052604090208a90555b8a15610db55760008181526006602052604090206001018b90555b8715610dd05760008181526006602052604090206002018890555b8815610deb5760008181526006602052604090206003018990555b8515610e065760008181526006602052604090206004018690555b8615610e215760008181526006602052604090206005018790555b8315610e3d576000818152600660208190526040909120018490555b8415610e585760008181526006602052604090206007018590555b8115610e735760008181526006602052604090206008018290555b8215610e8e5760008181526006602052604090206009018390555b5050505050505050505050565b600080610eaf83600163ffffffff6128fa16565b90506000610ebc84611db6565b90508060058381548110610ecc57fe5b90600052602060002090600e0201600c01541115610eef57600092505050610f25565b610f2060058381548110610eff57fe5b90600052602060002090600e0201600c0154826128fa90919063ffffffff16565b925050505b919050565b6000808080808080610f4388600163ffffffff6128fa16565b905060058181548110610f5257fe5b90600052602060002090600e02016001015460058281548110610f7157fe5b90600052602060002090600e02016002015460058381548110610f9057fe5b90600052602060002090600e02016003015460058481548110610faf57fe5b90600052602060002090600e0201600b015460058581548110610fce57fe5b90600052602060002090600e0201600c015460058681548110610fed57fe5b60009182526020909120600e9091020160040154949d939c50919a50985096506001600160a01b03909116945092505050565b60008061103484600163ffffffff6128fa16565b90506005818154811061104357fe5b90600052602060002090600e02016003015460011415611067576001915050611129565b6005818154811061107457fe5b90600052602060002090600e020160030154600214156110c7576005818154811061109b57fe5b90600052602060002090600e0201600d015483106110bd576001915050611129565b6000915050611129565b600581815481106110d457fe5b90600052602060002090600e020160030154600314156110bd5760008181526004602090815260408083206001600160a01b0389168452909152902060010154600160a01b900460ff16156110bd5760019150505b9392505050565b611138611606565b611177576040805162461bcd60e51b81526020600482018190526024820152600080516020612f00833981519152604482015290519081900360640190fd5b600061118a8e600163ffffffff6128fa16565b90508c156111b6578c600582815481106111a057fe5b90600052602060002090600e0201600101819055505b8b156111e0578b600582815481106111ca57fe5b90600052602060002090600e0201600201819055505b8a1561120a578a600582815481106111f457fe5b90600052602060002090600e0201600501819055505b891561123457896005828154811061121e57fe5b90600052602060002090600e0201600601819055505b881561125e57886005828154811061124857fe5b90600052602060002090600e0201600701819055505b871561128857876005828154811061127257fe5b90600052602060002090600e0201600801819055505b86156112b257866005828154811061129c57fe5b90600052602060002090600e0201600a01819055505b85156112dc5785600582815481106112c657fe5b90600052602060002090600e0201600b01819055505b81156113065781600582815481106112f057fe5b90600052602060002090600e0201600d01819055505b831561133057836005828154811061131a57fe5b90600052602060002090600e0201600901819055505b821561135a57826005828154811061134457fe5b90600052602060002090600e0201600301819055505b846005828154811061136857fe5b90600052602060002090600e020160040160006101000a8154816001600160a01b0302191690836001600160a01b031602179055505050505050505050505050505050565b6113b5611606565b6113f4576040805162461bcd60e51b81526020600482018190526024820152600080516020612f00833981519152604482015290519081900360640190fd5b60055460009061140b90600163ffffffff61294516565b90506005604051806101c001604052808381526020018f81526020018e81526020018d81526020018c6001600160a01b031681526020018b81526020018a8152602001898152602001888152602001858152602001878152602001868152602001600081526020018481525090806001815401808255809150506001900390600052602060002090600e02016000909190919091506000820151816000015560208201518160010155604082015181600201556060820151816003015560808201518160040160006101000a8154816001600160a01b0302191690836001600160a01b0316021790555060a0820151816005015560c0820151816006015560e082015181600701556101008201518160080155610120820151816009015561014082015181600a015561016082015181600b015561018082015181600c01556101a082015181600d0155505050505050505050505050505050565b61156e611606565b6115ad576040805162461bcd60e51b81526020600482018190526024820152600080516020612f00833981519152604482015290519081900360640190fd5b600080546040516001600160a01b03909116907f8be0079c531659141344cd1fd0a4f28419497f9722a3daafe3b4186f6b6457e0908390a3600080546001600160a01b0319169055565b6000546001600160a01b031690565b600080546001600160a01b031661161b61299f565b6001600160a01b031614905090565b6006602052806000526040600020600091509050806000015490806001015490806002015490806003015490806004015490806005015490806006015490806007015490806008015490806009015490508a565b600090815260046020908152604080832033845290915290206002015490565b600260015414156116f6576040805162461bcd60e51b815260206004820152601f60248201527f5265656e7472616e637947756172643a207265656e7472616e742063616c6c00604482015290519081900360640190fd5b6002600155600081815260046020908152604080832033845290915290206006015460641161176c576040805162461bcd60e51b815260206004820152601760248201527f796f75206861766520636c61696d656420656e6f756768000000000000000000604482015290519081900360640190fd5b60006117778261167e565b9050600081116117be576040805162461bcd60e51b815260206004820152600d60248201526c696e76616c696420636c61696d60981b604482015290519081900360640190fd5b60006117d183600163ffffffff6128fa16565b600084815260046020908152604080832033845290915290206007015490915061191557600081815260066020526040902054421015611847576040805162461bcd60e51b815260206004820152600c60248201526b696e76616c69642074696d6560a01b604482015290519081900360640190fd5b6000818152600660205260409020600101546118ba9033906118839060649061187790879063ffffffff6129a316565b9063ffffffff6129fc16565b6005848154811061189057fe5b600091825260209091206004600e9092020101546001600160a01b0316919063ffffffff612a3e16565b6000818152600660208181526040808420600101548785526004835281852033865290925290922001546118f39163ffffffff61294516565b6000848152600460209081526040808320338452909152902060060155611cbf565b6000838152600460209081526040808320338452909152902060070154600114156119f85760008181526006602052604090206002015442101561198f576040805162461bcd60e51b815260206004820152600c60248201526b696e76616c69642074696d6560a01b604482015290519081900360640190fd5b6000818152600660205260409020600301546119bf9033906118839060649061187790879063ffffffff6129a316565b6000818152600660208181526040808420600301548785526004835281852033865290925290922001546118f39163ffffffff61294516565b600083815260046020908152604080832033845290915290206007015460021415611adb57600081815260066020526040902060040154421015611a72576040805162461bcd60e51b815260206004820152600c60248201526b696e76616c69642074696d6560a01b604482015290519081900360640190fd5b600081815260066020526040902060050154611aa29033906118839060649061187790879063ffffffff6129a316565b6000818152600660208181526040808420600501548785526004835281852033865290925290922001546118f39163ffffffff61294516565b600083815260046020908152604080832033845290915290206007015460031415611bbf5760008181526006602081905260409091200154421015611b56576040805162461bcd60e51b815260206004820152600c60248201526b696e76616c69642074696d6560a01b604482015290519081900360640190fd5b600081815260066020526040902060070154611b869033906118839060649061187790879063ffffffff6129a316565b6000818152600660208181526040808420600701548785526004835281852033865290925290922001546118f39163ffffffff61294516565b6000838152600460208181526040808420338552909152909120600701541415611cbf57600081815260066020526040902060080154421015611c38576040805162461bcd60e51b815260206004820152600c60248201526b696e76616c69642074696d6560a01b604482015290519081900360640190fd5b600081815260066020526040902060090154611c689033906118839060649061187790879063ffffffff6129a316565b600081815260066020818152604080842060090154878552600483528185203386529092529092200154611ca19163ffffffff61294516565b60008481526004602090815260408083203384529091529020600601555b6000838152600460209081526040808320338452909152902042600582015560070154611ced906001612945565b600093845260046020908152604080862033875290915290932060070192909255505060018055565b611d1e611606565b611d5d576040805162461bcd60e51b81526020600482018190526024820152600080516020612f00833981519152604482015290519081900360640190fd5b6000908152600660208190526040909120998a5560018a019a909a556002890196909655600388019690965560048701929092556005860192909255948401949094556007830193909355600882019290925560090155565b600080611dca83600163ffffffff6128fa16565b905060058181548110611dd957fe5b90600052602060002090600e0201600a0154915050919050565b6004602081815260009384526040808520909152918352912080546001820154600283015460038401549484015460058501546006860154600787015460089097015495976001600160a01b03861697600160a01b90960460ff9081169795969195168a565b60009081526004602090815260408083203384529091529020600181015460028201546003909201546001600160a01b03821693600160a01b90920460ff169291565b600080611eb083600163ffffffff6128fa16565b905060058181548110611ebf57fe5b90600052602060002090600e0201600c0154915050919050565b611ee1611606565b611f20576040805162461bcd60e51b81526020600482018190526024820152600080516020612f00833981519152604482015290519081900360640190fd5b806001600160a01b031663a9059cbb611f376115f7565b604080516370a0823160e01b815230600482015290516001600160a01b038616916370a08231916024808301926020929190829003018186803b158015611f7d57600080fd5b505afa158015611f91573d6000803e3d6000fd5b505050506040513d6020811015611fa757600080fd5b5051604080516001600160e01b031960e086901b1681526001600160a01b03909316600484015260248301919091525160448083019260209291908290030181600087803b158015611ff857600080fd5b505af115801561200c573d6000803e3d6000fd5b505050506040513d6020811015610c6c57600080fd5b6002600154141561207a576040805162461bcd60e51b815260206004820152601f60248201527f5265656e7472616e637947756172643a207265656e7472616e742063616c6c00604482015290519081900360640190fd5b6002600190815560009061209590869063ffffffff6128fa16565b9050600581815481106120a457fe5b90600052602060002090600e020160030154600214156121d157604080513360601b60208083019190915260348083018a9052835180840390910181526054909201909252805191012060006120f982612a90565b905060018187878760405160008152602001604052604051808581526020018460ff1660ff1681526020018381526020018281526020019450505050506020604051602081039080840390855afa158015612158573d6000803e3d6000fd5b505050602060405103516001600160a01b03166121736115f7565b6001600160a01b0316146121ce576040805162461bcd60e51b815260206004820152601f60248201527f6f776e65722073686f756c64207369676e20707572636861736520696e666f00604482015290519081900360640190fd5b50505b600581815481106121de57fe5b90600052602060002090600e020160010154421015801561221d57506005818154811061220757fe5b90600052602060002090600e0201600201544211155b61225d576040805162461bcd60e51b815260206004820152600c60248201526b696e76616c69642074696d6560a01b604482015290519081900360640190fd5b612268338688611020565b6122a8576040805162461bcd60e51b815260206004820152600c60248201526b34b73b30b634b2103ab9b2b960a11b604482015290519081900360640190fd5b600085815260046020908152604080832033845290915290206003015434906122d7908263ffffffff61294516565b6000878152600460209081526040808320338452909152902060030155600580548390811061230257fe5b90600052602060002090600e020160030154600214156124c857685150ae84a8cdf000008710156123ab576005828154811061233a57fe5b600091825260208083206005600e90930201919091015488835260048252604080842033855290925291206003015411156123a65760405162461bcd60e51b8152600401808060200182810382526022815260200180612ede6022913960400191505060405180910390fd5b6124c3565b685150ae84a8cdf0000087101580156123cc575068a2a15d09519be0000087105b1561244a57600582815481106123de57fe5b600091825260208083206006600e90930201919091015488835260048252604080842033855290925291206003015411156123a65760405162461bcd60e51b8152600401808060200182810382526022815260200180612e9b6022913960400191505060405180910390fd5b6005828154811061245757fe5b600091825260208083206007600e90930201919091015488835260048252604080842033855290925291206003015411156124c35760405162461bcd60e51b8152600401808060200182810382526022815260200180612f206022913960400191505060405180910390fd5b61260d565b600582815481106124d557fe5b90600052602060002090600e0201600301546001141561257e57600582815481106124fc57fe5b600091825260208083206006600e90930201919091015488835260048252604080842033855290925291206003015411156124c3576040805162461bcd60e51b815260206004820152601a60248201527f696e76616c6964206d6178696d756d20636f6e74726962757465000000000000604482015290519081900360640190fd5b6005828154811061258b57fe5b600091825260208083206007600e909302019190910154888352600482526040808420338552909252912060030154111561260d576040805162461bcd60e51b815260206004820152601a60248201527f696e76616c6964206d6178696d756d20636f6e74726962757465000000000000604482015290519081900360640190fd5b600061264c670de0b6b3a76400006118776005868154811061262b57fe5b90600052602060002090600e0201600b0154856129a390919063ffffffff16565b9050600061265988610e9b565b90506005848154811061266857fe5b90600052602060002090600e02016009015481116126bc576040805162461bcd60e51b815260206004820152600c60248201526b125113c81cdbdb19081bdd5d60a21b604482015290519081900360640190fd5b81811015612700576040805162461bcd60e51b815260206004820152600c60248201526b125113c81cdbdb19081bdd5d60a21b604482015290519081900360640190fd5b600088815260046020908152604080832033845290915290206002015461272d908363ffffffff61294516565b60008981526004602090815260408083203384529091529020600201556005805461277e9184918790811061275e57fe5b90600052602060002090600e0201600c015461294590919063ffffffff16565b6005858154811061278b57fe5b60009182526020909120600c600e90920201015550506001805550505050505050565b60008080808080806127c788600163ffffffff6128fa16565b600090815260066020526040902080546001820154600283015460038401546004850154600590950154939d929c50909a509850919650945092505050565b61280e611606565b61284d576040805162461bcd60e51b81526020600482018190526024820152600080516020612f00833981519152604482015290519081900360640190fd5b60009283526004602090815260408085206001600160a01b039690961685529490529290912060018101805460ff60a01b1916600160a01b9315159390930292909217909155600801805460ff1916911515919091179055565b6128af611606565b6128ee576040805162461bcd60e51b81526020600482018190526024820152600080516020612f00833981519152604482015290519081900360640190fd5b6128f781612ae1565b50565b600061293c83836040518060400160405280601e81526020017f536166654d6174683a207375627472616374696f6e206f766572666c6f770000815250612b81565b90505b92915050565b60008282018381101561293c576040805162461bcd60e51b815260206004820152601b60248201527f536166654d6174683a206164646974696f6e206f766572666c6f770000000000604482015290519081900360640190fd5b3390565b6000826129b25750600061293f565b828202828482816129bf57fe5b041461293c5760405162461bcd60e51b8152600401808060200182810382526021815260200180612ebd6021913960400191505060405180910390fd5b600061293c83836040518060400160405280601a81526020017f536166654d6174683a206469766973696f6e206279207a65726f000000000000815250612c18565b604080516001600160a01b038416602482015260448082018490528251808303909101815260649091019091526020810180516001600160e01b031663a9059cbb60e01b179052610c6c908490612c7d565b604080517f19457468657265756d205369676e6564204d6573736167653a0a333200000000602080830191909152603c8083019490945282518083039094018452605c909101909152815191012090565b6001600160a01b038116612b265760405162461bcd60e51b8152600401808060200182810382526026815260200180612e756026913960400191505060405180910390fd5b600080546040516001600160a01b03808516939216917f8be0079c531659141344cd1fd0a4f28419497f9722a3daafe3b4186f6b6457e091a3600080546001600160a01b0319166001600160a01b0392909216919091179055565b60008184841115612c105760405162461bcd60e51b81526004018080602001828103825283818151815260200191508051906020019080838360005b83811015612bd5578181015183820152602001612bbd565b50505050905090810190601f168015612c025780820380516001836020036101000a031916815260200191505b509250505060405180910390fd5b505050900390565b60008183612c675760405162461bcd60e51b8152602060048201818152835160248401528351909283926044909101919085019080838360008315612bd5578181015183820152602001612bbd565b506000838581612c7357fe5b0495945050505050565b612c8f826001600160a01b0316612e3b565b612ce0576040805162461bcd60e51b815260206004820152601f60248201527f5361666545524332303a2063616c6c20746f206e6f6e2d636f6e747261637400604482015290519081900360640190fd5b60006060836001600160a01b0316836040518082805190602001908083835b60208310612d1e5780518252601f199092019160209182019101612cff565b6001836020036101000a0380198251168184511680821785525050505050509050019150506000604051808303816000865af19150503d8060008114612d80576040519150601f19603f3d011682016040523d82523d6000602084013e612d85565b606091505b509150915081612ddc576040805162461bcd60e51b815260206004820181905260248201527f5361666545524332303a206c6f772d6c6576656c2063616c6c206661696c6564604482015290519081900360640190fd5b805115612e3557808060200190516020811015612df857600080fd5b5051612e355760405162461bcd60e51b815260040180806020018281038252602a815260200180612f42602a913960400191505060405180910390fd5b50505050565b6000813f7fc5d2460186f7233c927e7db2dcc703c0e500b653ca82273b7bfad8045d85a470818114801590610f2057505015159291505056fe4f776e61626c653a206e6577206f776e657220697320746865207a65726f2061646472657373696e76616c6964206d6178696d756d20707572636861736520666f72207469657232536166654d6174683a206d756c7469706c69636174696f6e206f766572666c6f77696e76616c6964206d6178696d756d20707572636861736520666f722074696572314f776e61626c653a2063616c6c6572206973206e6f7420746865206f776e6572696e76616c6964206d6178696d756d20707572636861736520666f722074696572335361666545524332303a204552433230206f7065726174696f6e20646964206e6f742073756363656564a26469706673582212208dfd2a96238226dc303653d7961a996cbee88303449e6f45c9229b19ac88d09264736f6c63430006020033",
  "source": "pragma solidity >=0.6.0;\r\n\r\nimport \"@openzeppelin/contracts/token/ERC20/SafeERC20.sol\";\r\nimport \"@openzeppelin/contracts/math/SafeMath.sol\";\r\nimport \"@openzeppelin/contracts/ownership/Ownable.sol\";\r\nimport \"./ReentrancyGuard.sol\";\r\n\r\nlibrary ECDSA {\r\n    /**\r\n     * @dev Recover signer address from a message by using their signature\r\n     * @param hash bytes32 message, the hash is the signed message. What is recovered is the signer address.\r\n     * @param signature bytes signature, the signature is generated using web3.eth.sign()\r\n     */\r\n    function recover(bytes32 hash, bytes memory signature)\r\n        internal\r\n        pure\r\n        returns (address)\r\n    {\r\n        bytes32 r;\r\n        bytes32 s;\r\n        uint8 v;\r\n\r\n        // Check the signature length\r\n        if (signature.length != 65) {\r\n            return (address(0));\r\n        }\r\n\r\n        // Divide the signature in r, s and v variables with inline assembly.\r\n        assembly {\r\n            r := mload(add(signature, 0x20))\r\n            s := mload(add(signature, 0x40))\r\n            v := byte(0, mload(add(signature, 0x60)))\r\n        }\r\n\r\n        // Version of signature should be 27 or 28, but 0 and 1 are also possible versions\r\n        if (v < 27) {\r\n            v += 27;\r\n        }\r\n\r\n        // If the version is correct return the signer address\r\n        if (v != 27 && v != 28) {\r\n            return (address(0));\r\n        } else {\r\n            // solium-disable-next-line arg-overflow\r\n            return ecrecover(hash, v, r, s);\r\n        }\r\n    }\r\n\r\n    /**\r\n     * toEthSignedMessageHash\r\n     * @dev prefix a bytes32 value with \"\\x19Ethereum Signed Message:\"\r\n     * and hash the result\r\n     */\r\n    function toEthSignedMessageHash(bytes32 hash)\r\n        internal\r\n        pure\r\n        returns (bytes32)\r\n    {\r\n        return\r\n            keccak256(\r\n                abi.encodePacked(\"\\x19Ethereum Signed Message:\\n32\", hash)\r\n            );\r\n    }\r\n}\r\n\r\ncontract PolkabridgeLaunchPadV2 is Ownable, ReentrancyGuard {\r\n    string public name = \"PolkaBridge: LaunchPad V2\";\r\n    using SafeMath for uint256;\r\n    using SafeERC20 for IERC20;\r\n    using ECDSA for bytes32;\r\n\r\n    address payable private ReceiveToken;\r\n\r\n    struct IDOPool {\r\n        uint256 Id;\r\n        uint256 Begin;\r\n        uint256 End;\r\n        uint256 Type; //1: comminity round, 2 stackers round\r\n        IERC20 IDOToken;\r\n        uint256 MaxPurchaseTier1;\r\n        uint256 MaxPurchaseTier2; //==comminity tier\r\n        uint256 MaxPurchaseTier3;\r\n        uint256 TotalCap;\r\n        uint256 MinimumTokenSoldout;\r\n        uint256 TotalToken; //total sale token for this pool\r\n        uint256 RatePerETH;\r\n        uint256 TotalSold; //total number of token sold\r\n        uint256 MinimumStakeAmount;\r\n    }\r\n\r\n    struct ClaimInfo {\r\n        uint256 ClaimTime1;\r\n        uint256 PercentClaim1;\r\n        uint256 ClaimTime2;\r\n        uint256 PercentClaim2;\r\n        uint256 ClaimTime3;\r\n        uint256 PercentClaim3;\r\n        uint256 ClaimTime4;\r\n        uint256 PercentClaim4;\r\n        uint256 ClaimTime5;\r\n        uint256 PercentClaim5;\r\n    }\r\n\r\n    struct User {\r\n        uint256 Id;\r\n        address UserAddress;\r\n        bool IsWhitelist;\r\n        uint256 TotalTokenPurchase;\r\n        uint256 TotalETHPurchase;\r\n        uint256 PurchaseTime;\r\n        uint256 LastClaimed;\r\n        uint256 TotalPercentClaimed;\r\n        uint256 NumberClaimed;\r\n        bool IsActived;\r\n    }\r\n\r\n    mapping(uint256 => mapping(address => User)) public users; //poolid - listuser\r\n\r\n    IDOPool[] pools;\r\n\r\n    mapping(uint256 => ClaimInfo) public claimInfos; //pid\r\n\r\n    constructor(address payable receiveTokenAdd) public {\r\n        ReceiveToken = receiveTokenAdd;\r\n    }\r\n\r\n    function addMulWhitelist(address[] memory user, uint256 pid)\r\n        public\r\n        onlyOwner\r\n    {\r\n        for (uint256 i = 0; i < user.length; i++) {\r\n            users[pid][user[i]].Id = pid;\r\n            users[pid][user[i]].UserAddress = user[i];\r\n            users[pid][user[i]].IsWhitelist = true;\r\n            users[pid][user[i]].IsActived = true;\r\n        }\r\n    }\r\n\r\n    function updateWhitelist(\r\n        address user,\r\n        uint256 pid,\r\n        bool isWhitelist,\r\n        bool isActived\r\n    ) public onlyOwner {\r\n        users[pid][user].IsWhitelist = isWhitelist;\r\n        users[pid][user].IsActived = isActived;\r\n    }\r\n\r\n    function IsWhitelist(\r\n        address user,\r\n        uint256 pid,\r\n        uint256 stackAmount\r\n    ) public view returns (bool) {\r\n        uint256 poolIndex = pid.sub(1);\r\n        if (pools[poolIndex].Type == 1) // community round\r\n        {\r\n            return true;\r\n        } else if (pools[poolIndex].Type == 2) // stakers round\r\n        {\r\n            if (stackAmount >= pools[poolIndex].MinimumStakeAmount) return true;\r\n            return false;\r\n        } else if (pools[poolIndex].Type == 3) //internal\r\n        {\r\n            if (users[poolIndex][user].IsWhitelist) return true;\r\n            return false;\r\n        } else {\r\n            return false;\r\n        }\r\n    }\r\n\r\n    function addPool(\r\n        uint256 begin,\r\n        uint256 end,\r\n        uint256 _type,\r\n        IERC20 idoToken,\r\n        uint256 maxPurchaseTier1,\r\n        uint256 maxPurchaseTier2,\r\n        uint256 maxPurchaseTier3,\r\n        uint256 totalCap,\r\n        uint256 totalToken,\r\n        uint256 ratePerETH,\r\n        uint256 minimumTokenSoldout,\r\n        uint256 minimumStakeAmount\r\n    ) public onlyOwner {\r\n        uint256 id = pools.length.add(1);\r\n        pools.push(\r\n            IDOPool({\r\n                Id: id,\r\n                Begin: begin,\r\n                End: end,\r\n                Type: _type,\r\n                IDOToken: idoToken,\r\n                MaxPurchaseTier1: maxPurchaseTier1,\r\n                MaxPurchaseTier2: maxPurchaseTier2,\r\n                MaxPurchaseTier3: maxPurchaseTier3,\r\n                TotalCap: totalCap,\r\n                TotalToken: totalToken,\r\n                RatePerETH: ratePerETH,\r\n                TotalSold: 0,\r\n                MinimumTokenSoldout: minimumTokenSoldout,\r\n                MinimumStakeAmount: minimumStakeAmount\r\n            })\r\n        );\r\n    }\r\n\r\n    function addClaimInfo(\r\n        uint256 percentClaim1,\r\n        uint256 claimTime1,\r\n        uint256 percentClaim2,\r\n        uint256 claimTime2,\r\n        uint256 percentClaim3,\r\n        uint256 claimTime3,\r\n         uint256 percentClaim4,\r\n        uint256 claimTime4,\r\n         uint256 percentClaim5,\r\n        uint256 claimTime5,\r\n        uint256 pid\r\n    ) public onlyOwner {\r\n        claimInfos[pid].ClaimTime1 = claimTime1;\r\n        claimInfos[pid].PercentClaim1 = percentClaim1;\r\n        claimInfos[pid].ClaimTime2 = claimTime2;\r\n        claimInfos[pid].PercentClaim2 = percentClaim2;\r\n        claimInfos[pid].ClaimTime3 = claimTime3;\r\n        claimInfos[pid].PercentClaim3 = percentClaim3;\r\n        claimInfos[pid].ClaimTime4 = claimTime4;\r\n        claimInfos[pid].PercentClaim4 = percentClaim4;\r\n        claimInfos[pid].ClaimTime5 = claimTime5;\r\n        claimInfos[pid].PercentClaim5 = percentClaim5;\r\n    }\r\n\r\n    function updateClaimInfo(\r\n        uint256 percentClaim1,\r\n        uint256 claimTime1,\r\n        uint256 percentClaim2,\r\n        uint256 claimTime2,\r\n        uint256 percentClaim3,\r\n        uint256 claimTime3,\r\n          uint256 percentClaim4,\r\n        uint256 claimTime4,\r\n          uint256 percentClaim5,\r\n        uint256 claimTime5,\r\n        uint256 pid\r\n    ) public onlyOwner {\r\n        if (claimTime1 > 0) {\r\n            claimInfos[pid].ClaimTime1 = claimTime1;\r\n        }\r\n\r\n        if (percentClaim1 > 0) {\r\n            claimInfos[pid].PercentClaim1 = percentClaim1;\r\n        }\r\n        if (claimTime2 > 0) {\r\n            claimInfos[pid].ClaimTime2 = claimTime2;\r\n        }\r\n\r\n        if (percentClaim2 > 0) {\r\n            claimInfos[pid].PercentClaim2 = percentClaim2;\r\n        }\r\n\r\n        if (claimTime3 > 0) {\r\n            claimInfos[pid].ClaimTime3 = claimTime3;\r\n        }\r\n\r\n        if (percentClaim3 > 0) {\r\n            claimInfos[pid].PercentClaim3 = percentClaim3;\r\n        }\r\n\r\n          if (claimTime4 > 0) {\r\n            claimInfos[pid].ClaimTime4 = claimTime4;\r\n        }\r\n\r\n        if (percentClaim4 > 0) {\r\n            claimInfos[pid].PercentClaim4 = percentClaim4;\r\n        }\r\n\r\n           if (claimTime5 > 0) {\r\n            claimInfos[pid].ClaimTime5 = claimTime5;\r\n        }\r\n\r\n        if (percentClaim5 > 0) {\r\n            claimInfos[pid].PercentClaim5 = percentClaim5;\r\n        }\r\n    }\r\n\r\n    function updatePool(\r\n        uint256 pid,\r\n        uint256 begin,\r\n        uint256 end,\r\n        uint256 maxPurchaseTier1,\r\n        uint256 maxPurchaseTier2,\r\n        uint256 maxPurchaseTier3,\r\n        uint256 totalCap,\r\n        uint256 totalToken,\r\n        uint256 ratePerETH,\r\n        IERC20 idoToken,\r\n        uint256 minimumTokenSoldout,\r\n        uint256 pooltype,\r\n        uint256 minimumStakeAmount\r\n    ) public onlyOwner {\r\n        uint256 poolIndex = pid.sub(1);\r\n        if (begin > 0) {\r\n            pools[poolIndex].Begin = begin;\r\n        }\r\n        if (end > 0) {\r\n            pools[poolIndex].End = end;\r\n        }\r\n\r\n        if (maxPurchaseTier1 > 0) {\r\n            pools[poolIndex].MaxPurchaseTier1 = maxPurchaseTier1;\r\n        }\r\n        if (maxPurchaseTier2 > 0) {\r\n            pools[poolIndex].MaxPurchaseTier2 = maxPurchaseTier2;\r\n        }\r\n        if (maxPurchaseTier3 > 0) {\r\n            pools[poolIndex].MaxPurchaseTier3 = maxPurchaseTier3;\r\n        }\r\n        if (totalCap > 0) {\r\n            pools[poolIndex].TotalCap = totalCap;\r\n        }\r\n        if (totalToken > 0) {\r\n            pools[poolIndex].TotalToken = totalToken;\r\n        }\r\n        if (ratePerETH > 0) {\r\n            pools[poolIndex].RatePerETH = ratePerETH;\r\n        }\r\n\r\n        if (minimumStakeAmount > 0) {\r\n            pools[poolIndex].MinimumStakeAmount = minimumStakeAmount;\r\n        }\r\n\r\n        if (minimumTokenSoldout > 0) {\r\n            pools[poolIndex].MinimumTokenSoldout = minimumTokenSoldout;\r\n        }\r\n        if (pooltype > 0) {\r\n            pools[poolIndex].Type = pooltype;\r\n        }\r\n        pools[poolIndex].IDOToken = idoToken;\r\n    }\r\n\r\n    function withdrawErc20(IERC20 token) public onlyOwner {\r\n        token.transfer(owner(), token.balanceOf(address(this)));\r\n    }\r\n\r\n    //withdraw ETH after IDO\r\n    function withdrawPoolFund() public onlyOwner {\r\n        uint256 balance = address(this).balance;\r\n        require(balance > 0, \"not enough fund\");\r\n        ReceiveToken.transfer(balance);\r\n    }\r\n\r\n    function purchaseIDO(\r\n        uint256 stakeAmount,\r\n        uint256 pid,\r\n        uint8 v,\r\n        bytes32 r,\r\n        bytes32 s\r\n    ) public payable nonReentrant {\r\n        uint256 poolIndex = pid.sub(1);\r\n\r\n        if (pools[poolIndex].Type == 2) {\r\n            bytes32 _hash = keccak256(abi.encodePacked(msg.sender, stakeAmount));\r\n            bytes32 messageHash = _hash.toEthSignedMessageHash();\r\n\r\n            require(\r\n                owner() == ecrecover(messageHash, v, r, s),\r\n                \"owner should sign purchase info\"\r\n            );\r\n        }\r\n\r\n        require(\r\n            block.timestamp >= pools[poolIndex].Begin &&\r\n                block.timestamp <= pools[poolIndex].End,\r\n            \"invalid time\"\r\n        );\r\n        //check user\r\n        require(IsWhitelist(msg.sender, pid, stakeAmount), \"invalid user\");\r\n\r\n        //check amount\r\n        uint256 ethAmount = msg.value;\r\n        users[pid][msg.sender].TotalETHPurchase = users[pid][msg.sender]\r\n            .TotalETHPurchase\r\n            .add(ethAmount);\r\n\r\n        if (pools[poolIndex].Type == 2) {\r\n            //stackers round\r\n            if (stakeAmount < 1500 * 1e18) {\r\n                require(\r\n                    users[pid][msg.sender].TotalETHPurchase <=\r\n                        pools[poolIndex].MaxPurchaseTier1,\r\n                    \"invalid maximum purchase for tier1\"\r\n                );\r\n            } else if (\r\n                stakeAmount >= 1500 * 1e18 && stakeAmount < 3000 * 1e18\r\n            ) {\r\n                require(\r\n                    users[pid][msg.sender].TotalETHPurchase <=\r\n                        pools[poolIndex].MaxPurchaseTier2,\r\n                    \"invalid maximum purchase for tier2\"\r\n                );\r\n            } else {\r\n                require(\r\n                    users[pid][msg.sender].TotalETHPurchase <=\r\n                        pools[poolIndex].MaxPurchaseTier3,\r\n                    \"invalid maximum purchase for tier3\"\r\n                );\r\n            }\r\n        } else if (pools[poolIndex].Type == 1) {\r\n            //community round\r\n\r\n            require(\r\n                users[pid][msg.sender].TotalETHPurchase <=\r\n                    pools[poolIndex].MaxPurchaseTier2,\r\n                \"invalid maximum contribute\"\r\n            );\r\n        } else {\r\n            //=3\r\n            require(\r\n                users[pid][msg.sender].TotalETHPurchase <=\r\n                    pools[poolIndex].MaxPurchaseTier3,\r\n                \"invalid maximum contribute\"\r\n            );\r\n        }\r\n\r\n        uint256 tokenAmount = ethAmount.mul(pools[poolIndex].RatePerETH).div(\r\n            1e18\r\n        );\r\n\r\n        uint256 remainToken = getRemainIDOToken(pid);\r\n        require(\r\n            remainToken > pools[poolIndex].MinimumTokenSoldout,\r\n            \"IDO sold out\"\r\n        );\r\n        require(remainToken >= tokenAmount, \"IDO sold out\");\r\n\r\n        users[pid][msg.sender].TotalTokenPurchase = users[pid][msg.sender]\r\n            .TotalTokenPurchase\r\n            .add(tokenAmount);\r\n\r\n        pools[poolIndex].TotalSold = pools[poolIndex].TotalSold.add(\r\n            tokenAmount\r\n        );\r\n    }\r\n\r\n    function claimToken(uint256 pid) public nonReentrant {\r\n        require(\r\n            users[pid][msg.sender].TotalPercentClaimed < 100,\r\n            \"you have claimed enough\"\r\n        );\r\n        uint256 userBalance = getUserTotalPurchase(pid);\r\n        require(userBalance > 0, \"invalid claim\");\r\n\r\n        uint256 poolIndex = pid.sub(1);\r\n        if (users[pid][msg.sender].NumberClaimed == 0) {\r\n            require(\r\n                block.timestamp >= claimInfos[poolIndex].ClaimTime1,\r\n                \"invalid time\"\r\n            );\r\n            pools[poolIndex].IDOToken.safeTransfer(\r\n                msg.sender,\r\n                userBalance.mul(claimInfos[poolIndex].PercentClaim1).div(100)\r\n            );\r\n          users[pid][msg.sender].TotalPercentClaimed=  users[pid][msg.sender].TotalPercentClaimed.add(\r\n                claimInfos[poolIndex].PercentClaim1\r\n            );\r\n        } else if (users[pid][msg.sender].NumberClaimed == 1) {\r\n            require(\r\n                block.timestamp >= claimInfos[poolIndex].ClaimTime2,\r\n                \"invalid time\"\r\n            );\r\n            pools[poolIndex].IDOToken.safeTransfer(\r\n                msg.sender,\r\n                userBalance.mul(claimInfos[poolIndex].PercentClaim2).div(100)\r\n            );\r\n            users[pid][msg.sender].TotalPercentClaimed=users[pid][msg.sender].TotalPercentClaimed.add(\r\n                claimInfos[poolIndex].PercentClaim2\r\n            );\r\n        } else if (users[pid][msg.sender].NumberClaimed == 2) {\r\n            require(\r\n                block.timestamp >= claimInfos[poolIndex].ClaimTime3,\r\n                \"invalid time\"\r\n            );\r\n            pools[poolIndex].IDOToken.safeTransfer(\r\n                msg.sender,\r\n                userBalance.mul(claimInfos[poolIndex].PercentClaim3).div(100)\r\n            );\r\n           users[pid][msg.sender].TotalPercentClaimed= users[pid][msg.sender].TotalPercentClaimed.add(\r\n                claimInfos[poolIndex].PercentClaim3\r\n            );\r\n        }\r\n\r\n         else if (users[pid][msg.sender].NumberClaimed == 3) {\r\n            require(\r\n                block.timestamp >= claimInfos[poolIndex].ClaimTime4,\r\n                \"invalid time\"\r\n            );\r\n            pools[poolIndex].IDOToken.safeTransfer(\r\n                msg.sender,\r\n                userBalance.mul(claimInfos[poolIndex].PercentClaim4).div(100)\r\n            );\r\n           users[pid][msg.sender].TotalPercentClaimed= users[pid][msg.sender].TotalPercentClaimed.add(\r\n                claimInfos[poolIndex].PercentClaim4\r\n            );\r\n        }\r\n         else if (users[pid][msg.sender].NumberClaimed == 4) {\r\n            require(\r\n                block.timestamp >= claimInfos[poolIndex].ClaimTime5,\r\n                \"invalid time\"\r\n            );\r\n            pools[poolIndex].IDOToken.safeTransfer(\r\n                msg.sender,\r\n                userBalance.mul(claimInfos[poolIndex].PercentClaim5).div(100)\r\n            );\r\n           users[pid][msg.sender].TotalPercentClaimed= users[pid][msg.sender].TotalPercentClaimed.add(\r\n                claimInfos[poolIndex].PercentClaim5\r\n            );\r\n        }\r\n\r\n        users[pid][msg.sender].LastClaimed = block.timestamp;\r\n        users[pid][msg.sender].NumberClaimed=users[pid][msg.sender].NumberClaimed.add(1);\r\n    }\r\n\r\n    function getUserTotalPurchase(uint256 pid) public view returns (uint256) {\r\n        return users[pid][msg.sender].TotalTokenPurchase;\r\n    }\r\n\r\n    function getRemainIDOToken(uint256 pid) public view returns (uint256) {\r\n        uint256 poolIndex = pid.sub(1);\r\n        uint256 tokenBalance = getBalanceTokenByPoolId(pid);\r\n        if (pools[poolIndex].TotalSold > tokenBalance) {\r\n            return 0;\r\n        }\r\n\r\n        return tokenBalance.sub(pools[poolIndex].TotalSold);\r\n    }\r\n\r\n    function getBalanceTokenByPoolId(uint256 pid)\r\n        public\r\n        view\r\n        returns (uint256)\r\n    {\r\n        uint256 poolIndex = pid.sub(1);\r\n\r\n        return pools[poolIndex].TotalToken;\r\n    }\r\n\r\n    function getPoolInfo(uint256 pid)\r\n        public\r\n        view\r\n        returns (\r\n            uint256,\r\n            uint256,\r\n            uint256,\r\n            uint256,\r\n            uint256,\r\n            IERC20\r\n        )\r\n    {\r\n        uint256 poolIndex = pid.sub(1);\r\n        return (\r\n            pools[poolIndex].Begin,\r\n            pools[poolIndex].End,\r\n            pools[poolIndex].Type,\r\n            pools[poolIndex].RatePerETH,\r\n            pools[poolIndex].TotalSold,\r\n            pools[poolIndex].IDOToken\r\n        );\r\n    }\r\n\r\n    function getClaimInfo(uint256 pid)\r\n        public\r\n        view\r\n        returns (\r\n            uint256,\r\n            uint256,\r\n            uint256,\r\n            uint256,\r\n            uint256,\r\n            uint256\r\n        )\r\n    {\r\n        uint256 poolIndex = pid.sub(1);\r\n        return (\r\n            claimInfos[poolIndex].ClaimTime1,\r\n            claimInfos[poolIndex].PercentClaim1,\r\n            claimInfos[poolIndex].ClaimTime2,\r\n            claimInfos[poolIndex].PercentClaim2,\r\n            claimInfos[poolIndex].ClaimTime3,\r\n            claimInfos[poolIndex].PercentClaim3\r\n        );\r\n    }\r\n\r\n    function getPoolSoldInfo(uint256 pid) public view returns (uint256) {\r\n        uint256 poolIndex = pid.sub(1);\r\n        return (pools[poolIndex].TotalSold);\r\n    }\r\n\r\n    function getWhitelistfo(uint256 pid)\r\n        public\r\n        view\r\n        returns (\r\n            address,\r\n            bool,\r\n            uint256,\r\n            uint256\r\n        )\r\n    {\r\n        return (\r\n            users[pid][msg.sender].UserAddress,\r\n            users[pid][msg.sender].IsWhitelist,\r\n            users[pid][msg.sender].TotalTokenPurchase,\r\n            users[pid][msg.sender].TotalETHPurchase\r\n        );\r\n    }\r\n\r\n    function getUserInfo(uint256 pid, address user)\r\n        public\r\n        view\r\n        returns (\r\n            bool,\r\n            uint256,\r\n            uint256,\r\n            uint256\r\n        )\r\n    {\r\n        return (\r\n            users[pid][user].IsWhitelist,\r\n            users[pid][user].TotalTokenPurchase,\r\n            users[pid][user].TotalETHPurchase,\r\n            users[pid][user].TotalPercentClaimed\r\n        );\r\n    }\r\n\r\n    \r\n}\r\n",
  "sourcePath": "C:\\Users\\Thanh Phi\\Desktop\\PolkaBridgeSolution\\PolkaBridge-LaunchPad\\contracts\\PolkabridgeLaunchPadV2.sol",
  "compiler": {
    "name": "solc",
    "version": "0.6.2+commit.bacdbe57.Emscripten.clang"
  },
  "schemaVersion": "3.4.3",
  "updatedAt": "2021-11-23T05:14:36.516Z",
  "networkType": "ethereum",
  "devdoc": {
    "methods": {
      "isOwner()": {
        "details": "Returns true if the caller is the current owner."
      },
      "owner()": {
        "details": "Returns the address of the current owner."
      },
      "renounceOwnership()": {
        "details": "Leaves the contract without owner. It will not be possible to call `onlyOwner` functions anymore. Can only be called by the current owner.     * NOTE: Renouncing ownership will leave the contract without an owner, thereby removing any functionality that is only available to the owner."
      },
      "transferOwnership(address)": {
        "details": "Transfers ownership of the contract to a new account (`newOwner`). Can only be called by the current owner."
      }
    }
  },
  "userdoc": {
    "methods": {}
  }
}