{
  "contractName": "PolkaBridgeStaking",
  "abi": [
    {
      "inputs": [
        {
          "internalType": "uint256",
          "name": "_startBlock",
          "type": "uint256"
        }
      ],
      "stateMutability": "nonpayable",
      "type": "constructor"
    },
    {
      "anonymous": false,
      "inputs": [
        {
          "indexed": true,
          "internalType": "address",
          "name": "user",
          "type": "address"
        },
        {
          "indexed": true,
          "internalType": "uint256",
          "name": "pid",
          "type": "uint256"
        },
        {
          "indexed": false,
          "internalType": "uint256",
          "name": "amount",
          "type": "uint256"
        }
      ],
      "name": "Deposit",
      "type": "event"
    },
    {
      "anonymous": false,
      "inputs": [
        {
          "indexed": true,
          "internalType": "address",
          "name": "user",
          "type": "address"
        },
        {
          "indexed": true,
          "internalType": "uint256",
          "name": "pid",
          "type": "uint256"
        },
        {
          "indexed": false,
          "internalType": "uint256",
          "name": "amount",
          "type": "uint256"
        }
      ],
      "name": "EmergencyWithdraw",
      "type": "event"
    },
    {
      "anonymous": false,
      "inputs": [
        {
          "indexed": true,
          "internalType": "address",
          "name": "previousOwner",
          "type": "address"
        },
        {
          "indexed": true,
          "internalType": "address",
          "name": "newOwner",
          "type": "address"
        }
      ],
      "name": "OwnershipTransferred",
      "type": "event"
    },
    {
      "anonymous": false,
      "inputs": [
        {
          "indexed": true,
          "internalType": "address",
          "name": "user",
          "type": "address"
        },
        {
          "indexed": true,
          "internalType": "uint256",
          "name": "pid",
          "type": "uint256"
        },
        {
          "indexed": false,
          "internalType": "uint256",
          "name": "amount",
          "type": "uint256"
        }
      ],
      "name": "Withdraw",
      "type": "event"
    },
    {
      "inputs": [],
      "name": "isOwner",
      "outputs": [
        {
          "internalType": "bool",
          "name": "",
          "type": "bool"
        }
      ],
      "stateMutability": "view",
      "type": "function"
    },
    {
      "inputs": [],
      "name": "name",
      "outputs": [
        {
          "internalType": "string",
          "name": "",
          "type": "string"
        }
      ],
      "stateMutability": "view",
      "type": "function"
    },
    {
      "inputs": [],
      "name": "owner",
      "outputs": [
        {
          "internalType": "address",
          "name": "",
          "type": "address"
        }
      ],
      "stateMutability": "view",
      "type": "function"
    },
    {
      "inputs": [],
      "name": "renounceOwnership",
      "outputs": [],
      "stateMutability": "nonpayable",
      "type": "function"
    },
    {
      "inputs": [],
      "name": "startBlock",
      "outputs": [
        {
          "internalType": "uint256",
          "name": "",
          "type": "uint256"
        }
      ],
      "stateMutability": "view",
      "type": "function"
    },
    {
      "inputs": [],
      "name": "totalUser",
      "outputs": [
        {
          "internalType": "uint256",
          "name": "",
          "type": "uint256"
        }
      ],
      "stateMutability": "view",
      "type": "function"
    },
    {
      "inputs": [
        {
          "internalType": "address",
          "name": "newOwner",
          "type": "address"
        }
      ],
      "name": "transferOwnership",
      "outputs": [],
      "stateMutability": "nonpayable",
      "type": "function"
    },
    {
      "inputs": [
        {
          "internalType": "uint256",
          "name": "",
          "type": "uint256"
        },
        {
          "internalType": "address",
          "name": "",
          "type": "address"
        }
      ],
      "name": "userInfo",
      "outputs": [
        {
          "internalType": "uint256",
          "name": "amount",
          "type": "uint256"
        },
        {
          "internalType": "uint256",
          "name": "rewardDebt",
          "type": "uint256"
        },
        {
          "internalType": "uint256",
          "name": "rewardClaimed",
          "type": "uint256"
        },
        {
          "internalType": "uint256",
          "name": "lastBlock",
          "type": "uint256"
        },
        {
          "internalType": "uint256",
          "name": "beginTime",
          "type": "uint256"
        },
        {
          "internalType": "uint256",
          "name": "endTime",
          "type": "uint256"
        }
      ],
      "stateMutability": "view",
      "type": "function"
    },
    {
      "inputs": [],
      "name": "poolLength",
      "outputs": [
        {
          "internalType": "uint256",
          "name": "",
          "type": "uint256"
        }
      ],
      "stateMutability": "view",
      "type": "function"
    },
    {
      "inputs": [
        {
          "internalType": "uint256",
          "name": "_allocPoint",
          "type": "uint256"
        },
        {
          "internalType": "contract IERC20",
          "name": "_stakeToken",
          "type": "address"
        },
        {
          "internalType": "contract IERC20",
          "name": "_rewardToken",
          "type": "address"
        },
        {
          "internalType": "uint256",
          "name": "_rewardPerBlock",
          "type": "uint256"
        },
        {
          "internalType": "uint256",
          "name": "_endDate",
          "type": "uint256"
        },
        {
          "internalType": "bool",
          "name": "_withUpdate",
          "type": "bool"
        }
      ],
      "name": "addPool",
      "outputs": [],
      "stateMutability": "nonpayable",
      "type": "function"
    },
    {
      "inputs": [
        {
          "internalType": "uint256",
          "name": "_pid",
          "type": "uint256"
        },
        {
          "internalType": "uint256",
          "name": "_allocPoint",
          "type": "uint256"
        },
        {
          "internalType": "uint256",
          "name": "_rewardPerBlock",
          "type": "uint256"
        },
        {
          "internalType": "uint256",
          "name": "_endDate",
          "type": "uint256"
        },
        {
          "internalType": "bool",
          "name": "_withUpdate",
          "type": "bool"
        }
      ],
      "name": "setPool",
      "outputs": [],
      "stateMutability": "nonpayable",
      "type": "function"
    },
    {
      "inputs": [
        {
          "internalType": "uint256",
          "name": "_fromBlock",
          "type": "uint256"
        },
        {
          "internalType": "uint256",
          "name": "_toBlock",
          "type": "uint256"
        }
      ],
      "name": "getMultiplier",
      "outputs": [
        {
          "internalType": "uint256",
          "name": "",
          "type": "uint256"
        }
      ],
      "stateMutability": "view",
      "type": "function"
    },
    {
      "inputs": [
        {
          "internalType": "uint256",
          "name": "_pid",
          "type": "uint256"
        }
      ],
      "name": "getTotalTokenStaked",
      "outputs": [
        {
          "internalType": "uint256",
          "name": "",
          "type": "uint256"
        }
      ],
      "stateMutability": "view",
      "type": "function"
    },
    {
      "inputs": [
        {
          "internalType": "uint256",
          "name": "_pid",
          "type": "uint256"
        },
        {
          "internalType": "address",
          "name": "_user",
          "type": "address"
        }
      ],
      "name": "pendingReward",
      "outputs": [
        {
          "internalType": "uint256",
          "name": "",
          "type": "uint256"
        }
      ],
      "stateMutability": "view",
      "type": "function"
    },
    {
      "inputs": [],
      "name": "massUpdatePools",
      "outputs": [],
      "stateMutability": "nonpayable",
      "type": "function"
    },
    {
      "inputs": [
        {
          "internalType": "uint256",
          "name": "_pid",
          "type": "uint256"
        }
      ],
      "name": "updatePool",
      "outputs": [],
      "stateMutability": "nonpayable",
      "type": "function"
    },
    {
      "inputs": [
        {
          "internalType": "uint256",
          "name": "_pid",
          "type": "uint256"
        },
        {
          "internalType": "uint256",
          "name": "_amount",
          "type": "uint256"
        }
      ],
      "name": "deposit",
      "outputs": [],
      "stateMutability": "nonpayable",
      "type": "function"
    },
    {
      "inputs": [
        {
          "internalType": "uint256",
          "name": "_pid",
          "type": "uint256"
        },
        {
          "internalType": "uint256",
          "name": "_amount",
          "type": "uint256"
        }
      ],
      "name": "withdraw",
      "outputs": [],
      "stateMutability": "nonpayable",
      "type": "function"
    },
    {
      "inputs": [
        {
          "internalType": "uint256",
          "name": "_pid",
          "type": "uint256"
        }
      ],
      "name": "emergencyWithdraw",
      "outputs": [],
      "stateMutability": "nonpayable",
      "type": "function"
    },
    {
      "inputs": [
        {
          "internalType": "uint256",
          "name": "_pid",
          "type": "uint256"
        }
      ],
      "name": "getPoolInfo",
      "outputs": [
        {
          "internalType": "uint256",
          "name": "",
          "type": "uint256"
        },
        {
          "internalType": "uint256",
          "name": "",
          "type": "uint256"
        },
        {
          "internalType": "uint256",
          "name": "",
          "type": "uint256"
        },
        {
          "internalType": "uint256",
          "name": "",
          "type": "uint256"
        },
        {
          "internalType": "uint256",
          "name": "",
          "type": "uint256"
        }
      ],
      "stateMutability": "view",
      "type": "function"
    },
    {
      "inputs": [
        {
          "internalType": "address",
          "name": "user",
          "type": "address"
        },
        {
          "internalType": "uint256",
          "name": "pid",
          "type": "uint256"
        }
      ],
      "name": "getDiffBlock",
      "outputs": [
        {
          "internalType": "uint256",
          "name": "",
          "type": "uint256"
        }
      ],
      "stateMutability": "view",
      "type": "function"
    }
  ],
  "bytecode": "0x60c0604052601460808190527f506f6c6b614272696467653a205374616b696e6700000000000000000000000060a0908152620000409160019190620000e3565b503480156200004e57600080fd5b5060405162001b1638038062001b16833981810160405260208110156200007457600080fd5b505160006200008b6001600160e01b03620000de16565b600080546001600160a01b0319166001600160a01b0383169081178255604051929350917f8be0079c531659141344cd1fd0a4f28419497f9722a3daafe3b4186f6b6457e0908290a35060055562000185565b335b90565b828054600181600116156101000203166002900490600052602060002090601f016020900481019282601f106200012657805160ff191683800117855562000156565b8280016001018555821562000156579182015b828111156200015657825182559160200191906001019062000139565b506200016492915062000168565b5090565b620000e091905b808211156200016457600081556001016200016f565b61198180620001956000396000f3fe608060405234801561001057600080fd5b50600436106101375760003560e01c8063715018a6116100b857806398969e821161007c57806398969e821461039d578063e1604b70146103c9578063e2bbb158146103d1578063ec11478b146103f4578063f2fde38b1461042b578063fa66bb871461045157610137565b8063715018a6146102d35780638da5cb5b146102db5780638dbb1e3a146102ff5780638f32d59b1461032257806393f1a40b1461033e57610137565b806348cd4cb1116100ff57806348cd4cb11461026c57806351eb05a6146102745780635312ea8e14610291578063630b5ba1146102ae57806370a341be146102b657610137565b806306fdde031461013c578063081e3eda146101b95780632f380b35146101d35780633d59fa441461021b578063441a3e7014610247575b600080fd5b61014461049b565b6040805160208082528351818301528351919283929083019185019080838360005b8381101561017e578181015183820152602001610166565b50505050905090810190601f1680156101ab5780820380516001836020036101000a031916815260200191505b509250505060405180910390f35b6101c1610528565b60408051918252519081900360200190f35b6101f0600480360360208110156101e957600080fd5b503561052e565b6040805195865260208601949094528484019290925260608401526080830152519081900360a00190f35b6101c16004803603604081101561023157600080fd5b506001600160a01b0381351690602001356105e4565b61026a6004803603604081101561025d57600080fd5b5080359060200135610672565b005b6101c161085a565b61026a6004803603602081101561028a57600080fd5b5035610860565b61026a600480360360208110156102a757600080fd5b5035610931565b61026a6109d3565b6101c1600480360360208110156102cc57600080fd5b50356109f6565b61026a610a21565b6102e3610ab2565b604080516001600160a01b039092168252519081900360200190f35b6101c16004803603604081101561031557600080fd5b5080359060200135610ac1565b61032a610ada565b604080519115158252519081900360200190f35b61036a6004803603604081101561035457600080fd5b50803590602001356001600160a01b0316610afe565b604080519687526020870195909552858501939093526060850191909152608084015260a0830152519081900360c00190f35b6101c1600480360360408110156103b357600080fd5b50803590602001356001600160a01b0316610b3e565b6101c1610c3e565b61026a600480360360408110156103e757600080fd5b5080359060200135610c44565b61026a600480360360a081101561040a57600080fd5b50803590602081013590604081013590606081013590608001351515610e48565b61026a6004803603602081101561044157600080fd5b50356001600160a01b0316610f22565b61026a600480360360c081101561046757600080fd5b508035906001600160a01b03602082013581169160408101359091169060608101359060808101359060a001351515610f72565b60018054604080516020600284861615610100026000190190941693909304601f810184900484028201840190925281815292918301828280156105205780601f106104f557610100808354040283529160200191610520565b820191906000526020600020905b81548152906001019060200180831161050357829003601f168201915b505050505081565b60025490565b60008060008060006002868154811061054357fe5b9060005260206000209060090201600401546002878154811061056257fe5b9060005260206000209060090201600301546002888154811061058157fe5b906000526020600020906009020160050154600289815481106105a057fe5b90600052602060002090600902016006015460028a815481106105bf57fe5b9060005260206000209060090201600701549450945094509450945091939590929450565b60006105ee611884565b5060008281526003602081815260408084206001600160a01b0388168552825292839020835160c0810185528154815260018201549281019290925260028101549382019390935290820154606082018190526004830154608083015260059092015460a08201529061066890439063ffffffff6111bd16565b9150505b92915050565b60006002838154811061068157fe5b6000918252602080832086845260038252604080852033865290925292208054600990920290920192508311156106f7576040805162461bcd60e51b81526020600482015260156024820152741dda5d1a191c985dce88189859081c995c5d595cdd605a1b604482015290519081900360640190fd5b61070084610860565b6000610749826001015461073d670de0b6b3a7640000610731876004015487600001546111ff90919063ffffffff16565b9063ffffffff61125816565b9063ffffffff6111bd16565b905080156107915761075c33828761129a565b6007830154610771908263ffffffff6113df16565b6007840155600282015461078b908263ffffffff6113df16565b60028301555b83156107ed5781546107a9908563ffffffff6111bd16565b8083556107b7574260058301555b60068301546107cc908563ffffffff6111bd16565b600684015582546107ed906001600160a01b0316338663ffffffff61143916565b6004830154825461081191670de0b6b3a7640000916107319163ffffffff6111ff16565b6001830155436003830155604080518581529051869133917ff279e6a1f5e320cca91135676d9cb6e44ca8a08c0b88342bcdb1144f6511b5689181900360200190a35050505050565b60055481565b60006002828154811061086f57fe5b9060005260206000209060090201905080600301544311610890575061092e565b600061089b836109f6565b90508015806108ac57506002820154155b156108be57504360039091015561092e565b60006108ce836003015443610ac1565b905060006108e98460050154836111ff90919063ffffffff16565b905061091b61090a8461073184670de0b6b3a764000063ffffffff6111ff16565b60048601549063ffffffff6113df16565b6004850155505043600390920191909155505b50565b60006002828154811061094057fe5b600091825260208083208584526003825260408085203380875293528420805485825560018201959095556009909302018054909450919291610996916001600160a01b0391909116908363ffffffff61143916565b604080518281529051859133917fbb757047c2b5f3974fe26b7c10f732e7bce710b0952a71082702781e62ae05959181900360200190a350505050565b60025460005b818110156109f2576109ea81610860565b6001016109d9565b5050565b60008060028381548110610a0657fe5b60009182526020909120600660099092020101549392505050565b610a29610ada565b610a68576040805162461bcd60e51b81526020600482018190526024820152600080516020611902833981519152604482015290519081900360640190fd5b600080546040516001600160a01b03909116907f8be0079c531659141344cd1fd0a4f28419497f9722a3daafe3b4186f6b6457e0908390a3600080546001600160a01b0319169055565b6000546001600160a01b031690565b6000610ad3828463ffffffff6111bd16565b9392505050565b600080546001600160a01b0316610aef611490565b6001600160a01b031614905090565b6003602081815260009384526040808520909152918352912080546001820154600283015493830154600484015460059094015492949193919290919086565b60008060028481548110610b4e57fe5b600091825260208083208784526003825260408085206001600160a01b03891686529092529083206009929092020160048101549093509091610b90876109f6565b9050836003015443118015610ba55750600081115b15610c08576000610bba856003015443610ac1565b90506000610bd58660050154836111ff90919063ffffffff16565b9050610c03610bf68461073184670de0b6b3a764000063ffffffff6111ff16565b859063ffffffff6113df16565b935050505b610c33836001015461073d670de0b6b3a76400006107318688600001546111ff90919063ffffffff16565b979650505050505050565b60045481565b600060028381548110610c5357fe5b60009182526020808320868452600382526040808520338652909252922060086009909202909201908101549092504210610cd5576040805162461bcd60e51b815260206004820152601b60248201527f7374616b696e6720706f6f6c20616c726561647920636c6f7365640000000000604482015290519081900360640190fd5b610cde84610860565b805415610d64576000610d16826001015461073d670de0b6b3a7640000610731876004015487600001546111ff90919063ffffffff16565b90508015610d5e57610d2933828761129a565b6007830154610d3e908263ffffffff6113df16565b60078401556002820154610d58908263ffffffff6113df16565b60028301555b50610d8a565b600454610d7890600163ffffffff6113df16565b60049081554290820155600060058201555b8215610ddc578154610dad906001600160a01b031633308663ffffffff61149416565b8054610dbf908463ffffffff6113df16565b81556006820154610dd6908463ffffffff6113df16565b60068301555b60048201548154610e0091670de0b6b3a7640000916107319163ffffffff6111ff16565b6001820155436003820155604080518481529051859133917f90890809c654f11d6e72a28fa60149770a0d11ec6c92319d6ceb2bb0a4ea1a159181900360200190a350505050565b610e50610ada565b610e8f576040805162461bcd60e51b81526020600482018190526024820152600080516020611902833981519152604482015290519081900360640190fd5b8015610e9d57610e9d6109d3565b8315610ec7578360028681548110610eb157fe5b9060005260206000209060090201600201819055505b8215610ef1578260028681548110610edb57fe5b9060005260206000209060090201600501819055505b8115610f1b578160028681548110610f0557fe5b9060005260206000209060090201600801819055505b5050505050565b610f2a610ada565b610f69576040805162461bcd60e51b81526020600482018190526024820152600080516020611902833981519152604482015290519081900360640190fd5b61092e816114f4565b610f7a610ada565b610fb9576040805162461bcd60e51b81526020600482018190526024820152600080516020611902833981519152604482015290519081900360640190fd5b8015610fc757610fc76109d3565b60006005544311610fda57600554610fdc565b435b60408051610120810182526001600160a01b039889168152968816602088019081529087019889526060870191825260006080880181815260a0890197885260c0890182815260e08a018381526101008b01988952600280546001810182559452995160099093027f405787fa12a823e0f2b7631cc41b3ba8828b3321ca811111fa75cd3aa3bb5ace81018054948d166001600160a01b031995861617905593517f405787fa12a823e0f2b7631cc41b3ba8828b3321ca811111fa75cd3aa3bb5acf8501805491909c1693169290921790995598517f405787fa12a823e0f2b7631cc41b3ba8828b3321ca811111fa75cd3aa3bb5ad082015590517f405787fa12a823e0f2b7631cc41b3ba8828b3321ca811111fa75cd3aa3bb5ad182015595517f405787fa12a823e0f2b7631cc41b3ba8828b3321ca811111fa75cd3aa3bb5ad2870155505090517f405787fa12a823e0f2b7631cc41b3ba8828b3321ca811111fa75cd3aa3bb5ad384015592517f405787fa12a823e0f2b7631cc41b3ba8828b3321ca811111fa75cd3aa3bb5ad4830155517f405787fa12a823e0f2b7631cc41b3ba8828b3321ca811111fa75cd3aa3bb5ad582015590517f405787fa12a823e0f2b7631cc41b3ba8828b3321ca811111fa75cd3aa3bb5ad690910155565b6000610ad383836040518060400160405280601e81526020017f536166654d6174683a207375627472616374696f6e206f766572666c6f770000815250611594565b60008261120e5750600061066c565b8282028284828161121b57fe5b0414610ad35760405162461bcd60e51b81526004018080602001828103825260218152602001806118e16021913960400191505060405180910390fd5b6000610ad383836040518060400160405280601a81526020017f536166654d6174683a206469766973696f6e206279207a65726f00000000000081525061162b565b6000600282815481106112a957fe5b90600052602060002090600902019050600081600201549050808411156113545760018201546040805163a9059cbb60e01b81526001600160a01b038881166004830152602482018590529151919092169163a9059cbb9160448083019260209291908290030181600087803b15801561132257600080fd5b505af1158015611336573d6000803e3d6000fd5b505050506040513d602081101561134c57600080fd5b50610f1b9050565b60018201546040805163a9059cbb60e01b81526001600160a01b038881166004830152602482018890529151919092169163a9059cbb9160448083019260209291908290030181600087803b1580156113ac57600080fd5b505af11580156113c0573d6000803e3d6000fd5b505050506040513d60208110156113d657600080fd5b50505050505050565b600082820183811015610ad3576040805162461bcd60e51b815260206004820152601b60248201527f536166654d6174683a206164646974696f6e206f766572666c6f770000000000604482015290519081900360640190fd5b604080516001600160a01b038416602482015260448082018490528251808303909101815260649091019091526020810180516001600160e01b031663a9059cbb60e01b17905261148b908490611690565b505050565b3390565b604080516001600160a01b0380861660248301528416604482015260648082018490528251808303909101815260849091019091526020810180516001600160e01b03166323b872dd60e01b1790526114ee908590611690565b50505050565b6001600160a01b0381166115395760405162461bcd60e51b81526004018080602001828103825260268152602001806118bb6026913960400191505060405180910390fd5b600080546040516001600160a01b03808516939216917f8be0079c531659141344cd1fd0a4f28419497f9722a3daafe3b4186f6b6457e091a3600080546001600160a01b0319166001600160a01b0392909216919091179055565b600081848411156116235760405162461bcd60e51b81526004018080602001828103825283818151815260200191508051906020019080838360005b838110156115e85781810151838201526020016115d0565b50505050905090810190601f1680156116155780820380516001836020036101000a031916815260200191505b509250505060405180910390fd5b505050900390565b6000818361167a5760405162461bcd60e51b81526020600482018181528351602484015283519092839260449091019190850190808383600083156115e85781810151838201526020016115d0565b50600083858161168657fe5b0495945050505050565b6116a2826001600160a01b0316611848565b6116f3576040805162461bcd60e51b815260206004820152601f60248201527f5361666545524332303a2063616c6c20746f206e6f6e2d636f6e747261637400604482015290519081900360640190fd5b60006060836001600160a01b0316836040518082805190602001908083835b602083106117315780518252601f199092019160209182019101611712565b6001836020036101000a0380198251168184511680821785525050505050509050019150506000604051808303816000865af19150503d8060008114611793576040519150601f19603f3d011682016040523d82523d6000602084013e611798565b606091505b5091509150816117ef576040805162461bcd60e51b815260206004820181905260248201527f5361666545524332303a206c6f772d6c6576656c2063616c6c206661696c6564604482015290519081900360640190fd5b8051156114ee5780806020019051602081101561180b57600080fd5b50516114ee5760405162461bcd60e51b815260040180806020018281038252602a815260200180611922602a913960400191505060405180910390fd5b6000813f7fc5d2460186f7233c927e7db2dcc703c0e500b653ca82273b7bfad8045d85a47081811480159061187c57508115155b949350505050565b6040518060c00160405280600081526020016000815260200160008152602001600081526020016000815260200160008152509056fe4f776e61626c653a206e6577206f776e657220697320746865207a65726f2061646472657373536166654d6174683a206d756c7469706c69636174696f6e206f766572666c6f774f776e61626c653a2063616c6c6572206973206e6f7420746865206f776e65725361666545524332303a204552433230206f7065726174696f6e20646964206e6f742073756363656564a2646970667358221220635ebd2e303b80b51783d6b39ceec0a1da01bed1fd5af2454a6a3de1bba68ac364736f6c63430006020033",
  "source": "pragma solidity >=0.6.0;\r\n\r\nimport \"@openzeppelin/contracts/token/ERC20/SafeERC20.sol\";\r\nimport \"@openzeppelin/contracts/math/SafeMath.sol\";\r\nimport \"@openzeppelin/contracts/ownership/Ownable.sol\";\r\n\r\ncontract PolkaBridgeStaking is Ownable {\r\n    string public name = \"PolkaBridge: Staking\";\r\n    using SafeMath for uint256;\r\n    using SafeERC20 for IERC20;\r\n\r\n    struct UserInfo {\r\n        uint256 amount;\r\n        uint256 rewardDebt;\r\n        uint256 rewardClaimed;\r\n        uint256 lastBlock;\r\n        uint256 beginTime;\r\n        uint256 endTime;\r\n    }\r\n\r\n    // Info of each pool.\r\n    struct PoolInfo {\r\n        IERC20 stakeToken;\r\n        IERC20 rewardToken;\r\n        uint256 allocPoint;\r\n        uint256 lastRewardBlock;\r\n        uint256 accTokenPerShare;\r\n        uint256 rewardPerBlock;\r\n        uint256 totalTokenStaked;\r\n        uint256 totalTokenClaimed;\r\n        uint256 endDate;\r\n    }\r\n\r\n    // Info of each pool.\r\n    PoolInfo[] private poolInfo;\r\n\r\n    mapping(uint256 => mapping(address => UserInfo)) public userInfo;\r\n    uint256 public totalUser;\r\n\r\n    // The block number when staking  starts.\r\n    uint256 public startBlock;\r\n\r\n    event Deposit(address indexed user, uint256 indexed pid, uint256 amount);\r\n    event Withdraw(address indexed user, uint256 indexed pid, uint256 amount);\r\n    event EmergencyWithdraw(\r\n        address indexed user,\r\n        uint256 indexed pid,\r\n        uint256 amount\r\n    );\r\n\r\n    constructor(uint256 _startBlock) public {\r\n        startBlock = _startBlock;\r\n    }\r\n\r\n    function poolLength() external view returns (uint256) {\r\n        return poolInfo.length;\r\n    }\r\n\r\n    function addPool(\r\n        uint256 _allocPoint,\r\n        IERC20 _stakeToken,\r\n        IERC20 _rewardToken,\r\n        uint256 _rewardPerBlock,\r\n        uint256 _endDate,\r\n        bool _withUpdate\r\n    ) public onlyOwner {\r\n        if (_withUpdate) {\r\n            massUpdatePools();\r\n        }\r\n        uint256 _lastRewardBlock =\r\n            block.number > startBlock ? block.number : startBlock;\r\n\r\n        poolInfo.push(\r\n            PoolInfo({\r\n                stakeToken: _stakeToken,\r\n                rewardToken: _rewardToken,\r\n                allocPoint: _allocPoint,\r\n                lastRewardBlock: _lastRewardBlock,\r\n                accTokenPerShare: 0,\r\n                rewardPerBlock: _rewardPerBlock,\r\n                totalTokenStaked: 0,\r\n                totalTokenClaimed: 0,\r\n                endDate: _endDate\r\n            })\r\n        );\r\n    }\r\n\r\n    function setPool(\r\n        uint256 _pid,\r\n        uint256 _allocPoint,\r\n        uint256 _rewardPerBlock,\r\n        uint256 _endDate,\r\n        bool _withUpdate\r\n    ) public onlyOwner {\r\n        if (_withUpdate) {\r\n            massUpdatePools();\r\n        }\r\n        if (_allocPoint > 0) {\r\n            poolInfo[_pid].allocPoint = _allocPoint;\r\n        }\r\n        if (_rewardPerBlock > 0) {\r\n            poolInfo[_pid].rewardPerBlock = _rewardPerBlock;\r\n        }\r\n        if (_endDate > 0) {\r\n            poolInfo[_pid].endDate = _endDate;\r\n        }\r\n    }\r\n\r\n    // Return reward multiplier over the given _from to _to block.\r\n    function getMultiplier(uint256 _fromBlock, uint256 _toBlock)\r\n        public\r\n        view\r\n        returns (uint256)\r\n    {\r\n        return _toBlock.sub(_fromBlock);\r\n    }\r\n\r\n    function getTotalTokenStaked(uint256 _pid) public view returns (uint256) {\r\n        PoolInfo storage pool = poolInfo[_pid];\r\n        return pool.totalTokenStaked;\r\n    }\r\n\r\n    function pendingReward(uint256 _pid, address _user)\r\n        external\r\n        view\r\n        returns (uint256)\r\n    {\r\n        PoolInfo storage pool = poolInfo[_pid];\r\n        UserInfo storage user = userInfo[_pid][_user];\r\n        uint256 accTokenPerShare = pool.accTokenPerShare;\r\n        uint256 totalTokenStaked = getTotalTokenStaked(_pid);\r\n\r\n        if (block.number > pool.lastRewardBlock && totalTokenStaked > 0) {\r\n            uint256 multiplier =\r\n                getMultiplier(pool.lastRewardBlock, block.number); //number diff block\r\n            uint256 tokenReward = multiplier.mul(pool.rewardPerBlock);\r\n\r\n            accTokenPerShare = accTokenPerShare.add(\r\n                tokenReward.mul(1e18).div(totalTokenStaked)\r\n            );\r\n        }\r\n        return user.amount.mul(accTokenPerShare).div(1e18).sub(user.rewardDebt);\r\n    }\r\n\r\n    // Update reward variables for all pools. Be careful of gas spending!\r\n    function massUpdatePools() public {\r\n        uint256 length = poolInfo.length;\r\n        for (uint256 pid = 0; pid < length; ++pid) {\r\n            updatePool(pid);\r\n        }\r\n    }\r\n\r\n    // Update reward variables of the given pool to be up-to-date.\r\n    function updatePool(uint256 _pid) public {\r\n        PoolInfo storage pool = poolInfo[_pid];\r\n        if (block.number <= pool.lastRewardBlock) {\r\n            return;\r\n        }\r\n        uint256 totalTokenStaked = getTotalTokenStaked(_pid);\r\n\r\n        if (totalTokenStaked == 0 || pool.allocPoint == 0) {\r\n            pool.lastRewardBlock = block.number;\r\n            return;\r\n        }\r\n\r\n        uint256 multiplier = getMultiplier(pool.lastRewardBlock, block.number);\r\n        uint256 tokenReward = multiplier.mul(pool.rewardPerBlock);\r\n\r\n        pool.accTokenPerShare = pool.accTokenPerShare.add(\r\n            tokenReward.mul(1e18).div(totalTokenStaked)\r\n        );\r\n        pool.lastRewardBlock = block.number;\r\n    }\r\n\r\n    function deposit(uint256 _pid, uint256 _amount) public {\r\n        PoolInfo storage pool = poolInfo[_pid];\r\n        UserInfo storage user = userInfo[_pid][msg.sender];\r\n        require(block.timestamp < pool.endDate, \"staking pool already closed\");\r\n\r\n        updatePool(_pid);\r\n\r\n        if (user.amount > 0) {\r\n            uint256 pending =\r\n                user.amount.mul(pool.accTokenPerShare).div(1e18).sub(\r\n                    user.rewardDebt\r\n                );\r\n            if (pending > 0) {\r\n                safeTokenTransfer(msg.sender, pending, _pid);\r\n                pool.totalTokenClaimed = pool.totalTokenClaimed.add(pending);\r\n                user.rewardClaimed = user.rewardClaimed.add(pending);\r\n            }\r\n        } else {\r\n            //new user, or old user unstake all before\r\n            totalUser = totalUser.add(1);\r\n            user.beginTime = block.timestamp;\r\n            user.endTime = 0; //reset endtime\r\n        }\r\n        if (_amount > 0) {\r\n            pool.stakeToken.safeTransferFrom(\r\n                address(msg.sender),\r\n                address(this),\r\n                _amount\r\n            );\r\n            user.amount = user.amount.add(_amount);\r\n            pool.totalTokenStaked = pool.totalTokenStaked.add(_amount);\r\n        }\r\n        user.rewardDebt = user.amount.mul(pool.accTokenPerShare).div(1e18);\r\n        user.lastBlock = block.number;\r\n        emit Deposit(msg.sender, _pid, _amount);\r\n    }\r\n\r\n    function withdraw(uint256 _pid, uint256 _amount) public {\r\n        PoolInfo storage pool = poolInfo[_pid];\r\n        UserInfo storage user = userInfo[_pid][msg.sender];\r\n        require(user.amount >= _amount, \"withdraw: bad request\");\r\n        updatePool(_pid);\r\n        uint256 pending =\r\n            user.amount.mul(pool.accTokenPerShare).div(1e18).sub(\r\n                user.rewardDebt\r\n            );\r\n        if (pending > 0) {\r\n            safeTokenTransfer(msg.sender, pending, _pid);\r\n            pool.totalTokenClaimed = pool.totalTokenClaimed.add(pending);\r\n            user.rewardClaimed = user.rewardClaimed.add(pending);\r\n        }\r\n        if (_amount > 0) {\r\n            user.amount = user.amount.sub(_amount);\r\n            if (user.amount == 0) {\r\n                user.endTime = block.timestamp;\r\n            }\r\n            pool.totalTokenStaked = pool.totalTokenStaked.sub(_amount);\r\n\r\n            pool.stakeToken.safeTransfer(address(msg.sender), _amount);\r\n        }\r\n        user.rewardDebt = user.amount.mul(pool.accTokenPerShare).div(1e18);\r\n        user.lastBlock = block.number;\r\n        emit Withdraw(msg.sender, _pid, _amount);\r\n    }\r\n\r\n    function emergencyWithdraw(uint256 _pid) public {\r\n        PoolInfo storage pool = poolInfo[_pid];\r\n        UserInfo storage user = userInfo[_pid][msg.sender];\r\n        uint256 amount = user.amount;\r\n        user.amount = 0;\r\n        user.rewardDebt = 0;\r\n        pool.stakeToken.safeTransfer(address(msg.sender), amount);\r\n        emit EmergencyWithdraw(msg.sender, _pid, amount);\r\n    }\r\n\r\n    function safeTokenTransfer(\r\n        address _to,\r\n        uint256 _amount,\r\n        uint256 _pid\r\n    ) internal {\r\n        PoolInfo storage pool = poolInfo[_pid];\r\n        uint256 totalPoolReward = pool.allocPoint;\r\n\r\n        if (_amount > totalPoolReward) {\r\n            pool.rewardToken.transfer(_to, totalPoolReward);\r\n        } else {\r\n            pool.rewardToken.transfer(_to, _amount);\r\n        }\r\n    }\r\n\r\n    function getPoolInfo(uint256 _pid)\r\n        public\r\n        view\r\n        returns (\r\n            uint256,\r\n            uint256,\r\n            uint256,\r\n            uint256,\r\n            uint256\r\n        )\r\n    {\r\n        return (\r\n            poolInfo[_pid].accTokenPerShare,\r\n            poolInfo[_pid].lastRewardBlock,\r\n            poolInfo[_pid].rewardPerBlock,\r\n            poolInfo[_pid].totalTokenStaked,\r\n            poolInfo[_pid].totalTokenClaimed\r\n        );\r\n    }\r\n\r\n    function getDiffBlock(address user, uint256 pid)\r\n        public\r\n        view\r\n        returns (uint256)\r\n    {\r\n        UserInfo memory user = userInfo[pid][user];\r\n        return block.number.sub(user.lastBlock);\r\n    }\r\n}\r\n",
  "sourcePath": "C:\\Users\\Thanh Phi\\Desktop\\PolkaBridgeSolution\\PolkaBridge-LaunchPad\\contracts\\PolkaBridgeStaking.sol",
  "compiler": {
    "name": "solc",
    "version": "0.6.2+commit.bacdbe57.Emscripten.clang"
  },
  "schemaVersion": "3.4.3",
  "updatedAt": "2021-12-03T13:03:48.980Z",
  "devdoc": {
    "methods": {
      "isOwner()": {
        "details": "Returns true if the caller is the current owner."
      },
      "owner()": {
        "details": "Returns the address of the current owner."
      },
      "renounceOwnership()": {
        "details": "Leaves the contract without owner. It will not be possible to call `onlyOwner` functions anymore. Can only be called by the current owner.     * NOTE: Renouncing ownership will leave the contract without an owner, thereby removing any functionality that is only available to the owner."
      },
      "transferOwnership(address)": {
        "details": "Transfers ownership of the contract to a new account (`newOwner`). Can only be called by the current owner."
      }
    }
  },
  "userdoc": {
    "methods": {}
  }
}