{
  "contractName": "PolkaBridgeMasterFarm",
  "abi": [
    {
      "inputs": [
        {
          "internalType": "contract PolkaBridge",
          "name": "_polkaBridge",
          "type": "address"
        },
        {
          "internalType": "uint256",
          "name": "_startBlock",
          "type": "uint256"
        }
      ],
      "stateMutability": "nonpayable",
      "type": "constructor"
    },
    {
      "anonymous": false,
      "inputs": [
        {
          "indexed": true,
          "internalType": "address",
          "name": "previousOwner",
          "type": "address"
        },
        {
          "indexed": true,
          "internalType": "address",
          "name": "newOwner",
          "type": "address"
        }
      ],
      "name": "OwnershipTransferred",
      "type": "event"
    },
    {
      "inputs": [],
      "name": "START_BLOCK",
      "outputs": [
        {
          "internalType": "uint256",
          "name": "",
          "type": "uint256"
        }
      ],
      "stateMutability": "view",
      "type": "function",
      "constant": true
    },
    {
      "inputs": [],
      "name": "isOwner",
      "outputs": [
        {
          "internalType": "bool",
          "name": "",
          "type": "bool"
        }
      ],
      "stateMutability": "view",
      "type": "function",
      "constant": true
    },
    {
      "inputs": [],
      "name": "name",
      "outputs": [
        {
          "internalType": "string",
          "name": "",
          "type": "string"
        }
      ],
      "stateMutability": "view",
      "type": "function",
      "constant": true
    },
    {
      "inputs": [],
      "name": "owner",
      "outputs": [
        {
          "internalType": "address",
          "name": "",
          "type": "address"
        }
      ],
      "stateMutability": "view",
      "type": "function",
      "constant": true
    },
    {
      "inputs": [],
      "name": "polkaBridge",
      "outputs": [
        {
          "internalType": "contract PolkaBridge",
          "name": "",
          "type": "address"
        }
      ],
      "stateMutability": "view",
      "type": "function",
      "constant": true
    },
    {
      "inputs": [
        {
          "internalType": "address",
          "name": "",
          "type": "address"
        }
      ],
      "name": "poolId1",
      "outputs": [
        {
          "internalType": "uint256",
          "name": "",
          "type": "uint256"
        }
      ],
      "stateMutability": "view",
      "type": "function",
      "constant": true
    },
    {
      "inputs": [
        {
          "internalType": "uint256",
          "name": "",
          "type": "uint256"
        }
      ],
      "name": "poolInfo",
      "outputs": [
        {
          "internalType": "contract IERC20",
          "name": "lpToken",
          "type": "address"
        },
        {
          "internalType": "contract IERC20",
          "name": "tokenA",
          "type": "address"
        },
        {
          "internalType": "contract IERC20",
          "name": "tokenB",
          "type": "address"
        },
        {
          "internalType": "uint256",
          "name": "multiplier",
          "type": "uint256"
        },
        {
          "internalType": "uint256",
          "name": "lastPoolReward",
          "type": "uint256"
        },
        {
          "internalType": "uint256",
          "name": "lastRewardBlock",
          "type": "uint256"
        },
        {
          "internalType": "uint256",
          "name": "lastLPBalance",
          "type": "uint256"
        },
        {
          "internalType": "uint256",
          "name": "accPBRPerShare",
          "type": "uint256"
        },
        {
          "internalType": "uint256",
          "name": "startBlock",
          "type": "uint256"
        },
        {
          "internalType": "uint256",
          "name": "stopBlock",
          "type": "uint256"
        },
        {
          "internalType": "uint256",
          "name": "totalRewardClaimed",
          "type": "uint256"
        },
        {
          "internalType": "bool",
          "name": "isActived",
          "type": "bool"
        }
      ],
      "stateMutability": "view",
      "type": "function",
      "constant": true
    },
    {
      "inputs": [],
      "name": "renounceOwnership",
      "outputs": [],
      "stateMutability": "nonpayable",
      "type": "function"
    },
    {
      "inputs": [
        {
          "internalType": "address",
          "name": "newOwner",
          "type": "address"
        }
      ],
      "name": "transferOwnership",
      "outputs": [],
      "stateMutability": "nonpayable",
      "type": "function"
    },
    {
      "inputs": [
        {
          "internalType": "uint256",
          "name": "",
          "type": "uint256"
        },
        {
          "internalType": "address",
          "name": "",
          "type": "address"
        }
      ],
      "name": "userInfo",
      "outputs": [
        {
          "internalType": "uint256",
          "name": "amountLP",
          "type": "uint256"
        },
        {
          "internalType": "uint256",
          "name": "rewardDebt",
          "type": "uint256"
        },
        {
          "internalType": "uint256",
          "name": "rewardDebtAtBlock",
          "type": "uint256"
        },
        {
          "internalType": "uint256",
          "name": "rewardClaimed",
          "type": "uint256"
        }
      ],
      "stateMutability": "view",
      "type": "function",
      "constant": true
    },
    {
      "stateMutability": "payable",
      "type": "receive",
      "payable": true
    },
    {
      "inputs": [],
      "name": "poolBalance",
      "outputs": [
        {
          "internalType": "uint256",
          "name": "",
          "type": "uint256"
        }
      ],
      "stateMutability": "view",
      "type": "function",
      "constant": true
    },
    {
      "inputs": [
        {
          "internalType": "contract IERC20",
          "name": "_lpToken",
          "type": "address"
        },
        {
          "internalType": "contract IERC20",
          "name": "_tokenA",
          "type": "address"
        },
        {
          "internalType": "contract IERC20",
          "name": "_tokenB",
          "type": "address"
        },
        {
          "internalType": "uint256",
          "name": "_multiplier",
          "type": "uint256"
        },
        {
          "internalType": "uint256",
          "name": "_startBlock",
          "type": "uint256"
        }
      ],
      "name": "add",
      "outputs": [],
      "stateMutability": "nonpayable",
      "type": "function"
    },
    {
      "inputs": [
        {
          "internalType": "uint256",
          "name": "_pid",
          "type": "uint256"
        },
        {
          "internalType": "uint256",
          "name": "_totalMultiplier",
          "type": "uint256"
        }
      ],
      "name": "getChangePoolReward",
      "outputs": [
        {
          "internalType": "uint256",
          "name": "",
          "type": "uint256"
        }
      ],
      "stateMutability": "view",
      "type": "function",
      "constant": true
    },
    {
      "inputs": [],
      "name": "massUpdatePools",
      "outputs": [],
      "stateMutability": "nonpayable",
      "type": "function"
    },
    {
      "inputs": [],
      "name": "getTotalLastPoolReward",
      "outputs": [
        {
          "internalType": "uint256",
          "name": "",
          "type": "uint256"
        }
      ],
      "stateMutability": "view",
      "type": "function",
      "constant": true
    },
    {
      "inputs": [
        {
          "internalType": "uint256",
          "name": "_pid",
          "type": "uint256"
        },
        {
          "internalType": "address",
          "name": "_user",
          "type": "address"
        }
      ],
      "name": "pendingReward",
      "outputs": [
        {
          "internalType": "uint256",
          "name": "",
          "type": "uint256"
        }
      ],
      "stateMutability": "view",
      "type": "function",
      "constant": true
    },
    {
      "inputs": [
        {
          "internalType": "uint256",
          "name": "_pid",
          "type": "uint256"
        }
      ],
      "name": "claimReward",
      "outputs": [],
      "stateMutability": "nonpayable",
      "type": "function"
    },
    {
      "inputs": [
        {
          "internalType": "uint256",
          "name": "_pid",
          "type": "uint256"
        },
        {
          "internalType": "uint256",
          "name": "_amount",
          "type": "uint256"
        }
      ],
      "name": "deposit",
      "outputs": [],
      "stateMutability": "nonpayable",
      "type": "function"
    },
    {
      "inputs": [
        {
          "internalType": "uint256",
          "name": "_pid",
          "type": "uint256"
        },
        {
          "internalType": "uint256",
          "name": "_amount",
          "type": "uint256"
        }
      ],
      "name": "withdraw",
      "outputs": [],
      "stateMutability": "nonpayable",
      "type": "function"
    },
    {
      "inputs": [
        {
          "internalType": "uint256",
          "name": "_pid",
          "type": "uint256"
        }
      ],
      "name": "emergencyWithdraw",
      "outputs": [],
      "stateMutability": "nonpayable",
      "type": "function"
    },
    {
      "inputs": [
        {
          "internalType": "uint256",
          "name": "_pid",
          "type": "uint256"
        }
      ],
      "name": "getPoolInfo",
      "outputs": [
        {
          "internalType": "uint256",
          "name": "",
          "type": "uint256"
        },
        {
          "internalType": "uint256",
          "name": "",
          "type": "uint256"
        },
        {
          "internalType": "address",
          "name": "",
          "type": "address"
        },
        {
          "internalType": "uint256",
          "name": "",
          "type": "uint256"
        },
        {
          "internalType": "uint256",
          "name": "",
          "type": "uint256"
        },
        {
          "internalType": "uint256",
          "name": "",
          "type": "uint256"
        },
        {
          "internalType": "uint256",
          "name": "",
          "type": "uint256"
        }
      ],
      "stateMutability": "view",
      "type": "function",
      "constant": true
    },
    {
      "inputs": [
        {
          "internalType": "uint256",
          "name": "_pid",
          "type": "uint256"
        }
      ],
      "name": "getUserInfo",
      "outputs": [
        {
          "internalType": "uint256",
          "name": "",
          "type": "uint256"
        },
        {
          "internalType": "uint256",
          "name": "",
          "type": "uint256"
        },
        {
          "internalType": "uint256",
          "name": "",
          "type": "uint256"
        }
      ],
      "stateMutability": "view",
      "type": "function",
      "constant": true
    },
    {
      "inputs": [
        {
          "internalType": "uint256",
          "name": "pid",
          "type": "uint256"
        }
      ],
      "name": "stopPool",
      "outputs": [],
      "stateMutability": "nonpayable",
      "type": "function"
    },
    {
      "inputs": [
        {
          "internalType": "uint256",
          "name": "pid",
          "type": "uint256"
        }
      ],
      "name": "activePool",
      "outputs": [],
      "stateMutability": "nonpayable",
      "type": "function"
    },
    {
      "inputs": [
        {
          "internalType": "uint256",
          "name": "pid",
          "type": "uint256"
        },
        {
          "internalType": "uint256",
          "name": "_multiplier",
          "type": "uint256"
        }
      ],
      "name": "changeMultiplier",
      "outputs": [],
      "stateMutability": "nonpayable",
      "type": "function"
    },
    {
      "inputs": [],
      "name": "countActivePool",
      "outputs": [
        {
          "internalType": "uint256",
          "name": "",
          "type": "uint256"
        }
      ],
      "stateMutability": "view",
      "type": "function",
      "constant": true
    },
    {
      "inputs": [],
      "name": "countTotalMultiplier",
      "outputs": [
        {
          "internalType": "uint256",
          "name": "",
          "type": "uint256"
        }
      ],
      "stateMutability": "view",
      "type": "function",
      "constant": true
    },
    {
      "inputs": [
        {
          "internalType": "uint256",
          "name": "_pid",
          "type": "uint256"
        }
      ],
      "name": "totalRewardClaimed",
      "outputs": [
        {
          "internalType": "uint256",
          "name": "",
          "type": "uint256"
        }
      ],
      "stateMutability": "view",
      "type": "function",
      "constant": true
    },
    {
      "inputs": [
        {
          "internalType": "uint256",
          "name": "_pid",
          "type": "uint256"
        }
      ],
      "name": "avgRewardPerBlock",
      "outputs": [
        {
          "internalType": "uint256",
          "name": "",
          "type": "uint256"
        }
      ],
      "stateMutability": "view",
      "type": "function",
      "constant": true
    }
  ],
  "bytecode": "0x6080604052604051806060016040528060218152602001620035436021913960019080519060200190620000359291906200018c565b503480156200004357600080fd5b506040516200356438038062003564833981810160405260408110156200006957600080fd5b8101908080519060200190929190805190602001909291905050506000620000966200018460201b60201c565b9050806000806101000a81548173ffffffffffffffffffffffffffffffffffffffff021916908373ffffffffffffffffffffffffffffffffffffffff1602179055508073ffffffffffffffffffffffffffffffffffffffff16600073ffffffffffffffffffffffffffffffffffffffff167f8be0079c531659141344cd1fd0a4f28419497f9722a3daafe3b4186f6b6457e060405160405180910390a35081600260006101000a81548173ffffffffffffffffffffffffffffffffffffffff021916908373ffffffffffffffffffffffffffffffffffffffff1602179055508060038190555050506200023b565b600033905090565b828054600181600116156101000203166002900490600052602060002090601f016020900481019282601f10620001cf57805160ff191683800117855562000200565b8280016001018555821562000200579182015b82811115620001ff578251825591602001919060010190620001e2565b5b5090506200020f919062000213565b5090565b6200023891905b80821115620002345760008160009055506001016200021a565b5090565b90565b6132f8806200024b6000396000f3fe6080604052600436106101c65760003560e01c806388f4480b116100f75780639bb87b9211610095578063ce2529c911610064578063ce2529c914610a12578063d379dadf14610a77578063e2bbb15814610ad4578063f2fde38b14610b19576101cd565b80639bb87b9214610918578063ae169a501461095d578063c647e31f14610998578063c9b8eee1146109c3576101cd565b8063938cdba5116100d1578063938cdba5146107a157806393f1a40b146107fa57806396365d441461087e57806398969e82146108a9576101cd565b806388f4480b146106f05780638da5cb5b1461071b5780638f32d59b14610772576101cd565b806346a2123a11610164578063630b5ba11161013e578063630b5ba1146105c65780636f55b350146105dd578063715018a6146106345780638202510f1461064b576101cd565b806346a2123a146105255780635312ea8e146105505780635729bd4c1461058b576101cd565b80632f380b35116101a05780632f380b35146103c15780633414ea371461046657806339b3e826146104b5578063441a3e70146104e0576101cd565b806306fdde03146101d25780630f4d0357146102625780631526fe271461029d576101cd565b366101cd57005b600080fd5b3480156101de57600080fd5b506101e7610b6a565b6040518080602001828103825283818151815260200191508051906020019080838360005b8381101561022757808201518184015260208101905061020c565b50505050905090810190601f1680156102545780820380516001836020036101000a031916815260200191505b509250505060405180910390f35b34801561026e57600080fd5b5061029b6004803603602081101561028557600080fd5b8101908080359060200190929190505050610c08565b005b3480156102a957600080fd5b506102d6600480360360208110156102c057600080fd5b8101908080359060200190929190505050610ccb565b604051808d73ffffffffffffffffffffffffffffffffffffffff1673ffffffffffffffffffffffffffffffffffffffff1681526020018c73ffffffffffffffffffffffffffffffffffffffff1673ffffffffffffffffffffffffffffffffffffffff1681526020018b73ffffffffffffffffffffffffffffffffffffffff1673ffffffffffffffffffffffffffffffffffffffff1681526020018a8152602001898152602001888152602001878152602001868152602001858152602001848152602001838152602001821515151581526020019c5050505050505050505050505060405180910390f35b3480156103cd57600080fd5b506103fa600480360360208110156103e457600080fd5b8101908080359060200190929190505050610da5565b604051808881526020018781526020018673ffffffffffffffffffffffffffffffffffffffff1673ffffffffffffffffffffffffffffffffffffffff16815260200185815260200184815260200183815260200182815260200197505050505050505060405180910390f35b34801561047257600080fd5b5061049f6004803603602081101561048957600080fd5b8101908080359060200190929190505050610f99565b6040518082815260200191505060405180910390f35b3480156104c157600080fd5b506104ca6110c8565b6040518082815260200191505060405180910390f35b3480156104ec57600080fd5b506105236004803603604081101561050357600080fd5b8101908080359060200190929190803590602001909291905050506110ce565b005b34801561053157600080fd5b5061053a61134e565b6040518082815260200191505060405180910390f35b34801561055c57600080fd5b506105896004803603602081101561057357600080fd5b81019080803590602001909291905050506113ec565b005b34801561059757600080fd5b506105c4600480360360208110156105ae57600080fd5b81019080803590602001909291905050506114cb565b005b3480156105d257600080fd5b506105db61158f565b005b3480156105e957600080fd5b506105f2611612565b604051808273ffffffffffffffffffffffffffffffffffffffff1673ffffffffffffffffffffffffffffffffffffffff16815260200191505060405180910390f35b34801561064057600080fd5b50610649611638565b005b34801561065757600080fd5b506106ee600480360360a081101561066e57600080fd5b81019080803573ffffffffffffffffffffffffffffffffffffffff169060200190929190803573ffffffffffffffffffffffffffffffffffffffff169060200190929190803573ffffffffffffffffffffffffffffffffffffffff1690602001909291908035906020019092919080359060200190929190505050611771565b005b3480156106fc57600080fd5b50610705611b17565b6040518082815260200191505060405180910390f35b34801561072757600080fd5b50610730611b80565b604051808273ffffffffffffffffffffffffffffffffffffffff1673ffffffffffffffffffffffffffffffffffffffff16815260200191505060405180910390f35b34801561077e57600080fd5b50610787611ba9565b604051808215151515815260200191505060405180910390f35b3480156107ad57600080fd5b506107e4600480360360408110156107c457600080fd5b810190808035906020019092919080359060200190929190505050611c07565b6040518082815260200191505060405180910390f35b34801561080657600080fd5b506108536004803603604081101561081d57600080fd5b8101908080359060200190929190803573ffffffffffffffffffffffffffffffffffffffff169060200190929190505050611cbf565b6040518085815260200184815260200183815260200182815260200194505050505060405180910390f35b34801561088a57600080fd5b50610893611cfc565b6040518082815260200191505060405180910390f35b3480156108b557600080fd5b50610902600480360360408110156108cc57600080fd5b8101908080359060200190929190803573ffffffffffffffffffffffffffffffffffffffff169060200190929190505050611ddd565b6040518082815260200191505060405180910390f35b34801561092457600080fd5b5061095b6004803603604081101561093b57600080fd5b810190808035906020019092919080359060200190929190505050612021565b005b34801561096957600080fd5b506109966004803603602081101561098057600080fd5b81019080803590602001909291905050506120c8565b005b3480156109a457600080fd5b506109ad61218e565b6040518082815260200191505060405180910390f35b3480156109cf57600080fd5b506109fc600480360360208110156109e657600080fd5b8101908080359060200190929190505050612214565b6040518082815260200191505060405180910390f35b348015610a1e57600080fd5b50610a6160048036036020811015610a3557600080fd5b81019080803573ffffffffffffffffffffffffffffffffffffffff16906020019092919050505061223c565b6040518082815260200191505060405180910390f35b348015610a8357600080fd5b50610ab060048036036020811015610a9a57600080fd5b8101908080359060200190929190505050612254565b60405180848152602001838152602001828152602001935050505060405180910390f35b348015610ae057600080fd5b50610b1760048036036040811015610af757600080fd5b810190808035906020019092919080359060200190929190505050612303565b005b348015610b2557600080fd5b50610b6860048036036020811015610b3c57600080fd5b81019080803573ffffffffffffffffffffffffffffffffffffffff1690602001909291905050506124aa565b005b60018054600181600116156101000203166002900480601f016020809104026020016040519081016040528092919081815260200182805460018160011615610100020316600290048015610c005780601f10610bd557610100808354040283529160200191610c00565b820191906000526020600020905b815481529060010190602001808311610be357829003601f168201915b505050505081565b610c10611ba9565b610c82576040517f08c379a00000000000000000000000000000000000000000000000000000000081526004018080602001828103825260208152602001807f4f776e61626c653a2063616c6c6572206973206e6f7420746865206f776e657281525060200191505060405180910390fd5b600060048281548110610c9157fe5b90600052602060002090600c02019050600081600b0160006101000a81548160ff0219169083151502179055504381600901819055505050565b60048181548110610cd857fe5b90600052602060002090600c02016000915090508060000160009054906101000a900473ffffffffffffffffffffffffffffffffffffffff16908060010160009054906101000a900473ffffffffffffffffffffffffffffffffffffffff16908060020160009054906101000a900473ffffffffffffffffffffffffffffffffffffffff169080600301549080600401549080600501549080600601549080600701549080600801549080600901549080600a01549080600b0160009054906101000a900460ff1690508c565b600080600080600080600060048881548110610dbd57fe5b90600052602060002090600c02016005015460048981548110610ddc57fe5b90600052602060002090600c02016003015460048a81548110610dfb57fe5b90600052602060002090600c020160000160009054906101000a900473ffffffffffffffffffffffffffffffffffffffff1660048b81548110610e3a57fe5b90600052602060002090600c02016004015460048c81548110610e5957fe5b90600052602060002090600c02016008015460048d81548110610e7857fe5b90600052602060002090600c02016007015460048e81548110610e9757fe5b90600052602060002090600c020160000160009054906101000a900473ffffffffffffffffffffffffffffffffffffffff1673ffffffffffffffffffffffffffffffffffffffff166370a08231306040518263ffffffff1660e01b8152600401808273ffffffffffffffffffffffffffffffffffffffff1673ffffffffffffffffffffffffffffffffffffffff16815260200191505060206040518083038186803b158015610f4557600080fd5b505afa158015610f59573d6000803e3d6000fd5b505050506040513d6020811015610f6f57600080fd5b81019080805190602001909291905050509650965096509650965096509650919395979092949650565b600080610fa461134e565b90506000610fb28483611c07565b905060008160048681548110610fc457fe5b90600052602060002090600c02016004015460048781548110610fe357fe5b90600052602060002090600c0201600a01540101905060006004868154811061100857fe5b90600052602060002090600c02016005015443116110765761106f6004878154811061103057fe5b90600052602060002090600c0201600801546004888154811061104f57fe5b90600052602060002090600c02016005015461253090919063ffffffff16565b90506110aa565b6110a76004878154811061108657fe5b90600052602060002090600c0201600801544361253090919063ffffffff16565b90505b6110bd818361257a90919063ffffffff16565b945050505050919050565b60035481565b6000600483815481106110dd57fe5b90600052602060002090600c0201905060006006600085815260200190815260200160002060003373ffffffffffffffffffffffffffffffffffffffff1673ffffffffffffffffffffffffffffffffffffffff1681526020019081526020016000209050828160000154101561119e576040517f08c379a000000000000000000000000000000000000000000000000000000000815260040180806020018281038252602b8152602001806131b7602b913960400191505060405180910390fd5b6000831115611348576111af61158f565b6111b8846125c4565b61120733848460000160009054906101000a900473ffffffffffffffffffffffffffffffffffffffff1673ffffffffffffffffffffffffffffffffffffffff166127a09092919063ffffffff16565b8160000160009054906101000a900473ffffffffffffffffffffffffffffffffffffffff1673ffffffffffffffffffffffffffffffffffffffff166370a08231306040518263ffffffff1660e01b8152600401808273ffffffffffffffffffffffffffffffffffffffff1673ffffffffffffffffffffffffffffffffffffffff16815260200191505060206040518083038186803b1580156112a857600080fd5b505afa1580156112bc573d6000803e3d6000fd5b505050506040513d60208110156112d257600080fd5b8101908080519060200190929190505050826006018190555061130283826000015461253090919063ffffffff16565b816000018190555061133f670de0b6b3a76400006113318460070154846000015461285890919063ffffffff16565b61257a90919063ffffffff16565b81600101819055505b50505050565b6000806000905060008090505b6004805490508110156113ca576004818154811061137557fe5b90600052602060002090600c0201600b0160009054906101000a900460ff16156113bd57600481815481106113a657fe5b90600052602060002090600c020160030154820191505b808060010191505061135b565b506113e6670de0b6b3a76400008261285890919063ffffffff16565b91505090565b6000600482815481106113fb57fe5b90600052602060002090600c0201905060006006600084815260200190815260200160002060003373ffffffffffffffffffffffffffffffffffffffff1673ffffffffffffffffffffffffffffffffffffffff16815260200190815260200160002090506114b23382600001548460000160009054906101000a900473ffffffffffffffffffffffffffffffffffffffff1673ffffffffffffffffffffffffffffffffffffffff166127a09092919063ffffffff16565b6000816000018190555060008160010181905550505050565b6114d3611ba9565b611545576040517f08c379a00000000000000000000000000000000000000000000000000000000081526004018080602001828103825260208152602001807f4f776e61626c653a2063616c6c6572206973206e6f7420746865206f776e657281525060200191505060405180910390fd5b60006004828154811061155457fe5b90600052602060002090600c02019050600181600b0160006101000a81548160ff021916908315150217905550600081600901819055505050565b6000600480549050905060006115a361134e565b905060008090505b8281101561160d57600481815481106115c057fe5b90600052602060002090600c0201600b0160009054906101000a900460ff16156116005760006115f08284611c07565b90506115fe828260016128de565b505b80806001019150506115ab565b505050565b600260009054906101000a900473ffffffffffffffffffffffffffffffffffffffff1681565b611640611ba9565b6116b2576040517f08c379a00000000000000000000000000000000000000000000000000000000081526004018080602001828103825260208152602001807f4f776e61626c653a2063616c6c6572206973206e6f7420746865206f776e657281525060200191505060405180910390fd5b600073ffffffffffffffffffffffffffffffffffffffff166000809054906101000a900473ffffffffffffffffffffffffffffffffffffffff1673ffffffffffffffffffffffffffffffffffffffff167f8be0079c531659141344cd1fd0a4f28419497f9722a3daafe3b4186f6b6457e060405160405180910390a360008060006101000a81548173ffffffffffffffffffffffffffffffffffffffff021916908373ffffffffffffffffffffffffffffffffffffffff160217905550565b611779611ba9565b6117eb576040517f08c379a00000000000000000000000000000000000000000000000000000000081526004018080602001828103825260208152602001807f4f776e61626c653a2063616c6c6572206973206e6f7420746865206f776e657281525060200191505060405180910390fd5b6000600560008773ffffffffffffffffffffffffffffffffffffffff1673ffffffffffffffffffffffffffffffffffffffff1681526020019081526020016000205414611883576040517f08c379a00000000000000000000000000000000000000000000000000000000081526004018080602001828103825260318152602001806132476031913960400191505060405180910390fd5b6000600354431161189657600354611898565b435b9050600160048054905001600560008873ffffffffffffffffffffffffffffffffffffffff1673ffffffffffffffffffffffffffffffffffffffff1681526020019081526020016000208190555060046040518061018001604052808873ffffffffffffffffffffffffffffffffffffffff1681526020018773ffffffffffffffffffffffffffffffffffffffff1681526020018673ffffffffffffffffffffffffffffffffffffffff168152602001858152602001600081526020018381526020016000815260200160008152602001600085116119775743611979565b845b815260200160008152602001600081526020016001151581525090806001815401808255809150506001900390600052602060002090600c020160009091909190915060008201518160000160006101000a81548173ffffffffffffffffffffffffffffffffffffffff021916908373ffffffffffffffffffffffffffffffffffffffff16021790555060208201518160010160006101000a81548173ffffffffffffffffffffffffffffffffffffffff021916908373ffffffffffffffffffffffffffffffffffffffff16021790555060408201518160020160006101000a81548173ffffffffffffffffffffffffffffffffffffffff021916908373ffffffffffffffffffffffffffffffffffffffff160217905550606082015181600301556080820151816004015560a0820151816005015560c0820151816006015560e082015181600701556101008201518160080155610120820151816009015561014082015181600a015561016082015181600b0160006101000a81548160ff0219169083151502179055505050611b0f61158f565b505050505050565b6000806000905060008090505b600480549050811015611b785760048181548110611b3e57fe5b90600052602060002090600c0201600b0160009054906101000a900460ff1615611b6b5781806001019250505b8080600101915050611b24565b508091505090565b60008060009054906101000a900473ffffffffffffffffffffffffffffffffffffffff16905090565b60008060009054906101000a900473ffffffffffffffffffffffffffffffffffffffff1673ffffffffffffffffffffffffffffffffffffffff16611beb612ab1565b73ffffffffffffffffffffffffffffffffffffffff1614905090565b6000806000831415611c1c5760009050611ca8565b6000611c26611cfc565b90506000611c3261218e565b9050611ca385611c95670de0b6b3a7640000611c8760048b81548110611c5457fe5b90600052602060002090600c020160030154611c79878961253090919063ffffffff16565b61285890919063ffffffff16565b61285890919063ffffffff16565b61257a90919063ffffffff16565b925050505b60008111611cb557600090505b8091505092915050565b6006602052816000526040600020602052806000526040600020600091509150508060000154908060010154908060020154908060030154905084565b6000600260009054906101000a900473ffffffffffffffffffffffffffffffffffffffff1673ffffffffffffffffffffffffffffffffffffffff166370a08231306040518263ffffffff1660e01b8152600401808273ffffffffffffffffffffffffffffffffffffffff1673ffffffffffffffffffffffffffffffffffffffff16815260200191505060206040518083038186803b158015611d9d57600080fd5b505afa158015611db1573d6000803e3d6000fd5b505050506040513d6020811015611dc757600080fd5b8101908080519060200190929190505050905090565b60008060048481548110611ded57fe5b90600052602060002090600c0201905060006006600086815260200190815260200160002060008573ffffffffffffffffffffffffffffffffffffffff1673ffffffffffffffffffffffffffffffffffffffff168152602001908152602001600020905060008260000160009054906101000a900473ffffffffffffffffffffffffffffffffffffffff1673ffffffffffffffffffffffffffffffffffffffff166370a08231306040518263ffffffff1660e01b8152600401808273ffffffffffffffffffffffffffffffffffffffff1673ffffffffffffffffffffffffffffffffffffffff16815260200191505060206040518083038186803b158015611ef457600080fd5b505afa158015611f08573d6000803e3d6000fd5b505050506040513d6020811015611f1e57600080fd5b810190808051906020019092919050505090506000836007015490506000611f4461134e565b9050846005015443118015611f595750600083115b15611fad57611faa611f9784611f89670de0b6b3a7640000611f7b8d87611c07565b61285890919063ffffffff16565b61257a90919063ffffffff16565b8660070154612ab990919063ffffffff16565b91505b6000612010670de0b6b3a7640000612002611fdd670de0b6b3a7640000896001015461285890919063ffffffff16565b611ff4878a6000015461285890919063ffffffff16565b61253090919063ffffffff16565b61257a90919063ffffffff16565b905080965050505050505092915050565b612029611ba9565b61209b576040517f08c379a00000000000000000000000000000000000000000000000000000000081526004018080602001828103825260208152602001807f4f776e61626c653a2063616c6c6572206973206e6f7420746865206f776e657281525060200191505060405180910390fd5b6000600483815481106120aa57fe5b90600052602060002090600c02019050818160030181905550505050565b6000600482815481106120d757fe5b90600052602060002090600c0201905060006006600084815260200190815260200160002060003373ffffffffffffffffffffffffffffffffffffffff1673ffffffffffffffffffffffffffffffffffffffff168152602001908152602001600020905061214361158f565b61214c836125c4565b612181670de0b6b3a76400006121738460070154846000015461285890919063ffffffff16565b61257a90919063ffffffff16565b8160010181905550505050565b6000806000600480549050905060008090505b8181101561220b57600481815481106121b657fe5b90600052602060002090600c0201600b0160009054906101000a900460ff16156121fe57600481815481106121e757fe5b90600052602060002090600c020160040154830192505b80806001019150506121a1565b50819250505090565b60006004828154811061222357fe5b90600052602060002090600c0201600a01549050919050565b60056020528060005260406000206000915090505481565b600080600061226161318e565b6006600086815260200190815260200160002060003373ffffffffffffffffffffffffffffffffffffffff1673ffffffffffffffffffffffffffffffffffffffff1681526020019081526020016000206040518060800160405290816000820154815260200160018201548152602001600282015481526020016003820154815250509050806000015181602001518260600151935093509350509193909250565b6000811161235c576040517f08c379a000000000000000000000000000000000000000000000000000000000815260040180806020018281038252603f8152602001806131e2603f913960400191505060405180910390fd5b60006004838154811061236b57fe5b90600052602060002090600c0201905060006006600085815260200190815260200160002060003373ffffffffffffffffffffffffffffffffffffffff1673ffffffffffffffffffffffffffffffffffffffff16815260200190815260200160002090506124203330858560000160009054906101000a900473ffffffffffffffffffffffffffffffffffffffff1673ffffffffffffffffffffffffffffffffffffffff16612b41909392919063ffffffff16565b61242861158f565b612431846125c4565b600081600001541415612448574381600201819055505b61245f838260000154612ab990919063ffffffff16565b816000018190555061249c670de0b6b3a764000061248e8460070154846000015461285890919063ffffffff16565b61257a90919063ffffffff16565b816001018190555050505050565b6124b2611ba9565b612524576040517f08c379a00000000000000000000000000000000000000000000000000000000081526004018080602001828103825260208152602001807f4f776e61626c653a2063616c6c6572206973206e6f7420746865206f776e657281525060200191505060405180910390fd5b61252d81612c2e565b50565b600061257283836040518060400160405280601e81526020017f536166654d6174683a207375627472616374696f6e206f766572666c6f770000815250612d72565b905092915050565b60006125bc83836040518060400160405280601a81526020017f536166654d6174683a206469766973696f6e206279207a65726f000000000000815250612e32565b905092915050565b6000600482815481106125d357fe5b90600052602060002090600c0201905060006006600084815260200190815260200160002060003373ffffffffffffffffffffffffffffffffffffffff1673ffffffffffffffffffffffffffffffffffffffff168152602001908152602001600020905060008160000154111561279b5760006126508433611ddd565b9050600061265c611cfc565b90508082111561266a578091505b600082111561277d57600260009054906101000a900473ffffffffffffffffffffffffffffffffffffffff1673ffffffffffffffffffffffffffffffffffffffff1663a9059cbb33846040518363ffffffff1660e01b8152600401808373ffffffffffffffffffffffffffffffffffffffff1673ffffffffffffffffffffffffffffffffffffffff16815260200182815260200192505050602060405180830381600087803b15801561271c57600080fd5b505af1158015612730573d6000803e3d6000fd5b505050506040513d602081101561274657600080fd5b8101908080519060200190929190505050508184600401600082825403925050819055508184600a01600082825401925050819055505b43836002018190555081836003016000828254019250508190555050505b505050565b6128538363a9059cbb60e01b8484604051602401808373ffffffffffffffffffffffffffffffffffffffff1673ffffffffffffffffffffffffffffffffffffffff16815260200182815260200192505050604051602081830303815290604052907bffffffffffffffffffffffffffffffffffffffffffffffffffffffff19166020820180517bffffffffffffffffffffffffffffffffffffffffffffffffffffffff8381831617835250505050612ef8565b505050565b60008083141561286b57600090506128d8565b600082840290508284828161287c57fe5b04146128d3576040517f08c379a00000000000000000000000000000000000000000000000000000000081526004018080602001828103825260218152602001806132786021913960400191505060405180910390fd5b809150505b92915050565b6000600484815481106128ed57fe5b90600052602060002090600c02019050806005015443111580156129115750600182145b1561291c5750612aac565b600081600601549050600081141561293d5760008260070181905550612989565b61298061296d8261295f670de0b6b3a76400008861285890919063ffffffff16565b61257a90919063ffffffff16565b8360070154612ab990919063ffffffff16565b82600701819055505b43826005018190555060018314156129b2578382600401600082825401925050819055506129c5565b8382600401600082825403925050819055505b8160000160009054906101000a900473ffffffffffffffffffffffffffffffffffffffff1673ffffffffffffffffffffffffffffffffffffffff166370a08231306040518263ffffffff1660e01b8152600401808273ffffffffffffffffffffffffffffffffffffffff1673ffffffffffffffffffffffffffffffffffffffff16815260200191505060206040518083038186803b158015612a6657600080fd5b505afa158015612a7a573d6000803e3d6000fd5b505050506040513d6020811015612a9057600080fd5b8101908080519060200190929190505050826006018190555050505b505050565b600033905090565b600080828401905083811015612b37576040517f08c379a000000000000000000000000000000000000000000000000000000000815260040180806020018281038252601b8152602001807f536166654d6174683a206164646974696f6e206f766572666c6f77000000000081525060200191505060405180910390fd5b8091505092915050565b612c28846323b872dd60e01b858585604051602401808473ffffffffffffffffffffffffffffffffffffffff1673ffffffffffffffffffffffffffffffffffffffff1681526020018373ffffffffffffffffffffffffffffffffffffffff1673ffffffffffffffffffffffffffffffffffffffff1681526020018281526020019350505050604051602081830303815290604052907bffffffffffffffffffffffffffffffffffffffffffffffffffffffff19166020820180517bffffffffffffffffffffffffffffffffffffffffffffffffffffffff8381831617835250505050612ef8565b50505050565b600073ffffffffffffffffffffffffffffffffffffffff168173ffffffffffffffffffffffffffffffffffffffff161415612cb4576040517f08c379a00000000000000000000000000000000000000000000000000000000081526004018080602001828103825260268152602001806132216026913960400191505060405180910390fd5b8073ffffffffffffffffffffffffffffffffffffffff166000809054906101000a900473ffffffffffffffffffffffffffffffffffffffff1673ffffffffffffffffffffffffffffffffffffffff167f8be0079c531659141344cd1fd0a4f28419497f9722a3daafe3b4186f6b6457e060405160405180910390a3806000806101000a81548173ffffffffffffffffffffffffffffffffffffffff021916908373ffffffffffffffffffffffffffffffffffffffff16021790555050565b6000838311158290612e1f576040517f08c379a00000000000000000000000000000000000000000000000000000000081526004018080602001828103825283818151815260200191508051906020019080838360005b83811015612de4578082015181840152602081019050612dc9565b50505050905090810190601f168015612e115780820380516001836020036101000a031916815260200191505b509250505060405180910390fd5b5060008385039050809150509392505050565b60008083118290612ede576040517f08c379a00000000000000000000000000000000000000000000000000000000081526004018080602001828103825283818151815260200191508051906020019080838360005b83811015612ea3578082015181840152602081019050612e88565b50505050905090810190601f168015612ed05780820380516001836020036101000a031916815260200191505b509250505060405180910390fd5b506000838581612eea57fe5b049050809150509392505050565b612f178273ffffffffffffffffffffffffffffffffffffffff16613143565b612f89576040517f08c379a000000000000000000000000000000000000000000000000000000000815260040180806020018281038252601f8152602001807f5361666545524332303a2063616c6c20746f206e6f6e2d636f6e74726163740081525060200191505060405180910390fd5b600060608373ffffffffffffffffffffffffffffffffffffffff16836040518082805190602001908083835b60208310612fd85780518252602082019150602081019050602083039250612fb5565b6001836020036101000a0380198251168184511680821785525050505050509050019150506000604051808303816000865af19150503d806000811461303a576040519150601f19603f3d011682016040523d82523d6000602084013e61303f565b606091505b5091509150816130b7576040517f08c379a00000000000000000000000000000000000000000000000000000000081526004018080602001828103825260208152602001807f5361666545524332303a206c6f772d6c6576656c2063616c6c206661696c656481525060200191505060405180910390fd5b60008151111561313d578080602001905160208110156130d657600080fd5b810190808051906020019092919050505061313c576040517f08c379a000000000000000000000000000000000000000000000000000000000815260040180806020018281038252602a815260200180613299602a913960400191505060405180910390fd5b5b50505050565b60008060007fc5d2460186f7233c927e7db2dcc703c0e500b653ca82273b7bfad8045d85a47060001b9050833f915080821415801561318557506000801b8214155b92505050919050565b604051806080016040528060008152602001600081526020016000815260200160008152509056fe506f6c6b614272696467654d61737465724661726d65723a3a77697468647261773a206e6f7420676f6f64506f6c6b614272696467654d61737465724661726d65723a3a6465706f7369743a20616d6f756e74206d7573742062652067726561746572207468616e20304f776e61626c653a206e6577206f776e657220697320746865207a65726f2061646472657373506f6c6b614272696467654d61737465724661726d3a3a6164643a206c7020697320616c726561647920696e20706f6f6c536166654d6174683a206d756c7469706c69636174696f6e206f766572666c6f775361666545524332303a204552433230206f7065726174696f6e20646964206e6f742073756363656564a264697066735822122046a44fe79cd70ac8a2178d0a152ffafe00eb6a89cc2c5f277c380d08117a967b64736f6c63430006020033506f6c6b614272696467653a204465666c6174696f6e617279204661726d696e67",
  "source": "pragma solidity >=0.6.0;\r\n\r\nimport \"@openzeppelin/contracts/token/ERC20/SafeERC20.sol\";\r\nimport \"@openzeppelin/contracts/math/SafeMath.sol\";\r\nimport \"@openzeppelin/contracts/ownership/Ownable.sol\";\r\nimport \"./PolkaBridge.sol\";\r\n\r\n// import \"@chainlink/contracts/src/v0.6/interfaces/AggregatorV3Interface.sol\";\r\n//import \"@openzeppelin/contracts/token/ERC20/ERC20.sol\";\r\n//import \"@uniswap/v2-periphery/contracts/interfaces/IUniswapV2Router02.sol\";\r\n\r\ncontract PolkaBridgeMasterFarm is Ownable {\r\n    string public name = \"PolkaBridge: Deflationary Farming\";\r\n    using SafeMath for uint256;\r\n    using SafeERC20 for IERC20;\r\n\r\n    struct UserInfo {\r\n        uint256 amountLP;\r\n        uint256 rewardDebt;\r\n        uint256 rewardDebtAtBlock;\r\n        uint256 rewardClaimed;\r\n    }\r\n\r\n    struct PoolInfo {\r\n        IERC20 lpToken;\r\n        IERC20 tokenA;\r\n        IERC20 tokenB;\r\n        uint256 multiplier;\r\n        uint256 lastPoolReward; //history pool reward\r\n        uint256 lastRewardBlock;\r\n        uint256 lastLPBalance;\r\n        uint256 accPBRPerShare;\r\n        uint256 startBlock;\r\n        uint256 stopBlock;\r\n        uint256 totalRewardClaimed;\r\n        bool isActived;\r\n    }\r\n\r\n    PolkaBridge public polkaBridge;\r\n    uint256 public START_BLOCK;\r\n\r\n    //pool Info\r\n    PoolInfo[] public poolInfo;\r\n    mapping(address => uint256) public poolId1;\r\n    // Info of each user that stakes LP tokens. pid => user address => info\r\n    mapping(uint256 => mapping(address => UserInfo)) public userInfo;\r\n\r\n    constructor(PolkaBridge _polkaBridge, uint256 _startBlock) public {\r\n        polkaBridge = _polkaBridge;\r\n        START_BLOCK = _startBlock;\r\n    }\r\n\r\n    function poolBalance() public view returns (uint256) {\r\n        return polkaBridge.balanceOf(address(this));\r\n    }\r\n\r\n    // Add a new lp to the pool. Can only be called by the owner.\r\n    function add(IERC20 _lpToken,IERC20 _tokenA, IERC20 _tokenB, uint256 _multiplier, uint256 _startBlock) public onlyOwner {\r\n        require(\r\n            poolId1[address(_lpToken)] == 0,\r\n            \"PolkaBridgeMasterFarm::add: lp is already in pool\"\r\n        );\r\n\r\n        uint256 _lastRewardBlock =\r\n            block.number > START_BLOCK ? block.number : START_BLOCK;\r\n\r\n        poolId1[address(_lpToken)] = poolInfo.length + 1;\r\n        poolInfo.push(\r\n            PoolInfo({\r\n                lpToken: _lpToken,\r\n                tokenA: _tokenA,\r\n                tokenB: _tokenB,\r\n                multiplier: _multiplier,\r\n                lastRewardBlock: _lastRewardBlock,\r\n                lastPoolReward: 0,\r\n                lastLPBalance: 0,\r\n                accPBRPerShare: 0,\r\n                startBlock: _startBlock > 0 ? _startBlock : block.number,\r\n                stopBlock: 0,\r\n                totalRewardClaimed: 0,\r\n                isActived: true\r\n            })\r\n        );\r\n\r\n        massUpdatePools();\r\n    }\r\n\r\n    function getChangePoolReward(uint256 _pid, uint256 _totalMultiplier) public view returns (uint256) {\r\n        uint256 changePoolReward;\r\n        if (_totalMultiplier == 0) {\r\n            changePoolReward = 0;\r\n        }\r\n        else {\r\n            uint256 currentPoolBalance = poolBalance();\r\n            uint256 totalLastPoolReward = getTotalLastPoolReward();\r\n            changePoolReward = ((currentPoolBalance.sub(totalLastPoolReward)).mul(poolInfo[_pid].multiplier).mul(1e18)).div(_totalMultiplier);\r\n        }\r\n\r\n        if (changePoolReward <= 0) {\r\n            changePoolReward = 0;\r\n        }\r\n\r\n        return changePoolReward;\r\n    }\r\n\r\n    function massUpdatePools() public {\r\n        uint256 length = poolInfo.length;\r\n        uint256 totalMultiplier = countTotalMultiplier();\r\n        for (uint256 pid = 0; pid < length; pid++) {\r\n            if (poolInfo[pid].isActived) {\r\n                uint256 changePoolReward = getChangePoolReward(pid, totalMultiplier);\r\n                updatePool(pid, changePoolReward, 1);\r\n            }\r\n        }\r\n    }\r\n\r\n    function getTotalLastPoolReward() public view returns (uint256) {\r\n        uint256 total;\r\n        uint256 length = poolInfo.length;\r\n        for (uint256 pid = 0; pid < length; pid++) {\r\n            if (poolInfo[pid].isActived) {\r\n                total += poolInfo[pid].lastPoolReward;\r\n            }\r\n        }\r\n        return total;\r\n    }\r\n\r\n    // Update reward variables of the given pool to be up-to-date.\r\n    function updatePool(\r\n        uint256 _pid,\r\n        uint256 _changePoolReward,\r\n        uint256 flag\r\n    ) internal {\r\n        PoolInfo storage pool = poolInfo[_pid];\r\n        if (block.number <= pool.lastRewardBlock && flag==1) {\r\n            return;\r\n        }\r\n        uint256 lpSupply = pool.lastLPBalance;\r\n        if (lpSupply == 0) { // first deposit\r\n            pool.accPBRPerShare = 0;\r\n        } else {\r\n            pool.accPBRPerShare = pool.accPBRPerShare.add(\r\n                (_changePoolReward.mul(1e18).div(lpSupply))\r\n            );\r\n        }\r\n        pool.lastRewardBlock = block.number;\r\n\r\n        if (flag == 1) {\r\n            pool.lastPoolReward += _changePoolReward;\r\n        } else {\r\n            pool.lastPoolReward -= _changePoolReward;\r\n        }\r\n\r\n        pool.lastLPBalance = pool.lpToken.balanceOf(address(this));\r\n    }\r\n\r\n    function pendingReward(uint256 _pid, address _user)\r\n        public\r\n        view\r\n        returns (uint256)\r\n    {\r\n        PoolInfo storage pool = poolInfo[_pid];\r\n        UserInfo storage user = userInfo[_pid][_user];\r\n        uint256 lpSupply = pool.lpToken.balanceOf(address(this));\r\n        uint256 temptAccPBRPerShare = pool.accPBRPerShare;\r\n        uint256 totalMultiplier = countTotalMultiplier();\r\n\r\n        if (block.number > pool.lastRewardBlock && lpSupply > 0) {\r\n            temptAccPBRPerShare = pool.accPBRPerShare.add(\r\n                (getChangePoolReward(_pid, totalMultiplier).mul(1e18).div(lpSupply))\r\n            );\r\n        }\r\n\r\n        uint256 pending = (\r\n                user.amountLP.mul(temptAccPBRPerShare).sub(\r\n                    user.rewardDebt.mul(1e18)\r\n                )\r\n            ).div(1e18);\r\n\r\n        return pending;\r\n    }\r\n\r\n    function claimReward(uint256 _pid) public {\r\n        PoolInfo storage pool = poolInfo[_pid];\r\n        UserInfo storage user = userInfo[_pid][msg.sender];\r\n\r\n        massUpdatePools();\r\n        _harvest(_pid);\r\n\r\n        user.rewardDebt = user.amountLP.mul(pool.accPBRPerShare).div(1e18);\r\n    }\r\n\r\n    function _harvest(uint256 _pid) internal {\r\n        PoolInfo storage pool = poolInfo[_pid];\r\n        UserInfo storage user = userInfo[_pid][msg.sender];\r\n\r\n        if (user.amountLP > 0) {\r\n            uint256 pending = pendingReward(_pid, msg.sender);\r\n            uint256 masterBal = poolBalance();\r\n\r\n            if (pending > masterBal) {\r\n                pending = masterBal;\r\n            }\r\n\r\n            if (pending > 0) {\r\n                polkaBridge.transfer(msg.sender, pending);\r\n                pool.lastPoolReward -= pending;\r\n                pool.totalRewardClaimed += pending;\r\n            }\r\n\r\n            user.rewardDebtAtBlock = block.number;\r\n            user.rewardClaimed += pending;\r\n        }\r\n    }\r\n\r\n    function deposit(uint256 _pid, uint256 _amount) public {\r\n        require(\r\n            _amount > 0,\r\n            \"PolkaBridgeMasterFarmer::deposit: amount must be greater than 0\"\r\n        );\r\n\r\n        PoolInfo storage pool = poolInfo[_pid];\r\n        UserInfo storage user = userInfo[_pid][msg.sender];\r\n\r\n        pool.lpToken.safeTransferFrom(\r\n            address(msg.sender),\r\n            address(this),\r\n            _amount\r\n        );\r\n\r\n        massUpdatePools();\r\n        _harvest(_pid);\r\n\r\n        if (user.amountLP == 0) {\r\n            user.rewardDebtAtBlock = block.number;\r\n        }\r\n\r\n        user.amountLP = user.amountLP.add(_amount);\r\n        user.rewardDebt = user.amountLP.mul(pool.accPBRPerShare).div(1e18);\r\n    }\r\n\r\n    function withdraw(uint256 _pid, uint256 _amount) public {\r\n        PoolInfo storage pool = poolInfo[_pid];\r\n        UserInfo storage user = userInfo[_pid][msg.sender];\r\n        require(\r\n            user.amountLP >= _amount,\r\n            \"PolkaBridgeMasterFarmer::withdraw: not good\"\r\n        );\r\n\r\n        if (_amount > 0) {\r\n            massUpdatePools();\r\n            _harvest(_pid);\r\n            pool.lpToken.safeTransfer(address(msg.sender), _amount);\r\n            pool.lastLPBalance = pool.lpToken.balanceOf(address(this));\r\n\r\n            // update pool\r\n            // updatePool(_pid, 0, 1);\r\n            user.amountLP = user.amountLP.sub(_amount);\r\n            user.rewardDebt = user.amountLP.mul(pool.accPBRPerShare).div(1e18);\r\n        }\r\n    }\r\n\r\n    function emergencyWithdraw(uint256 _pid) public {\r\n        PoolInfo storage pool = poolInfo[_pid];\r\n        UserInfo storage user = userInfo[_pid][msg.sender];\r\n        pool.lpToken.safeTransfer(address(msg.sender), user.amountLP);\r\n\r\n        user.amountLP = 0;\r\n        user.rewardDebt = 0;\r\n    }\r\n\r\n    function getPoolInfo(uint256 _pid)\r\n        public\r\n        view\r\n        returns (\r\n            uint256,\r\n            uint256,\r\n            address,\r\n            uint256,\r\n            uint256,\r\n            uint256,\r\n            // bool,\r\n            uint256\r\n        )\r\n    //uint256\r\n    {\r\n        return (\r\n            poolInfo[_pid].lastRewardBlock,\r\n            poolInfo[_pid].multiplier,\r\n            address(poolInfo[_pid].lpToken),\r\n            poolInfo[_pid].lastPoolReward,\r\n            poolInfo[_pid].startBlock,\r\n            poolInfo[_pid].accPBRPerShare,\r\n            // poolInfo[_pid].isActived,\r\n            poolInfo[_pid].lpToken.balanceOf(address(this))\r\n            //poolInfo[_pid].lastLPBalance\r\n        );\r\n    }\r\n\r\n    function getUserInfo(uint256 _pid)\r\n        public\r\n        view\r\n        returns (\r\n            uint256,\r\n            uint256,\r\n            uint256\r\n        )\r\n    {\r\n        UserInfo memory user = userInfo[_pid][msg.sender];\r\n        return (user.amountLP, user.rewardDebt, user.rewardClaimed);\r\n    }\r\n\r\n    function stopPool(uint256 pid) public onlyOwner {\r\n        PoolInfo storage pool = poolInfo[pid];\r\n        pool.isActived = false;\r\n        pool.stopBlock = block.number;\r\n    }\r\n\r\n    function activePool(uint256 pid) public onlyOwner {\r\n        PoolInfo storage pool = poolInfo[pid];\r\n        pool.isActived = true;\r\n        pool.stopBlock = 0;\r\n    }\r\n\r\n    function changeMultiplier(uint256 pid, uint256 _multiplier) public onlyOwner {\r\n        PoolInfo storage pool = poolInfo[pid];\r\n        pool.multiplier = _multiplier;\r\n    }\r\n\r\n    function countActivePool() public view returns (uint256) {\r\n        uint256 length = 0;\r\n        for (uint256 i = 0; i < poolInfo.length; i++) {\r\n            if (poolInfo[i].isActived) length++;\r\n        }\r\n        return length;\r\n    }\r\n\r\n    function countTotalMultiplier() public view returns (uint256) {\r\n        uint256 totalMultiplier = 0;\r\n        for (uint256 i = 0; i < poolInfo.length; i++) {\r\n            if (poolInfo[i].isActived) totalMultiplier += poolInfo[i].multiplier;\r\n        }\r\n        return totalMultiplier.mul(1e18);\r\n    }\r\n\r\n    function totalRewardClaimed(uint256 _pid) public view returns (uint256) {\r\n        return poolInfo[_pid].totalRewardClaimed;\r\n    }\r\n\r\n    function avgRewardPerBlock(uint256 _pid) public view returns (uint256) {\r\n        uint256 totalMultiplier = countTotalMultiplier();\r\n        uint256 changePoolReward = getChangePoolReward(_pid, totalMultiplier);\r\n        uint256 totalReward = poolInfo[_pid].totalRewardClaimed + poolInfo[_pid].lastPoolReward + changePoolReward;\r\n        uint256 changeBlock;\r\n        if (block.number <= poolInfo[_pid].lastRewardBlock){\r\n            changeBlock = poolInfo[_pid].lastRewardBlock.sub(poolInfo[_pid].startBlock);\r\n        }\r\n        else {\r\n            changeBlock = block.number.sub(poolInfo[_pid].startBlock);\r\n        }\r\n\r\n        return totalReward.div(changeBlock);\r\n    }\r\n\r\n    receive() external payable {}\r\n}\r\n",
  "sourcePath": "C:/Users/thanhphi/Desktop/PolkaBridgeSolution/farming-app/contracts/PolkaBridgeMasterFarm.sol",
  "compiler": {
    "name": "solc",
    "version": "0.6.2+commit.bacdbe57.Emscripten.clang"
  },
  "schemaVersion": "3.3.3",
  "updatedAt": "2021-03-16T10:56:36.511Z",
  "networkType": "ethereum",
  "devdoc": {
    "methods": {
      "isOwner()": {
        "details": "Returns true if the caller is the current owner."
      },
      "owner()": {
        "details": "Returns the address of the current owner."
      },
      "renounceOwnership()": {
        "details": "Leaves the contract without owner. It will not be possible to call `onlyOwner` functions anymore. Can only be called by the current owner.     * NOTE: Renouncing ownership will leave the contract without an owner, thereby removing any functionality that is only available to the owner."
      },
      "transferOwnership(address)": {
        "details": "Transfers ownership of the contract to a new account (`newOwner`). Can only be called by the current owner."
      }
    }
  },
  "userdoc": {
    "methods": {}
  }
}